:020000041000EA
:1000000000B5324B212058609868022188439860DF
:10001000D860186158612E4B002199600221596106
:100020000121F02299502B49196001219960352056
:1000300000F044F80222904214D00621196600F024
:1000400034F8196E01211966002018661A6600F04E
:100050002CF8196E196E196E052000F02FF8012189
:100060000842F9D1002199601B49196000215960AB
:100070001A491B48016001219960EB211966A021F2
:10008000196600F012F800219960164914480160C1
:100090000121996001BC002800D000471248134993
:1000A000086003C880F30888084703B5996A0420EC
:1000B0000142FBD001200142F8D103BD02B5186610
:1000C0001866FFF7F2FF186E186E02BD00000240BE
:1000D000000000180000070000035F00212200005C
:1000E000F4000018222000A00001001008ED00E03C
:1000F00000000000000000000000000074B24E7A12
:1001000000200420F7010010C3010010C5010010F9
:10011000C1010010C1010010C1010010C101001097
:10012000C1010010C1010010C1010010C701001081
:10013000C1010010C1010010C9010010CB01001065
:10014000CD010010CD010010CD010010CD01001037
:10015000CD010010CD010010CD010010CD01001027
:10016000CD010010CD010010CD010010CD01001017
:10017000CD010010CD010010CD010010CD01001007
:10018000CD010010CD010010CD010010CD010010F7
:10019000CD010010CD010010CD010010CD010010E7
:1001A000CD010010CD010010CD010010CD010010D7
:1001B000CD010010CD010010CD010010CD010010C7
:1001C00000BE00BE00BE00BE00BE00BE00F051F882
:1001D000103800BEF2EB8871E00200100C03001032
:1001E0003402001090A31AE700202449086006C8D2
:1001F00081F30888104722480068002835D10DA4F3
:100200000ECC002902D000F012F8F9E71D491E4A71
:10021000002000E001C19142FCD11C4988471C49E3
:1002200088471C49884700BEFDE701C901C29A42C0
:10023000FBD370470C030010C0000020283F0020B3
:1002400074410010303F002010460020604800102C
:10025000000004200000042060480010001004206A
:10026000001004200000000070470B4800F018F850
:100270000047EFF30580C0B27047000008ED00E0D2
:10028000000000D020460020FC4A0020B9220020B7
:1002900039010020A923002057560000000000006B
:1002A00001B40248844601BC604700BFB11300207E
:1002B00006005250ABB360538844002006005250F1
:1002C000861C030298440020060052505422A29D2E
:1002D000B444002005005250DE65F4686048001008
:1002E000A8410020FC410020D4020010C8020010E8
:1002F000BC020010C0440020B0020010CC4400201A
:0C030000D84400201445002020450020B7
:10030C00F8B5C04610B5064C2378002B07D1054B29
:10031C00002B02D0044800E000BF0123237010BD65
:10032C002049002000000000283F0020044B10B59D
:10033C00002B03D00349044800E000BF10BDC046A9
:10034C000000000024490020283F002070B5012047
:10035C0001F02CF9054C064B01202361054B1D685F
:10036C0001F024F917232560E36170BD40000050B3
:10037C00558F5F002845002010B5FFF7E7FF03F00D
:10038C0045FE1B4B1B48996A490003F033FE1A4883
:10039C0003F08EFD194803F08BFD194C0021200051
:1003AC0003F00AFF002816D00021200003F004FF00
:1003BC00002819D120000021083003F01FFF00286D
:1003CC000FD020000021083003F018FF002805D0C2
:1003DC0003DF002010BD02F021F9E5E702F01EF961
:1003EC00F6E702F01BF9ECE702F018F9E2E7C04679
:1003FC0000400540744100207C41002090410020C9
:10040C00D445002070B5EFF3108C72B60D4D2B68EF
:10041C00002BFCD0BFF35F8F0724CB08C618C05C41
:10042C0001230C40A3401C000440034207D10343AA
:10043C003370BFF35F8F2C608CF3108870BD10008D
:10044C0002F0D4F82C0100D0024B18688007C00FC2
:10045C007047C04600C006400021044B044ABFF35D
:10046C005F8F02C39342FAD17047C046000100D09F
:10047C00800100D0044A1078431CDBB2172B00D942
:10048C00102313707047C0462C45002030B50C204B
:10049C0083B001F06FF8FFF7D7FF00280ED0944B14
:1004AC00944A1A605A609A60DA601A615A619A61C9
:1004BC00DA611A62904A5A6203B030BD8F4CA06761
:1004CC0001F060F801228E4B1A60636C012BFCD199
:1004DC0003228C4B1A60894A936B012BFCD101339C
:1004EC000121894A89480093043300F0EBFF05236E
:1004FC00874A00930121874800F0E4FF864B5A6835
:10050C00FF2A02D8802252005A608022784C7D4B00
:10051C0021691201804D1A60002905D0606901F033
:10052C0069F901300138FDD1E0217B4B02201A68BA
:10053C001140802252012A4311601968484003215E
:10054C000140116004219A681142FCD08022802164
:10055C0092012A4309011160802252005A606F4BAC
:10056C0023616F4B5968FF2900D85A600321644AF4
:10057C006B4B116002399A681142FCD0E0201A686A
:10058C001040802252011A43106018684840032121
:10059C0001400220116062498A681042FCD080221E
:1005AC0092011343802212011A6080225D4B52008B
:1005BC004A6063615C4B5968FF2900D85A608022FD
:1005CC005A4BE1691201584D1A60002905D0606937
:1005DC0001F010F901300138FDD1E02252490B68CD
:1005EC001A4080235B012B431A60802380229B01DD
:1005FC002B4312011A6080223E4B52004A60E36189
:10060C004B4B5968FF2900D85A608022494B216A0C
:10061C001201474D1A60002905D0606901F0EAF813
:10062C0001300138FDD1E02241490B681A4080238A
:10063C005B012B431A60802380229B012B43120108
:10064C001A60802380225B004B602A4BD20223620B
:10065C00394B5968914200D25A608022374B616AFB
:10066C001201354D1A60002905D0606901F0C2F8FD
:10067C0001300138FDD1E0222F490B681A4080234C
:10068C005B012B431A60802380229B012B431201B8
:10069C001A608023DB024B60174B6362284B5A684D
:1006AC00FF2A02D8802252005A608022254BA16971
:1006BC001201234D1A60002905D0606901F09AF8E7
:1006CC0001300138FDD1E0221D490B681A4080230E
:1006DC005B012B431A60802380229B012B43120168
:1006EC001A6080235B004B600E4BA361E4E6C046AE
:1006FC004C4A0020006CDC021BB70000008000405C
:10070C003CB0004030B00040002F685900800240DF
:10071C00008C864700C0024030800040001BB700B0
:10072C003C800040405973075480004054B0004056
:10073C006080004060B000406C8000406CB00040B5
:10074C004880004048B00040014B8000C0587047C2
:10075C004C4A0020094A830094464022634410B559
:10076C001C68C0006240C024144080225201134314
:10077C001C60034B9C466044416010BD04C00140AA
:10078C000040014001238340002904D0034A136038
:10079C00034A13607047034A1360FBE780E200E0F2
:1007AC0000E100E080E100E0024B10309B6880002B
:1007BC00C058704700ED00E070B50D00EFF31086E7
:1007CC0072B60F4A1368002BFCD0BFF35F8F0D4B32
:1007DC0010309B6884001B590B4A934203D09D42F6
:1007EC0001D001F01BFF074B9B681D51BFF35F8FBE
:1007FC00BFF35F8F0022024B1A6086F3108870BD26
:10080C00240100D000ED00E0CD010010F0B5DE4673
:10081C0057464E464546E0B50C0083B0EFF3108AC0
:10082C0072B65A4A1368002BFCD0BFF35F8F1022AC
:10083C00914681444A46564B96009B689D59554BB0
:10084C0098469D4205D0A54216D0534FEB1B2F2B3B
:10085C0014D94F4B9B689D51BFF35F8FBFF35F8FD4
:10086C0000224A4B1A608AF3108803B0F0BCBB46D6
:10087C00B246A946A046F0BD1D00EAE7012383401D
:10088C009B465A46454B1B681A4000925A46444BAD
:10089C001A60BFF35F8F03F05FFC0190002803D058
:1008AC00814501D001F0BAFE01232A009A439368D6
:1008BC009C4208D15FE04B005B189B00FB189968C9
:1008CC00A14211D01A00062151560029F3DA009BDF
:1008DC00002B05D05A46334B1A60304B1A60B8E7E0
:1008EC005A462F4B1A60B4E706215956002921DBD2
:1008FC004A00501880003C188046A0689860E07947
:10090C00D871062020569871002824DBA488F81A88
:10091C006405241544440019E0240005400D24020C
:10092C00204398805218204B9200BF181A781970E7
:10093C00BA71CCE70199002910D1FF3191711B4993
:10094C00918019490A789A71194ADB1B5B415A4309
:10095C00120D0A70BBE7BD200002E2E7154A1649EA
:10096C00D21A083A5002400D01439980134952089B
:10097C000A43DA80ABE70621515613000029B7DA97
:10098C00019A002AEAD14546DBE7C046240100D093
:10099C0000ED00E0CD0100103045002000E100E04A
:1009AC0080E100E080E200E0FA4A002000BDFFFF99
:1009BC00AAAA00006A45002000F0FFFF00F8FFFF24
:1009CC00F8B501250400054303F0C6FBEFF3108CCA
:1009DC0072B6214A1368002BFCD0BFF35F8F1F4EF9
:1009EC002100B7681E4A1F4B891A49414B431B0D06
:1009FC0059B28300F858A8421CD00623D3568B4218
:100A0C001CD01223D3568B4222D01E23D3568B429A
:100A1C0020D02A23D35603208B4210D0124B1A78A5
:100A2C001970A271BFF35F8F00220B4B1A608CF30D
:100A3C001088F8BDB2680D48D050EFE70020430095
:100A4C001B189B00D218FF239371094B9380E5E789
:100A5C000120F4E70220F2E7240100D000ED00E0D1
:100A6C0030450020AAAA0000FA4A0020CD0100104F
:100A7C0000BDFFFF054B064A1360064A1360536026
:100A8C009360D36013615361936170478080808061
:100A9C0000E400E004E400E0024B9C466144890061
:100AAC00016070474000003483680B4810B58446E1
:100ABC0061446244090112019A18591854684B6830
:100ACC0001209C4201D802D00020C0B210BD126897
:100ADC000B689A42F9D8F7E7FFFFFF0FF8B55746B6
:100AEC004E464546DE46E0B599460CAB1C780DAB40
:100AFC001B78060090469A460768002C11D1BC7BE7
:100B0C00002C42D065003B682D19033D59194B78D8
:100B1C00BB73002B00D1FB7300238B704B700B70DD
:100B2C0004E065003B682D19033D5919B2682A4B46
:100B3C0094464246E3181B0163441A604A465A60C5
:100B4C000A9A9A600B9ADA6000238B704B700B70C8
:100B5C007B7B9B46002B2BD022005946B8687B68C8
:100B6C0098473A68002816D05B4658465B005B44B1
:100B7C005519033BA870D118D35C002B00D06B70B7
:100B8C005B460C707B73A34513D0F0BCBB46B246DE
:100B9C00A946A046F8BD5B465B005B44033BD318FB
:100BAC009C705119525D002A00D05A705B460B7034
:100BBC007C7342464B46307D00F008FA051E06D089
:100BCC005346002B03D12100306800F021FC0E9B12
:100BDC00002BDAD01D70D8E7FFFFFF0FF0B5DE4613
:100BEC004E46574645460023E0B58DB00A936B4BF5
:100BFC008200D3580B90994600239B464B46079393
:100C0C0000F06AF9079C06000F006268EFF310858C
:100C1C0072B61368002BFCD022000794BFF35F8FD1
:100C2C002468637B9946002B67D092685C4B904696
:100C3C004B441B01984443461A685B68100019002A
:100C4C00801BB94100295FDD0B9800F0BFF9002330
:100C5C000026984600279A46079C6368BFF35F8F6F
:100C6C005A461A6085F310885346002B08D1002889
:100C7C00C6D10DB0F0BCBB46B246A946A046F0BDED
:100C8C000A9B414618024B461843D04708900991DD
:100C9C006268EFF3108572B61368002BFCD00794D2
:100CAC00BFF35F8F0899099A002A48DB114303D0E0
:100CBC00079B1B69002B5DD1079B1B68D97B002907
:100CCC0007D04A00521819688C4649466244033AC8
:100CDC0051704A46DA734B46079A013BD168CA5C9D
:100CEC000132CA545B46079A13615368BFF35F8F96
:100CFC005A461A6085F3108882E70023002698462E
:100D0C0000279A460020A7E7002901D100289BD193
:100D1C000021200000F0FEFA43461E685F689B68C5
:100D2C00079A9A464346DB689846D3684B44013B86
:100D3C001B780A931B020343136100208CE7236981
:100D4C00002BB9D033003C005B1A94411A002300ED
:100D5C00A74219D89F421BD05946049101210391F7
:100D6C004946029141460191514607980091FFF77F
:100D7C00B5FEB7E700F0B0F8089A099B06000F0023
:100D8C0092197B419942E5D901225242D317E3E7EC
:100D9C009642E1D901225242D317DDE7C04A002026
:100DAC00FFFFFF0F10B5124C6368002B04D00A2113
:100DBC001048FFF771FE10BD23000F4A1021206868
:100DCC0000F0C6F9032000F07BF8032000F06EF968
:100DDC0003200A4900F0B4F8FFF74CFB084B9C4683
:100DEC00032360442375074B80006060DC60DEE702
:100DFC0078450020DC4A0020690800209D0900206D
:100E0C0040000034C04A0020F0B5D6464F46464656
:100E1C00C0B5EFF305833F22134018001038EFF3F1
:100E2C00108C72B6204D2A68002AFCD0BFF35F8F5D
:100E3C000122110081401D4C884661631C4917003A
:100E4C000E788A463100C1400F400A4209D1BFF3E7
:100E5C005F8F2F608CF31088E0BCBA46B146A84671
:100E6C00F0BD14498200646A51588C420FD3124B66
:100E7C00D25843469E4353461E70BFF35F8F0023E8
:100E8C002B608CF31088002AE6D09047E4E70B4ADD
:100E9C009B00904643441A681A60BFF35F8F00238F
:100EAC002B608CF31088D7E7280100D00040054058
:100EBC00FB4A0020E04A00203C490020D03F05407E
:100ECC0010B50100024A0348FFF79CFA10BDC0465A
:100EDC00C0410020F94A0020034B596A0A00986A65
:100EEC00596A8A42FAD170470040054070B5040037
:100EFC000D00124A536A1900966A536A8B42FAD152
:100F0C003000190024184D41AB4211D80ED02B00E3
:100F1C000A494A6A9A42FCD307D1084A02E0516A4C
:100F2C00994202D1916AA142F9D370BDA642EED981
:100F3C00012301246442E5175B42E9E700400540C8
:100F4C0070B504000D00EFF3108672B61A4A1368E0
:100F5C00002BFCD0BFF35F8F002D1BD02000FFF7C0
:100F6C0023FC164981420AD02000FFF725FC012101
:100F7C002000FFF707FC0123A340114A1360114B1B
:100F8C00A400E550BFF35F8F00220B4B1A6086F371
:100F9C00108870BD0B4BA200D5500122A2400A490B
:100FAC0020000B7893430B700449FFF72FFC0021B2
:100FBC002000FFF7E7FBE5E7280100D0C90B002074
:100FCC00386005403C490020FB4A0020F0B54F46F4
:100FDC00D6464646C0B507002F4C616A0D00A66A7E
:100FEC00616AA942FAD18B4208D805D00120E0BC35
:100FFC00BA46B146A846F0BDB242F7D9EFF3108A13
:10100C0072B6264801680029FCD0BFF35F8F01251A
:10101C00BD402349204C8846097889462943C9B2EA
:10102C008C46414660460870391D1E488900656330
:10103C000A51B9000B50216A0020294219D0616A6B
:10104C000800A66A616A8142FAD18B4219D801D193
:10105C00B24216D8CC451DD00F4B1F201D625D63CC
:10106C0001230740BB40104A1E38136043464A46D2
:10107C001A70BFF35F8F0022084B1A608AF3108836
:10108C00B5E70020BFF35F8F0022044B1A608AF390
:10109C001088ACE70120ECE700400540280100D0A7
:1010AC00FB4A0020E04A002080E200E0EFF3108CC5
:1010BC0072B60A490B68002BFCD0BFF35F8F01237B
:1010CC008340074A0748136202789A430270BFF3C1
:1010DC005F8F00230B608CF310887047280100D0C1
:1010EC0000400540FB4A002070B5050014001600B6
:1010FC00002915D00C00002A12D080686B68984724
:10110C00296800280ED073009B196200033B12194A
:10111C00CB18033A9C7088188A5C002A15D106708B
:10112C00200070BD63001B197200033B9219CB1891
:10113C00033A9E7088188A5C002A02D1047034002D
:10114C00EEE75A7004703400EAE75A700670E7E76D
:10115C0030B583600023CCB2437301330473426017
:10116C008373C4730D000068012C06D9421C013333
:10117C00DBB2137003329C42F9D1FF2129404B00A2
:10118C005918002340180338437030BDF8B5CE46CB
:10119C00474606000C0080B5002907D04D000368B7
:1011AC006D18033D5A195778002F04D12000C0BC8C
:1011BC00B946B046F8BD7900C9190339884643448D
:1011CC005978894600215970517073683A00210092
:1011DC00806898473368002814D042469A18947057
:1011EC0059195B5D002B00D053700F7027004946D6
:1011FC003000FFF7CBFF390002003000FFF774FF1F
:10120C000400D3E7424641465D19AF709A185B5C07
:10121C00002B00D06B701470E9E7C046F0B5574650
:10122C004546DE464E46E0B50D006B0001685B1985
:10123C00DF1E0400C85D83B00192CA1900284CD08F
:10124C0043001B18033BCB185E78B446002E16D116
:10125C00019E002E3ED0E67B002E04D073009B191D
:10126C00CB18033B5D70E57300282FD1002353701E
:10127C0003B0F0BCBB46B246A946A046F0BD720016
:10128C006244033A89184A78904600224A70914683
:10129C005A70010032002000FFF726FF43468246B9
:1012AC00002B07D05B0021684344033BCB185A78D2
:1012BC00002A16D1424651462000FFF715FF21683F
:1012CC00019BCA19002BC6D10028CFD043001B1894
:1012DC00033BCB1800219970C8E7019B002BBAD1B6
:1012EC00C4E75000801803380918487883464846EC
:1012FC004870587041462000FFF7F6FE594680466C
:10130C002000FFF743FF414602002000FFF7ECFEF0
:10131C008046CFE7F0B557464546DE464E46E0B52B
:10132C0083B00191457B04006B0000685B19DF1EE4
:10133C00C15DC21900294ED04B005B18033BC3188A
:10134C005E78B446002E18D1019E002E40D0E67B6C
:10135C00002E04D073009B19C318033B5D70E5731A
:10136C00002931D1002328005370617303B0F0BC05
:10137C00BB46B246A946A046F0BD72006244033A91
:10138C008018427890460022427091465A70200094
:10139C003200FFF7A9FE43468246002B07D05B00C4
:1013AC0021684344033BCB185A78002A17D1424694
:1013BC0051462000FFF798FE019B01002068C219DE
:1013CC00002BC4D10029CDD04B005B18033BC318B4
:1013DC0000209870C6E7019B002BB8D1C2E75000E3
:1013EC008018033809184878834648464870587066
:1013FC0041462000FFF778FE594680462000FFF753
:10140C00C5FE414602002000FFF76EFE8046CEE787
:10141C0070B5040000292CD0437B8B422ED005687C
:10142C0048004018033828188278002A21D053002D
:10143C009B18033BEA5CEE188A4202D11BE0002A9F
:10144C0008D053009B18033BEB185A788A42F6D10C
:10145C0042785A7000230122837043702000FFF7FA
:10146C00DDFE617B02002000FFF73EFE6073012071
:10147C0000E0002070BD43783370EBE701221900C7
:10148C00FFF7CCFE60730120F4E7C04610B50400F2
:10149C00FEF7F0FF01002000FFF7FEFAFF23237197
:1014AC00BFF35F8F10BDC04610B50400FEF7E2FF1E
:1014BC0001002000FFF7F0FAFF23A380BFF35F8F3A
:1014CC0010BDC046F0B5C646040000B50C209046D1
:1014DC001F000E0000F08EF94101091A8D01691AE6
:1014EC00C90009188901404600F084F9069B3F04A5
:1014FC001A0323681743002B22DB1A4B1A4DE218F0
:10150C0053425A4180235B019C461203174B6244A1
:10151C001A60174B1A601100AB689943FBD1C022BB
:10152C00231D92011A4321232660A06013602368B7
:10153C00002BFCDA0823E760136080BCB846F0BDD2
:10154C003F2322681340B342D7D1A3681B051B0D60
:10155C008342D2D1EE22E368D2021340BB42CCD1FB
:10156C00EBE7C0460040FDBF00C0004000E000407B
:10157C0000F000408023024A9B000343D362704773
:10158C0000800540AA23064A1B0113602F2305493E
:10159C00D360054B19605368002BFCDA7047C046CA
:1015AC000040024000B0FA00006002407047C046A4
:1015BC0030B5002589B004000922002101A800954E
:1015CC0000F08EFF0922002105A8049500F088FF89
:1015DC004B236A466846137004A90D2202F088FE5C
:1015EC00152108222000694400F080FF09B030BDAD
:1015FC00142310B50100188804331B88984710BDBC
:10160C00162310B50100188802331B88984710BDAB
:10161C00F8B54746CE4680B50F1E19D0142399460F
:10162C00043304000025012698464B46188843468F
:10163C0021681B88984701C4431E984101354042DC
:10164C000640AF42F1D13000C0BCB946B046F8BD3F
:10165C000126F8E7F8B5040006200D00FFF774F832
:10166C00002844D02A4B2B49E21853425A4180237C
:10167C00DB039C469205284B62441A60274B1A6088
:10168C0010008B689843FBD1214B8021E3185A4200
:10169C005341234A5B00490099520620FFF754F846
:1016AC002900C00000F0A6F8C30921D14027012170
:1016BC00260080256162A36200232C36AD013543E0
:1016CC002B600620FFF740F83900800000F092F8FC
:1016DC006023E26A53406E221A4080235B0133433D
:1016EC001A60104B236310232B600D3BA364F8BDD1
:1016FC000D4A934203D900230C4F0D49D8E77F22A2
:10170C001040013040089F0119003F180300CFE73B
:10171C000080FCBF00C0004000E0004000F0004032
:10172C00F04A002001030000FEFF0000C0FF3F0054
:10173C00FFFF000001480421014B1847A045002081
:10174C00D113002010B5114C114B22689A4210D1C4
:10175C00104B62689A420CD10F4BA2689A4208D186
:10176C0000230E482360FFF743FF002103000020F5
:10177C009847074B00212360064B09486360064BD2
:10178C00A360FFF7B3FB0023236010BD10460020BD
:10179C00DE8116F0299B72BD7ABE59D355420000EA
:1017AC00400D0300124A936F9B0815D29066D166C8
:1017BC00002905D0FFE7FFE7FFE7516F106F704777
:1017CC0004B580210906C2175140002800D0C84337
:1017DC0002F08EFC002104BDF0B5146E556E576FEF
:1017EC00166FFFF7E3FF1466556657671667F0BD73
:1017FC00000000D0114A936F9B0813D210665166FB
:10180C00002905D0FFE7FFE7FFE7516F106F704726
:10181C0004B5002801D00020C04302F069FC00216F
:10182C0004BDC046F0B5146E556E576F166FFFF7BA
:10183C00E5FF1466556657671667F0BD000000D0CB
:10184C0094464E4A926F9208624601D230E0C046EE
:10185C00F0B54A4EB56F6D08FCD3346E756E776F6C
:10186C00366F00F025F89446444A1466556657675F
:10187C0016676246F0BDC0469446404A926F920885
:10188C00624601D258E0C046F0B53C4EB56F6D08CB
:10189C00FCD3346E756E776F366F00F04DF894464E
:1018AC00364A14665566576716676246F0BDC046E1
:1018BC00002B24DB11D000293EDA00B5C94340428D
:1018CC0000D1013100F038F8C943404200D1013158
:1018DC00DB43524200D1013300BD002AEBD100287A
:1018EC0001D1002905D00020C90FC90701D1C0437F
:1018FC00410800B502F0FCFB0022002300BD00B53E
:10190C0000290ADBDB43524200D1013300F014F80A
:10191C00C943404200D1013100BDC943404200D10E
:10192C000131DB43524200D1013300F005F8DB43B7
:10193C00524200D1013300BD002923D1002B18D114
:10194C00002A0CD0BC460D4F38667A660021002365
:10195C00FFE7FFE7FFE77A6F386F674670470028AD
:10196C0001D00748010000B502F0C2FB00220023A1
:10197C0000BD02000B00002000217047000000D0C9
:10198C00FFFFFFFF002B00D0BFE0130C28D1002A73
:10199C00E7D080B4114F39667A66FFE7FFE730B4C1
:1019AC00040C7B6F396F1B0423433B667A66FFE79D
:1019BC00FFE7FFE7C04684B27B6F3D6F1B042343F8
:1019CC003B667A66FFE7FFE7C04600232C042D0C2C
:1019DC007A6F386F00196941B0BC7047000000D0B5
:1019EC00F0B594460025140E01D112020835140FDF
:1019FC0001D112010435940F01D192000235D40F9C
:101A0C0001D152000135D40B0134254F7C66254C95
:101A1C003C660E0C93B2FFE7FFE7FFE73C6F6643B3
:101A2C00360C7703BE467343DF0B5B04C01AB94117
:101A3C00130C7343DB18C91ACE086643360CB64434
:101A4C0093B273431F0F1B01C01AB941130C73439C
:101A5C001F0B1B05C01AB941860D8F023E4366430E
:101A6C00360C092D24DB520A7243801A7703460A7E
:101A7C006643360C16235B1BDE40DF40BF19644601
:101A8C006643821B7046043506330100D940A840DA
:101A9C00C01900D30131A24206D20023F0BD0000D0
:101AAC00000000D0FFFFFFFF121B0130F3D3F1E762
:101ABC0009277F1BFE406446A2B27243801A00D2F3
:101ACC000139220C7243130C1204821A99410B0037
:101ADC007046043513370100F940A840801900D333
:101AEC000131002B02D1A2420AD2F0BD013000D349
:101AFC000131121BFAD2013BF8D1A24200D2F0BD47
:101B0C00013000D30131121BF7E7F0B51C0C00D0EB
:101B1C0080E00CB400251C0A04D11B02160E3343C2
:101B2C00120208351C0B04D11B01160F3343120192
:101B3C0004359C0B04D19B00960F33439200023565
:101B4C00DC0B02D192185B4101351C0097186441E3
:101B5C000134464F7C66464C3C660E0CFFE7FFE7B3
:101B6C00FFE7C0463C6F6643360C7703BE4697B220
:101B7C007743C01B00D20139C01B00D201399FB280
:101B8C007743C91BC91B170C77437E04FF0B801BC3
:101B9C00B941CE086643360C0C2D33DBB644120B20
:101BAC001F053A431B0B97B27743C01B00D2013978
:101BBC009FB27743C91B170C77433E043F0C801B25
:101BCC00B941860D8F023E43664329277F1BFE4099
:101BDC000C3D7746AF40BF1930BCA2B2ABB27243DA
:101BEC007343801A9941220C7243130C1204801A0D
:101BFC00994102000B000137001BA941F9D2781E54
:101C0C000021F0BD0C277F1BFE4077467F0BAF40B9
:101C1C00FF19E0E700245D1C07D0144F7D66396680
:101C2C00FFE7FFE7FFE7FFE73C6F95B29EB2654326
:101C3C006643401BB141150C1E0C654366433604CC
:101C4C002F0C3E432D04401BB141994204D202009B
:101C5C000B0020000021F0BD01D19042F7D3801A77
:101C6C00994101349942F2D3F6E70000000000D00C
:101C7C00FFFFFFFF48404140484018B41B4B5B68D6
:101C8C00FC46019308BD04DFD31C002018B4174B8D
:101C9C001B68FC46019308BD00DFDD1C0020944648
:101CAC00134A926F920809D2624618B40F4BDB6844
:101CBC00FC46019308BD0CDF951F00200C4AF0B5C3
:101CCC00146E556E576F166F6246FFF7EEFF084A9B
:101CDC001466556657671667F0BD18B4034B9B68BE
:101CEC00FC46019308BD08DF391E00202047002068
:101CFC00000000D0FFB550404240504059404B408E
:101D0C00594000E0FFB5154F4C00640D03D0BC42A8
:101D1C0004D10C0314D80020090D09055C00640DD6
:101D2C0003D0BC4204D11C030AD800221B0D1B0596
:101D3C0001264B4009D44B4003D58B4200D1824243
:101D4C00FFBD9942FCD19042FFBD0B43DB1803430E
:101D5C001343F5D0C9434918FFBD0000FF0700002D
:101D6C0000B5FFF7CFFF804100BDC04600B5FFF7BF
:101D7C00C9FF01D9002000BD012000BD00B5FFF74F
:101D8C00B9FF01D9002000BD012000BD00B5FFF74F
:101D9C00B1FF804100BD012040054A00121804D853
:101DAC005A00121801D800207047012070470020FB
:101DBC00704700000021002805D17047C11748402A
:101DCC00401AFAD0C90713B5064B1B6898470CBCD0
:101DDC00441CA2401005120B0349091B09051943A9
:101DEC00114310BDD84A00201F04000010B54C0050
:101DFC00620D8023D218DB00D21A5B057E2A10DD1F
:101E0C009E3A13DACC170903490819435242D140C0
:101E1C00640001341532202A05DAD04008436043AF
:101E2C0010BD002010BD0846604310BDC80FC0187F
:101E3C00013810BD18B4044B5B6AFC46019308BD15
:101E4C0024DF45210020000020470020132370B51B
:101E5C001D78012D15D010DD1C48FFF7D1FB1C4C53
:101E6C0001008022200000F041FB022D06D0194811
:101E7C00FFF7BEFB184B186070BD154C174BA364D5
:101E8C00F5E7164B124C23606360A360E36023619B
:101E9C006361A361E36123626362A362E362236310
:101EAC006363A363E36323646364A364E3642365F0
:101EBC006365A365E36523666366A366E3662367D0
:101ECC006367A367E367A364D1E7C046534400008C
:101EDC00204700204C330000D84A0020A11C0020D1
:101EEC0007B5604601880A0A0230DF2AFAD1C9B266
:101EFC00820804D3028840880004104300E0006884
:101F0C00014A5050039007BD204700200FB403BC7A
:101F1C000CBCF0B50124E407634000E0F0B50C0DF7
:101F2C00CF0F661E3605891B640503D3C943404297
:101F3C0000D30131640D03D0661CF60A07D0E41BF4
:101F4C0000207F00791C89078912803C24031D0D19
:101F5C00DF0F6E1E36059B1B6D0503D3DB43524210
:101F6C0000D301336D0D03D06E1CF60A07D0ED1BA8
:101F7C0000227F007B1C9B079B12803D2D032F1B97
:101F8C00661B58D4A446202E46DA20371400BC40D9
:101F9C001D00BD40F24033412A4380185941CB0FFC
:101FAC0005D0C943C04300226442504151416246AE
:101FBC004D0D28D10D0D07D100281FD024194041FB
:101FCC004941013A0D0DF9D0640006D3013000D31C
:101FDC000131002C01D140084000013A0BD4941C73
:101FEC00E40A04D112051144DB071944F0BDD907EA
:101FFC00204B194300E0D9070020F0BD0029DDD1AA
:10200C00002CDBD1F0BD0132C6074008CD072843B8
:10201C004908002EE1D0D9E73C2E29DA203E403782
:10202C001400BC4000D00124F24014431A00BB4001
:10203C001C43D317ACE7AC46202F08DA203604003B
:10204C00B4400D00B540F84039412843A5E73C2F7A
:10205C000CDA203F40360400B44000D00124F84094
:10206C0004430800B1400C43C117EAE71000190003
:10207C00002494E70000F07FF0B50C0D661E3605C9
:10208C00891BE60A6405640D02D0651CED0A04D0B8
:10209C00002001210905803C2403A4461C0D671E69
:1020AC003F05DB1BE70A6405640D02D0651CED0AD5
:1020BC0004D0002201231B05803C24037740644498
:1020CC0097B484B296B27443070C7E43150C6F43DD
:1020DC0080B26843361802D3012000043F18300444
:1020EC00350C00197D41844688B29AB250430C0CD1
:1020FC0062431F0C7C438EB27E43921902D301269D
:10210C003604A4191604170C3618674101BC81B2A9
:10211C009AB25143040C62431B0C5C4380B258438B
:10212C00121802D30120000424181004130C4018B8
:10213C0063412D185E410020474106BC88B293B222
:10214C0058430C0C6343120C544389B251435B1833
:10215C0002D301210904641819041A0C09186241EC
:10216C006D1856410020474118BCF902720D1143FD
:10217C00F0026A0D1043ED020A0D03D16D194041B6
:10218C004941013B124E9B1B7600B3420ED26D00AF
:10219C0007D30130002671416646354301D1400812
:1021AC0040001B05C918E4072144F0BD0BDA0133CC
:1021BC0006D1013004D101314F0D01D04908F2E7AD
:1021CC00E1070020F0BD013631050020EBE70000EF
:1021DC00FF030000F0B51C0D671E3F05DB1BE70A73
:1021EC006405640D02D0661CF60A04D0002201239B
:1021FC001B05803C2403D0252D060026F6432E66B5
:10220C001E096E66CE0FF619B44649004F0D02D06A
:10221C007E1CF60A03D000200021403F3F033E1BEA
:10222C00B600B444013F7F05C91B49082E6F013627
:10223C0076089C02950D25437543ED137543AD133C
:10224C0001356D10F603761B0CB4CC02450D2C43F6
:10225C00A2B2B3B25A43270C7B43350C6F43A4B2E2
:10226C006C431B1902D3012424043F191C041D0CBC
:10227C00A4187D4124196D41009A91B2ACB261430E
:10228C00170C7C432B0C5F4392B25A43A41802D315
:10229C0001221204BF182204230C52187B41019C0A
:1022AC006C431B19520ED9010A434401A01A81B286
:1022BC00B2B2514303145A43360C734387B277437B
:1022CC00D617D21900277E4136049B191704160C19
:1022DC007F185E417316ED18F301002680337541AB
:1022EC00A90F06D16400690AE8055B0A184309D2F4
:1022FC002FE00422944480337541A90AA8059B0A57
:10230C00184326D3404149412404009A019B0D00F7
:10231C005543641B4343E41A95B286B27543170CBC
:10232C007E43030C5F4392B25A43B61802D3012288
:10233C001204BF183204330C52197B4152429C4197
:10234C00002C02D40022013051414008CA0710432E
:10235C00490802B06246D7079210084BD218084BB6
:10236C009A4203D212058918C919F0BD0020002A1F
:10237C0001DC3900F0BD01331905F5E7FD03000060
:10238C00FE070000002200B5203200F004F808001F
:10239C0000BD000000220B150AD410B5944600F0C5
:1023AC0031F81414013400DA0021CB17144C2047F7
:1023BC000020002170476244343A0CD40C2A07DA0E
:1023CC0004009140904052422032D440214310BD31
:1023DC00D843D94310BD203207D40C469440524206
:1023EC0020321141D040204310BD0800C9172032C3
:1023FC0003D452422032104110BD1800190010BDF8
:10240C00772100200A0DCC0F531E1B05C91A52054B
:10241C0003D3C943404200D30131520D03D0531CA6
:10242C00DB0A07D0121B00206400611C890789128B
:10243C00803A1203014BD21A70470000FF030000D0
:10244C00132310B512481C78FFF7DAF80100012CA1
:10245C000AD003DD80220F4800F048F80E48FFF741
:10246C00C7F80E4B186010BD0A4C5422200000F027
:10247C003DF80B4B6365A365E36523666366A36652
:10248C00E36623676367A367E3672362E361E5E7BA
:10249C0053460000204800204C330000D84A00204E
:1024AC006522002007B5604601880A0A0230DF2A3F
:1024BC00FAD1C9B2820804D30288408800041043C0
:1024CC0000E00068014A5050039007BD20480020EE
:1024DC0001480421014B1847B0450020D1130020BE
:1024EC00014B1B6818470000B0450020014B5B688E
:1024FC0018470000B04500202C4B2D4A70B51A60CF
:10250C002C4A2D4B2D491A6014008B689C43FBD12F
:10251C002B4D2C4EB54208D2013E761BB60808CD89
:10252C00984723000134B342F9D1FDF7AFFF264A97
:10253C00214B1A60214A9368DB43DB01DD09002B38
:10254C00F9D14022214B224C224E9A675A671A67C6
:10255C00DA66B44208D223682000002B20D008345D
:10256C00FEF7A2FFB442F6D31B4E1C4CC022A1684E
:10257C003000FFF7BBFFA660FDF76EFFFEF77AFA9F
:10258C00FEF710FC164C174EB44208D2013E361B17
:10259C00B60808CC98472B0001359E42F9D170BD86
:1025AC000834FEF773FFB442D5D3DDE700E00040FA
:1025BC00BFCDFBFEFE7F3C0000F0004000C00040A1
:1025CC00F445002004460020FFFFFF0100F001400D
:1025DC00D4450020F44500200000002000ED00E070
:1025EC00044600201046002000BEFDE70FB400B5E5
:1025FC00084883B001F05CFC049B002B07D005A9B4
:10260C001800019101F0DAFA034801F051FC00BE08
:10261C00FDE7C046084200201842002010B50148D2
:10262C00FFF7E4FF1C4200207047C046F8B5574640
:10263C004E464546DE46E0B599460A9B07009A464B
:10264C000D9B8846934615000B9E9B0710D10C9B47
:10265C009E420DD29D1B14000E005D4422004B4681
:10266C00013431002020B847A542F7D1B0460B9E6B
:10267C00002E27D0444675195346AA1B013E985D7F
:10268C0021004B46B847002EF6D123002C0098466B
:10269C000D9B9B070FD55B46E51A0C9BAB420AD9E9
:1026AC004646984622004B46310020200135B8475B
:1026BC000134A845F6D82000F0BCBB46B246A9466A
:1026CC00A046F8BD2C00E3E7F0B54F464646D6468B
:1026DC00C0B584B098460EAB1B78129F99469446B1
:1026EC000D9C109B119EBA0725D4002E4BD19C42F9
:1026FC0000D3BFE001223A4092461F2C00D9B8E02B
:10270C000C9A551E302201E0202C03D001342A559E
:10271C00A342F9D85246002A0DD0A6420BD9202C40
:10272C0044D00C9A551E302201E0202C3ED00134AE
:10273C002A55B442F9D1FA064DD57A053FD4002C6E
:10274C0039D10F9B102B00D179E00F9B022B00D1BC
:10275C008AE030230C9A012413704B46002B3FD097
:10276C002D230C9A135501340C9B6246009303974E
:10277C00434602960194FFF759FF04B0E0BCBA46F9
:10278C00B146A846F0BD012215003D40AA463A428A
:10279C002FD04A46002A02D10C323A4200D0013ED8
:1027AC009C42BAD21F2CABD9202E27D92024FA0652
:1027BC00DAD57A0503D4A3422DD0A6422BD00F9B99
:1027CC00102B32D0022B20D0202CCDD030220C9BC1
:1027DC001B191A700134202CC6D04B46002BBFD1CC
:1027EC007B070DD43B07BFD520230C9A135501341E
:1027FC00BAE79C429FD21F2C00D881E720249AE78D
:10280C002B230C9A13550134AEE7202CACD00C9B27
:10281C001B1901343AE0631E012C92D00F9A102A36
:10282C002AD0022A2FD01C00D0E7BB060ED4202CB5
:10283C009AD00C9B1A19013478231370C4E7BB0689
:10284C000DD478230C9A01241370BFE7202C00D1EF
:10285C008AE758220C9B1B191A700134B4E75823D1
:10286C000C9A01241370B1E70C9A60330124137095
:10287C00ACE7202400265EE7023CBA06E9D40C9AA9
:10288C0012191C00D8E70C9A9246534462221A7013
:10289C009AE7C04610B5002800D110BD01F0B8FA77
:1028AC00FBE7C0460B0010B5002802D049681B6836
:1028BC00984710BDF0B5DE4657464E464546E0B546
:1028CC009BB09B46249B89469846259B0B900C926B
:1028DC004046424619009A46FFF75DFA002800D0A0
:1028EC00D8E0012240465146774B5242FFF74EFA50
:1028FC00002800D0CEE0012240465146734B524294
:10290C00FFF72EFA002800D0C4E000220023404636
:10291C005146FFF725FA002800D0B9E1424653464C
:10292C000A9209938023289ADB001A400E92289A67
:10293C001A4201D1062326930A9A099B16001343C7
:10294C0000D0C7E0289B002500261B0500D49BE186
:10295C0000230D93269A0D9B9A4200DC9FE1D01A1E
:10296C00431E26938023289ADB001A43002300275A
:10297C0028920D93279B0024BB4200D9DC1B022319
:10298C00289A1A400E92289A134203D07B427B411C
:10299C005B421C400D9B002B07D00A9809992A001A
:1029AC003300FFF77CF90A9009910022002340467E
:1029BC005146FFF7D5F9002805D080200006844643
:1029CC00099961440991289A414B0B9D134004933A
:1029DC00269B0A9A0293099B039400920193494601
:1029EC005B4628000C9A00F08BF90400002F62D093
:1029FC00289B220098061F23C0179843631C9846F7
:102A0C0049465B466530A8470D9B0025DA179C1894
:102A1C00DB0F9A465440013F01E0202D13D00AAA47
:102A2C0094461F23200063440A2101355E19FEF7EA
:102A3C00E1FE3031317020000A21FEF7DBFE26006A
:102A4C000400092EE9D805230693002304930A33C6
:102A5C000393534605970B9F029312AB0093424688
:102A6C005B46494638000195FFF72EFE0E9B04008D
:102A7C00002B20D00C9BC51A279BAB421BD91E00E8
:102A8C0022005B46494620200135B8470134AE424E
:102A9C00F6D810E0289B42460493279B49460393A3
:102AAC00269B0B9802935346009201935B460C9A1B
:102ABC0000F026F9040020001BB0F0BCBB46B24667
:102ACC00A946A046F0BDC046FFFFEF7FFFFFEFFF1A
:102ADC00FFF7FFFF734B099F9C467800400D604445
:102AEC00FFF76CF9704A714BFFF7F7F8704A714BAE
:102AFC00FFF7CCF83B03704A1B0B1A4304000D0084
:102B0C00300011006D4B0022FFF7B7F86C4A6D4B8B
:102B1C00FFF7E3F802000B0020002900FFF7B6F8DE
:102B2C00FFF764F90D90FFF749F9674A674B04000A
:102B3C000D00FFF7D2F80022654BFFF7A7F8FFF75F
:102B4C0055F9644A0600644B20002900FFF7C5F8CC
:102B5C00040030000D000F96FFF730F95F4A604B10
:102B6C00FFF7BBF802000B0020002900FFF785F8E7
:102B7C0002000B0006000F00FFF7AFF83200040054
:102B8C000D003B0030003900FFF780F80022109058
:102B9C001191544B20002900FFF781F80022524B71
:102BAC00FFF774F802000B0020002900FFF777F8FC
:102BBC0000224E4BFFF76AF802000B0020002900A0
:102BCC00FFF76DF80D008021040032003B0000205F
:102BDC00C905FFF752F802000B0020002900FFF78F
:102BEC0055F802000B0010981199FFF758F80022C5
:102BFC00314BFFF74BF83E4B0F9C9C466444002234
:102C0C002305FFF76AF805000E0002000B000A9876
:102C1C000999FFF7A5F800280AD00D9B2800013B65
:102C2C0031000D930022304BFFF739F805000E00F0
:102C3C00C6270D992B0063318F42BF4128997F42E3
:102C4C000437090500D495E6334300D182E6099C8C
:102C5C00284A2100284B0A98FFF790F8002808D042
:102C6C0000222100254B0A98FFF77AF8002800D0A3
:102C7C0070E6269B002B00D17CE60E9B5A1E9341DE
:102C8C00269AD31A269375E6002304270D9371E632
:102C9C0043460A9380231B065344099342E60023C0
:102CAC0026935FE601FCFFFFFB799F501344D33F53
:102CBC00B3C8608B288AC63F0000F03F0000F83F85
:102CCC0061436F63A787D23F71A379094F930A4081
:102CDC000000E03F1655B5BBB16B0240EF39FAFE70
:102CEC00422EE63F00002C4000002440000018401B
:102CFC00FF0300002D431CEBE2361A3F80842E416B
:102D0C00F0B54E46DE4657464546E0B597B0994677
:102D1C00209E219F229B8346984607910C923B0054
:102D2C00320030003900FFF736F8002800D0A9E156
:102D3C00012230003900CA4B5242FFF711F800282B
:102D4C0000D0E1E0012230003900C64B5242FFF7BF
:102D5C001DF8002800D0B7E0002230003900C24B2B
:102D6C00FFF714F8002800D099E000223000390059
:102D7C00BE4BFEF7F5FF002800D090E000220023A8
:102D8C0030003900FEF7ECFF002800D0B1E0002342
:102D9C000D93249B5B0501D40623984608AB9C46F7
:102DAC001722002430234146624404E001341355B9
:102DBC000139202C01D00929F8D888463000390077
:102DCC00FFF714F84346DA00A94B05009B181A6864
:102DDC005B6808920993FEF7F1FF02000B003000CC
:102DEC003900FEF74AFF089A099BFEF776FF0A9016
:102DFC000B91FFF71FF88246FEF7DCFF02000B0079
:102E0C000A980B99FEF739FF00229A4B0A900B9106
:102E1C00FEF7BCFF002800D1C0E001239C46E24431
:102E2C005046FEF7C7FF02000B0008980999FEF701
:102E3C009DFF002802D000239A4601354346002B03
:102E4C006AD008AB17269C4608956644554614E094
:102E5C0001235B4243440A2128009A46FEF7CAFC30
:102E6C00013430313719397028000A21FEF7C2FCC1
:102E7C00092D00D8D0E0D0460500202CE8D10EABAF
:102E8C0098460323249A1340012B00D196E020236B
:102E9C00249A01930392239A434602921EE0249BA8
:102EAC0058460493239B00960197039343460C9A30
:102EBC00029307994B46FFF7FDFC17B0F0BCBB46DD
:102ECC00B246A946A046F0BD249B5B070ED4032254
:102EDC00694B2499019203912399029100935846CE
:102EEC004B460C9A0799FFF7A1FBE6E70422634BCC
:102EFC00EFE73B00320000200021FEF7BEFE01236D
:102F0C0006000F000D9344E7249B0393239B02932D
:102F1C00042301935A4BE1E72800FEF74FFF020010
:102F2C000B0030003900FEF7A8FE524B00220600C1
:102F3C000F00FEF715FF0EAB984600280AD10022B1
:102F4C00300039004B4BFEF721FF002802D1EB0774
:102F5C0000D50135202C94D008AA944617232800BC
:102F6C0063440A2101341E19FEF71CFC3031280081
:102F7C0031700A21FEF716FC051EEBD10323249AAF
:102F8C001340012B1BD0202C00D180E70D9B002B74
:102F9C0035D02D224146631C0A5579E700220A9848
:102FAC000B99344BFEF7DCFE002800D046E7534665
:102FBC00002B51D101239C46E2443FE72024239B64
:102FCC00002BE0D00D9B002B03D1249A0C33134221
:102FDC0002D0239B013B2393239BA342D3D908AB61
:102FEC009C46172230236244202C00D14FE72399B2
:102FFC00013413558C42C6D0202CF8D147E7249BC2
:10300C005B0724D4249A2300120700D440E7202223
:10301C00414601330A553BE75746089D202C00D109
:10302C002DE7220030214046002F09D00132B15447
:10303C00202A00D123E7D3431B191B18002BF5D1F1
:10304C000EAB98462E234146541C8B5482E72B2200
:10305C004146631C0A551BE7DB0700D4EEE6A9E7E3
:10306C00FFFFEFFFFFFFEF7F65CDCD4165CDCDC1FC
:10307C00204400200000E03F284200202C42002089
:10308C0038420020249B0393239B02930323019338
:10309C00004B23E734420020F0B5DE464E4657463F
:1030AC004546E0B59FB01C00289B91460993C94A40
:1030BC00C94B8B4608901A60002900D118E20023F6
:1030CC0020789A46002800D11AE226001D005C46A2
:1030DC000AE02A006F1C4B46089D2100A8473D00C2
:1030EC0001363078002870D02528F2D110239B4669
:1030FC00083B9A46043B9846023B00219C46721CB6
:10310C00107816000300203BDBB2102B03D8B34F12
:10311C009B00FB589F460300303B092B32D9002300
:10312C000A932A2868D0002398462E283ED0030004
:10313C00683BDBB2122B1CD8A94A9B00D3589F4684
:10314C00012301321943DBE7634601321943D7E708
:10315C00434601321943D3E75B4601321943CFE7AB
:10316C00534601321943CBE780235B007078194337
:10317C0001360300253BDBB2532BAAD8994A9B009E
:10318C00D3589F4600270300B800C01901364000F1
:10319C00C018337830381A00303A0700092AF3D9AE
:1031AC000A901800002398462E28C0D180237078EE
:1031BC00DB0019430300303B721C092B00D8A1E142
:1031CC002A2800D1B2E11600B1E7A346AA462C008A
:1031DC00D14503D801235B424B449A464B46524699
:1031EC0059460020089DA84720001FB0F0BCBB46E4
:1031FC00B246A946A046F0BD099B40CB0A96002ECC
:10320C0003DB50780993561C8DE728380143704234
:10321C000A9009935078561C85E7782800D1DFE195
:10322C00582800D14CE26F2800D14FE3622801D11D
:10323C0000F030FC10230A009A430B92692801D04D
:10324C0000F0A9FC0A230C934B0500D5D0E10B9A96
:10325C00802311009B0019408B461A4200D0A1E23A
:10326C00802311005B0019408A461A4200D0B6E355
:10327C0013005B0600D5EDE2130009991B0601D47F
:10328C0000F076FC08C91BB2D8171A18424092B24B
:10329C0009919346DA0F1292002B09D18023102248
:1032AC000B99DB000B4091430B91002B00D0E4E217
:1032BC000B9A6123920600D541230EA91F228C463E
:1032CC00DBB262440A3B5F461395A34655460C9C01
:1032DC00B2460D9316000AE03033DBB2013573555C
:1032EC00A74200D2EDE2202D00D1EAE20700210036
:1032FC003800FEF77FFACBB20929EDD90D9A944626
:10330C006344DBB2EAE780239B00707819430136F3
:10331C002FE77078682800D1CDE18023013619435E
:10332C0027E770786C2800D1BFE180235B0019433C
:10333C0001361EE7462800D19BE10722099B049128
:10334C00073393430A9A19000392424602920CC91E
:10335C0008980092019309912A004B462100FFF72F
:10336C00CFFC01360500BCE62A006F1C4B46089DBD
:10337C0021002520A84701363D00B2E68B0700D47A
:10338C00ADE1099B2A009A466B1C9846534601CB2B
:10339C0021009A46089F4B46C0B2B8470A9B9C46F0
:1033AC006544012B00D886E2089B4746B0462600B0
:1033BC004C4699463A002300013731002020C8477B
:1033CC00AF42F7D1A1465346340046460993013625
:1033DC0087E6C046592E0020BC4A002040420020FF
:1033EC0084420020D0420020099B04CB9B464346DC
:1033FC000992002B00D1C6E013789C46002B00D11B
:10340C00BDE34346013B099A0133D0180A9F1300D0
:10341C0001E0834203D05A780133002AF9D1099A8A
:10342C000A979B1A0B9380230A00DB001A400C921C
:10343C00194204D00B9B434501D943460B930223FD
:10344C001A000A400D920B4200D187E16046002819
:10345C0000D168E10C9B002B00D10DE1A844C246C1
:10346C00099B57465B1B9846089BB2462A002600D0
:10347C004C46994609E023003100551CC847434689
:10348C00585D002800D126E12A009742F3D1A146CD
:10349C003D00340056460D9B002B00D043E15B46AB
:1034AC00013609931DE6099B1A0008CA9246002BA7
:1034BC0048D0212211438B460EA884461F2161441B
:1034CC00099500220F27A4460D0002E0202A0CD0FB
:1034DC000B003C001C4020003730092C00D807386A
:1034EC000132A85419090F2BF0D86446099D32E01B
:1034FC00DC4B2078089300239A46002800D0E4E5A2
:10350C00002465E6434606000A9F9800C018013265
:10351C00400080191678030030003038303B092801
:10352C00F3D93000984616000A9700E6099B02363C
:10353C0004CB9046D2434046D217104080460993A4
:10354C003078F4E510220800904311321043834682
:10355C0000224905B0D55B460693082305934346E4
:10356C000493102303930023029316AB0192009350
:10357C002A004B4621000898FFF7A6F85346050091
:10358C0001360993ADE513789C46002B00D1F7E288
:10359C0002235B4237E7202302009A43472A04D1D7
:1035AC0080231B01194302239843452801D1202372
:1035BC0019430722099B0491073393430A9A190074
:1035CC000392424602920CC9089800920193099109
:1035DC002A004B462100FFF76DF90136050080E506
:1035EC0010230C930C230A009A430B924B0503D522
:1035FC0001230B9A9A430B92692800D127E6642881
:10360C0000D124E60B9A802311009B0019408B46B5
:10361C001A4200D066E1802311005B0019408A46F3
:10362C001A4200D039E213005B0600D53CE11300CE
:10363C001B0600D4A6E2099B04CB1204120C934681
:10364C0009935B46002B00D09AE10B9A10331100C2
:10365C0099430B91520500D492E100239A460B9B9F
:10366C0006930A9B0593434604930C9B03930023F8
:10367C000CE12023194360E6099B0A9A5B1B9846D0
:10368C004B4691461F00B2462600089C2A003B0080
:10369C003100A04743460135585D0028F6D14A4613
:1036AC003400B94656460A92F5E6C0239B00B07822
:1036BC00194302365DE5C023B0781943023658E54C
:1036CC000C230A009A4314331A43103B0B920C93AD
:1036DC004B058DD496E7A14634005646DBE60A9A94
:1036EC00012A00D853E26B1E9F18089BB046260097
:1036FC004C4699462A002300013531002020C8474A
:10370C00BD42F7D1A14634004646099B3A0001CB95
:10371C00210098467D1C4B46089FC0B2B8474346D3
:10372C0001360993DDE40B9B0A9AA8469A4200D80D
:10373C00B5E694466544ED1A089B4746B04626000C
:10374C004C4699463A002300013731002020C847E7
:10375C00AF42F7D1A14634004646A0E60B9A0A992F
:10376C00531C914200D814E24B199B1A1F00089B62
:10377C00B24626004C4699462A00230001353100FA
:10378C002020C847BD42F7D10A9BA14601330B93B9
:10379C00099B34001B7856469C466046002800D096
:1037AC0058E67CE60722099B073393430132944683
:1037BC009C4462465F6809921A68FB171093119338
:1037CC0010981199030053400E930B007B400F93FC
:1037DC0094460E9A0F9B121A8B410E920F93FB0F6D
:1037EC006246129300233A439B463DD00B9A6123C9
:1037FC00920600D541230022DBB20EA90A3B8C466F
:10380C0092460D9343461F326244139515965546C6
:10381C000E9E0F9FA24690460C9C14930CE03032E7
:10382C00D2B2434601355A55BB4500D18AE1202D11
:10383C0000D18AE106000F0022000023300039007D
:10384C00FEF71AF8D2B2092AE9D90D9B9C466244BC
:10385C00D2B2E6E7FF23099904C913401A00099173
:10386C0017E5C046E92300200B9A10331100994349
:10387C000B915205BAD500239A460B9B06930A9BD3
:10388C000593434604930C9B0393129B029353465C
:10389C00019316AB2A00009321004B460898FEF7C3
:1038AC0013FF013605001CE4FF22099B02CB1140DB
:1038BC008B460993C5E65346454609930136FFF7F7
:1038CC0010FC56465C46AA46139DD6E708230C937B
:1038DC000B910B99642800D084E60B9B5B0500D5FB
:1038EC0086E6B4E40722099B0733934301329446DE
:1038FC009C44624609921A685B6810009B46130050
:10390C005A46134307D10B9A1033110099430B916C
:10391C00520500D5A1E60B9A6123920600D54123EE
:10392C000022DBB20EA90A3B8C4692460D9343460D
:10393C001F3262445F461295A34655460400B246B8
:10394C0090460C9E13930DE03032D2B243460135B3
:10395C005A550023BB4200D100E1202D00D100E1DB
:10396C0004000F003200002320003900FDF784FF13
:10397C00D2B2092AE8D90D9B9C466244D2B2E5E743
:10398C000B9A6123920600D54123DBB20EA90A3BA8
:10399C001F228C460D93230062445C46129517003F
:1039AC0055469B46B2460C9E08E03033DBB20135DF
:1039BC007B55B4420ED3202D0CD0040031002000D6
:1039CC00FDF718FFCBB20929EFD90D9A9446634441
:1039DC00DBB2ECE756465C46AA46129D3FE6099BD5
:1039EC001A0008CAD91713925A184A409246DA0F8D
:1039FC001292002B08D1802310220B99DB000B4074
:103A0C0091430B91002B2BD10B9A6123920600D57D
:103A1C0041230EAA1F279446DBB20A3B0D9567443F
:103A2C005D460993A3465446B2460C9E08E03033DB
:103A3C00DBB201357B55B4420ED3202D0CD00400E3
:103A4C0031002000FDF7D6FECBB20929EFD9099A37
:103A5C0094466344DBB2ECE756465C46AB460D9DA0
:103A6C000B9B2A0006930A9B210005934346049363
:103A7C000C9B08980393129B013602935B460193AF
:103A8C0016AB00934B46FEF71FFE139B05000993E4
:103A9C00FFF727FB02230C931AE7099B04CB9246F2
:103AAC001293002A08D1802310220B99DB000B40C3
:103ABC0091430B91002B2BD10B9A6123920600D5CD
:103ACC0041230EAA1F279446DBB20A3B0D9567448F
:103ADC005D460993A3465446B2460C9E08E030332B
:103AEC00DBB201357B55B4420ED3202D0CD0040033
:103AFC0031002000FDF77EFECBB20929EFD9099ADF
:103B0C0094466344DBB2ECE756465C46AB460D9DEF
:103B1C000B9B2A0006930A9B2100059343460493B2
:103B2C000C9B08980393002302935B46019316ABFE
:103B3C0000934B46FEF7C8FD129B05000993013616
:103B4C00FFF7CFFAB44200D871E6149B54460E9698
:103B5C000F97AA469846159E139D8EE6A64200D84E
:103B6C00FBE6139B56469846AA465C46129D76E5A4
:103B7C0008C9D8171A1842400991FFF78AFB00238D
:103B8C000B9350E4099B04CB9346099359E52F0002
:103B9C00BBE50B9301E6063B0C939AE600B585B0AA
:103BAC000391012102900093034813004A4202A999
:103BBC00FFF772FA05B000BD6526002010B5094A62
:103BCC000300146884B0002C08D001220091064830
:103BDC00524203A9A047012004B010BD00F068F9BF
:103BEC000020F9E7BC4A002055260020030010B540
:103BFC00080011001B68984710BDC046F0B546463A
:103C0C004F46D646C0B5437C80460E001700002BAD
:103C1C0046D0002A3FDD4B1E9946244B012500243B
:103C2C0000209A460DE04B461B5D0D3B5A4253411A
:103C3C00325DDBB20A2A0BD02B00013401359F42D6
:103C4C001ADD002CEFD14346325D1B7C0A2AF3D1DE
:103C5C00002BF1D1A04204DA4346211A1B6830181C
:103C6C009847434650461B68022198470134280068
:103C7C002B0001359F42E4DC874204DD4346391AB0
:103C8C001B6830189847F619013E33780D3B5A42A1
:103C9C00534142461374E0BCBA46B146A846F0BD47
:103CAC000368110030009847F5E7C046E444002053
:103CBC00F0B5C6460C000968060000B5802906D090
:103CCC004B1C23606418267180BCB846F0BD0F4BAA
:103CDC001D68002D16D0231D98460D4F02E0ED688F
:103CEC00002D0FD02B68002BF9D03B68002B01D096
:103CFC00AB42F4D1280041462268FFF77FFFED6804
:103D0C00002DEFD101230021DBE7C046B44A00208F
:103D1C00B84A0020F0B557464E464546DE461C00D4
:103D2C00D023E0B51B061F68344B83B006000D0092
:103D3C00180001A991469A4600F03EFA80460028E8
:103D4C0008D1019B7FB29F4204D0504600F010FA7C
:103D5C00012398466B1C03D1300000F0CBF9050011
:103D6C00002C27D1264F274B1C68002C18D04B4613
:103D7C00002B21D1244B994602E0E468002C0FD093
:103D8C002368002BF9D04B461B68002B01D0A342B3
:103D9C00F3D120002A003100B847E468002CEFD1A1
:103DAC004346002B25D103B0F0BCBB46B246A94616
:103DBC00A046F0BD154FD6E7134B99460A239B46F8
:103DCC0002E0E468002CEBD02368002BF9D04B46C2
:103DDC001B68002B01D0A342F3D12A003100200034
:103DEC00B8475A466B4620001A7101A90122B84700
:103DFC00E7E7504600F02CFAD5E7C046EC4500202A
:103E0C00BD390020B44A0020B84A0020AD3900204A
:103E1C00F0B5CE46474680B583B06B46DE1CD0234A
:103E2C0030701B061C681F4B804601A91800994670
:103E3C0000F0C2F9071E20D01B4B1C68002C28D0A8
:103E4C001A4D02E0E468002C0FD02368002BF9D047
:103E5C002B68002B01D0A342F4D1200001223100A9
:103E6C00FFF7CCFEE468002CEFD1002F11D14046B7
:103E7C0003B0C0BCB946B046F0BD019B64B29C42D5
:103E8C000BD0484600F074F9074B01271C68002C36
:103E9C00D6D1484600F0DCF9E9E7034B1C68002C4E
:103EAC00CED1E4E7EC450020B44A0020B84A00200B
:103EBC0070B5040000F01EF900230100050001227A
:103ECC002000FFF727FF084B1C68002C06D0636806
:103EDC00002B05D09847E468002CF8D1280070BD61
:103EEC00E468002CF3D1F9E7B44A00200A4A1368BD
:103EFC00002B05D10CE01A00DB680C32002B07D02C
:103F0C009842F8D1002902D1C3681360C160704790
:103F1C000029FCD01060FAE7B44A0020F0B54746FF
:103F2C00CE46D02380B51B061D682E4BA5B00700CE
:103F3C000C00180003A9984600F03EF9061E07D1A4
:103F4C00039B6DB29D4203D0404600F011F901363F
:103F5C008422002103A8FEF7C3FA23003A0022486A
:103F6C0003A9FFF71BFE039B0700002B14D11F4B6B
:103F7C001C68002C06D06368002B0BD09847E468B3
:103F8C00002CF8D1002E27D1380025B0C0BCB94682
:103F9C00B046F0BDE468ECE7144B1D689946002D63
:103FAC001ED0134C02E0ED68002D11D02B68002BB5
:103FBC00F9D02368002B01D0AB42F4D1039B28002D
:103FCC001A0004A90193FFF719FEED68002DEDD13D
:103FDC004B4603951C68CCE7404600F039F9D3E713
:103FEC000395CFE7EC450020713A0020B44A00203D
:103FFC00B84A00200FB400B583B004A901C90191DF
:10400C00FFF78CFF03B008BC04B0184710B500F0E4
:10401C0043F810BDF0B50D1E15DD0E4B0D271A68BB
:10402C000D4B4519D31859424B410C495B005E5E50
:10403C0020210478A64207D093691942FCD10130A3
:10404C001460A842F5D1F0BD93691942FCD11760F8
:10405C00F2E7C046F44A00200080FCBFF04A002082
:10406C0030B504000D1E12DD00201021094B013C5F
:10407C001A689369194208D1013093691942FCD12D
:10408C00136823548542F4D130BD0028FCD10320A1
:10409C004042F9E7F44A0020E12110B50B4B0C48E3
:1040AC001B780C4B49021B780B4B1860FDF7D2FAAE
:1040BC0002210020FCF74EFB02210120FCF74AFBF9
:1040CC0001210648FFF712FF10BDC0460403001083
:1040DC000040034008030010F44A0020C0450020B3
:1040EC0010B50248FDF764FA10BDC046D04A002056
:1040FC007047C04610B583070AD00300032102E0C5
:10410C0001330B4205D01A78002AF9D1181A10BDC8
:10411C00030019680C4A0D4C8A188A4322420FD1AD
:10412C005968094A04338A188A43224208D15968CB
:10413C00054A04338A188A432242F1D000E0013345
:10414C001A78002AFBD1E1E7FFFEFEFE808080801A
:10415C00F8B5C0460000000001B40248844601BC1A
:08416C00604700BF7302001060
:10417400D02330B500251B0600245D5706E00368F4
:10418400BFF35F8F1C6081F3108820BF0268EFF3D8
:10419400108172B61368002BFCD0BFF35F8F0379D4
:1041A4007F2BECD905710368BFF35F8F00221A607F
:1041B40081F3108830BDC04603000068EFF3108C13
:1041C40072B60268002AFCD0BFF35F8F04229A56AD
:1041D400002A0BDB00290FD000200A601B68BFF304
:1041E4005F8F00221A608CF310887047D022120669
:1041F400126801201A71F1E70020EFE7D0220300D2
:104204000020120610B510561C68EFF3108C72B61D
:104214002268002AFCD0BFF35F8F04229A56002A3A
:1042240006DB824204D000290FD000200A6004E09B
:10423400187101205A7901325A711B68BFF35F8FDC
:1042440000221A608CF3108810BD0020F5E7C046E8
:104254000268EFF3108172B61368002BFCD0BFF331
:104264005F8FFF2303710368BFF35F8F00221A601F
:1042740081F3108840BF7047084810B50378002BBD
:104284000AD180230649074A5B051C68CC500433D5
:104294009342FAD10123037010BDC046F84A0020AE
:1042A4004C4900100001001010B5024B013398472F
:1042B40010BDC0464C490020034B1A68C0239B0024
:1042C4009343024A136070470C8001400C900140F4
:1042D400054B1A6880239B005340C0229200134070
:1042E400024A13607047C0460C8001400C900140A4
:1042F4001423F0B5D6464F4646469A46814618885A
:104304000433C0B598460E001B882749140098470B
:10431400534607001888434624491B889847534648
:1043240005001888434622491B8898478046FFF7B2
:10433400A3FFB847A847FFF7CBFF002C1BD0C02131
:1043440022000827022049053D008B6A1D401842BF
:104354000BD0002C09D0131B0D2B1FD84B461B78F8
:10436400013C0B6601239C46E1442300002D0CD143
:104374001343002BE8D1FFF79FFFC047FFF794FFDB
:10438400E0BCBA46B146A846F0BD002AF1D00B6E97
:10439400013A3370130001362343EAE7002DD3D0EA
:1043A400002AD1D0F3E7C046494600004558000032
:1043B4004643000048492025640A000048656C6CA7
:1043C4006F2045766572797468696E672100000014
:1043D40048656C6C6F2045766572797468696E67A0
:1043E40032210000666F6F0007004B53A441002088
:1043F40000000800000004000000000003000000AA
:10440400486172647761726520616C61726D202508
:104414006420616C726561647920636C61696D65A7
:1044240064000000646F75626C6520726573657466
:10443400202D3E20424F4F5453454C00060052500D
:1044440053B4F4A1E44100200A2A2A2A2050414E00
:104454004943202A2A2A0A000A000000486172649B
:104464002061737365727400666E6900666E692BF1
:10447400000000006E616E00666E692D0000000091
:10448400202F0020D62E0020D62E0020182F00200A
:10449400D62E0020D62E0020D62E0020D62E002088
:1044A400D62E0020D62E0020D62E0020102F00203D
:1044B400D62E0020082F0020D62E0020D62E002035
:1044C400002F0020D2300020322F0020C6300020E0
:1044D400322F0020E2300020322F0020322F002023
:1044E400322F0020322F0020322F0020322F0020C4
:1044F400322F0020282F0020322F0020322F0020BE
:10450400322F0020322F0020322F0020282F0020AD
:1045140028310020922E0020922E0020922E00207E
:10452400922E0020922E0020922E0020922E002007
:10453400922E0020922E0020922E0020922E0020F7
:10454400922E0020922E0020922E0020922E0020E7
:10455400922E0020922E0020922E0020922E0020D7
:10456400922E0020922E0020922E0020922E0020C7
:10457400922E0020922E0020922E0020922E0020B7
:10458400922E0020922E0020922E0020922E0020A7
:1045940056330020F430002056330020922E0020A1
:1045A400922E0020922E0020922E0020922E002087
:1045B400922E0020922E0020922E0020922E002077
:1045C400922E0020922E0020922E0020922E002067
:1045D400922E0020922E0020922E0020DA2F00200E
:1045E400922E0020922E0020922E0020922E002047
:1045F400922E0020922E0020922E0020922E002037
:10460400922E0020DA2F00203C310020DA2F0020E7
:1046140056330020F430002056330020922E002020
:10462400DA2F0020922E0020922E0020922E0020BD
:10463400922E0020922E0020DA2F002066320020D5
:10464400922E0020922E0020A8310020922E0020CD
:10465400DA2F0020922E0020922E0020DA2F002044
:10466400000000000000F03F0000000000002440B3
:1046740000000000000059400000000000408F408E
:10468400000000000088C34000000000006AF840F9
:104694000000000080842E4100000000D01263411D
:1046A4000000000084D797410000000065CDCD4193
:1046B40052656C6561736500626F6F74325F773247
:1046C4003571303830000000312E342E30000000B7
:1046D4007069636F000000006B69746368656E5FE6
:1046E40073696E6B5F636F70795F746F5F72616D16
:1046F4000000000041707220313220323032330029
:1047040006005250BBFF3CB69044002006005250B5
:10471400E182887F7844002006005250D3F075422D
:10472400704400200D0A00005541525420737464F3
:10473400696E000055415254207374646F7574009F
:104744005541525420737464696E202F207374642D
:104754006F7574000600525053B4F4A10045002054
:104764000800525092000000C80000001000000031
:104774000000000000000100000000000000000034
:104784000000020000000000000000000000030020
:1047940000000000000000000000FF000000000016
:1047A40000B5486801318E46004770460938014912
:1047B400884700BD810700209045002000000000CC
:1047C40020460020744A0020000000000000000081
:1047D400844A0020000000000000000010000000D7
:1047E400503300004C3300005433000052330000B7
:1047F4004D5300004D430000533400004334000087
:10480400D53D002000000000213E002000000000F3
:104814000001000000000000000000000100000092
:104824000000000000000000000000000000000084
:104834000000000091220020F51400200D1C00202F
:1048440001220020ED00002005150020A13E0020DB
:0C48540000000000000000000000000058
:04000005100001E9FD
:00000001FF
