:020000041000EA
:1000000000B5324B212058609868022188439860DF
:10001000D860186158612E4B002199600221596106
:100020000121F02299502B49196001219960352056
:1000300000F044F80222904214D00621196600F024
:1000400034F8196E01211966002018661A6600F04E
:100050002CF8196E196E196E052000F02FF8012189
:100060000842F9D1002199601B49196000215960AB
:100070001A491B48016001219960EB211966A021F2
:10008000196600F012F800219960164914480160C1
:100090000121996001BC002800D000471248134993
:1000A000086003C880F30888084703B5996A0420EC
:1000B0000142FBD001200142F8D103BD02B5186610
:1000C0001866FFF7F2FF186E186E02BD00000240BE
:1000D000000000180000070000035F00212200005C
:1000E000F4000018222000A00001001008ED00E03C
:1000F00000000000000000000000000074B24E7A12
:1001000000200420F7010010C3010010C5010010F9
:10011000C1010010C1010010C1010010C101001097
:10012000C1010010C1010010C1010010C701001081
:10013000C1010010C1010010C9010010CB01001065
:10014000CD010010CD010010CD010010CD01001037
:10015000CD010010CD010010CD010010CD01001027
:10016000CD010010CD010010CD010010CD01001017
:10017000CD010010CD010010CD010010CD01001007
:10018000CD010010CD010010CD010010CD010010F7
:10019000CD010010CD010010CD010010CD010010E7
:1001A000CD010010CD010010CD010010CD010010D7
:1001B000CD010010CD010010CD010010CD010010C7
:1001C00000BE00BE00BE00BE00BE00BE00F04BF888
:1001D000103800BEF2EB8871087300102C73001009
:1001E0003402001090A31AE700202149086006C8D5
:1001F00081F3088810471F48006800282FD10DA4FC
:100200000ECC002902D000F012F8F9E71A491B4A77
:10021000002000E001C19142FCD1194988471949E9
:1002200088471949884700BEFDE701C901C29A42C3
:10023000FBD370472C730010C0000020DC49002065
:1002400048BC0010000004200000042048BC00103E
:1002500000100420001004200000000070470B482C
:1002600003F0C4F90047EFF30580C0B27047000007
:1002700008ED00E0000000D0E0490020B44D00206F
:10028000DD4400109D0B0010CD45001057560000B6
:1002900006005250ABB3605370720010060052500B
:1002A000861C030280720010060052505422A29D48
:1002B0009472001005005250DE65F46848BC0010CE
:1002C000F8B5C04610B5064C2378002B07D1054B76
:1002D000002B02D0044800E000BF0123237010BDB2
:1002E000E04C002000000000206C0010044B10B512
:1002F000002B03D00349044800E000BF10BDC046F6
:1003000000000000E44C0020206C0010F0B51F003D
:100310000D4B85B000933B00160004000D0001F06A
:1003200004F80A9A4300DB0F0020934201D105B084
:10033000F0BD0392029322002B0000960197034820
:1003400006F00EFB0120F2E7E1130010206C001014
:10035000F0B5CE46002400B5A54DA64F84B02B00C5
:10036000220020002900009700F0DFFF4000C30FAB
:10037000002800DBD0E0A04CA04D22002B00A048BC
:10038000A049009700F0D1FF4000C60F002800DA16
:10039000D1E000249C4D22002B0000209B490097B7
:1003A00000F0C3FF4000C30F9946002800DACFE0F9
:1003B00000240025802300221B062000290000972E
:1003C00000F0B3FF4000C30F002800DBCCE02B009F
:1003D000220020002900009700F0A7FF4000C30F73
:1003E000002800DB98E0802300221B061900100083
:1003F000009700F09AFF4000C30F002800DBBCE02C
:1004000080212B00220000200097090600F08DFFBC
:100410004000C30F002800DBBEE0002220002900BE
:100420007B4B009700F081FF4000C60F002800DAE8
:10043000BFE08021764B002200200097090600F0E3
:1004400074FF430000D5BBE02B0022000020704960
:10045000009700F06AFF430000D5B9E00023009345
:100460008023002200206A491B06FFF74FFF002867
:100470005CD1009000220020664B5D49FFF746FFEB
:10048000002853D1009000220020594B6149FFF70A
:100490003DFF00284AD100225E4B00901900100059
:1004A000FFF734FF002841D1009000220020504B7C
:1004B0005949FFF72BFF002838D100900022002077
:1004C0000021554BFFF722FF00282FD1009000227A
:1004D000002300205149FFF719FF002826D1009082
:1004E0000022002000214D4BFFF710FF00281DD1F6
:1004F00001240022484B100019000094FFF706FF6A
:10050000002813D10022454B100019000094FFF77A
:10051000FDFE431E98410AE00122009401950392DA
:10052000029322002B003E4806F01AFA012004B084
:1005300080BCB946F0BD00230393013302930094BD
:1005400001952F4A2F4B364806F00AFA0120EEE7B4
:10055000012300220293009401952C4B304803960E
:1005600006F0FEF90120E2E70122029380230392C4
:1005700000221B0600920193D3E7802401220293FC
:100580000023240600930194039225481A002300B7
:1005900006F0E6F90120CAE70122009401950392D2
:1005A0000293802300221E481B0606F0D9F9012081
:1005B000BDE74B460393012300220293144BD9E776
:1005C000012302930023124C039600930194E8E761
:1005D0000023012400220393002311480092019379
:1005E000029400220A4B06F0BBF920009FE7C046A8
:1005F0000000F03FE1130010D044D8F074EB8740C6
:1006000054E3A59B444A9340003085C000C05EC0BF
:100610000000F0BF0000F87F0000F07F0000F0FF56
:10062000206C0010F0B54746CE4680B585B01F005F
:1006300004000D00160000F00FFF431E98410C9BB4
:100640008046984228D13B0032002000290000F06B
:1006500013FF431E984100239946804505D0484624
:1006600005B0C0BCB946B046F0BD32003B0020002A
:10067000290000F006FF0028F1D142460123534033
:10068000039302922B00220000960197084806F07F
:1006900067F901239946E2E7039302902B002200B9
:1006A00000960197034806F05BF901239946D6E7C7
:1006B0008C6C0010606C0010F0B54746CE4680B5DB
:1006C00085B01F0004000D00160000F0BFFE431EA1
:1006D00098410C9B8046984228D13B003200200074
:1006E000290000F0C1FE431E984100239946804531
:1006F00005D0484605B0C0BCB946B046F0BD320092
:100700003B002000290000F0BCFE0028F1D1424649
:1007100001235340039302922B002200009601977D
:10072000084806F01DF901239946E2E70393029079
:100730002B00220000960197034806F011F90123CF
:100740009946D6E7E46C0010B86C0010F0B5DE46B0
:1007500057464E464546E0B51F003D4B87B09B4689
:1007600000933B000D001600040000F0DEFD394B45
:1007700080469A4622003900009330002B0000F09A
:10078000D4FD5B46814622003900009330002B00E7
:1007900000F0CBFD53463200009320003B002900BF
:1007A00000F0C3FDC84545D1109B013326D0109BF6
:1007B00001215A425A4143465800C00F904224D169
:1007C0009B00DB0F8B4222D14B465B00DB0F9C462C
:1007D0004B469B00DB0F944502D100208B4222D078
:1007E000039363460492029322002B000096019724
:1007F0001948059106F0B4F8012014E043460022A0
:1008000058000021C00F9042DAD09B00DB0F049209
:100810000393029022002B00009601970F48059148
:1008200006F09EF8012007B0F0BCBB46B246A946D0
:10083000A046F0BD22002B00049405950296039774
:1008400000960197064806F08BF80120EBE7C046BA
:10085000E1130010D1130010A06D00104C6D0010BA
:10086000106D0010F0B5CE464746002480B5634DAC
:10087000634B87B0994622002900009320002B008B
:1008800000F053FD5F4B06009846220029000093BC
:1008900020002B0000F049FD4B46070022002900F4
:1008A000009320002B0000F040FD434622000093FF
:1008B00020002B00290000F038FDBE4230D173002B
:1008C000DC0F002B17DAB600F00F002E15DADC0F64
:1008D000F00F002B01DA002E2FDB01210022474B05
:1008E000039002940092019347480591049106F009
:1008F00037F801240EE0B000C00F012100223F4B69
:10090000039002940092019340480591049106F0EF
:1009100027F80124200007B0C0BCB946B046F0BD9E
:1009200022000494059502940395009401952B00F0
:10093000374806F015F80124ECE7364A364B3748BD
:1009400037490094FFF702FF0028E3D101256D42EB
:10095000324A334B2F4830490095FFF7F7FE002805
:10096000D8D1002200202F4B2F490094FFF7EEFE34
:100970000028CFD1002200202B4B2A490095FFF7F9
:10098000E5FE0028C6D100220020284B264900950C
:10099000FFF7DCFE0028BDD1023500220020224BEB
:1009A00022490095FFF7D2FE0028B3D180230090A2
:1009B0000022002000211B06FFF7C8FE0028A9D155
:1009C000002200201A4B0D490095FFF7BFFE0028BA
:1009D000A0D100220020094B15490095FFF7B6FE73
:1009E000002897D10022124B100019000095FFF744
:1009F000ADFE431E984104008CE7C0460000F03F66
:100A0000E1130010D1130010A06D00104C6D001008
:100A1000106D0010D044D8F074EB874054E3A59BD0
:100A2000444A9340003085C000C05EC0003085401D
:100A30000000F87F002300B583B0009300220A4B2A
:100A400000200A49FFF7EEFD03000120002B01D032
:100A500003B000BD00220093044B10001900FFF703
:100A6000E1FD431E9841F3E70000F03F0000F87FEE
:100A7000002300B583B0009300220A4B00200A49EE
:100A8000FFF71AFE03000120002B01D003B000BDC8
:100A900000220093044B10001900FFF70DFE431EC7
:100AA0009841F3E70000F03F0000F87FF0B5C6463C
:100AB0000024002500B5220082B02B002000290070
:100AC00000F0DFFC002836D100262F4F32003B001B
:100AD00000202E4900F0D5FC8046002839D10026A0
:100AE0002B4F22002B003000390000F0CAFC0128F7
:100AF00039D132003B002000290000F0C2FC01285F
:100B00003BD132003B003000390000F0BAFC012834
:100B100036D132003B0000201E4900F0B2FC012813
:100B200012D01C4B0022009601971B4805F018FFBD
:100B30000123984608E0009401952B0022001648F6
:100B400005F00EFF01239846404602B080BCB8462F
:100B5000F0BD0E4B0022009601970F4805F000FFF4
:100B600001239846F0E7009401953B0032000A48C3
:100B700005F0F6FE01239846E6E700960197DCE7CC
:100B800000960197F1E7C0460000F07F0000F0FFFB
:100B90000000F87F0000F8FFF46D0010F0B5DE46AD
:100BA00057464E464546E0B599B002F051FDCC4B54
:100BB000CC491A685B680868496800F047FC010086
:100BC000C9484B1E994105F0CBFE03239A46C74BFB
:100BD00000269946C64F032300249846C44D2B0097
:100BE00022003900300000F031FC431E984100948F
:100BF000019532003B000290484605F0B1FE20000E
:100C00002900BC4B002200F0AFFB01235B429C4655
:100C1000E044434604000D00002BE0D130003900D1
:100C2000B44B002200F0A0FB01235B429C46E2444F
:100C3000534606000F00002BCDD103339A46AE4B2E
:100C400000269946AA4F032300249846A84D2B005E
:100C500022003900300000F00FFC431E9841009440
:100C6000019532003B000290484605F079FE2000D5
:100C70002900A04B002200F077FB01235B429C4639
:100C8000E044434604000D00002BE0D13000390061
:100C9000984B002200F068FB01235B429C46E24433
:100CA000534606000F00002BCDD103339846002396
:100CB000904C00260C930D94002313938F4B002728
:100CC0009B468F4B1096119799460E960F970A9652
:100CD0000B9732003B008B4805F042FE3000390094
:100CE00000F07AFC04000D003000390005F090FFA0
:100CF00022002B00584605F033FE3000390005F085
:100D0000FFFE0C9A0D9B804805F02AFE300039004A
:100D100005F066FF0A9A0B9B7C4805F021FE300027
:100D2000390005F0C5FE0E9A0F9B794805F018FEB4
:100D30000022784B3000390000F00EFD04000D0059
:100D40000022744B3000390005F01AFF22002B00FE
:100D5000484605F005FE32003B0000206D4900F0DA
:100D6000FBFC04000D0032003B000020694905F047
:100D700007FF22002B00484605F0F2FD3000390045
:100D800000F0F6FC04000D003000390005F0C8FE4C
:100D900022002B00604805F0E3FD3000390000F030
:100DA000F3FC04000D003000390005F091FE220034
:100DB0002B005A4805F0D4FD32003B0030003900CA
:100DC00001F042F904000D0032003B003000390010
:100DD00005F0EEFE22002B00514805F0C1FD300069
:100DE000390005F0DDFE109A119B4E4805F0B8FD64
:100DF0003900300000F070FB3900020082463000FC
:100E000000F0B4FF04000D0052463000390005F038
:100E10006FFE22002B00444805F0A2FD0022434B48
:100E20003000390001F09AFA04000D0000223F4B17
:100E30003000390005F09CFE22002B003C4805F0F4
:100E40008FFD14A90A003000390016AB00F00CFC2D
:100E5000149C159D1699179A2B000E910F920091D4
:100E600001923448220005F07BFD0A9A0B9B20007A
:100E7000290000F0E3FA002807D00C9A0D9B0E9889
:100E80000F9900F0DBFA002804D12B4805F0C6FCCE
:100E90000123139330003900164B002200F064FA4E
:100EA00001235B429C46E044434606000F00002BB2
:100EB00044D000F0A7FB0C900D913000390000F0F9
:100EC000B7FB0A900B913000390000F017FC0E9030
:100ED0000F913000390000F06FFF10901191F8E68B
:100EE000D8440020D04400200C6D0010306E00105B
:100EF0000000F0BF0000F03F406E00105C6E00107C
:100F00009C6E0010506E00106C6E00107C6E001015
:100F10008C6E001000002440AC6E0010BC6E0010FF
:100F2000C86E0010D86E0010E86E00100000084077
:100F3000F86E0010086F0010206F001001242026AA
:100F4000D94D6442200000F0AFFA02000B002800E7
:100F5000210005F005FD200000F0A6FA013E20006A
:100F600005F0F6FD6400002EECD1012420362000AF
:100F700000F09AFA02000B002800210005F0F0FCB6
:100F8000200000F091FA013E200005F0E1FD640030
:100F9000002EECD101240025C44F4036200029004A
:100FA00000F0D6FA22002B0000900191380005F0E5
:100FB000D7FC2000290000F0CBFA013E20002900D8
:100FC00005F0E6FD24196D41002EE7D101246442AD
:100FD000E51740362000290000F0BAFA22002B0065
:100FE00000900191380005F0BBFC2000290000F0C2
:100FF000AFFA013E2000290005F0CAFD24196D4119
:10100000002EE7D120250124002200230021A8483A
:1010100005F0A6FCA74E200000F042FA02000B00EB
:101020003000210005F09CFC200000F039FA013D61
:10103000200005F0C5FD6400002DECD13000012436
:101040004026002500220023002105F089FC9A4F4C
:101050002000290000F07CFA22002B000090019172
:10106000380005F07DFC2000290000F071FA013EF7
:101070002000290005F08CFD24196D41002EE7D1D8
:10108000802300221B0600920193C4238B4F002271
:1010900038001B0605F064FC42260024884D200021
:1010A000290000F061FA2200009001912B00380025
:1010B00005F056FC002220002900824B00F0C6F902
:1010C000002807D12000290000F04EFA2000290056
:1010D00005F096FD2000290000227B4B00F06BF903
:1010E000013E04000D00002ED9D10122774B52425F
:1010F00000920193882300223800DB0505F030FCC4
:1011000042260024724D2000290000F02DFA220012
:10111000009001912B00380005F022FC00222000F5
:1011200029006C4B00F0A0F9002807D1200029000D
:1011300000F01AFA2000290005F062FD20002900C5
:101140000022614B00F037F9013E04000D00002E33
:10115000D9D100245A4D604F42362900200000F0BA
:10116000BBF922002B000090380005F0F9FB2900A4
:10117000200000F0B1F92900200005F039FD200021
:1011800029000022504B00F016F9013E04000D002A
:10119000002EE2D100244E4D42362900200000F0FE
:1011A0009BF922002B000090380005F0D9FB2900A4
:1011B000200000F091F92900200005F019FD200021
:1011C00029000022404B00F0F6F8013E04000D001B
:1011D000002EE2D10024414D414F0536A8202200C7
:1011E0002B004049C00500F0C8F822002B000890F1
:1011F00009910020394900F0C0F83B4A0690079158
:101200003A4B2000290000F0A6F8374A04900591D7
:10121000364B2000290000F0A7F822002B00029096
:1012200003912000290000F0C6F822002B00009056
:101230000191380005F094FB22002B0020002900CA
:1012400000F0B9F822002B002000290005F088FCEE
:1012500022002B000020214900F08FF822002B00F3
:1012600000201E4905F054FC8023200029000022A4
:10127000DB0500F079F8013E04000D00002EADD131
:10128000139B002B03D1FFF763F8002832D01848D6
:1012900005F0C4FA0124200019B0F0BCBB46B246E8
:1012A000A946A046F0BDC046306F00103C6F00104C
:1012B000486F0010546F0010606F00106C6F0010CA
:1012C0000000F0C30000E0C30000E03FFFFFFF7F2D
:1012D0000000F0430000E0437C6F00100000F03F8E
:1012E0008C6F0010346F9D41D8822DD8822DD83F4D
:1012F000BC6F0010FFF7B6FA0028C8D1FFF7D6FB85
:101300000028C4D1FFF796FB0028C0D1FFF7B0FB3F
:10131000041EBCD1014805F081FABCE7C46F00107F
:1013200000B59047EFF3008000BD10B5029CA047C8
:10133000EFF3008010BDC04644464D4656465F461A
:10134000F0B47047F0BCA046A946B246BB46704711
:1013500048404140484018B41B4B5B68FC46019331
:1013600008BD04DFAF27001018B4174B1B68FC46FC
:10137000019308BD00DFB92700109446134A926F0D
:10138000920809D2624618B40F4BDB68FC46019301
:1013900008BD0CDF712A00100C4AF0B5146E556EB2
:1013A000576F166F6246FFF7EEFF084A14665566E0
:1013B00057671667F0BD18B4034B9B68FC46019352
:1013C00008BD08DF15290010E04A0020000000D009
:1013D000FFB550404240504059404B40594000E01A
:1013E000FFB5154F4C00640D03D0BC4204D10C0373
:1013F00014D80020090D09055C00640D03D0BC421F
:1014000004D11C030AD800221B0D1B0501264B40EA
:1014100009D44B4003D58B4200D18242FFBD994293
:10142000FCD19042FFBD0B43DB1803431343F5D0BF
:10143000C9434918FFBD0000FF07000000B5FFF7D2
:10144000CFFF01D0002000BD012000BD00B5FFF797
:10145000C7FF804100BDC04600B5FFF7C1FF01D9FD
:10146000002000BD012000BD00B5FFF7B1FF01D98C
:10147000002000BD012000BD00B5FFF7A9FF80419D
:1014800000BD012040054A00121804D85A00121865
:1014900001D80020704701207047002070470000ED
:1014A0000021002805D17047C1174840401AFAD0E2
:1014B000C90713B5064B1B6898470CBC441CA240D7
:1014C0001005120B0349091B09051943114310BDEF
:1014D000904D00201F04000010B54C00620D8023C9
:1014E000D218DB00D21A5B057E2A10DD9E3A13DA91
:1014F000CC170903490819435242D1406400013412
:101500001532202A05DAD0400843604310BD002080
:1015100010BD0846604310BDC80FC018013810BD8B
:1015200018B4044B5B6AFC46019308BD24DF4D2EC2
:1015300000100000E04A002018B4044B1B6EFC466B
:10154000019308BD60DFFF2E00100000E04A00207C
:1015500018B4044BDB6DFC46019308BD5CDFFD2E27
:1015600000100000E04A0020C94211D300B5490034
:101570004908002200F024F8002904D40022404247
:101580008A41114600BD80210906002000BD0000EF
:1015900018B4044BDB6EFC46019308BD6CDF5B2E78
:1015A00000100000E04A002018B4044B5B6FFC46BA
:1015B000019308BD74DF752E00100000E04A002082
:1015C00018B4044B9B6FFC46019308BD78DF772E5F
:1015D00000100000E04A002018B4044B9B69FC4650
:1015E000019308BD18DF3D2C00100000E04A0020E8
:1015F000024A034B00B501F0B9F800BD182D445460
:10160000FB2119408A0002D3920D092A08DA18B486
:10161000064BDB6BFC46019308BD3CDF53300010EA
:1016200000B5FFF7E5FF04BC9646F0E7E04A00206E
:101630008A0002D3920D092A08DA18B4064B1B6CF3
:10164000FC46019308BD40DF6330001000B5FFF792
:10165000CFFF04BC9646F0E7E04A002000B5FFF754
:10166000C7FF04BC964605E03CB58A0002D3920D44
:10167000092AF3DA00F004F830BC03C40CC530BD0D
:1016800018B4184B9B6CFC46019308BD48DF9316B9
:1016900000101CB413231B78012B01D1124B00E066
:1016A000124B104A936402930CBDF0B5FFF744FE51
:1016B00000F00BF8844600F00CF803B4604600F02C
:1016C0000CF80CBCFFF73EFEF0BD01B508480190D8
:1016D00001BD03B40748019001BD03B40648019061
:1016E00001BD0000E04A002077300010AB1600106A
:1016F000553800009D380000D93800008A0002D318
:10170000920D092A1DDA9446114A926F920809D265
:10171000624618B40F4B5B6CFC46019308BD44DF76
:10172000333000100A4AF0B5146E556E576F166FBD
:101730006246FFF7EEFF064A14665566576716675E
:10174000F0BD00B5FFF754FF04BC9646DBE7000090
:10175000000000D0E04A002018B4044B9B6DFC460A
:10176000019308BD58DF713100100000E04A0020ED
:1017700018B4044BDB6CFC46019308BD4CDF853389
:1017800000100000E04A002018B4044B1B6DFC461A
:10179000019308BD50DF213400100000E04A002012
:1017A000132370B51D78012D15D010DD1C4801F0F4
:1017B00025FF1C4C01008022200004F0C7FE022DF2
:1017C00006D0194801F012FF184B186070BD154C77
:1017D000174BA364F5E7164B124C23606360A360BC
:1017E000E36023616361A361E36123626362A362D7
:1017F000E36223636363A363E36323646364A364B7
:10180000E36423656365A365E36523666366A36696
:10181000E36623676367A367E367A364D1E7C04612
:1018200053440000E04A00204C330000904D00205B
:101830007D270010F0B546464F46D646C0B54E004F
:101840001D00730D99468B4B14004B4498464B4634
:1018500088B0002B30D0884B99452DD04B460022C4
:10186000864FFF1A3B0580185941FFF78DFF844AC8
:10187000844BFFF782FD0022834B06000F00FFF729
:10188000FBFD002826D14346002B31D0002220004A
:1018900029007E4BFFF7E8FD002832D1002220000E
:1018A00029007B4BFFF7D8FD002835D043460020A8
:1018B000002B2ADB002129E0FFF766FF704A714BFD
:1018C000FFF75BFD0022704B06000F00FFF7D4FD11
:1018D0000028DBD0300039006E4B0022FFF73BFDC3
:1018E0006D4B06004B44984643460F00002BCDD16C
:1018F00022002B0030003900FFF75DFD00F046FBB1
:1019000004E043460020002BD4DB644908B0E0BC6F
:10191000BA46B146A846F0BD2000290000F07CFA86
:101920000B0002002900200004920593FFF713FD2D
:101930001A220290039100F019FA00F06DFA0B00E0
:101940000090019149000200490D0BD04A488142A4
:1019500008D000201A2900DC81E051498018594143
:101960000090019104980599FFF7B6FD8246404624
:10197000FFF79AFD009A019B04900591FFF71BFD6C
:1019800004000D0000F048FA0A000100130006915F
:101990000792020029002000FFF7DDFC009A019B5E
:1019A00004000D0002980399FFF7D5FC049A059BEB
:1019B000FFF701FD22002B00FFF7D6FC00900191FC
:1019C0005046FFF771FD32003B00FFF7F4FC0400C6
:1019D0000D0000F021FA0A000100130004910592A5
:1019E000020029002000FFF7B6FC009A019BFFF7D8
:1019F000BBFC04000D000298039932003B00FFF786
:101A0000DAFC22002B00FFF7AFFC00F0BFFA4E001B
:101A100004000D00760D00D178E7174B9E4200D1EF
:101A200074E706980799534647465F43FFF754FD0E
:101A3000C71904980599FFF74FFDC0198319002BAA
:101A400009DD184A93420DDD144AEB0FDB071A43F8
:101A5000002011005AE7EB0F0020D90756E7DB0FF3
:101A6000D9077DE70022030512196B411000190008
:101A70004CE7C04601FCFFFFFF070000FF0300002A
:101A8000EF39FAFE422EE63F0000E03F0000B04092
:101A90000000B0C00000F03F02FCFFFF0000F07F3C
:101AA000000060FEFE070000F8B54E464546DE46E3
:101AB00057460400E0B50D001600012A5FD0D70F8D
:101AC000BF187F10012F50D00323D21713409B194A
:101AD0009B109846012B3ED0072313409B19DB1027
:101AE0009946012B30D00F2313409B191B119A46A6
:101AF000012B1ED01F2313409B195B119B46012B0A
:101B00000CD03F231A4092199211FFF7CDFF0B0022
:101B10000200FFF750FC5B46DB073BD40B000200E2
:101B2000FFF749FC5346DB0703D522002B00FFF7E4
:101B300042FC0B000200FFF73EFC4B46DB0703D5DF
:101B400022002B00FFF737FC0B000200FFF733FCED
:101B50004346DB0719D40B000200FFF72CFCFB0700
:101B600003D522002B00FFF726FC0B000200FFF735
:101B700022FCF30703D522002B00FFF71CFCF0BC6E
:101B8000BB46B246A946A046F8BD22002B00FFF78F
:101B900012FCE0E722002B00FFF70DFCBEE7C04679
:101BA000F0B54F464646D6469146C0B59846060023
:101BB0000F0004000D1E46DA5A00654B20219C469A
:101BC0003423520D62449B1A49425E1800D5A1E0AD
:101BD0001F31B1400120404298404F4687433800B2
:101BE00047468F43002E00DA8CE04146F140012643
:101BF0003140002A1EDB002B4EDB38435BD100292D
:101C000007D008E0802221001206AA180C00151E39
:101C100017DA342BF6D180263606434620004A4692
:101C2000A919FFF7BDFF8B191900E0BCBA46B146F0
:101C3000A846F0BD802322001B06EB1814001D1ED1
:101C4000F8DB26002F0048464146FFF745FC6B00B5
:101C5000824602005B0D3DD03E498B423AD02903BB
:101C6000090B0C4336D13C4A904268DB80221201BA
:101C7000904262DA364A944663445843374BC3185D
:101C8000002B5EDD364A93425EDC03050022002015
:101C9000344980185941C8E7802322001B06EB18FD
:101CA00014001D1ECDDA802322001B06EB18140041
:101CB0001D1EF1DBC5E7802322001B06EB18140074
:101CC0001D1EBEDA802322001B06EB1814001D1E09
:101CD000F1DBB6E75346002B25D02033402B25D827
:101CE0005346002B09DA32003B0000201D49FFF764
:101CF00044FB534606000F005A4230003900FFF7FC
:101D0000D3FE92E720214646C91A8E404946D94063
:101D100031436CE70121202049420F00C01AC7401F
:101D20009940394356E700200E497EE74A4643462C
:101D300030003900FFF77EFD77E706489AE710008C
:101D400094E70020002170E7002007496DE7C046B6
:101D500001FCFFFFFF07000000F8FFFFFF0300008A
:101D6000FE0700000000F03F0000F07F4B0070B560
:101D70005B0D04000D00002B0ED00C4EB3420BD0B7
:101D8000D318002B09DD0A498B420ADD094AEB0F03
:101D9000DB071A430020110070BDCB0F0020D907CC
:101DA000FAE70020110500196941F5E7FF07000077
:101DB000FE0700000000F07F4B00164A5B0D70B577
:101DC00006009B181FD434220400D31A0A00002BEB
:101DD00010DD202252429A180FD4012090400500B5
:101DE00001229A40140000236242AB411640194080
:101DF00034000A002000110070BD20220120D21AF8
:101E0000D0400500ECE70022C90FCB0714001A00F0
:101E1000F0E7C04601FCFFFF254A4B0094465B0DEE
:101E20006344F0B504000D005A1C24DB5A1C38D062
:101E30003422D21A002A1DDD3322D31A533A9A18BB
:101E40001DD401269640310001269E403000241802
:101E50004D41002A1FDB02269640310002229A40A3
:101E600010002600002342428B412C0016401C40EB
:101E700030002100F0BDCB0F0020D907FAE7202663
:101E80000127F61AF74001269E4039003000241839
:101E90004D41002ADFDA20220226D21AD640310034
:101EA000DCE7CB0F034ADB071A4300201100E1E710
:101EB00001FCFFFF0000F03FF0B5C6460B000D002F
:101EC00049000200040000B5490D30D01D48091832
:101ED00027D43426711A8846464610001900002E71
:101EE0001CDD20214942771825D40126BE4031004F
:101EF00001274646B7403800002B06DA0124644229
:101F0000E517A4185D4124184D41002342428B413E
:101F100026002C0016401C403000210080BCB84632
:101F2000F0BD00200021002BF8DA0749F6E7DB0FAF
:101F30000020D907F2E72027BF1B0126FE40310011
:101F4000D6E7C04601FCFFFF0000F0BF094A70B5AC
:101F50000B0D93420AD0084A934204D00022074B4B
:101F6000FFF7FAFB70BD06480649FBE7044806493F
:101F7000F8E7C046FF070000FF0F00000000F03F39
:101F8000182D4454FB21F9BFFB21F93F264B70B5B6
:101F90000A0D05000C009A423AD00022234BFFF7AD
:101FA0005BFA002834D1002228002100204BFFF7E3
:101FB0005BFA002802D000201E4970BD28002100D5
:101FC000FFF72AFFFFF788FA0600FFF76DFA020015
:101FD0000B0028002100FFF7BEF9174B174AFFF747
:101FE000EAF9FFF7C5FB4B0004000D005B0DE4D0E0
:101FF000134A9342E1D0F318002B0CDD114A9342AF
:102000000DDDCB0F0B4ADB071A4300201100D4E78C
:1020100000200021D1E7CB0F0020D907CDE7002019
:10202000310500196941C8E7FF0F00000000B0C08A
:102030000000B0400000F07F422EE63FEF39FAFE8C
:10204000FF070000FE070000F0B5D6464F464646A3
:10205000C0B517001E000022B84B05000C00FFF7AA
:10206000EDF9AC46230000283CD1330D99465B05C1
:102070005A0D9046002B3CD0002228002100B04B86
:10208000FFF7DCF9002838D0AE4B984531D09945A0
:1020900000D176E0AC4B994500D16CE04346AB4AA9
:1020A0009B1800D56DE0A6483422D31A9C46002B1D
:1020B00010DD543A991800D5F8E01F328A4001210A
:1020C0006346494299403B008B43310091430B43A7
:1020D00000D001E133003A0028002100FFF760FD45
:1020E00084460B0060461900E0BCBA46B146A846DB
:1020F000F0BD00239C46914BF4E7220D53052000D0
:10210000590D002B2AD14346904A002E3DDB9B18E7
:1021100031D43421C91A2ED420235B425B1898464F
:1021200060D4012342465B429340012252428A40DE
:1021300038009043020030009843030013431AD143
:10214000AC4623003429CDD04346002B00DA9DE075
:10215000DE40F3070FD5AC462300C3E7794B9A4620
:102160009A4248D100239C46002EBBDB784BB9E74E
:10217000784B994205DC00239C46B3E7754B9942A6
:10218000F9DC00239C46724BACE79B18F9D434224F
:10219000D31AF6D4543A98181BD41F328240012126
:1021A000494299403D008D432900350095432A005E
:1021B0000A43E6D1342B04D000286FDBC640F30776
:1021C000DFD500226249E40FE40721430B00944667
:1021D00088E70122202152421500C91ACD409A40B9
:1021E0002A43DCE7012320225B421800521AD04028
:1021F0008B40034399E7544B9A4262D14346534A7A
:10220000002E20DB9B18BCD43422D31AB9D4543A04
:10221000981876D41F3282400121494299403C00EF
:102220008C4321003400944322000A43A9D1342B6B
:1022300000D17FE0002875DBC64000239C46F307F1
:1022400094D5454B4EE79B1895D43422D31A92D49B
:10225000543A98184CD41F32824001214942994087
:102260003C008C4321003400944322000A4300D0F8
:1022700081E7342B05D000284CDBC640F30700D49F
:1022800079E700239C4680231B062BE720235B1A5B
:102290009E4033003E00CE401E435AE72022D21A11
:1022A000964032003E00DE40164388E7012220219E
:1022B0005242C91A1300CB40190063469A400A43A0
:1022C000FDE6D14500D153E7994500D156E7434695
:1022D0001E4A9B1800D4E7E6002800DA51E73300D5
:1022E0003A0028002100FFF7A5FA84460B00F9E622
:1022F0000122202152421400C91ACC409A402243A4
:10230000ABE70122202152421400C91ACC409A4066
:10231000224381E72022D21A964032003E00DE405E
:102320001643ABE72022D21A964032003E00DE4030
:10233000164382E700239C46074BD3E60000F03F9C
:102340000000F0BFFF070000FF0F000001FCFFFFCF
:102350000000F07FFE0300000000F0FFF0B55746DC
:102360004E464546DE461C00E0B50D006400640D97
:10237000A246534C1E006B00010085B028005B0D87
:10238000A34267D05446002C64D0EC0F0394002B7A
:102390000CD10025002C60D100242800210005B0BC
:1023A000F0BCBB46B246A946A046F0BD0D000400F5
:1023B0005345F2DB0C00802149038C460003000BDF
:1023C000014336030D00310B160062460A43170025
:1023D00052469B1A9846002B5EDD0120391140427F
:1023E00003F004FE834616E022009A400192230087
:1023F0004A469340481032000093C9173B0004F04E
:1024000035F8009C019D43464A469B1A241A8D418B
:102410009846002B24DD4346C1460C2B01DD0C23DE
:1024200099465B46A9114A4659431D239B1A20220F
:1024300019414B46524201319B18D5D54A462023BB
:102440009B1A2200DA40484613002A0082401A43B1
:102450000192CCE700251B4C9FE7802424069CE7D3
:10246000AF4220DD002D05DAA4197D41002D01DAEF
:10247000A4197D41039B002B04D022002B000025D2
:1024800054429D415346104A20002900D21AFFF7BA
:1024900053F805000C0080E7AF42EBDCAF420BD0F5
:1024A000A41BBD41E6E7AF4201D1A642DAD8A41B86
:1024B000BD41AF42F2DDDDE7A642F1D9DAE7C04621
:1024C000FF0700000000F07F33040000F0B557461E
:1024D0004E464546DE46E0B587B002925A009A461F
:1024E000530D9946109B4D0004006D0D002B01D03B
:1024F00000221A609A4A95427DD04B46002B7AD032
:10250000002D00D182E027000E00914575D0013BDF
:102510000393AB4271DCCB0F0E039846330B9B4603
:1025200080235B039C465B46624613431F00534671
:10253000060018036346000B0343029A0193039BB2
:102540000092AB4200D1AAE04346002B00D1B7E095
:1025500033003C0000275E42A7414B46ED1A002D98
:1025600000DCC0E00120019B4042191103F03EFD58
:10257000002398464B4603935346AB460290049380
:102580001BE032009A4015003300524693401C0075
:102590004B464846D917009A019B03F067FF434614
:1025A000524693404B4498465B4626002F009B1AA8
:1025B000361A8F419B46002B2BDD5B46DA460C2BEF
:1025C00001DD0C239A46029ABB11534351461D224A
:1025D000521A1341202201335B10524299468B1844
:1025E000CFD5202332005B1ADA4013003A008A402C
:1025F00015001D43C8E700275A4E3800310007B0C8
:10260000F0BCBB46B246A946A046F0BD0027002656
:10261000F3E7039B9946049B9A46009B019CBC42AE
:1026200000DD83E000D17DE0009B019CF61AA7410C
:10263000BC4200DD8BE000D185E0009B019CF61AD6
:10264000A74102239C46E0443200009801993B00D8
:1026500092197B418B421ADC17D000998A425AD0DA
:102660005346002B02DA43465B429846109B002BF0
:1026700001D042461A604B463B4A30003900D21A1C
:10268000FEF75AFF07000E00B7E78242E5D9009B2C
:10269000019CF61AA74101239C46E044E0E7019B18
:1026A0009F422FDD00980199434600184941002BB5
:1026B0003FD1039B361A8F41994601239846CFE7B5
:1026C0004B46ED1A002D00DD4CE7019BBB42BBDC05
:1026D000009B019CBC4201D1B342B5D8009B019C38
:1026E000F61AA74133E000239846009B019CF61898
:1026F0006741002F2FDAF618674102235B429C46A0
:10270000E044A1E7009A019B9F4201D19642C9D8BB
:1027100027000E0071E7019A9342A1D14346DB07DF
:102720009ED5B4E7009BB34200D87DE7002FDCDBE9
:102730008AE7039B801BB941994601235B4206004F
:102740000F0098468CE7009BB34200D875E7012341
:102750009C46E04478E701235B429C46E04473E7F3
:10276000FF0700000000F07F3304000010B50024D4
:1027700082B00094FFF7AAFE02B010BD07B5604614
:1027800001880A0A0230DF2AFAD1C9B2820804D3CA
:10279000028840880004104300E00068014A50505D
:1027A000039007BDE04A00200FB403BC0CBCF0B599
:1027B0000124E407634000E0F0B50C0DCF0F661E66
:1027C0003605891B640503D3C943404200D3013158
:1027D000640D03D0661CF60A07D0E41B00207F00BE
:1027E000791C89078912803C24031D0DDF0F6E1EA2
:1027F00036059B1B6D0503D3DB43524200D30133E7
:102800006D0D03D06E1CF60A07D0ED1B00227F0071
:102810007B1C9B079B12803D2D032F1B661B58D4EE
:10282000A446202E46DA20371400BC401D00BD40CF
:10283000F24033412A4380185941CB0F05D0C94398
:10284000C043002264425041514162464D0D28D19F
:102850000D0D07D100281FD0241940414941013AEC
:102860000D0DF9D0640006D3013000D30131002CE6
:1028700001D140084000013A0BD4941CE40A04D171
:1028800012051144DB071944F0BDD907204B194349
:1028900000E0D9070020F0BD0029DDD1002CDBD1FC
:1028A000F0BD0132C6074008CD0728434908002E75
:1028B000E1D0D9E73C2E29DA203E40371400BC4055
:1028C00000D00124F24014431A00BB401C43D3172C
:1028D000ACE7AC46202F08DA20360400B4400D00E7
:1028E000B540F84039412843A5E73C2F0CDA203F9A
:1028F00040360400B44000D00124F84004430800EE
:10290000B1400C43C117EAE710001900002494E716
:102910000000F07FF0B50C0D661E3605891BE60A37
:102920006405640D02D0651CED0A04D0002001216D
:102930000905803C2403A4461C0D671E3F05DB1BD4
:10294000E70A6405640D02D0651CED0A04D000227C
:1029500001231B05803C24037740644497B484B270
:1029600096B27443070C7E43150C6F4380B26843E4
:10297000361802D3012000043F183004350C00192A
:102980007D41844688B29AB250430C0C62431F0CBE
:102990007C438EB27E43921902D301263604A419D9
:1029A0001604170C3618674101BC81B29AB2514324
:1029B000040C62431B0C5C4380B25843121802D3D0
:1029C0000120000424181004130C401863412D1832
:1029D0005E410020474106BC88B293B258430C0CBC
:1029E0006343120C544389B251435B1802D3012153
:1029F0000904641819041A0C091862416D1856412B
:102A00000020474118BCF902720D1143F0026A0D13
:102A10001043ED020A0D03D16D1940414941013BBC
:102A2000124E9B1B7600B3420ED26D0007D30130CD
:102A3000002671416646354301D1400840001B0520
:102A4000C918E4072144F0BD0BDA013306D1013087
:102A500004D101314F0D01D04908F2E7E107002010
:102A6000F0BD013631050020EBE70000FF03000058
:102A7000F0B51C0D671E3F05DB1BE70A6405640DFE
:102A800002D0661CF60A04D0002201231B05803CFC
:102A90002403D0252D060026F6432E661E096E66F9
:102AA000CE0FF619B44649004F0D02D07E1CF60A2F
:102AB00003D000200021403F3F033E1BB600B4443A
:102AC000013F7F05C91B49082E6F013676089C021D
:102AD000950D25437543ED137543AD1301356D1009
:102AE000F603761B0CB4CC02450D2C43A2B2B3B254
:102AF0005A43270C7B43350C6F43A4B26C431B191C
:102B000002D3012424043F191C041D0CA4187D4188
:102B100024196D41009A91B2ACB26143170C7C4309
:102B20002B0C5F4392B25A43A41802D30122120421
:102B3000BF182204230C52187B41019C6C431B19C3
:102B4000520ED9010A434401A01A81B2B2B25143D4
:102B500003145A43360C734387B27743D617D219FE
:102B600000277E4136049B191704160C7F185E411E
:102B70007316ED18F301002680337541A90F06D1B5
:102B80006400690AE8055B0A184309D22FE00422B1
:102B9000944480337541A90AA8059B0A184326D39B
:102BA000404149412404009A019B0D005543641B98
:102BB0004343E41A95B286B27543170C7E43030C67
:102BC0005F4392B25A43B61802D301221204BF18CF
:102BD0003204330C52197B4152429C41002C02D4E6
:102BE0000022013051414008CA071043490802B091
:102BF0006246D7079210084BD218084B9A4203D26C
:102C000012058918C919F0BD0020002A01DC39001D
:102C1000F0BD01331905F5E7FD030000FE070000D4
:102C200007DA002107E0C90FC907520D03D0C91206
:102C300001E04C49090500207047C0464A00F2D225
:102C4000520D013A484B9A42EAD2F0B51405091BDD
:102C5000520801D3001849419B08D2181205944626
:102C600040A44A0CA25C0B09534353431B13534328
:102C70005B131202D21A13005B435B0B4C086343D5
:102C8000DB135343DB1501335B10D21A130CD21A3A
:102C900013005B438902840D21438DB29EB27543BC
:102CA0000F0C7E431B0C5F438CB25C43361902D37E
:102CB000012424043F193404330C64197B419D0121
:102CC000A40E2C432034A5B25543241454432D0C98
:102CD0006419A411D203121B95B28EB27543170C5E
:102CE0007E430C0C674393B26343F61802D301236F
:102CF0001B04FF183304340C5B197C41DB1864415E
:102D0000DB18002363419EB276439DB21F0C7D43C6
:102D10007F436C04ED0BA4197D4106028F08361B1E
:102D2000AF417D07F6086E41B4B295B26C433714DB
:102D30007D43120C5743B6B25643EA17AD1900262D
:102D400072411204BF182E042A0C36197A41083237
:102D5000521117D29D0A9C05D1171019694161447F
:102D6000F0BD0000FF070000FE070000F8EBDFD613
:102D7000CDC5BEB8B2ADA8A4A09C9995928F8D8AFE
:102D80008885838152415D0ADC05D11714194D41B4
:102D90002B006343A6B27643A2B2270C7A437F434B
:102DA0005104D20B89197A41D218D21880054942B0
:102DB000904102D4002301345D4160086908ED07A9
:102DC00028436144F0BDC046624618CA94465A463C
:102DD000002A20DB04E0624618CA944600291ADA69
:102DE000C01861415B463B415C46B4405246FA40E4
:102DF000224344464D4662416B41904699462B46DC
:102E0000B3403D41FC401C4352465B46A241AB41AE
:102E100092469B467047C01AA1414B463B414C46E7
:102E2000B4404246FA40224354465D4662416B41FB
:102E300092469B462B46B3403D41FC401C434246D4
:102E40004B46A241AB41904699467047002200B5DF
:102E5000203200F010F8080000BD002200B500F09C
:102E60000CF8CA179A4200D100BDD8430121C90706
:102E7000414000BD00220B150AD410B5944600F065
:102E800079F81414013400DA0021CB17144C2047D0
:102E90000020002170476244343A0CD40C2A07DA2F
:102EA00004009140904052422032D440214310BD52
:102EB000D843D94310BD203207D40C469440524227
:102EC00020321141D040204310BD0800C9172032E4
:102ED00003D452422032104110BD1800190010BD19
:102EE000972E001000210A00002104E000210A00B2
:102EF000C11704E00022002306E0C0460022CB17E1
:102F000058405940C01A994130B5184CA21A0029AE
:102F100003D1010010D00020203A4C1512D104D268
:102F2000013A001849414C0DFAD3114CA24204D287
:102F300012058918DB07C91830BDD243520D002095
:102F40000021F5E703D4013A00184941FBD50B32C3
:102F50004405C00A4D052843C90A640003D0002473
:102F600060416141E1E7E0D34408F8E73204000042
:102F7000FE0700000A0DCC0F531E1B05C91A52058F
:102F800003D3C943404200D30131520D03D0531C37
:102F9000DB0A07D0121B00206400611C890789121C
:102FA000803A1203014BD21A70470000FF03000061
:102FB000023225D40C2A1CDA1125AD1A0B002B4144
:102FC000083207350600EE40904091403143F0CC86
:102FD00063431A1500235A41554356435743BF02D2
:102FE000F412760576196741ED177F19801BB941F8
:102FF00070470C220020C917490001310905DBE7A1
:103000000902030E194300025342203208D40C0077
:1030100019419440D840204300225041514170470B
:103020000800C917203B2032F1D5002000210022E2
:103030007047F0B5FEF780F900F02EF8844600F0F6
:103040004FF803B4604600F069F80CBCFEF77AF95B
:103050000FE5F0B5FEF770F900F01EF800F040F84B
:1030600006E0F0B5FEF768F900F016F800F056F843
:10307000FEF768F9F0BDF0B5FEF75EF900F00CF868
:10308000844600F02DF803B4604600F047F80CBC0D
:10309000FEF758F9F0BD000000B5FFF76BFF30A454
:1030A000FFF786FF00242C4D2C4ED20702D3F643A7
:1030B0006D426641520004D2A246A346A846B146DC
:1030C00003E0A046A146AA46B3466EA4A446012743
:1030D0001F26FFF780FE0137013E212FF9D100BDE9
:1030E000594684B28DB26C43061475430B145E438B
:1030F00082B25A43AD18EA1700D7D2431204B61869
:103100002A042B0C12197341404649469D009B1717
:10311000920F2A43904199413E22F0E6494684B2FB
:103120008DB26C43061475430B145E4382B25A434E
:10313000AD18EA1700D7D2431204B6182A042B0C94
:1031400012197341504659469D009B17920F2A430E
:10315000504159413E22D2E6BB4DF09DC556F63650
:103160007D5100001A61140085880A00FB211900B6
:10317000F0B5FEF7E1F8404D0C002C4001D0AC4218
:1031800002D1090D090500201C002C4001D0AC42E1
:1031900002D11B0D1B0500220026ED02002B04D5D9
:1031A00002266B40694000D476424F1904D59942FB
:1031B0000CDD0136694003E0BB4207DA013E6B409B
:1031C000070010003A000F0019003B0040B4002A2D
:1031D0000FD1002B0AD05C006415013409D14C00DA
:1031E0006415013402D10139013B02E000200021C5
:1031F0002EE0FFF73DFC3E22FFF730FE82468B4675
:103200000020002180460122920791461DA4A44679
:1032100001271F26FFF7D8FD0137013E212FF9D1E5
:103220004A4653460C3A01246407002752081B0003
:1032300005D49341001979416408F7D104E0534162
:10324000001BB9416408F1D1CE0749104008304352
:1032500040BC002E0AD0094C094D01D5E443ED4392
:10326000F60701D100196941001969413D22FFF7B4
:1032700046FEFEF767F8F0BD0000F07F8D305A88FB
:10328000A8F64332694FBB610567AC1DB16E40962D
:10329000FCBAAD0F72DB0BABA66EF50739BD9FE52F
:1032A00076ABFE034B6297BA5BD5FF01D694DBDDAC
:1032B000AAFAFF005DEAEE5655FF7F006E77B7AAC7
:1032C000EAFF3F00BCBB5555FDFF1F00DEADAAAABB
:1032D000FFFF0F006F5555F5FFFF0700ABAAAAFED1
:1032E000FFFF03005555D5FFFFFF0100ABAAFAFF12
:1032F000FFFF00005555FFFFFF7F0000ABEAFFFF17
:10330000FF3F000055FDFFFFFF1F0000ABFFFFFF69
:10331000FF0F0000F5FFFFFFFF070000FFFFFFFFAB
:10332000FF03000000000000000200000000000099
:10333000000100000000000080000000000000000C
:10334000400000000000000020000000000000001D
:103350001000000000000000080000000000000055
:103360000400000000000000020000000000000057
:10337000010000000000008000000000000000408C
:1033800000000000F0B5FFF7F5FD54A4FFF710FEB4
:10339000002904DA204C214D00196941013A04B496
:1033A000012752A6002201239B0730CEB446001B02
:1033B000A9410BD47E4220361D003D411C00B44083
:1033C0001600FE40344362416B4101E0001969413F
:1033D00066460137212FE8D185B29EB275430714A6
:1033E0007E43190C4F4384B24C43F1173619002425
:1033F000614109047F183404310C64197941A40F28
:103400008800204389178018594104BC52423E323B
:10341000FFF775FDF0BD00006BDE73F4FD855C2CDD
:10342000F0B54F0050D27F154ED001374FD0FFF787
:10343000A1FD04B44902C20D1143400201272BA68D
:10344000B446002200237E4220360D003D410C0090
:10345000B4400600FE40344344414D41AE0F05D117
:1034600020002900664630CE121BAB410824A4443C
:103470000137212FE7D18900891012184B4180BCF8
:1034800017A413CC0137784379437C434F05C91205
:10349000CD17C0196941A702A415CD17C9196C41F0
:1034A000DD17801859416C413E22CD17AC4208D03F
:1034B00000090E0730430909260731432411043A55
:1034C000F3E7FFF71CFDF0BD02490020F0BD024903
:1034D0000020F0BD0000F0FF0000F07FAAB800005F
:1034E0006BDE1300A3EF0F0021170B00F34B98BF07
:1034F000EC23F319D6104DCDE3FB470E7AB9BC8A05
:10350000DBC18907CC542C021846E103053083E760
:10351000B029F8011E1FE0874505FE00249E41AC3E
:10352000A9807F008117624515E03F00E610ABA936
:1035300002F81F008858455500FE0F00C4AAA90ACA
:1035400080FF070056455501E0FF0300ABA92A00A4
:10355000F8FF010045550500FEFF0000AAAA008003
:10356000FF7F0000551500E0FF3F0000AB0200F8B0
:10357000FF1F0000550000FEFF0F00000B0080FF42
:10358000FF0700000100E0FFFF0300000000F8FF5C
:10359000FF0100000000FEFFFF0000000080FFFFB1
:1035A0007F00000000E0FFFF3F00000000F8FFFF89
:1035B0001F00000000FEFFFF0F00000080FFFFFF64
:1035C00007000000E0FFFFFF03000000F8FFFFFF1F
:1035D00001000000FEFFFFFF00000000000000806F
:1035E000000000000000004000000000142310B59F
:1035F0000100188804331B88984710BD162310B5A6
:103600000100188802331B88984710BDF8B547465B
:10361000CE4680B50F1E19D01423994604330400FA
:103620000025012698464B461888434621681B888A
:10363000984701C4431E9841013540420640AF42BD
:10364000F1D13000C0BCB946B046F8BD0126F8E75C
:1036500010B503F0D3F910BD094A83009446402207
:10366000634410B51C68C0006240C024144080222E
:10367000520113431C60034B9C466044416010BDE3
:1036800004C001400040014070B5EFF3108C72B6E9
:103690000D4D2B68002BFCD0BFF35F8F0724CB08A8
:1036A000C618C05C01230C40A3401C000440034228
:1036B00007D103433370BFF35F8F2C608CF3108806
:1036C00070BD100000F084FF2C0100D0024B186880
:1036D0008007C00F7047C04600C006400021044B61
:1036E000044ABFF35F8F02C39342FAD17047C046CA
:1036F000000100D0800100D0044A1078431CDBB2E6
:10370000172B00D9102313707047C046E0440020E7
:1037100001238340002904D0034A1360034A136045
:103720007047034A1360FBE780E200E000E100E03D
:1037300080E100E0024B10309B688000C058704769
:1037400000ED00E070B50D00EFF3108672B60F4A81
:103750001368002BFCD0BFF35F8F0D4B10309B68BC
:1037600084001B590B4A934203D09D4201D000F0C4
:1037700047FF074B9B681D51BFF35F8FBFF35F8F00
:103780000022024B1A6086F3108870BD240100D01D
:1037900000ED00E0CD010010F0B5DE4657464E4684
:1037A0004546E0B50C0083B0EFF3108A72B65A4A72
:1037B0001368002BFCD0BFF35F8F10229146814429
:1037C0004A46564B96009B689D59554B98469D42DC
:1037D00005D0A54216D0534FEB1B2F2B14D94F4BBE
:1037E0009B689D51BFF35F8FBFF35F8F00224A4BF1
:1037F0001A608AF3108803B0F0BCBB46B246A946F3
:10380000A046F0BD1D00EAE7012383409B465A46CF
:10381000454B1B681A4000925A46444B1A60BFF34E
:103820005F8FFCF720FD0190002803D0814501D077
:1038300000F0E6FE01232A009A4393689C4208D1D7
:103840005FE04B005B189B00FB189968A14211D008
:103850001A00062151560029F3DA009B002B05D0EF
:103860005A46334B1A60304B1A60B8E75A462F4B12
:103870001A60B4E706215956002921DB4A00501886
:1038800080003C188046A0689860E079D8710620D6
:1038900020569871002824DBA488F81A64052415A2
:1038A00044440019E0240005400D24022043988080
:1038B0005218204B9200BF181A781970BA71CCE7D1
:1038C0000199002910D1FF3191711B49918019494B
:1038D0000A789A71194ADB1B5B415A43120D0A7030
:1038E000BBE7BD200002E2E7154A1649D21A083AA2
:1038F0005002400D01439980134952080A43DA806F
:10390000ABE70621515613000029B7DA019A002AC5
:10391000EAD14546DBE7C046240100D000ED00E0D7
:10392000CD010010E444002000E100E080E100E06F
:1039300080E200E0B14D002000BDFFFFAAAA000018
:103940001E45002000F0FFFF00F8FFFFF8B501253D
:1039500004000543FCF787FCEFF3108C72B6214A94
:103960001368002BFCD0BFF35F8F1F4E2100B76898
:103970001E4A1F4B891A49414B431B0D59B2830004
:10398000F858A8421CD00623D3568B421CD01223D1
:10399000D3568B4222D01E23D3568B4220D02A23CB
:1039A000D35603208B4210D0124B1A781970A27193
:1039B000BFF35F8F00220B4B1A608CF31088F8BDA9
:1039C000B2680D48D050EFE7002043001B189B0061
:1039D000D218FF239371094B9380E5E70120F4E7A8
:1039E0000220F2E7240100D000ED00E0E4440020D2
:1039F000AAAA0000B14D0020CD01001000BDFFFFBC
:103A0000054B064A1360064A136053609360D36007
:103A100013615361936170478080808000E400E00F
:103A200004E400E0024B9C46614489000160704759
:103A30004000003483680B4810B5844661446244FA
:103A4000090112019A18591854684B6801209C42C8
:103A500001D802D00020C0B210BD12680B689A4293
:103A6000F9D8F7E7FFFFFF0FF8B557464E46454632
:103A7000DE46E0B599460CAB1C780DAB1B78060012
:103A800090469A460768002C11D1BC7B002C42D08E
:103A900065003B682D19033D59194B78BB73002B0A
:103AA00000D1FB7300238B704B700B7004E065003A
:103AB0003B682D19033D5919B2682A4B944642467A
:103AC000E3181B0163441A604A465A600A9A9A60D6
:103AD0000B9ADA6000238B704B700B707B7B9B46DC
:103AE000002B2BD022005946B8687B6898473A686B
:103AF000002816D05B4658465B005B445519033BD3
:103B0000A870D118D35C002B00D06B705B460C7092
:103B10007B73A34513D0F0BCBB46B246A946A04672
:103B2000F8BD5B465B005B44033BD3189C705119A6
:103B3000525D002A00D05A705B460B707C7342467F
:103B40004B46307D00F0DEF9051E06D05346002BB3
:103B500003D12100306800F0F7FB0E9B002BDAD078
:103B60001D70D8E7FFFFFF0FF0B5DE464E46574603
:103B700045460023E0B58DB00A936B4B8200D358C5
:103B80000B90994600239B464B46079300F06AF939
:103B9000079C06000F006268EFF3108572B6136889
:103BA000002BFCD022000794BFF35F8F2468637B57
:103BB0009946002B67D092685C4B90464B441B01A2
:103BC000984443461A685B6810001900801BB9418D
:103BD00000295FDD0B9800F095F900230026984638
:103BE00000279A46079C6368BFF35F8F5A461A60A6
:103BF00085F310885346002B08D10028C6D10DB09C
:103C0000F0BCBB46B246A946A046F0BD0A9B414661
:103C100018024B461843D047089009916268EFF3A9
:103C2000108572B61368002BFCD00794BFF35F8F2A
:103C30000899099A002A48DB114303D0079B1B69A6
:103C4000002B5DD1079B1B68D97B002907D04A0058
:103C5000521819688C4649466244033A51704A46E4
:103C6000DA734B46079A013BD168CA5C0132CA54E9
:103C70005B46079A13615368BFF35F8F5A461A6019
:103C800085F3108882E700230026984600279A468D
:103C90000020A7E7002901D100289BD100212000A6
:103CA00000F0D4FA43461E685F689B68079A9A46FC
:103CB0004346DB689846D3684B44013B1B780A9324
:103CC0001B020343136100208CE72369002BB9D04A
:103CD00033003C005B1A94411A002300A74219D814
:103CE0009F421BD0594604910121039149460291FC
:103CF00041460191514607980091FFF7B5FEB7E79D
:103D000000F0B0F8089A099B06000F0092197B4159
:103D10009942E5D901225242D317E3E79642E1D90D
:103D200001225242D317DDE7804D0020FFFFFF0F35
:103D300010B5124C6368002B04D00A211048FFF71D
:103D400071FE10BD23000F4A1021206800F09CF97D
:103D5000032000F07BF8032000F044F903200A4917
:103D600000F08AF8FFF7C8FC084B9C460323604428
:103D70002375074B80006060DC60DEE72C45002087
:103D8000944D0020353A0010693B0010400000348B
:103D9000804D0020F0B5D6464F464646C0B5EFF3FD
:103DA00005833F22134018001038EFF3108C72B6D1
:103DB000204D2A68002AFCD0BFF35F8F012211003A
:103DC00081401D4C884661631C4917000E788A4665
:103DD0003100C1400F400A4209D1BFF35F8F2F600D
:103DE0008CF31088E0BCBA46B146A846F0BD144931
:103DF0008200646A51588C420FD3124BD25843460A
:103E00009E4353461E70BFF35F8F00232B608CF3DD
:103E10001088002AE6D09047E4E70B4A9B009046C2
:103E200043441A681A60BFF35F8F00232B608CF342
:103E30001088D7E7280100D000400540B24D00208F
:103E4000984D0020FC4C0020D03F054010B50100EB
:103E5000024A0348FFF718FC10BDC046CC6F0010A3
:103E6000B04D0020034B596A0A00986A596A8A4289
:103E7000FAD170470040054070B504000D00EFF323
:103E8000108672B61A4A1368002BFCD0BFF35F8FFE
:103E9000002D1BD02000FFF74DFC164981420AD0AF
:103EA0002000FFF74FFC01212000FFF731FC012328
:103EB000A340114A1360114BA400E550BFF35F8F7C
:103EC00000220B4B1A6086F3108870BD0B4BA200CA
:103ED000D5500122A2400A4920000B7893430B7071
:103EE0000449FFF759FC00212000FFF711FCE5E72A
:103EF000280100D0953D001038600540FC4C0020A2
:103F0000B24D0020F0B54F46D6464646C0B5070034
:103F10002F4C616A0D00A66A616AA942FAD18B42F0
:103F200008D805D00120E0BCBA46B146A846F0BD8D
:103F3000B242F7D9EFF3108A72B626480168002919
:103F4000FCD0BFF35F8F0125BD402349204C88463C
:103F5000097889462943C9B28C46414660460870B3
:103F6000391D1E48890065630A51B9000B50216A4A
:103F70000020294219D0616A0800A66A616A81425C
:103F8000FAD18B4219D801D1B24216D8CC451DD0F6
:103F90000F4B1F201D625D6301230740BB40104A89
:103FA0001E38136043464A461A70BFF35F8F0022E3
:103FB000084B1A608AF31088B5E70020BFF35F8FC3
:103FC0000022044B1A608AF31088ACE70120ECE76A
:103FD00000400540280100D0B24D0020984D00203F
:103FE00080E200E0EFF3108C72B60A490B68002BF8
:103FF000FCD0BFF35F8F01238340074A0748136259
:1040000002789A430270BFF35F8F00230B608CF33A
:1040100010887047280100D000400540B24D0020B4
:1040200070B5050014001600002915D00C00002AF8
:1040300012D080686B689847296800280ED07300FA
:104040009B196200033B1219CB18033A9C70881825
:104050008A5C002A15D10670200070BD63001B1910
:104060007200033B9219CB18033A9E7088188A5C41
:10407000002A02D104703400EEE75A700470340054
:10408000EAE75A700670E7E730B583600023CCB2E8
:1040900043730133047342608373C4730D0000687B
:1040A000012C06D9421C0133DBB2137003329C424F
:1040B000F9D1FF2129404B0059180023401803383B
:1040C000437030BDF8B5CE46474606000C0080B5BB
:1040D000002907D04D0003686D18033D5A19577821
:1040E000002F04D12000C0BCB946B046F8BD79000D
:1040F000C9190339884643445978894600215970C3
:10410000517073683A00210080689847336800282E
:1041100014D042469A18947059195B5D002B00D058
:1041200053700F70270049463000FFF7CBFF39006E
:1041300002003000FFF774FF0400D3E74246414617
:104140005D19AF709A185B5C002B00D06B70147017
:10415000E9E7C046F0B557464546DE464E46E0B56F
:104160000D006B0001685B19DF1E0400C85D83B0A1
:104170000192CA1900284CD043001B18033BCB18EE
:104180005E78B446002E16D1019E002E3ED0E67B0E
:10419000002E04D073009B19CB18033B5D70E573B0
:1041A00000282FD10023537003B0F0BCBB46B246A9
:1041B000A946A046F0BD72006244033A89184A78C5
:1041C000904600224A7091465A7001003200200049
:1041D000FFF726FF43468246002B07D05B0021688D
:1041E0004344033BCB185A78002A16D14246514625
:1041F0002000FFF715FF2168019BCA19002BC6D1CB
:104200000028CFD043001B18033BCB180021997026
:10421000C8E7019B002BBAD1C4E7500080180338CF
:10422000091848788346484648705870414620002F
:10423000FFF7F6FE594680462000FFF743FF414650
:1042400002002000FFF7ECFE8046CFE7F0B55746AE
:104250004546DE464E46E0B583B00191457B0400FD
:104260006B0000685B19DF1EC15DC21900294ED0CA
:104270004B005B18033BC3185E78B446002E18D180
:10428000019E002E40D0E67B002E04D073009B19C7
:10429000C318033B5D70E573002931D1002328006A
:1042A0005370617303B0F0BCBB46B246A946A0464A
:1042B000F0BD72006244033A8018427890460022B2
:1042C000427091465A7020003200FFF7A9FE434623
:1042D0008246002B07D05B0021684344033BCB1888
:1042E0005A78002A17D1424651462000FFF798FE1F
:1042F000019B01002068C219002BC4D10029CDD038
:104300004B005B18033BC31800209870C6E7019B65
:10431000002BB8D1C2E7500080180338091848783C
:10432000834648464870587041462000FFF778FEA3
:10433000594680462000FFF7C5FE41460200200096
:10434000FFF76EFE8046CEE770B5040000292CD042
:10435000437B8B422ED0056848004018033828184C
:104360008278002A21D053009B18033BEA5CEE18A8
:104370008A4202D11BE0002A08D053009B18033B5D
:10438000EB185A788A42F6D142785A7000230122FB
:10439000837043702000FFF7DDFE617B0200200088
:1043A000FFF73EFE6073012000E0002070BD4378FF
:1043B0003370EBE701221900FFF7CCFE6073012098
:1043C000F4E7C04610B50400FFF796F9010020009D
:1043D000FFF728FBFF232371BFF35F8F10BDC0469B
:1043E00010B50400FFF788F901002000FFF71AFB61
:1043F000FF23A380BFF35F8F10BDC046F8B5040054
:1044000006200D0000F060FA002844D02A4B2B490A
:10441000E21853425A418023DB039C469205284B05
:1044200062441A60274B1A6010008B689843FBD1D6
:10443000214B8021E3185A425341234A5B00490033
:104440009952062000F040FA2900C00001F0CEFD8C
:10445000C30921D140270121260080256162A36282
:1044600000232C36AD0135432B60062000F02CFADA
:104470003900800001F0BAFD6023E26A53406E22E9
:104480001A4080235B0133431A60104B23631023CF
:104490002B600D3BA364F8BD0D4A934203D9002362
:1044A0000C4F0D49D8E77F221040013040089F0192
:1044B00019003F180300CFE70080FCBF00C0004098
:1044C00000E0004000F00040A84D00200103000083
:1044D000FEFF0000C0FF3F00FFFF00002C4B2D4AF5
:1044E00070B51A602C4A2D4B2D491A6014008B6848
:1044F0009C43FBD12B4D2C4EB54208D2013E761B7E
:10450000B60808CD984723000134B342F9D100F032
:104510007DF8264A214B1A60214A9368DB43DB0170
:10452000DD09002BF9D14022214B224C224E9A6703
:104530005A671A67DA66B44208D223682000002B53
:1045400020D00834FFF74CFFB442F6D31B4E1C4C6E
:10455000C022A168300001F0F9FFA660FFF7BEF8A5
:10456000FFF74EFAFFF7E4FB164C174EB44208D2A1
:10457000013E361BB60808CC98472B0001359E42F9
:10458000F9D170BD0834FFF71DFFB442D5D3DDE784
:1045900000E00040BFCDFBFEFE7F3C0000F000408D
:1045A00000C00040C8490020D8490020FFFFFF019B
:1045B00000F00140C0490020C84900200000002050
:1045C00000ED00E0D8490020DC49002000BEFDE7F6
:1045D0000FB400B5084883B002F020F9049B002B0B
:1045E00007D005A91800019101F0B2FC034802F0C0
:1045F00015F900BEFDE7C046F06F0010F06D001029
:1046000010B50148FFF7E4FF0070001030B50C2032
:1046100083B000F0B7F9FFF759F800280ED0944B9B
:10462000944A1A605A609A60DA601A615A619A6113
:10463000DA611A62904A5A6203B030BD8F4CA067AB
:1046400000F0A8F901228E4B1A60636C012BFCD19B
:1046500003228C4B1A60894A936B012BFCD10133E6
:104660000121894A89480093043300F033F9052376
:10467000874A00930121874800F02CF9864B5A683D
:10468000FF2A02D8802252005A608022784C7D4B4B
:1046900021691201804D1A60002905D0606901F07E
:1046A000A5FC01300138FDD1E0217B4B02201A68C6
:1046B0001140802252012A431160196848400321A9
:1046C0000140116004219A681142FCD080228021AF
:1046D00092012A4309011160802252005A606F4BF7
:1046E00023616F4B5968FF2900D85A600321644A3F
:1046F0006B4B116002399A681142FCD0E0201A68B5
:104700001040802252011A4310601868484003216B
:1047100001400220116062498A681042FCD0802268
:1047200092011343802212011A6080225D4B5200D5
:104730004A6063615C4B5968FF2900D85A60802247
:104740005A4BE1691201584D1A60002905D0606981
:1047500001F04CFC01300138FDD1E02252490B68D8
:104760001A4080235B012B431A60802380229B0127
:104770002B4312011A6080223E4B52004A60E361D3
:104780004B4B5968FF2900D85A608022494B216A57
:104790001201474D1A60002905D0606901F026FC1E
:1047A00001300138FDD1E02241490B681A408023D5
:1047B0005B012B431A60802380229B012B43120153
:1047C0001A60802380225B004B602A4BD202236256
:1047D000394B5968914200D25A608022374B616A46
:1047E0001201354D1A60002905D0606901F0FEFB09
:1047F00001300138FDD1E0222F490B681A40802397
:104800005B012B431A60802380229B012B43120102
:104810001A608023DB024B60174B6362284B5A6897
:10482000FF2A02D8802252005A608022254BA169BB
:104830001201234D1A60002905D0606901F0D6FBF2
:1048400001300138FDD1E0221D490B681A40802358
:104850005B012B431A60802380229B012B431201B2
:104860001A6080235B004B600E4BA361E4E6C046F8
:104870000C4D0020006CDC021BB7000000800040E3
:104880003CB0004030B00040002F6859008002402A
:10489000008C864700C0024030800040001BB700FB
:1048A0003C800040405973075480004054B00040A1
:1048B0006080004060B000406C8000406CB0004000
:1048C0004880004048B00040014B8000C05870470D
:1048D0000C4D0020F0B5C646040000B50C209046F3
:1048E0001F000E0001F082FB4101091A8D01691AB7
:1048F000C90009188901404601F078FB069B3F0476
:104900001A0323681743002B22DB1A4B1A4DE218B7
:1049100053425A4180235B019C461203174B624469
:104920001A60174B1A601100AB689943FBD1C02283
:10493000231D92011A4321232660A060136023687F
:10494000002BFCDA0823E760136080BCB846F0BD9A
:104950003F2322681340B342D7D1A3681B051B0D28
:104960008342D2D1EE22E368D2021340BB42CCD1C3
:10497000EBE7C0460040FDBF00C0004000E0004043
:1049800000F000408023024A9B000343D36270473B
:1049900000800540AA23064A1B0113602F23054906
:1049A000D360054B19605368002BFCDA7047C04692
:1049B0000040024000B0FA00006002407047C0466C
:1049C000F8B557464E464546DE46E0B599460A9B41
:1049D00007009A460D9B8846934615000B9E9B0741
:1049E00010D10C9B9E420DD29D1B14000E005D4405
:1049F00022004B46013431002020B847A542F7D1B0
:104A0000B0460B9E002E27D0444675195346AA1B6C
:104A1000013E985D21004B46B847002EF6D1230099
:104A20002C0098460D9B9B070FD55B46E51A0C9B07
:104A3000AB420AD94646984622004B463100202018
:104A40000135B8470134A845F6D82000F0BCBB4674
:104A5000B246A946A046F8BD2C00E3E7F0B54F46A4
:104A60004646D646C0B584B098460EAB1B78129F1A
:104A7000994694460D9C109B119EBA0725D4002E92
:104A80004BD19C4200D3BFE001223A4092461F2CFA
:104A900000D9B8E00C9A551E302201E0202C03D03A
:104AA00001342A55A342F9D85246002A0DD0A64215
:104AB0000BD9202C44D00C9A551E302201E0202C1A
:104AC0003ED001342A55B442F9D1FA064DD57A05C3
:104AD0003FD4002C39D10F9B102B00D179E00F9BD4
:104AE000022B00D18AE030230C9A012413704B462C
:104AF000002B3FD02D230C9A135501340C9B62469A
:104B000000930397434602960194FFF759FF04B0C0
:104B1000E0BCBA46B146A846F0BD012215003D40B2
:104B2000AA463A422FD04A46002A02D10C323A42D3
:104B300000D0013E9C42BAD21F2CABD9202E27D9DF
:104B40002024FA06DAD57A0503D4A3422DD0A64252
:104B50002BD00F9B102B32D0022B20D0202CCDD06D
:104B600030220C9B1B191A700134202CC6D04B46E6
:104B7000002BBFD17B070DD43B07BFD520230C9A58
:104B800013550134BAE79C429FD21F2C00D881E70D
:104B900020249AE72B230C9A13550134AEE7202CDE
:104BA000ACD00C9B1B1901343AE0631E012C92D04F
:104BB0000F9A102A2AD0022A2FD01C00D0E7BB0659
:104BC0000ED4202C9AD00C9B1A1901347823137020
:104BD000C4E7BB060DD478230C9A01241370BFE7F9
:104BE000202C00D18AE758220C9B1B191A70013423
:104BF000B4E758230C9A01241370B1E70C9A603380
:104C000001241370ACE7202400265EE7023CBA06BC
:104C1000E9D40C9A12191C00D8E70C9A9246534416
:104C200062221A709AE7C04610B5002800D110BD64
:104C300001F0A4FDFBE7C0460B0010B5002802D030
:104C400049681B68984710BDF0B5DE4657464E468A
:104C50004546E0B59BB09B46249B89469846259BDC
:104C60000B900C924046424619009A46FCF709FC0C
:104C7000002800D0D8E0012240465146774B5242EE
:104C8000FCF7FAFB002800D0CEE001224046514656
:104C9000734B5242FCF7DAFB002800D0C4E000223C
:104CA000002340465146FCF7D1FB002800D0B9E173
:104CB000424653460A9209938023289ADB001A4001
:104CC0000E92289A1A4201D1062326930A9A099B2A
:104CD0001600134300D0C7E0289B002500261B05C3
:104CE00000D49BE100230D93269A0D9B9A4200DC91
:104CF0009FE1D01A431E26938023289ADB001A4393
:104D00000023002728920D93279B0024BB4200D943
:104D1000DC1B0223289A1A400E92289A134203D0D1
:104D20007B427B415B421C400D9B002B07D00A98C5
:104D300009992A003300FCF720FB0A900991002210
:104D4000002340465146FCF781FB002805D0802017
:104D500000068446099961440991289A414B0B9DAC
:104D600013400493269B0A9A0293099B0394009292
:104D7000019349465B4628000C9A00F08BF9040029
:104D8000002F62D0289B220098061F23C01798434B
:104D9000631C984649465B466530A8470D9B002535
:104DA000DA179C18DB0F9A465440013F01E0202D92
:104DB00013D00AAA94461F23200063440A21013518
:104DC0005E1901F013F93031317020000A2101F031
:104DD0000DF926000400092EE9D8052306930023C7
:104DE00004930A330393534605970B9F029312AB28
:104DF000009342465B46494638000195FFF72EFE78
:104E00000E9B0400002B20D00C9BC51A279BAB42A5
:104E10001BD91E0022005B46494620200135B847B9
:104E20000134AE42F6D810E0289B42460493279BFB
:104E300049460393269B0B98029353460092019395
:104E40005B460C9A00F026F9040020001BB0F0BC71
:104E5000BB46B246A946A046F0BDC046FFFFEF7F65
:104E6000FFFFEFFFFFF7FFFF734B099F9C467800A2
:104E7000400D6044FCF718FB704A714BFCF79BFA3D
:104E8000704A714BFCF770FA3B03704A1B0B1A43D4
:104E900004000D00300011006D4B0022FCF75BFA9E
:104EA0006C4A6D4BFCF787FA02000B0020002900CA
:104EB000FCF75AFAFCF710FB0D90FCF7F5FA674A7D
:104EC000674B04000D00FCF776FA0022654BFCF7F7
:104ED0004BFAFCF701FB644A0600644B20002900F2
:104EE000FCF769FA040030000D000F96FCF7DCFABD
:104EF0005F4A604BFCF75FFA02000B0020002900BC
:104F0000FCF729FA02000B0006000F00FCF753FA29
:104F1000320004000D003B0030003900FCF724FA99
:104F2000002210901191544B20002900FCF725FA23
:104F30000022524BFCF718FA02000B002000290057
:104F4000FCF71BFA00224E4BFCF70EFA02000B0096
:104F500020002900FCF711FA0D0080210400320026
:104F60003B000020C905FCF7F6F902000B00200009
:104F70002900FCF7F9F902000B0010981199FCF7D1
:104F8000FCF90022314BFCF7EFF93E4B0F9C9C469D
:104F9000644400222305FCF70EFA05000E0002000F
:104FA0000B000A980999FCF751FA00280AD00D9BCA
:104FB0002800013B31000D930022304BFCF7DDF956
:104FC00005000E00C6270D992B0063318F42BF41AB
:104FD00028997F420437090500D495E6334300D170
:104FE00082E6099C284A2100284B0A98FCF73CFAE3
:104FF000002808D000222100254B0A98FCF726FA49
:10500000002800D070E6269B002B00D17CE60E9B8A
:105010005A1E9341269AD31A269375E60023042735
:105020000D9371E643460A9380231B06534409936C
:1050300042E6002326935FE601FCFFFFFB799F50C9
:105040001344D33FB3C8608B288AC63F0000F03FAB
:105050000000F83F61436F63A787D23F71A37909CE
:105060004F930A400000E03F1655B5BBB16B0240BC
:10507000EF39FAFE422EE63F00002C4000002440AB
:1050800000001840FF0300002D431CEBE2361A3FDE
:1050900080842E41F0B54E46DE4657464546E0B583
:1050A00097B09946209E219F229B83469846079160
:1050B0000C923B00320030003900FCF7E2F9002886
:1050C00000D0A9E1012230003900CA4B5242FCF75E
:1050D000BDF9002800D0E1E0012230003900C64BC4
:1050E0005242FCF7C9F9002800D0B7E00022300096
:1050F0003900C24BFCF7C0F9002800D099E000222B
:1051000030003900BE4BFCF7A1F9002800D090E038
:105110000022002330003900FCF798F9002800D065
:10512000B1E000230D93249B5B0501D40623984630
:1051300008AB9C461722002430234146624404E019
:10514000013413550139202C01D00929F8D888469B
:1051500030003900FCF7C0F94346DA00A94B0500DE
:105160009B181A685B6808920993FCF79DF9020086
:105170000B0030003900FCF7EEF8089A099BFCF7A9
:105180001AF90A900B91FCF7CBF98246FCF788F9E3
:1051900002000B000A980B99FCF7DDF800229A4BED
:1051A0000A900B91FCF768F9002800D1C0E00123B8
:1051B0009C46E2445046FCF773F902000B00089845
:1051C0000999FCF749F9002802D000239A460135D5
:1051D0004346002B6AD008AB17269C4608956644C8
:1051E000554614E001235B4243440A2128009A46B5
:1051F00000F0FCFE013430313719397028000A21E3
:1052000000F0F4FE092D00D8D0E0D0460500202C97
:10521000E8D10EAB98460323249A1340012B00D10A
:1052200096E02023249A01930392239A4346029204
:105230001EE0249B58460493239B009601970393FA
:1052400043460C9A029307994B46FFF7FDFC17B0B3
:10525000F0BCBB46B246A946A046F0BD249B5B0706
:105260000ED40322694B2499019203912399029150
:10527000009358464B460C9A0799FFF7A1FBE6E7C7
:105280000422634BEFE73B00320000200021FCF7D3
:1052900062F8012306000F000D9344E7249B03935B
:1052A000239B0293042301935A4BE1E72800FCF768
:1052B000FBF802000B0030003900FCF74CF8524BB1
:1052C000002206000F00FCF7C1F80EAB984600283C
:1052D0000AD10022300039004B4BFCF7CDF80028F2
:1052E00002D1EB0700D50135202C94D008AA9446B2
:1052F0001723280063440A2101341E1900F04EFED2
:105300003031280031700A2100F048FE051EEBD133
:105310000323249A1340012B1BD0202C00D180E7BB
:105320000D9B002B35D02D224146631C0A5579E791
:1053300000220A980B99344BFCF788F8002800D01B
:1053400046E75346002B51D101239C46E2443FE7F8
:105350002024239B002BE0D00D9B002B03D1249A0B
:105360000C33134202D0239B013B2393239BA34284
:10537000D3D908AB9C46172230236244202C00D19D
:105380004FE72399013413558C42C6D0202CF8D115
:1053900047E7249B5B0724D4249A2300120700D4F8
:1053A00040E72022414601330A553BE75746089D16
:1053B000202C00D12DE7220030214046002F09D0BB
:1053C0000132B154202A00D123E7D3431B191B1803
:1053D000002BF5D10EAB98462E234146541C8B541E
:1053E00082E72B224146631C0A551BE7DB0700D4EA
:1053F000EEE6A9E7FFFFEFFFFFFFEF7F65CDCD41B1
:1054000065CDCDC1087200100000E03F0C700010A7
:10541000107000101C700010249B0393239B0293B8
:1054200003230193004B23E718700010F0B5DE460C
:105430004E4657464546E0B59FB01C00289B914616
:105440000993C94AC94B8B4608901A60002900D1BC
:1054500018E2002320789A46002800D11AE226009C
:105460001D005C460AE02A006F1C4B46089D210087
:10547000A8473D0001363078002870D02528F2D1A9
:1054800010239B46083B9A46043B9846023B00216A
:105490009C46721C107816000300203BDBB2102BD8
:1054A00003D8B34F9B00FB589F460300303B092BAA
:1054B00032D900230A932A2868D0002398462E2840
:1054C0003ED00300683BDBB2122B1CD8A94A9B00DC
:1054D000D3589F46012301321943DBE7634601326B
:1054E0001943D7E7434601321943D3E75B460132FC
:1054F0001943CFE7534601321943CBE780235B00C2
:105500007078194301360300253BDBB2532BAAD830
:10551000994A9B00D3589F4600270300B800C01942
:1055200001364000C018337830381A00303A07008E
:10553000092AF3D90A901800002398462E28C0D1D2
:1055400080237078DB0019430300303B721C092B69
:1055500000D8A1E12A2800D1B2E11600B1E7A346A4
:10556000AA462C00D14503D801235B424B449A46FE
:105570004B46524659460020089DA84720001FB0C0
:10558000F0BCBB46B246A946A046F0BD099B40CB45
:105590000A96002E03DB50780993561C8DE72838B5
:1055A000014370420A9009935078561C85E7782889
:1055B00000D1DFE1582800D14CE26F2800D14FE341
:1055C000622801D100F030FC10230A009A430B92AC
:1055D000692801D000F0A9FC0A230C934B0500D5E3
:1055E000D0E10B9A802311009B0019408B461A4290
:1055F00000D0A1E2802311005B0019408A461A42C4
:1056000000D0B6E313005B0600D5EDE21300099964
:105610001B0601D400F076FC08C91BB2D8171A1873
:10562000424092B209919346DA0F1292002B09D1AF
:10563000802310220B99DB000B4091430B91002B30
:1056400000D0E4E20B9A6123920600D541230EA913
:105650001F228C46DBB262440A3B5F461395A34689
:1056600055460C9CB2460D9316000AE03033DBB26F
:1056700001357355A74200D2EDE2202D00D1EAE2B8
:1056800007002100380000F0B1FCCBB20929EDD9A8
:105690000D9A94466344DBB2EAE780239B0070785E
:1056A000194301362FE77078682800D1CDE18023B7
:1056B0000136194327E770786C2800D1BFE18023B9
:1056C0005B00194301361EE7462800D19BE1072203
:1056D000099B0491073393430A9A190003924246A7
:1056E00002920CC908980092019309912A004B4636
:1056F0002100FFF7CFFC01360500BCE62A006F1C35
:105700004B46089D21002520A84701363D00B2E602
:105710008B0700D4ADE1099B2A009A466B1C984682
:10572000534601CB21009A46089F4B46C0B2B8476A
:105730000A9B9C466544012B00D886E2089B47469D
:10574000B04626004C4699463A0023000137310006
:105750002020C847AF42F7D1A14653463400464601
:105760000993013687E6C0462D5400107C4D002079
:105770002470001068700010B4700010099B04CBF6
:105780009B4643460992002B00D1C6E013789C4605
:10579000002B00D1BDE34346013B099A0133D018E9
:1057A0000A9F130001E0834203D05A780133002A94
:1057B000F9D1099A0A979B1A0B9380230A00DB0000
:1057C0001A400C92194204D00B9B434501D9434621
:1057D0000B9302231A000A400D920B4200D187E17D
:1057E0006046002800D168E10C9B002B00D10DE140
:1057F000A844C246099B57465B1B9846089BB24685
:105800002A0026004C46994609E023003100551C29
:10581000C8474346585D002800D126E12A00974238
:10582000F3D1A1463D00340056460D9B002B00D01D
:1058300043E15B46013609931DE6099B1A0008CA3D
:105840009246002B48D0212211438B460EA8844655
:105850001F216144099500220F27A4460D0002E094
:10586000202A0CD00B003C001C4020003730092CB3
:1058700000D807380132A85419090F2BF0D8644614
:10588000099D32E0DC4B2078089300239A460028DB
:1058900000D0E4E5002465E6434606000A9F980030
:1058A000C0180132400080191678030030003038EB
:1058B000303B0928F3D93000984616000A9700E6D5
:1058C000099B023604CB9046D2434046D217104083
:1058D000804609933078F4E5102208009043113295
:1058E0001043834600224905B0D55B460693082342
:1058F000059343460493102303930023029316ABAE
:10590000019200932A004B4621000898FFF7A6F861
:105910005346050001360993ADE513789C46002BEC
:1059200000D1F7E202235B4237E7202302009A43CB
:10593000472A04D180231B01194302239843452899
:1059400001D1202319430722099B04910733934374
:105950000A9A19000392424602920CC908980092D2
:10596000019309912A004B462100FFF76DF901369A
:10597000050080E510230C930C230A009A430B9238
:105980004B0503D501230B9A9A430B92692800D14A
:1059900027E6642800D124E60B9A802311009B009F
:1059A00019408B461A4200D066E1802311005B004B
:1059B00019408A461A4200D039E213005B0600D52E
:1059C0003CE113001B0600D4A6E2099B04CB1204A1
:1059D000120C934609935B46002B00D09AE10B9A78
:1059E0001033110099430B91520500D492E100232A
:1059F0009A460B9B06930A9B0593434604930C9B84
:105A0000039300230CE12023194360E6099B0A9AC3
:105A10005B1B98464B4691461F00B2462600089CE9
:105A20002A003B003100A04743460135585D00285D
:105A3000F6D14A463400B94656460A92F5E6C023E6
:105A40009B00B078194302365DE5C023B078194356
:105A5000023658E50C230A009A4314331A43103BCC
:105A60000B920C934B058DD496E7A1463400564615
:105A7000DBE60A9A012A00D853E26B1E9F18089BA6
:105A8000B04626004C4699462A00230001353100D5
:105A90002020C847BD42F7D1A14634004646099BA5
:105AA0003A0001CB210098467D1C4B46089FC0B2AE
:105AB000B847434601360993DDE40B9B0A9AA84692
:105AC0009A4200D8B5E694466544ED1A089B4746CD
:105AD000B04626004C4699463A0023000137310073
