:020000041000EA
:1000000000B5324B212058609868022188439860DF
:10001000D860186158612E4B002199600221596106
:100020000121F02299502B49196001219960352056
:1000300000F044F80222904214D00621196600F024
:1000400034F8196E01211966002018661A6600F04E
:100050002CF8196E196E196E052000F02FF8012189
:100060000842F9D1002199601B49196000215960AB
:100070001A491B48016001219960EB211966A021F2
:10008000196600F012F800219960164914480160C1
:100090000121996001BC002800D000471248134993
:1000A000086003C880F30888084703B5996A0420EC
:1000B0000142FBD001200142F8D103BD02B5186610
:1000C0001866FFF7F2FF186E186E02BD00000240BE
:1000D000000000180000070000035F00212200005C
:1000E000F4000018222000A00001001008ED00E03C
:1000F00000000000000000000000000074B24E7A12
:1001000000200420F7010010C3010010C5010010F9
:10011000C1010010C1010010C1010010C101001097
:10012000C1010010C1010010C1010010C701001081
:10013000C1010010C1010010C9010010CB01001065
:10014000CD010010CD010010CD010010CD01001037
:10015000CD010010CD010010CD010010CD01001027
:10016000CD010010CD010010CD010010CD01001017
:10017000CD010010CD010010CD010010CD01001007
:10018000CD010010CD010010CD010010CD010010F7
:10019000CD010010CD010010CD010010CD010010E7
:1001A000CD010010CD010010CD010010CD010010D7
:1001B000CD010010CD010010CD010010CD010010C7
:1001C00000BE00BE00BE00BE00BE00BE00F04BF888
:1001D000103800BEF2EB8871FC740010207500101E
:1001E0003402001090A31AE700202149086006C8D5
:1001F00081F3088810471F48006800282FD10DA4FC
:100200000ECC002902D000F012F8F9E71A491B4A77
:10021000002000E001C19142FCD1194988471949E9
:1002200088471949884700BEFDE701C901C29A42C3
:10023000FBD3704720750010C00000201C36002042
:100240007CAA001000000420000004207CAA0010FA
:1002500000100420001004200000000070470B482C
:1002600001F0D0FF0047EFF30580C0B270470000F7
:1002700008ED00E0000000D020360020F439002016
:10028000F53000103D0B0010E5310010575600000E
:1002900006005250ABB36053687400100600525011
:1002A000861C030278740010060052505422A29D4E
:1002B0008874001005005250DE65F4687CAA0010B6
:1002C000F8B5C04610B5064C2378002B07D1054B76
:1002D000002B02D0044800E000BF0123237010BDB2
:1002E0002039002000000000506D0010044B10B5B4
:1002F000002B03D00349044800E000BF10BDC046F6
:100300000000000024390020506D0010F0B5C646F2
:1003100000B5904684B0114A061C0D1C01F068F926
:100320004400E40F0020444503D104B080BCB8462B
:10033000F0BD301C01F08AFA43460600281C0F006D
:100340000393029401F082FA3200009001913B0085
:10035000034806F09DFB0120E7E7C0465D1600104C
:10036000506D0010FE2170B58D4C8905220084B0BF
:10037000081C01F03DF94000C30F002800DBA1E09C
:1003800022008849884801F033F94000C50F002851
:1003900000DAA6E022008549854801F029F94000ED
:1003A000C60F002800DAACE08021220000200906F8
:1003B00001F01EF94000C30F002800DBAFE0002170
:1003C0002200081C01F014F94000C30F002800DBD4
:1003D000B8E0802109062200081C01F009F940005C
:1003E000C30F002800DBA9E08020220000210006C6
:1003F00001F0FEF84000C30F002800DBA5E022005A
:1004000000206C4901F0F4F84000C50F002800DA24
:10041000AAE0802022006749000601F0E9F84300C5
:1004200000D5A7E022000021624801F0E1F8430076
:1004300000D5A5E0802100225E480906FFF766FF8F
:1004400000284BD1FE2000225B498005FFF75EFFAC
:10045000021E43D1FE2158488905FFF757FF021EAF
:100460003CD15549081CFFF751FF021E36D1FE2131
:10047000FF208905C005FFF749FF021E2ED1FF218D
:100480000020C905FFF742FF021E27D100214B487B
:10049000FFF73CFF021E21D100204849FFF736FF3D
:1004A00000281BD1FF21C9050122081CFFF72EFFE0
:1004B000002813D141490122081CFFF727FF431EE2
:1004C00098410CE000203E490122009001910392E6
:1004D000029302000B003B4806F0DAFA012004B058
:1004E00070BD00230022039301330293364B35483D
:1004F00000920193A022354B120606F0C9FA0120A2
:10050000EDE7012300220293314B2E480092019324
:10051000039500222F4B06F0BBFA0120DFE70122F2
:1005200002938023039200221B0600920193254828
:100530000022002306F0ACFA0120D0E78021002041
:100540000906C1E700200021BEE7012202930392C1
:1005500000230022009201938023002219481B06E9
:1005600006F096FA0120BAE70123002202930396CF
:10057000194BDAE70123002202930395164BE9E7B2
:10058000002301240022039300230E4800920193CC
:1005900002940022104B06F07BFA20009FE7C04631
:1005A0005D160010A85B3F4425529A44008029C480
:1005B0000000F6C2000080BF0000C07F000080FF86
:1005C0000000F03F506D001075EB8740444A9340A7
:1005D000003085C000C05EC00000F0BFF0B5CE4660
:1005E000474680B585B09146051C0C1C01F066F8A5
:1005F000431E9841804648452AD1211C281C01F001
:100600006DF8431E98410026804505D0300005B0A6
:10061000C0BCB946B046F0BD211C281C01F063F8EF
:100620000028F3D1281C01F011F9424601230600ED
:100630005340201C0F000393029201F007F932008F
:10064000009001913B000D4806F022FA0126DDE7FB
:10065000281C01F0FBF84B46039343460600201C80
:100660000F00029301F0F2F83200009001913B007C
:10067000034806F00DFA0126C8E7C046BC6D00101D
:10068000906D0010F0B5CE46474680B585B09146D6
:10069000051C0C1C01F00CF8431E9841804648458F
:1006A0002AD1211C281C01F011F8431E9841002674
:1006B000804505D0300005B0C0BCB946B046F0BD9D
:1006C000211C281C01F00FF80028F3D1281C01F090
:1006D000BDF84246012306005340201C0F0003933F
:1006E000029201F0B3F83200009001913B000D48F6
:1006F00006F0CEF90126DDE7281C01F0A7F84B46ED
:10070000039343460600201C0F00029301F09EF85D
:100710003200009001913B00034806F0B9F9012630
:10072000C8E7C046146E0010E86D0010F0B5DE4654
:1007300057464E464546E0B5494B87B090461A00AD
:100740000C1C051C9A4600F053FF464B06001A008D
:10075000291C201C994600F04BFF52460700291C1B
:10076000201C00F045FF4A46211C281C00F040FFD9
:10077000BE4260D14346013333D0424653425A41D0
:10078000012399467300DB0F9A469046B600F30F9B
:100790009B46C24530D14B452ED17B00DB0F9A469C
:1007A000BF00FB0F9B46C24502D100204B453BD00A
:1007B000281C01F04BF84B460593434604935B46D7
:1007C000039353460600201C0F00029301F03EF8ED
:1007D0003200009001913B00234806F059F90120B6
:1007E00022E00023994698467300DB0F9A46B60034
:1007F000F30F9B46C245CED0281C01F027F84B468C
:100800000593434604935B46039353460600201C1E
:100810000F00029301F01AF83200009001913B00A2
:10082000124806F035F9012007B0F0BCBB46B246CD
:10083000A946A046F0BD281C01F008F80600201CBF
:100840000F0001F003F83200029003910090019133
:100850003B0004960597064806F01AF90120E3E7E5
:100860005D16001051160010D06E00107C6E001046
:10087000406E0010FE21F0B5524F890587B03A0056
:10088000081C00F0B5FEFE214F4E89050400320021
:10089000081C00F0ADFEFE21890505003A00081C89
:1008A00000F0A6FEFE2189053200081C00F0A0FE23
:1008B000AC422BD16300A400DD0FE00F002B15DA52
:1008C000002C13DADD0FE00F002B01DA002C2ADBFD
:1008D000012100223D4B03900295009201933C4878
:1008E0000591049106F0D4F801250CE001210022C5
:1008F000364B03900295009201933648059104917E
:1009000006F0C6F80125280007B0F0BD00222F4BE5
:10091000314804920593029203930092019306F0EA
:10092000B7F80125EFE701222C492D48FFF7FEFE1D
:100930000028E8D101222A4928485242FFF7F6FE52
:100940000028E0D1012227492748FFF7EFFE0028C1
:10095000D9D10122244923485242FFF7E7FE00285B
:10096000D1D10122214920485242FFF7DFFE002861
:10097000C9D101221C491D48FFF7D8FE0028C2D169
:100980008021002200200906FFF7D0FE0028BAD1FE
:10099000FE20012216498005FFF7C8FE0028B2D1CB
:1009A000FE21012212488905FFF7C0FE0028AAD1C6
:1009B0000F490122081CFFF7B9FE431E98410500AC
:1009C000A1E7C0465D160010511600100000F03F70
:1009D000D06E00107C6E0010406E0010A85B3F448B
:1009E00025529A44008029C40000F6C200802944A0
:1009F0000000C07FFE21002210B508488905FFF7DE
:100A0000EDFD03000120002B00D010BD03490022A2
:100A1000081CFFF7E3FD431E9841F6E70000C07F86
:100A2000FE21002210B508488905FFF72BFE0300C0
:100A30000120002B00D010BD03490022081CFFF745
:100A400021FE431E9841F6E70000C07F002110B54B
:100A5000081C82B000F047FE002829D1FF212F4852
:100A6000C90500F040FE041E2DD100212C4800F0E5
:100A70003AFE012832D10020294900F034FE012835
:100A800037D12749081C00F02EFE01283CD124490B
:100A9000244800F028FE012812D00022224B2348CF
:100AA000009201930022224B05F0F2FF012407E09F
:100AB000002200231D480092019305F0E9FF012464
:100AC000200002B010BD00221A4B1848009201937A
:100AD0000022194B05F0DCFF0124F1E7002200237E
:100AE00012480092019300220F4B05F0D1FF012420
:100AF000E6E700220C4B0D480092019300220023F0
:100B000005F0C6FF0124DBE70022074B07480092EF
:100B1000019305F0BDFF0124D2E7C046000080FF2D
:100B20000000C07F0000C0FF0000F87F246F0010AD
:100B30000000F8FF0000F07F0000F0FFF0B5DE4697
:100B400057464E464546E0B593B001F08DFBF04B5D
:100B5000F0491A685B680868496804F015FB0100F1
:100B60004B1E9941EC4B1800994605F091FF032369
:100B70009B46EA4B9846EA4B9A46404600F066FE92
:100B8000032506000F00E54C211C404600F090FDB7
:100B9000431E98410290201C00F058FE3200009045
:100BA00001913B00504605F073FFFE21201C890592
:100BB00000F030FD013D041C002DE5D1FE21404632
:100BC000890500F027FD01235B429C46E3445B4618
:100BD0008046002BD1D103339B46D04B9846D14B56
:100BE0009A46404600F032FE032506000F00CB4C2B
:100BF000211C404600F072FD431E98410290201CCB
:100C000000F024FE3200009001913B00504605F0B8
:100C10003FFFFE21201C890500F0FCFC013D041C67
:100C2000002DE5D1FE214046890500F0F3FC0123AB
:100C30005B429C46E3445B468046002BD1D1BA48D8
:100C400005F084FEB54C0935201C00F07FFD010045
:100C5000484605F01DFFFA21201C890500F0DAFC4A
:100C6000013D041C002DEFD1B04805F06FFE0926B0
:100C70000024AF4D2900200004F0CCFA01004846C2
:100C800005F006FF200029000022AA4B04F012FA0A
:100C9000013E04000D00002EECD10024A64805F012
:100CA00055FEA34DA54F09362000290004F0EEFAA9
:100CB00002000B00380005F0EBFE200029000022A6
:100CC0009C4B04F0F7F9013E04000D00002EEBD11F
:100CD0009B4BBE24452598462406201C00F0B6FDFB
:100CE0000600201C0F0000F09DFD06900791201CBF
:100CF00000F05EFD0490201C00F076FD0290039150
:100D0000201C00F023FD32003B000090404605F01F
:100D1000BFFE211C201C00F07DFC013D041C002DA9
:100D2000DBD1F8244535A405201C00F08FFD06001A
:100D3000201C0F0000F076FD06900791201C00F0AB
:100D400037FD0490201C00F04FFD02900391201C01
:100D500000F0FCFC32003B000090404605F098FE9D
:100D6000211C201C00F056FC013D041C002DDBD191
:100D700045260024734D2000290004F0A7FA0690B0
:100D800007912900200004F069FA2900049020004E
:100D900004F07CFA029003912900200004F03AFA52
:100DA00022002B000090404605F072FE22002B002E
:100DB0002000290004F07EF9013E04000D00002E01
:100DC000D9D1FF2500244536AD052000290004F0C7
:100DD0007DFA069007912900200004F03FFA2900CF
:100DE0000490200004F052FA0290039129002000A0
:100DF00004F010FA22002B000090404605F048FE57
:100E000022002B002000290004F054F9013E0400C8
:100E10000D00002ED9D1802420254B4E2406200021
:100E200004F0E0F90B0002002100300005F030FE74
:100E3000E30F1C19013D6410002DF0D180241F35F3
:100E4000E405200004F0CEF9013D02000B00300063
:100E5000210005F01DFE6410002DF2D100223B4B55
:100E60003B4805F015FE0022384B3A4805F010FECD
:100E7000394B3A4A374805F00BFE03230A93FE2309
:100E80009B059A46002300250F93354BD146A84673
:100E90009B46AA462C1C201C00F0D8FC02000B002C
:100EA000304805F0F5FD201C00F0DAFC061C201C83
:100EB00005F0CEFE301C00F0C9FC02000B002A48F1
:100EC00005F0E6FD201C05F02BFF484600F0BEFCB7
:100ED00002000B00254805F0DBFD201C05F0D0FECC
:100EE000504600F0B3FC0B000200214805F0D0FD95
:100EF00011AA10A9201C00F0E7FC109800F0A6FC35
:100F0000060011980F0000F0A1FC320032E0C0464C
:100F100020310020183100203C6E0010000080BFFE
:100F2000606F0010706F0010806F0010846F0010F1
:100F30000000F0BF0000D03F886F00108C6F0010E1
:100F4000946F00100000C0BFAC6F00100000E03FC5
:100F5000CC6F0010B46F00105555D53F5555555501
:100F60002C700010C46F0010D06F0010E06F0010E4
:100F7000F06F00103B0000900191A54805F088FD3E
:100F8000201C05F0D5FE281C00F060FC02000B00C0
:100F9000A04805F07DFDA049201C00F0D3FC9E492F
:100FA000051C201C05F07CFE281C00F04FFC0200F4
:100FB0000B00584605F06CFD211C974800F0C2FC60
:100FC000211C051C944805F06BFE281C00F03EFC1B
:100FD00002000B00584605F05BFD201C00F0BCFC35
:100FE000051C201C05F06CFE281C00F02FFC0200E4
:100FF0000B008A4805F04CFD201C00F0B3FC051CDA
:10100000201C05F075FE281C00F020FC02000B00DF
:10101000834805F03DFD211C201C00F01FFE211C13
:10102000051C201C05F034FE281C00F00FFC0200FB
:101030000B007C4805F02CFD201C05F0E1FD40462E
:1010400000F004FC02000B00774805F021FD201C95
:1010500000F07CFB05000100201C00F0A1FD290030
:10106000061C201C05F054FE301C00F0EFFB0200B3
:101070000B006E4805F00CFD6D49201C00F0C4FE0D
:101080006B49051C201C05F0C3FD281C00F0DEFB8D
:101090000B000200674805F0FBFC11AA10A9201CF8
:1010A00000F012FC109D119B281C984600F0CEFB0E
:1010B000060040460F0000F0C9FB3200009001918D
:1010C0003B005D4805F0E4FC5146281C00F0E8FABE
:1010D000002805D04946404600F0E2FA002804D135
:1010E000564805F033FC01230F93FE21201C89058F
:1010F00000F090FA0A9B041C013B0A93002B0FD0CE
:1011000000F0BEFB8146201C00F0CCFB8246201C78
:1011100000F0F2FB051C201C00F05AFD8046BAE6E8
:1011200003239846002300260027454C3D000A93E0
:101130000B94444B34009B46434B0C960D979A46B8
:10114000424B994622002B00584605F0A1FC200096
:10115000290004F0DFF80B0002003D4805F098FC80
:101160000A9A0B9B504605F093FC0C9A0D9B39484C
:1011700005F08EFC32003B00374805F089FC002268
:1011800020002900354B04F035F902000B004846D9
:1011900005F07EFC22002B000020304904F02AF9E3
:1011A00002000B00484605F073FC2000290004F003
:1011B0002DF902000B002A4805F06AFC20002900E6
:1011C00004F030F902000B00264805F061FC200015
:1011D00029001B4B002203F06DFF01235B429C465C
:1011E000E044434604000D00002B3DD004F0A8F875
:1011F0000A900B912000290004F0B8F80C900D9192
:101200002000290004F0C8F806000F009AE7C04645
:10121000007000101C700010000020413C70001095
:101220004C7000105C7000106C7000107C7000102E
:10123000000040408C7000109C700010B4700010D2
:101240000000F03FC4700010D0700010007100105A
:10125000B46F0010E0700010F07000100000244027
:10126000107100102071001001242026D24D64421C
:10127000200000F049FA00F0E9FA02000B00280013
:10128000210005F005FC200000F03EFA013E2000A0
:1012900005F01EFD6400002EEAD101242036200056
:1012A00000F032FA00F0D2FA02000B002800210010
:1012B00005F0EEFB200000F027FA013E200005F0CB
:1012C00007FD6400002EEAD101240025BB4F403603
:1012D0002900200000F07AFA00F0B8FA22002B0072
:1012E00000900191380005F0D3FB2900200000F0A8
:1012F0006DFA013E2000290005F022FD24196D4100
:10130000002EE5D101246442E51740362900200073
:1013100000F05CFA00F09AFA22002B000090019194
:10132000380005F0B5FB2900200000F04FFA013E1F
:101330002000290005F004FD24196D41002EE5D19F
:10134000202501240022002300219D4805F0A0FB58
:101350009C4E200000F0D3F900F078FA02000B0058
:101360003000210005F094FB200000F0C8F9013D99
:10137000200005F055FC6400002DEAD13000012466
:101380004026002500220023002105F081FB8E4F1E
:101390002900200000F01AFA00F058FA22002B0071
:1013A00000900191380005F073FB2900200000F047
:1013B0000DFA013E2000290005F0C2FC24196D4100
:1013C000002EE5D10122814B52429846804B404687
:1013D0000092019388230022BF26DB0505F058FB0D
:1013E0004227F605301C00F031FA0400301C0D00D5
:1013F00000F0FAF92200009001912B00404605F020
:1014000047FBBE21301CC90500F060F9002805D15A
:10141000301C00F0E9F9301C05F0EAFBFC21301C1F
:10142000890500F00EF9013F061C002FDAD1422396
:101430009846684E684F301C00F008FA0400301CD3
:101440000D0000F083F92B0022000090380005F019
:101450001FFB301C00F07AF9301C05F041FCFC2128
:10146000301C890500F0EDF801235B429C46E04406
:101470004346061C002BDED1BF2642339846F605B4
:10148000301C00F0E3F90400301C0D0000F05EF9A0
:101490002B0022000090380005F0FAFA301C00F012
:1014A00055F9301C05F01CFCFC21301C890500F0AE
:1014B000C8F801235B429C46E0444346061C002BCF
:1014C000DED1464BFE2605279846B605301C00F0B7
:1014D000BDF904000D004248311C00F09EF800F0F8
:1014E000B5F908900991FE20311C800500F095F8AF
:1014F00000F0ACF9069007913A49301C00F087F8EB
:1015000000F0A4F9049005913649301C00F082F8EF
:1015100000F09CF902900391311C301C00F091F80E
:1015200000F094F922002B0000900191404605F054
:10153000AFFA311C301C00F084F8311C301C05F06F
:101540004FFBFE20311C800500F067F8FE20311CA7
:10155000800505F0ADFB8021301CC90500F05AF86C
:10156000013F061C002FB1D10F9B002B03D1FEF7CA
:10157000F9FE00280BD01C4805F0E8F901242000F2
:1015800013B0F0BCBB46B246A946A046F0BDFFF77B
:1015900071F90028EFD1FFF759FA0028EBD1FFF7D6
:1015A00029FA0028E7D1FFF73BFA041EE3D10F48E0
:1015B00005F0CCF9E3E7C0462C710010387100103B
:1015C00044710010507100105C71001068710010BF
:1015D000FFFFFF7F000080DF78710010887100102E
:1015E000A379EB4C176CC13EB8710010C0710010AC
:1015F00000B59047EFF3008000BD10B5029CA047F6
:10160000EFF3008010BDC0464840414048400E4BBB
:101610005B6818470C4B1B6818470C4A936F9B0874
:1016200002D2094BDB681847F0B5146E556E576F40
:10163000166FFFF7F6FF054A14665566576716677B
:10164000F0BD014B9B68184720380020000000D0F7
:1016500007B548404140484001E0C04607B5420058
:10166000120E03D0FF2A03D1420218D8C00DC005C4
:101670004A00120E03D0FF2A03D14A020FD8C90D27
:10168000C9050122414005D4414001D5814207BD31
:10169000884207BD0143491801D0C043001807BD67
:1016A00000B5FFF7DBFF01D0002000BD012000BD29
:1016B00000B5FFF7D3FF804100BDC04600B5FFF77E
:1016C000CDFF01D9002000BD012000BD00B5FFF70E
:1016D000BFFF01D9002000BD012000BD00B5FFF70C
:1016E000B7FF804100BD01231B064200D21804D879
:1016F0004A00D21801D80020704701207047491ACB
:10170000002807D108467047C10FC90700D54042DD
:10171000002817D0F44603B40B4B1B68984706BC4F
:1017200081409E384042803107D20B0607D04900E5
:10173000490AC0051043084360470130F8E7490AE9
:101740008902F5E770470000D039002041000A0EF9
:1017500080231B067E2A0BDD9E3A0BDAC11740025E
:10176000400818435242D040490001314843704775
:1017700000207047C00FC01801387047C0420DD319
:1017800000B540004008002100F012F8002801D404
:10179000404200BD8020000600BD0000034BDB6915
:1017A000FC4618471CDF15210010000020380020DF
:1017B000014B5B6A1847000020380020014B1B6B6F
:1017C0001847000020380020054A1047C2179142F0
:1017D000FAD0044BDB6DFC4618475CDF5B20001041
:1017E0000917001020380020C04211D300B5400076
:1017F0004008002100F020F8002904D400224042D3
:101800008A41114600BD80210906002000BD00006C
:10181000034BDB6EFC4618476CDF2D2100100000E7
:1018200020380020034B5B6FFC46184774DF3721DC
:101830000010000020380020034B9B6FFC46184727
:1018400078DF39210010000020380020034BDB6FC7
:10185000FC4618477CDFD52100100000203800200E
:10186000C11502D4054B9B691847C843FF2801D115
:10187000C0077047C817C005704700002038002017
:101880004100090E862902DA044BDB6B1847044934
:1018900000B500F0BDFB02BC8E46F5E72038002005
:1018A000DB0FC9404100090E862902DA044B1B6C8C
:1018B0001847044900B500F0ABFB02BC8E46F5E7C3
:1018C00020380020DB0FC94006B543001B0E862BD5
:1018D00006DA074B1B6C98470CBC1060196000BD02
:1018E000044900B500F094FB02BC8E46F1E700000D
:1018F00020380020DB0FC9404100090E862913DA89
:101900000D4A936F9B0802D20C4B5B6C1847F0B5E5
:10191000146E556E576F166FFFF7F6FF064A146682
:10192000556657671667F0BD054900B500F070FBB6
:1019300002BC8E46E4E70000000000D02038002002
:10194000DB0FC940034B9B6DFC46184758DF8D20C9
:101950000010000020380020014BDB6C184700000D
:1019600020380020014B1B6D184700002038002054
:10197000132310B512481C7800F04CFC0100012C18
:101980000AD003DD80220F4804F078FE0E4800F0F4
:1019900039FC0E4B186010BD0A4C5422200004F094
:1019A0006DFE0B4B6365A365E36523666366A36603
:1019B000E36623676367A367E3672362E361E5E7A1
:1019C00053460000203800204C330000D03900205E
:1019D0001D200010F0B5D6464F4646460C00C0B557
:1019E000051C012953D0CE0F76187610012E46D053
:1019F0000327CA1717407F18BF10012F37D00723BE
:101A000013405B18DB109846012B2BD00F2313409B
:101A10005B181B119946012B1BD01F2313405B1829
:101A20005B119A46012B0BD03F210A4012199111EC
:101A3000FFF7D0FF011CFFF704FE5346DB072FD44E
:101A4000011CFFF7FEFD4B46DB0702D5291CFFF703
:101A5000F8FD011CFFF7F5FD4346DB0702D5291C05
:101A6000FFF7EFFD011CFFF7ECFDFB0714D4011C91
:101A7000FFF7E7FDF30702D5291CFFF7E2FD011C84
:101A8000FFF7DFFDE30702D5291CFFF7DAFDE0BC15
:101A9000BA46B146A846F0BD291CFFF7D2FDE6E7DD
:101AA000291CFFF7CEFDCBE7F8B50400061C0D1C82
:101AB000002817DA4B001B0E7F3B0ED41722D31AD7
:101AC0000BD401210A009A40013A2A4205D1172B72
:101AD00028D02A00DA40114224D180231B069C46DC
:101AE0006444261C281CFFF731FEE20D07000100AC
:101AF000002A22D0FF2A20D064021ED12748874224
:101B000002DB3800FF2F41DC7F3A504303007F3374
:101B1000002B3DDDFE2B3DDCFE239B059C46C005D6
:101B2000604409E080231B06E018291CFFF7BCFF76
:101B300080231B069C466044F8BD002F10D03B005C
:101B40002033402B0FD8002F06DAFE20311C8005F1
:101B5000FFF763FD7942061C301CFFF73BFFEBE704
:101B6000FE208005E8E7301CFFF770FE03F05AFC0A
:101B700006000F00281CFFF769FE32003B0003F04F
:101B8000C0FA03F043FC03F0B9FBD5E7FF20BBE745
:101B90000020D1E7FF20C005CEE7C04600FFFFFFD1
:101BA0004200031C120E0BD0FF2A09D08A18002A0B
:101BB00007DDFE2A08DDFF23C00FC007DB05184341
:101BC0007047C00FC007FBE7C805C018F8E7C0465C
:101BD00043001B0E7F3B08D41722D31A002B03DDD2
:101BE000163A9A40534218407047C00FC007FBE7AF
:101BF000420010B5031C0400120E11D07F3A0AD423
:101C000017218A1A002A05DD01209040002B0ADBEB
:101C10004042204010BD0020002BFBDA0348F9E7CA
:101C2000C30FD807F6E7441EE418F1E7000080BFB1
:101C300010B5C30DFF2B09D0054A934204D0FE21F5
:101C40008905FFF77FFE10BD0248FCE70248FAE76E
:101C5000FF010000DB0FC9BFDB0FC93FF8B5CE465F
:101C600047460D1CFE2180B58905041CFFF718FDB1
:101C7000261C00282CD1EB0DFF2798463B409946A7
:101C800043461F4229D05D49201CFFF709FD00286B
:101C900026D04B46FF2B20D04346FF2B41D0584B3C
:101CA000984538D07F224B4652429B1839D4534A2C
:101CB0001721CB1A002B06DD163999400B00013B8A
:101CC0002B4200D07CE0291C201CFFF7EDFE061CF7
:101CD000301CC0BCB946B046F8BDFE26B605F7E7D5
:101CE0003900E30D220019401F4216D17F224B46D6
:101CF0005242002D18DB9A180DD417239B1A0AD4D0
:101D0000012002009A40013A2A4204D1172BDFD069
:101D1000DD402842DCD10026DAE7FF2B1AD1002D66
:101D2000F9DBFF26F605D3E79A18FAD417239B1A96
:101D3000F7D4012002009A40013A2A42F1D1172B30
:101D400002D0DD402842ECD0FF26E00FC007F605A8
:101D50000643BDE72A48834227D17F224B465242A1
:101D6000002D10DB9A18DCD417239B1AD9D401223A
:101D70009A40013A2A42D4D1172B02D0DD40EB071A
:101D8000CFD5204EA4E79A18C5D417239B1AC2D4E6
:101D900001229A40013A2A42BDD1172B02D0DD40E0
:101DA000EB07B8D58026360692E74346FF2B1DD0B9
:101DB00080451FD07F214B4649425B1800D477E70E
:101DC000002AAEDB201CFFF741FD03F02BFB0600D1
:101DD0000F00281CFFF73AFD32003B0003F091F999
:101DE00003F014FB03F08AFA061C71E77E2998DCE5
:101DF00000266DE77E2994DD8DE7C046000080BF98
:101E0000FF010000000080FFF8B5FF25CE464746E1
:101E1000C40DCA0D2C4080B51540FF2C42D0002DBA
:101E200040D0C20F9046002C06D10020002A3CD1A1
:101E3000C0BCB946B046F8BDAC42F9DB80264302CF
:101E4000490236045F0A490A3743641B0E43002CDB
:101E500033DD0120F111404202F0D4FE1D21814604
:101E600022000C2C00DD0C2248467B124343881ACA
:101E70000341974001335B107343A41AFF1A002CEF
:101E8000EEDCBE4214DD002F02DABF1900D5BF1907
:101E90004346002B00D07F4296213800491BFFF7B4
:101EA0008DFCC5E7FF20C005C2E780200006BFE724
:101EB000BF1BBE42ECDCBF1BEAE7B742E8DBBF1B3F
:101EC000E6E7C046F8B5454657464E46DE46E0B51D
:101ED000FF268846C50DC90D35401700041C0E406D
:101EE000002A01D000231360FF2D60D0002E5ED0A9
:101EF000002D5FD0201CFF2E53D0731EAB4250DC50
:101F0000E20F94468022120491466402640A14434C
:101F1000424649465202520A11438946AB4251D0C9
:101F20006346002B58D000216442AD1B002D5CDDC0
:101F30004B460120D911404202F064FE1D23834626
:101F400000219C462A000C2D00DD0C22584663120D
:101F5000944043436046A246801A03414C46504693
:101F6000914001335B105C435918041BAD1A002DDE
:101F7000E8DCA14537DC4B46E41AA14546DCE41A0F
:101F8000023163004B4519DC16D04346002B00DAC2
:101F90004942002F00D0396096212000891BFFF7AD
:101FA0000DFCF0BCBB46B246A946A046F8BDFF20DA
:101FB000C005F6E70020F4E7CB07E6D54B46013134
:101FC000E41AE2E78C42ECDD6346002B13D14B00B0
:101FD0002E000121E41AD8E7AD1B002DA8DC8C42AD
:101FE00011DA0021CDE7002CCBDA4B46E41808D5F6
:101FF0004C440239C5E74B0001212E001C1B49420D
:10200000C3E70139BDE74B460021E41A0131B8E7C7
:1020100010B50022FFF756FF10BDC04607B5604659
:1020200001880A0A0230DF2AFAD1C9B2820804D331
:10203000028840880004104300E00068014A5050C4
:10204000039007BD20380020002230B5002906D5B6
:10205000CD0705434808013A10E0002230B50500DD
:102060000D430FD0CD170C16AC4205D1C901440E5B
:102070002143C0010732F6E70500080052423D3215
:102080000149884730BD0000EF29000030B51D4CE4
:10209000A446E04704460846214614461A4623460D
:1020A000E04740014901D418641201340AD4D41A1B
:1020B00005DA644220411C2C0DD3C0170BE02141EE
:1020C0001C2C08D3002804DA0F4B1868C9174840A5
:1020D00014E0C81712E000220B4B002802DA40423D
:1020E00049421A680124094DA8471046064B1A6850
:1020F000841802D2841A00D4A01A01380022044B9A
:1021000018470000C1290000FC2C0000972B00009C
:10211000192B00000021C2158032803201D0024A02
:102120001047002070470000CD2A0000002100B5B4
:1021300000F004F845E00021C31518D410B58C4612
:10214000C3174000020E0BD0FF2A0DD0511E7F3A5C
:102150000906401A5840C01A01110007054C2047D3
:1021600000200100030010BDD843D94310BD00205A
:1021700000217047792100106244343A0CD40C2AB3
:1021800007DA04009140904052422032D44021436B
:1021900010BDD843D94310BD203207D40C4694401B
:1021A000524220321141D040204310BD0800C917CF
:1021B000203203D452422032104110BD18001900C1
:1021C00010BDCA179A4200D100BDD8430121C907EA
:1021D000414000BDC30FDB0741000A0E07D0FF2AB4
:1021E00008D00909054A89181943400770471900A2
:1021F000002070470249C918FAE7000000000038C3
:102200000000F07F142310B50100188804331B88E8
:10221000984710BD162310B50100188802331B889B
:10222000984710BDF8B54746CE4680B50F1E19D069
:1022300014239946043304000025012698464B4692
:102240001888434621681B88984701C4431E98415B
:10225000013540420640AF42F1D13000C0BCB94622
:10226000B046F8BD0126F8E710B504F05FFC10BDDC
:10227000094A830094464022634410B51C68C0009C
:102280006240C02414408022520113431C60034B5F
:102290009C466044416010BD04C0014000400140C4
:1022A00070B5EFF3108C72B60D4D2B68002BFCD07F
:1022B000BFF35F8F0724CB08C618C05C01230C4016
:1022C000A3401C000440034207D103433370BFF313
:1022D0005F8F2C608CF3108870BD100000F084FFBD
:1022E0002C0100D0024B18688007C00F7047C04611
:1022F00000C006400021044B044ABFF35F8F02C3B5
:102300009342FAD17047C046000100D0800100D04E
:10231000044A1078431CDBB2172B00D9102313702A
:102320007047C0462831002001238340002904D093
:10233000034A1360034A13607047034A1360FBE7C4
:1023400080E200E000E100E080E100E0024B1030BC
:102350009B688000C058704700ED00E070B50D002C
:10236000EFF3108672B60F4A1368002BFCD0BFF350
:102370005F8F0D4B10309B6884001B590B4A9342B2
:1023800003D09D4201D000F047FF074B9B681D51D1
:10239000BFF35F8FBFF35F8F0022024B1A6086F39B
:1023A000108870BD240100D000ED00E0CD010010C8
:1023B000F0B5DE4657464E464546E0B50C0083B0C4
:1023C000EFF3108A72B65A4A1368002BFCD0BFF3A1
:1023D0005F8F1022914681444A46564B96009B6877
:1023E0009D59554B98469D4205D0A54216D0534F56
:1023F000EB1B2F2B14D94F4B9B689D51BFF35F8F65
:10240000BFF35F8F00224A4B1A608AF3108803B033
:10241000F0BCBB46B246A946A046F0BD1D00EAE7A7
:10242000012383409B465A46454B1B681A40009245
:102430005A46444B1A60BFF35F8FFDF714FF0190BB
:10244000002803D0814501D000F0E6FE01232A00D8
:102450009A4393689C4208D15FE04B005B189B0055
:10246000FB189968A14211D01A0006215156002983
:10247000F3DA009B002B05D05A46334B1A60304BE1
:102480001A60B8E75A462F4B1A60B4E7062159562E
:10249000002921DB4A00501880003C188046A068C3
:1024A0009860E079D871062020569871002824DBC6
:1024B000A488F81A6405241544440019E024000592
:1024C000400D2402204398805218204B9200BF18E0
:1024D0001A781970BA71CCE70199002910D1FF312F
:1024E00091711B49918019490A789A71194ADB1B2D
:1024F0005B415A43120D0A70BBE7BD200002E2E7C0
:10250000154A1649D21A083A5002400D01439980E3
:10251000134952080A43DA80ABE7062151561300EB
:102520000029B7DA019A002AEAD14546DBE7C0461E
:10253000240100D000ED00E0CD0100102C3100207E
:1025400000E100E080E100E080E200E0F1390020FD
:1025500000BDFFFFAAAA00006631002000F0FFFFC7
:1025600000F8FFFFF8B5012504000543FDF77BFEE9
:10257000EFF3108C72B6214A1368002BFCD0BFF326
:102580005F8F1F4E2100B7681E4A1F4B891A4941B1
:102590004B431B0D59B28300F858A8421CD00623A8
:1025A000D3568B421CD01223D3568B4222D01E23EB
:1025B000D3568B4220D02A23D35603208B4210D0EF
:1025C000124B1A781970A271BFF35F8F00220B4B68
:1025D0001A608CF31088F8BDB2680D48D050EFE750
:1025E000002043001B189B00D218FF239371094B56
:1025F0009380E5E70120F4E70220F2E7240100D010
:1026000000ED00E02C310020AAAA0000F1390020E2
:10261000CD01001000BDFFFF054B064A1360064ABE
:10262000136053609360D36013615361936170478B
:102630008080808000E400E004E400E0024B9C46DF
:1026400061448900016070474000003483680B4892
:1026500010B5844661446244090112019A18591860
:1026600054684B6801209C4201D802D00020C0B2BF
:1026700010BD12680B689A42F9D8F7E7FFFFFF0F09
:10268000F8B557464E464546DE46E0B599460CAB92
:102690001C780DAB1B78060090469A460768002C04
:1026A00011D1BC7B002C42D065003B682D19033D45
:1026B00059194B78BB73002B00D1FB7300238B702F
:1026C0004B700B7004E065003B682D19033D5919F0
:1026D000B2682A4B94464246E3181B0163441A60D1
:1026E0004A465A600A9A9A600B9ADA6000238B7005
:1026F0004B700B707B7B9B46002B2BD022005946E6
:10270000B8687B6898473A68002816D05B465846F8
:102710005B005B445519033BA870D118D35C002BB8
:1027200000D06B705B460C707B73A34513D0F0BC7C
:10273000BB46B246A946A046F8BD5B465B005B447B
:10274000033BD3189C705119525D002A00D05A7077
:102750005B460B707C7342464B46307D00F0DEF9E1
:10276000051E06D05346002B03D12100306800F02F
:10277000F7FB0E9B002BDAD01D70D8E7FFFFFF0F91
:10278000F0B5DE464E46574645460023E0B58DB0CF
:102790000A936B4B8200D3580B90994600239B46BB
:1027A0004B46079300F06AF9079C06000F00626829
:1027B000EFF3108572B61368002BFCD0220007944B
:1027C000BFF35F8F2468637B9946002B67D09268C4
:1027D0005C4B90464B441B01984443461A685B6827
:1027E00010001900801BB94100295FDD0B9800F033
:1027F00095F900230026984600279A46079C6368AF
:10280000BFF35F8F5A461A6085F310885346002B3A
:1028100008D10028C6D10DB0F0BCBB46B246A946CF
:10282000A046F0BD0A9B414618024B461843D047CC
:10283000089009916268EFF3108572B61368002B57
:10284000FCD00794BFF35F8F0899099A002A48DBF0
:10285000114303D0079B1B69002B5DD1079B1B68AD
:10286000D97B002907D04A00521819688C4649467E
:102870006244033A51704A46DA734B46079A013B69
:10288000D168CA5C0132CA545B46079A1361536827
:10289000BFF35F8F5A461A6085F3108882E70023E2
:1028A0000026984600279A460020A7E7002901D174
:1028B00000289BD10021200000F0D4FA43461E6876
:1028C0005F689B68079A9A464346DB689846D368D8
:1028D0004B44013B1B780A931B0203431361002006
:1028E0008CE72369002BB9D033003C005B1A94417C
:1028F0001A002300A74219D89F421BD059460491C1
:1029000001210391494602914146019151460798A0
:102910000091FFF7B5FEB7E700F0B0F8089A099B01
:1029200006000F0092197B419942E5D901225242DB
:10293000D317E3E79642E1D901225242D317DDE7EC
:10294000C0390020FFFFFF0F10B5124C6368002B49
:1029500004D00A211048FFF771FE10BD23000F4A72
:102960001021206800F09CF9032000F07BF8032080
:1029700000F044F903200A4900F08AF8FFF7C8FC88
:10298000084B9C46032360442375074B800060601E
:10299000DC60DEE774310020D43900204D260010C1
:1029A0008127001040000034C0390020F0B5D64621
:1029B0004F464646C0B5EFF305833F22134018004B
:1029C0001038EFF3108C72B6204D2A68002AFCD024
:1029D000BFF35F8F0122110081401D4C8846616367
:1029E0001C4917000E788A463100C1400F400A4248
:1029F00009D1BFF35F8F2F608CF31088E0BCBA461B
:102A0000B146A846F0BD14498200646A51588C4210
:102A10000FD3124BD25843469E4353461E70BFF30A
:102A20005F8F00232B608CF31088002AE6D090473C
:102A3000E4E70B4A9B00904643441A681A60BFF3D0
:102A40005F8F00232B608CF31088D7E7280100D01C
:102A500000400540F2390020D83900203C390020E0
:102A6000D03F054010B50100024A0348FFF718FCAB
:102A700010BDC046C8710010F0390020034B596AE0
:102A80000A00986A596A8A42FAD1704700400540A4
:102A900070B504000D00EFF3108672B61A4A136881
:102AA000002BFCD0BFF35F8F002D1BD02000FFF761
:102AB0004DFC164981420AD02000FFF74FFC01214E
:102AC0002000FFF731FC0123A340114A1360114B92
:102AD000A400E550BFF35F8F00220B4B1A6086F312
:102AE000108870BD0B4BA200D5500122A2400A49AC
:102AF00020000B7893430B700449FFF759FC002129
:102B00002000FFF711FCE5E7280100D0AD290010F7
:102B1000386005403C390020F2390020F0B54F46BE
:102B2000D6464646C0B507002F4C616A0D00A66A1E
:102B3000616AA942FAD18B4208D805D00120E0BCD5
:102B4000BA46B146A846F0BDB242F7D9EFF3108AB3
:102B500072B6264801680029FCD0BFF35F8F0125BB
:102B6000BD402349204C8846097889462943C9B28B
:102B70008C46414660460870391D1E4889006563D1
:102B80000A51B9000B50216A0020294219D0616A0C
:102B90000800A66A616A8142FAD18B4219D801D134
:102BA000B24216D8CC451DD00F4B1F201D625D636D
:102BB00001230740BB40104A1E38136043464A4673
:102BC0001A70BFF35F8F0022084B1A608AF31088D7
:102BD000B5E70020BFF35F8F0022044B1A608AF331
:102BE0001088ACE70120ECE700400540280100D048
:102BF000F2390020D839002080E200E0EFF3108C99
:102C000072B60A490B68002BFCD0BFF35F8F01231B
:102C10008340074A0748136202789A430270BFF361
:102C20005F8F00230B608CF310887047280100D061
:102C300000400540F239002070B505001400160070
:102C4000002915D00C00002A12D080686B689847C4
:102C5000296800280ED073009B196200033B1219EB
:102C6000CB18033A9C7088188A5C002A15D106702C
:102C7000200070BD63001B197200033B9219CB1832
:102C8000033A9E7088188A5C002A02D104703400CE
:102C9000EEE75A7004703400EAE75A700670E7E70E
:102CA00030B583600023CCB24373013304734260B8
:102CB0008373C4730D000068012C06D9421C0133D4
:102CC000DBB2137003329C42F9D1FF2129404B0043
:102CD0005918002340180338437030BDF8B5CE466C
:102CE000474606000C0080B5002907D04D00036858
:102CF0006D18033D5A195778002F04D12000C0BC2D
:102D0000B946B046F8BD7900C9190339884643442D
:102D10005978894600215970517073683A00210032
:102D2000806898473368002814D042469A189470F7
:102D300059195B5D002B00D053700F702700494676
:102D40003000FFF7CBFF390002003000FFF774FFBF
:102D50000400D3E7424641465D19AF709A185B5CA8
:102D6000002B00D06B701470E9E7C046F0B55746F1
:102D70004546DE464E46E0B50D006B0001685B1926
:102D8000DF1E0400C85D83B00192CA1900284CD030
:102D900043001B18033BCB185E78B446002E16D1B7
:102DA000019E002E3ED0E67B002E04D073009B19BE
:102DB000CB18033B5D70E57300282FD100235370BF
:102DC00003B0F0BCBB46B246A946A046F0BD7200B7
:102DD0006244033A89184A78904600224A70914624
:102DE0005A70010032002000FFF726FF434682465A
:102DF000002B07D05B0021684344033BCB185A7873
:102E0000002A16D1424651462000FFF715FF2168DF
:102E1000019BCA19002BC6D10028CFD043001B1834
:102E2000033BCB1800219970C8E7019B002BBAD156
:102E3000C4E750008018033809184878834648468C
:102E40004870587041462000FFF7F6FE594680460C
:102E50002000FFF743FF414602002000FFF7ECFE91
:102E60008046CFE7F0B557464546DE464E46E0B5CC
:102E700083B00191457B04006B0000685B19DF1E85
:102E8000C15DC21900294ED04B005B18033BC3182B
:102E90005E78B446002E18D1019E002E40D0E67B0D
:102EA000002E04D073009B19C318033B5D70E573BB
:102EB000002931D1002328005370617303B0F0BCA6
:102EC000BB46B246A946A046F0BD72006244033A32
:102ED0008018427890460022427091465A70200035
:102EE0003200FFF7A9FE43468246002B07D05B0065
:102EF00021684344033BCB185A78002A17D1424635
:102F000051462000FFF798FE019B01002068C2197E
:102F1000002BC4D10029CDD04B005B18033BC31854
:102F200000209870C6E7019B002BB8D1C2E7500083
:102F30008018033809184878834648464870587006
:102F400041462000FFF778FE594680462000FFF7F3
:102F5000C5FE414602002000FFF76EFE8046CEE728
:102F600070B5040000292CD0437B8B422ED005681D
:102F700048004018033828188278002A21D05300CE
:102F80009B18033BEA5CEE188A4202D11BE0002A40
:102F900008D053009B18033BEB185A788A42F6D1AD
:102FA00042785A7000230122837043702000FFF79B
:102FB000DDFE617B02002000FFF73EFE6073012012
:102FC00000E0002070BD43783370EBE70122190068
:102FD000FFF7CCFE60730120F4E7C04610B5040093
:102FE000FFF796F901002000FFF728FBFF2323716C
:102FF000BFF35F8F10BDC04610B50400FFF788F91E
:1030000001002000FFF71AFBFF23A380BFF35F8FAF
:1030100010BDC046F8B5040006200D0000F060FAAF
:10302000002844D02A4B2B49E21853425A418023AE
:10303000DB039C469205284B62441A60274B1A60BA
:1030400010008B689843FBD1214B8021E3185A4232
:103050005341234A5B0049009952062000F040FA90
:103060002900C00001F0CEFDC30921D14027012174
:10307000260080256162A36200232C36AD01354312
:103080002B60062000F02CFA3900800001F0BAFD18
:103090006023E26A53406E221A4080235B0133436F
:1030A0001A60104B236310232B600D3BA364F8BD03
:1030B0000D4A934203D900230C4F0D49D8E77F22D4
:1030C0001040013040089F0119003F180300CFE76E
:1030D0000080FCBF00C0004000E0004000F0004065
:1030E000E839002001030000FEFF0000C0FF3F00A0
:1030F000FFFF00002C4B2D4A70B51A602C4A2D4B57
:103100002D491A6014008B689C43FBD12B4D2C4E2B
:10311000B54208D2013E761BB60808CD9847230079
:103120000134B342F9D100F07DF8264A214B1A60F0
:10313000214A9368DB43DB01DD09002BF9D14022F2
:10314000214B224C224E9A675A671A67DA66B442BC
:1031500008D223682000002B20D00834FFF74CFF52
:10316000B442F6D31B4E1C4CC022A168300003F0C1
:1031700085FAA660FFF7BEF8FFF74EFAFFF7E4FB0B
:10318000164C174EB44208D2013E361BB60808CC86
:1031900098472B0001359E42F9D170BD0834FFF7E6
:1031A0001DFFB442D5D3DDE700E00040BFCDFBFEFC
:1031B000FE7F3C0000F0004000C0004008360020C8
:1031C00018360020FFFFFF0100F00140003600200C
:1031D000083600200000002000ED00E01836002036
:1031E0001C36002000BEFDE70FB400B5084883B0D0
:1031F00003F0ACFB049B002B07D005A9180001913C
:1032000001F0B2FC034803F0A1FB00BEFDE7C0469D
:10321000EC710010206F001010B50148FFF7E4FFBB
:10322000FC71001030B50C2083B000F0B7F9FFF747
:1032300059F800280ED0944B944A1A605A609A604C
:10324000DA601A615A619A61DA611A62904A5A62C6
:1032500003B030BD8F4CA06700F0A8F901228E4B5F
:103260001A60636C012BFCD103228C4B1A60894AD3
:10327000936B012BFCD101330121894A89480093CA
:10328000043300F033F90523874A0093012187486E
:1032900000F02CF9864B5A68FF2A02D8802252008F
:1032A0005A608022784C7D4B21691201804D1A6052
:1032B000002905D0606901F0A5FC01300138FDD17D
:1032C000E0217B4B02201A681140802252012A43E0
:1032D00011601968484003210140116004219A6877
:1032E0001142FCD08022802192012A430901116001
:1032F000802252005A606F4B23616F4B5968FF293F
:1033000000D85A600321644A6B4B116002399A68F5
:103310001142FCD0E0201A681040802252011A436A
:103320001060186848400321014002201160624982
:103330008A681042FCD0802292011343802212013D
:103340001A6080225D4B52004A6063615C4B596891
:10335000FF2900D85A6080225A4BE1691201584D6A
:103360001A60002905D0606901F04CFC0130013879
:10337000FDD1E02252490B681A4080235B012B43A8
:103380001A60802380229B012B4312011A60802245
:103390003E4B52004A60E3614B4B5968FF2900D80D
:1033A0005A608022494B216A1201474D1A60002958
:1033B00005D0606901F026FC01300138FDD1E02222
:1033C00041490B681A4080235B012B431A6080231C
:1033D00080229B012B4312011A60802380225B0014
:1033E0004B602A4BD2022362394B5968914200D27A
:1033F0005A608022374B616A1201354D1A600029EC
:1034000005D0606901F0FEFB01300138FDD1E022FA
:103410002F490B681A4080235B012B431A608023DD
:1034200080229B012B4312011A608023DB024B6038
:10343000174B6362284B5A68FF2A02D88022520039
:103440005A608022254BA1691201234D1A60002980
:1034500005D0606901F0D6FB01300138FDD1E022D2
:103460001D490B681A4080235B012B431A6080239F
:1034700080229B012B4312011A6080235B004B606A
:103480000E4BA361E4E6C0464C390020006CDC0220
:103490001BB70000008000403CB0004030B000404E
:1034A000002F685900800240008C864700C002400F
:1034B00030800040001BB7003C800040405973073B
:1034C0005480004054B000406080004060B0004034
:1034D0006C8000406CB000404880004048B0004024
:1034E000014B8000C05870474C390020F0B5C646EB
:1034F000040000B50C2090461F000E0001F082FB76
:103500004101091A8D01691AC9000918890140464B
:1035100001F078FB069B3F041A0323681743002B36
:1035200022DB1A4B1A4DE21853425A4180235B01A9
:103530009C461203174B62441A60174B1A60110025
:10354000AB689943FBD1C022231D92011A4321236A
:103550002660A06013602368002BFCDA0823E76074
:10356000136080BCB846F0BD3F2322681340B342CD
:10357000D7D1A3681B051B0D8342D2D1EE22E3688D
:10358000D2021340BB42CCD1EBE7C0460040FDBFA6
:1035900000C0004000E0004000F000408023024AEC
:1035A0009B000343D362704700800540AA23064A6C
:1035B0001B0113602F230549D360054B1960536825
:1035C000002BFCDA7047C0460040024000B0FA0011
:1035D000006002407047C046F8B557464E46454623
:1035E000DE46E0B599460A9B07009A460D9B884641
:1035F000934615000B9E9B0710D10C9B9E420DD24B
:103600009D1B14000E005D4422004B460134310026
:103610002020B847A542F7D1B0460B9E002E27D0F8
:10362000444675195346AA1B013E985D21004B463E
:10363000B847002EF6D123002C0098460D9B9B071F
:103640000FD55B46E51A0C9BAB420AD94646984615
:1036500022004B46310020200135B8470134A845EF
:10366000F6D82000F0BCBB46B246A946A046F8BD3D
:103670002C00E3E7F0B54F464646D646C0B584B0C9
:1036800098460EAB1B78129F994694460D9C109B52
:10369000119EBA0725D4002E4BD19C4200D3BFE027
:1036A00001223A4092461F2C00D9B8E00C9A551ED0
:1036B000302201E0202C03D001342A55A342F9D84E
:1036C0005246002A0DD0A6420BD9202C44D00C9A89
:1036D000551E302201E0202C3ED001342A55B44240
:1036E000F9D1FA064DD57A053FD4002C39D10F9B7C
:1036F000102B00D179E00F9B022B00D18AE0302300
:103700000C9A012413704B46002B3FD02D230C9AAA
:10371000135501340C9B624600930397434602966F
:103720000194FFF759FF04B0E0BCBA46B146A84681
:10373000F0BD012215003D40AA463A422FD04A462C
:10374000002A02D10C323A4200D0013E9C42BAD249
:103750001F2CABD9202E27D92024FA06DAD57A05DA
:1037600003D4A3422DD0A6422BD00F9B102B32D0D6
:10377000022B20D0202CCDD030220C9B1B191A708C
:103780000134202CC6D04B46002BBFD17B070DD473
:103790003B07BFD520230C9A13550134BAE79C424E
:1037A0009FD21F2C00D881E720249AE72B230C9A64
:1037B00013550134AEE7202CACD00C9B1B190134FF
:1037C0003AE0631E012C92D00F9A102A2AD0022AC6
:1037D0002FD01C00D0E7BB060ED4202C9AD00C9B17
:1037E0001A19013478231370C4E7BB060DD478236B
:1037F0000C9A01241370BFE7202C00D18AE75822CD
:103800000C9B1B191A700134B4E758230C9A01243D
:103810001370B1E70C9A603301241370ACE72024D5
:1038200000265EE7023CBA06E9D40C9A12191C0085
:10383000D8E70C9A9246534462221A709AE7C0461F
:1038400010B5002800D110BD03F030F8FBE7C046EA
:103850000B0010B5002802D049681B68984710BDBE
:10386000F0B5DE4657464E464546E0B59BB09B4612
:10387000249B89469846259B0B900C9240464246D5
:1038800019009A4601F09BFC002800D0D8E00122E4
:1038900040465146774B524201F08CFC002800D044
:1038A000CEE0012240465146734B524201F06CFC7F
:1038B000002800D0C4E0002200234046514601F019
:1038C00063FC002800D0B9E1424653460A920993AE
:1038D0008023289ADB001A400E92289A1A4201D1BE
:1038E000062326930A9A099B1600134300D0C7E0CB
:1038F000289B002500261B0500D49BE100230D9387
:10390000269A0D9B9A4200DC9FE1D01A431E269313
:103910008023289ADB001A430023002728920D9366
:10392000279B0024BB4200D9DC1B0223289A1A40A3
:103930000E92289A134203D07B427B415B421C408B
:103940000D9B002B07D00A9809992A00330001F03B
:10395000BAFB0A900991002200234046514601F02B
:1039600013FC002805D08020000684460999614494
:103970000991289A414B0B9D13400493269B0A9A68
:103980000293099B03940092019349465B462800E9
:103990000C9A00F08BF90400002F62D0289B2200C3
:1039A00098061F23C0179843631C984649465B46F8
:1039B0006530A8470D9B0025DA179C18DB0F9A4647
:1039C0005440013F01E0202D13D00AAA94461F2342
:1039D000200063440A2101355E1901F013F93031EA
:1039E000317020000A2101F00DF926000400092E93
:1039F000E9D805230693002304930A33039353461F
:103A000005970B9F029312AB009342465B464946D3
:103A100038000195FFF72EFE0E9B0400002B20D0EE
:103A20000C9BC51A279BAB421BD91E0022005B468C
:103A3000494620200135B8470134AE42F6D810E09F
:103A4000289B42460493279B49460393269B0B9849
:103A500002935346009201935B460C9A00F026F9BC
:103A6000040020001BB0F0BCBB46B246A946A046ED
:103A7000F0BDC046FFFFEF7FFFFFEFFFFFF7FFFF47
:103A8000734B099F9C467800400D604401F0AAFBEF
:103A9000704A714B01F035FB704A714B01F00AFB23
:103AA0003B03704A1B0B1A4304000D003000110049
:103AB0006D4B002201F0F5FA6C4A6D4B01F021FBD1
:103AC00002000B002000290001F0F4FA01F0A2FB33
:103AD0000D9001F087FB674A674B04000D0001F071
:103AE00010FB0022654B01F0E5FA01F093FB644AFC
:103AF0000600644B2000290001F003FB04003000A5
:103B00000D000F9601F06EFB5F4A604B01F0F9FA71
:103B100002000B002000290001F0C3FA02000B0094
:103B200006000F0001F0EDFA320004000D003B002A
:103B30003000390001F0BEFA002210901191544B70
:103B40002000290001F0BFFA0022524B01F0B2FA26
:103B500002000B002000290001F0B5FA00224E4BB4
:103B600001F0A8FA02000B002000290001F0ABFAD6
:103B70000D008021040032003B000020C90501F047
:103B800090FA02000B002000290001F093FA0200D5
:103B90000B001098119901F096FA0022314B01F0B8
:103BA00089FA3E4B0F9C9C4664440022230501F099
:103BB000A8FA05000E0002000B000A98099901F00E
:103BC000E3FA00280AD00D9B2800013B31000D9339
:103BD0000022304B01F077FA05000E00C6270D9940
:103BE0002B0063318F42BF4128997F42043709057A
:103BF00000D495E6334300D182E6099C284A21008F
:103C0000284B0A9801F0CEFA002808D000222100A3
:103C1000254B0A9801F0B8FA002800D070E6269BE0
:103C2000002B00D17CE60E9B5A1E9341269AD31A94
:103C3000269375E6002304270D9371E643460A9305
:103C400080231B065344099342E6002326935FE634
:103C500001FCFFFFFB799F501344D33FB3C8608B37
:103C6000288AC63F0000F03F0000F83F61436F63C1
:103C7000A787D23F71A379094F930A400000E03F24
:103C80001655B5BBB16B0240EF39FAFE422EE63F46
:103C900000002C400000244000001840FF030000FA
:103CA0002D431CEBE2361A3F80842E41F0B54E4680
:103CB000DE4657464546E0B597B09946209E219F7F
:103CC000229B8346984607910C923B0032003000BD
:103CD000390001F074FA002800D0A9E10122300077
:103CE0003900CA4B524201F04FFA002800D0E1E0FF
:103CF000012230003900C64B524201F05BFA002825
:103D000000D0B7E0002230003900C24B01F052FA77
:103D1000002800D099E0002230003900BE4B01F0AD
:103D200033FA002800D090E0002200233000390050
:103D300001F02AFA002800D0B1E000230D93249B63
:103D40005B0501D40623984608AB9C461722002445
:103D500030234146624404E0013413550139202CDC
:103D600001D00929F8D888463000390001F052FA0C
:103D70004346DA00A94B05009B181A685B68089255
:103D8000099301F02FFA02000B003000390001F016
:103D900088F9089A099B01F0B4F90A900B9101F097
:103DA0005DFA824601F01AFA02000B000A980B999C
:103DB00001F077F900229A4B0A900B9101F0FAF981
:103DC000002800D1C0E001239C46E244504601F0A7
:103DD00005FA02000B000898099901F0DBF90028A8
:103DE00002D000239A4601354346002B6AD008AB27
:103DF00017269C4608956644554614E001235B420D
:103E000043440A2128009A4600F0FCFE0134303178
:103E10003719397028000A2100F0F4FE092D00D866
:103E2000D0E0D0460500202CE8D10EAB9846032305
:103E3000249A1340012B00D196E02023249A019369
:103E40000392239A434602921EE0249B5846049311
:103E5000239B00960197039343460C9A029307997C
:103E60004B46FFF7FDFC17B0F0BCBB46B246A94677
:103E7000A046F0BD249B5B070ED40322694B249916
:103E80000192039123990291009358464B460C9A54
:103E90000799FFF7A1FBE6E70422634BEFE73B003E
:103EA00032000020002101F0FCF8012306000F0081
:103EB0000D9344E7249B0393239B029304230193D4
:103EC0005A4BE1E7280001F08DF902000B003000A9
:103ED000390001F0E6F8524B002206000F0001F015
:103EE00053F90EAB984600280AD100223000390061
:103EF0004B4B01F05FF9002802D1EB0700D50135EB
:103F0000202C94D008AA94461723280063440A2141
:103F100001341E1900F04EFE3031280031700A21A4
:103F200000F048FE051EEBD10323249A1340012B19
:103F30001BD0202C00D180E70D9B002B35D02D22EB
:103F40004146631C0A5579E700220A980B99344BC5
:103F500001F01AF9002800D046E75346002B51D152
:103F600001239C46E2443FE72024239B002BE0D022
:103F70000D9B002B03D1249A0C33134202D0239BB8
:103F8000013B2393239BA342D3D908AB9C46172222
:103F900030236244202C00D14FE72399013413557C
:103FA0008C42C6D0202CF8D147E7249B5B0724D451
:103FB000249A2300120700D440E72022414601330F
:103FC0000A553BE75746089D202C00D12DE72200DB
:103FD00030214046002F09D00132B154202A00D1AF
:103FE00023E7D3431B191B18002BF5D10EAB9846C2
:103FF0002E234146541C8B5482E72B224146631CDE
:104000000A551BE7DB0700D4EEE6A9E7FFFFEFFF49
:10401000FFFFEF7F65CDCD4165CDCDC100740010B0
:104020000000E03F087200100C72001018720010BF
:10403000249B0393239B029303230193004B23E7C9
:1040400014720010F0B5DE464E4657464546E0B5C0
:104050009FB01C00289B91460993C94AC94B8B46C7
:1040600008901A60002900D118E2002320789A46AF
:10407000002800D11AE226001D005C460AE02A0052
:104080006F1C4B46089D2100A8473D000136307843
:10409000002870D02528F2D110239B46083B9A4671
:1040A000043B9846023B00219C46721C1078160087
:1040B0000300203BDBB2102B03D8B34F9B00FB580F
:1040C0009F460300303B092B32D900230A932A284C
:1040D00068D0002398462E283ED00300683BDBB210
:1040E000122B1CD8A94A9B00D3589F4601230132AA
:1040F0001943DBE7634601321943D7E743460132F0
:104100001943D3E75B4601321943CFE753460132E7
:104110001943CBE780235B00707819430136030015
:10412000253BDBB2532BAAD8994A9B00D3589F4614
:1041300000270300B800C01901364000C0183378CA
:1041400030381A00303A0700092AF3D90A901800CB
:10415000002398462E28C0D180237078DB001943B5
:104160000300303B721C092B00D8A1E12A2800D1A2
:10417000B2E11600B1E7A346AA462C00D14503D808
:1041800001235B424B449A464B4652465946002017
:10419000089DA84720001FB0F0BCBB46B246A94608
:1041A000A046F0BD099B40CB0A96002E03DB507859
:1041B0000993561C8DE72838014370420A900993F1
:1041C0005078561C85E7782800D1DFE1582800D1C7
:1041D0004CE26F2800D14FE3622801D100F030FC9F
:1041E00010230A009A430B92692801D000F0A9FC21
:1041F0000A230C934B0500D5D0E10B9A80231100C4
:104200009B0019408B461A4200D0A1E28023110086
:104210005B0019408A461A4200D0B6E313005B06E1
:1042200000D5EDE2130009991B0601D400F076FCDD
:1042300008C91BB2D8171A18424092B20991934686
:10424000DA0F1292002B09D1802310220B99DB0088
:104250000B4091430B91002B00D0E4E20B9A6123B9
:10426000920600D541230EA91F228C46DBB2624480
:104270000A3B5F461395A34655460C9CB2460D93E8
:1042800016000AE03033DBB201357355A74200D285
:10429000EDE2202D00D1EAE207002100380000F015
:1042A000B1FCCBB20929EDD90D9A94466344DBB237
:1042B000EAE780239B007078194301362FE7707876
:1042C000682800D1CDE180230136194327E77078B3
:1042D0006C2800D1BFE180235B00194301361EE743
:1042E000462800D19BE10722099B049107339343A1
:1042F0000A9A19000392424602920CC90898009249
:10430000019309912A004B462100FFF7CFFC0136AB
:104310000500BCE62A006F1C4B46089D21002520A5
:10432000A84701363D00B2E68B0700D4ADE1099BFA
:104330002A009A466B1C9846534601CB21009A46A8
:10434000089F4B46C0B2B8470A9B9C466544012B68
:1043500000D886E2089B4746B04626004C46994660
:104360003A002300013731002020C847AF42F7D17F
:10437000A1465346340046460993013687E6C046B7
:1043800045400010BC3900202072001064720010FB
:10439000B0720010099B04CB9B4643460992002B48
:1043A00000D1C6E013789C46002B00D1BDE3434604
:1043B000013B099A0133D0180A9F130001E08342A0
:1043C00003D05A780133002AF9D1099A0A979B1A27
:1043D0000B9380230A00DB001A400C92194204D090
:1043E0000B9B434501D943460B9302231A000A4015
:1043F0000D920B4200D187E16046002800D168E1B0
:104400000C9B002B00D10DE1A844C246099B5746E6
:104410005B1B9846089BB2462A0026004C469946EC
:1044200009E023003100551CC8474346585D002869
:1044300000D126E12A009742F3D1A1463D00340085
:1044400056460D9B002B00D043E15B460136099395
:104450001DE6099B1A0008CA9246002B48D021226B
:1044600011438B460EA884461F2161440995002202
:104470000F27A4460D0002E0202A0CD00B003C00C0
:104480001C4020003730092C00D807380132A854CE
:1044900019090F2BF0D86446099D32E0DC4B2078D7
:1044A000089300239A46002800D0E4E5002465E63E
:1044B000434606000A9F9800C01801324000801948
:1044C0001678030030003038303B0928F3D930002B
:1044D000984616000A9700E6099B023604CB9046E0
:1044E000D2434046D2171040804609933078F4E515
:1044F00010220800904311321043834600224905E0
:10450000B0D55B46069308230593434604931023D6
:1045100003930023029316AB019200932A004B46AB
:1045200021000898FFF7A6F85346050001360993C5
:10453000ADE513789C46002B00D1F7E202235B42E5
:1045400037E7202302009A43472A04D180231B0126
:10455000194302239843452801D1202319430722F8
:10456000099B0491073393430A9A19000392424628
:1045700002920CC908980092019309912A004B46B7
:104580002100FFF76DF90136050080E510230C933B
:104590000C230A009A430B924B0503D501230B9A77
:1045A0009A430B92692800D127E6642800D124E6BB
:1045B0000B9A802311009B0019408B461A4200D0B1
:1045C00066E1802311005B0019408A461A4200D040
:1045D00039E213005B0600D53CE113001B0600D452
:1045E000A6E2099B04CB1204120C934609935B4686
:1045F000002B00D09AE10B9A1033110099430B91D4
:10460000520500D492E100239A460B9B06930A9B25
:104610000593434604930C9B039300230CE1202352
:10462000194360E6099B0A9A5B1B98464B469146E4
:104630001F00B2462600089C2A003B003100A0471C
:1046400043460135585D0028F6D14A463400B94644
:1046500056460A92F5E6C0239B00B078194302360D
:104660005DE5C023B0781943023658E50C230A00F3
:104670009A4314331A43103B0B920C934B058DD481
:1046800096E7A14634005646DBE60A9A012A00D88E
:1046900053E26B1E9F18089BB04626004C46994675
:1046A0002A002300013531002020C847BD42F7D140
:1046B000A14634004646099B3A0001CB21009846AA
:1046C0007D1C4B46089FC0B2B8474346013609934C
:1046D000DDE40B9B0A9AA8469A4200D8B5E69446B8
:1046E0006544ED1A089B4746B04626004C4699465D
:1046F0003A002300013731002020C847AF42F7D1EC
:10470000A14634004646A0E60B9A0A99531C9142F2
:1047100000D814E24B199B1A1F00089BB2462600D2
:104720004C4699462A002300013531002020C84715
:10473000BD42F7D10A9BA14601330B93099B34007C
:104740001B7856469C466046002800D058E67CE61A
:104750000722099B07339343013294469C446246E7
:104760005F6809921A68FB171093119310981199BA
:10477000030053400E930B007B400F9394460E9A18
:104780000F9B121A8B410E920F93FB0F62461293EE
:1047900000233A439B463DD00B9A6123920600D5F5
:1047A00041230022DBB20EA90A3B8C4692460D93B0
:1047B00043461F3262441395159655460E9E0F9F31
:1047C000A24690460C9C14930CE03032D2B2434681
:1047D00001355A55BB4500D18AE1202D00D18AE12F
:1047E00006000F00220000233000390000F04CFAD0
:1047F000D2B2092AE9D90D9B9C466244D2B2E6E7BF
:10480000FF23099904C913401A00099117E5C0460E
:10481000D53500100B9A1033110099430B915205B6
:10482000BAD500239A460B9B06930A9B05934346F1
:1048300004930C9B0393129B02935346019316AB74
:104840002A00009321004B460898FEF713FF01361B
:1048500005001CE4FF22099B02CB11408B46099303
:10486000C5E65346454609930136FFF710FC564608
:104870005C46AA46139DD6E708230C930B910B992F
:10488000642800D084E60B9B5B0500D586E6B4E483
:104890000722099B07339343013294469C446246A6
:1048A00009921A685B6810009B4613005A4613432E
:1048B00007D10B9A1033110099430B91520500D583
:1048C000A1E60B9A6123920600D541230022DBB2B8
:1048D0000EA90A3B8C4692460D9343461F32624412
:1048E0005F461295A34655460400B24690460C9E7C
:1048F00013930DE03032D2B2434601355A550023AE
:10490000BB4200D100E1202D00D100E104000F00E6
:10491000320000232000390000F0B6F9D2B2092A93
:10492000E8D90D9B9C466244D2B2E5E70B9A61231D
:10493000920600D54123DBB20EA90A3B1F228C460A
:104940000D93230062445C461295170055469B4622
:10495000B2460C9E08E03033DBB201357B55B442E1
:104960000ED3202D0CD004003100200000F04AF9B5
:10497000CBB20929EFD90D9A94466344DBB2ECE738
:1049800056465C46AA46129D3FE6099B1A0008CA95
:10499000D91713925A184A409246DA0F1292002BF6
:1049A00008D1802310220B99DB000B4091430B911F
:1049B000002B2BD10B9A6123920600D541230EAA1E
:1049C0001F279446DBB20A3B0D9567445D46099369
:1049D000A3465446B2460C9E08E03033DBB20135A4
:1049E0007B55B4420ED3202D0CD0040031002000A2
:1049F00000F008F9CBB20929EFD9099A944663442B
:104A0000DBB2ECE756465C46AB460D9D0B9B2A009D
:104A100006930A9B21000593434604930C9B089838
:104A20000393129B013602935B46019316AB0093EE
:104A30004B46FEF71FFE139B05000993FFF727FB6C
:104A400002230C931AE7099B04CB92461293002A87
:104A500008D1802310220B99DB000B4091430B916E
:104A6000002B2BD10B9A6123920600D541230EAA6D
:104A70001F279446DBB20A3B0D9567445D460993B8
:104A8000A3465446B2460C9E08E03033DBB20135F3
:104A90007B55B4420ED3202D0CD0040031002000F1
:104AA00000F0B0F8CBB20929EFD9099A94466344D3
:104AB000DBB2ECE756465C46AB460D9D0B9B2A00ED
:104AC00006930A9B21000593434604930C9B089888
:104AD0000393002302935B46019316AB00934B466E
:104AE000FEF7C8FD129B050009930136FFF7CFFAC8
:104AF000B44200D871E6149B54460E960F97AA460E
:104B00009846159E139D8EE6A64200D8FBE6139BA1
:104B100056469846AA465C46129D76E508C9D817BF
:104B20001A1842400991FFF78AFB00230B9350E4C7
:104B3000099B04CB9346099359E52F00BBE50B93E2
:104B400001E6063B0C939AE600B585B0039101217E
:104B500002900093034813004A4202A9FFF772FA39
:104B600005B000BD5138001010B5094A03001468A3
:104B700084B0002C08D0012200910648524203A9BB
:104B8000A047012004B010BD01F0E0FE0020F9E7CD
:104B9000BC3900204138001001480421014B18475E
:104BA000A031002025220010014B5B68184700004F
:104BB000A0310020124A936F9B0815D29066D166EF
:104BC000002905D0FFE7FFE7FFE7516F106F70473F
:104BD00004B580210906C2175140002800D0C843FF
:104BE00002F03EF8002104BDF0B5146E556E576F0B
:104BF000166FFFF7E3FF1466556657671667F0BD3B
:104C0000000000D0114A936F9B0813D210665166C2
:104C1000002905D0FFE7FFE7FFE7516F106F7047EE
:104C200004B5002801D00020C04302F019F800218B
:104C300004BDC046F0B5146E556E576F166FFFF782
:104C4000E5FF1466556657671667F0BD000000D093
:104C500094464E4A926F9208624601D230E0C046B6
:104C6000F0B54A4EB56F6D08FCD3346E756E776F34
:104C7000366F00F025F89446444A14665566576727
:104C800016676246F0BDC0469446404A926F92084D
:104C9000624601D258E0C046F0B53C4EB56F6D0893
:104CA000FCD3346E756E776F366F00F04DF8944616
:104CB000364A14665566576716676246F0BDC046A9
:104CC000002B24DB11D000293EDA00B5C943404255
:104CD00000D1013100F038F8C943404200D1013120
:104CE000DB43524200D1013300BD002AEBD1002842
:104CF00001D1002905D00020C90FC90701D1C04347
:104D0000410800B501F09CFF0022002300BD00B562
:104D100000290ADBDB43524200D1013300F014F8D2
:104D2000C943404200D1013100BDC943404200D1D6
:104D30000131DB43524200D1013300F005F8DB437F
:104D4000524200D1013300BD002923D1002B18D1DC
:104D5000002A0CD0BC460D4F38667A66002100232D
:104D6000FFE7FFE7FFE77A6F386F67467047002875
:104D700001D00748010000B501F062FF00220023C6
:104D800000BD02000B00002000217047000000D091
:104D9000FFFFFFFF002B00D0BFE0130C28D1002A3B
:104DA000E7D080B4114F39667A66FFE7FFE730B489
:104DB000040C7B6F396F1B0423433B667A66FFE765
:104DC000FFE7FFE7C04684B27B6F3D6F1B042343C0
:104DD0003B667A66FFE7FFE7C04600232C042D0CF4
:104DE0007A6F386F00196941B0BC7047000000D07D
:104DF000F0B594460025140E01D112020835140FA7
:104E000001D112010435940F01D192000235D40F63
:104E100001D152000135D40B0134254F7C66254C5D
:104E20003C660E0C93B2FFE7FFE7FFE73C6F66437B
:104E3000360C7703BE467343DF0B5B04C01AB941DF
:104E4000130C7343DB18C91ACE086643360CB644FC
:104E500093B273431F0F1B01C01AB941130C734364
:104E60001F0B1B05C01AB941860D8F023E436643D6
:104E7000360C092D24DB520A7243801A7703460A46
:104E80006643360C16235B1BDE40DF40BF196446C9
:104E90006643821B7046043506330100D940A840A2
:104EA000C01900D30131A24206D20023F0BD000098
:104EB000000000D0FFFFFFFF121B0130F3D3F1E72A
:104EC00009277F1BFE406446A2B27243801A00D2BB
:104ED0000139220C7243130C1204821A99410B00FF
:104EE0007046043513370100F940A840801900D3FB
:104EF0000131002B02D1A2420AD2F0BD013000D311
:104F00000131121BFAD2013BF8D1A24200D2F0BD0E
:104F1000013000D30131121BF7E7F0B51C0C00D0B3
:104F200080E00CB400251C0A04D11B02160E33438A
:104F3000120208351C0B04D11B01160F334312015A
:104F400004359C0B04D19B00960F3343920002352D
:104F5000DC0B02D192185B4101351C0097186441AB
:104F60000134464F7C66464C3C660E0CFFE7FFE77B
:104F7000FFE7C0463C6F6643360C7703BE4697B2E8
:104F80007743C01B00D20139C01B00D201399FB248
:104F90007743C91BC91B170C77437E04FF0B801B8B
:104FA000B941CE086643360C0C2D33DBB644120BE8
:104FB0001F053A431B0B97B27743C01B00D2013940
:104FC0009FB27743C91B170C77433E043F0C801BED
:104FD000B941860D8F023E43664329277F1BFE4061
:104FE0000C3D7746AF40BF1930BCA2B2ABB27243A2
:104FF0007343801A9941220C7243130C1204801AD5
:10500000994102000B000137001BA941F9D2781E1B
:105010000021F0BD0C277F1BFE4077467F0BAF4081
:10502000FF19E0E700245D1C07D0144F7D66396648
:10503000FFE7FFE7FFE7FFE73C6F95B29EB26543EE
:105040006643401BB141150C1E0C65436643360494
:105050002F0C3E432D04401BB141994204D2020063
:105060000B0020000021F0BD01D19042F7D3801A3F
:10507000994101349942F2D3F6E70000000000D0D4
:10508000FFFFFFFF44464D4656465F46F0B470476B
:10509000F0BCA046A946B246BB46704748404140D6
:1050A000484018B41B4B5B68FC46019308BD04DF05
:1050B000B357001018B4174B1B68FC46019308BD8A
:1050C00000DFBD5700109446134A926F920809D230
:1050D000624618B40F4BDB68FC46019308BD0CDF39
:1050E000755A00100C4AF0B5146E556E576F166F56
:1050F0006246FFF7EEFF084A146655665767166763
:10510000F0BD18B4034B9B68FC46019308BD08DF53
:105110001959001020370020000000D0FFB5504082
:105120004240504059404B40594000E0FFB5154FB8
:105130004C00640D03D0BC4204D10C0314D80020F1
:10514000090D09055C00640D03D0BC4204D11C03A9
:105150000AD800221B0D1B0501264B4009D44B40E9
:1051600003D58B4200D18242FFBD9942FCD19042CF
:10517000FFBD0B43DB1803431343F5D0C943491864
:10518000FFBD0000FF07000000B5FFF7CFFF804123
:1051900000BDC04600B5FFF7C9FF01D9002000BD22
:1051A000012000BD00B5FFF7B9FF01D9002000BD07
:1051B000012000BD00B5FFF7B1FF804100BD012017
:1051C00040054A00121804D85A00121801D80020CD
:1051D0007047012070470020704700000021002820
:1051E00005D17047C1174840401AFAD0C90713B516
:1051F000064B1B6898470CBC441CA2401005120BC0
:105200000349091B09051943114310BDD03900207A
:105210001F04000010B54C00620D8023D218DB0083
:10522000D21A5B057E2A10DD9E3A13DACC170903E9
:10523000490819435242D140640001341532202AF2
:1052400005DAD0400843604310BD002010BD084679
:10525000604310BDC80FC018013810BD18B4044B0E
:105260005B6AFC46019308BD24DF515E001000001C
:105270002037002018B4044B1B6EFC46019308BD78
:1052800060DF5F5F0010000020370020C94211D3AB
:1052900000B549004908002200F024F8002904D490
:1052A000002240428A41114600BD802109060020AB
:1052B00000BD000018B4044BDB6EFC46019308BD32
:1052C0006CDF5F5E001000002037002018B4044B34
:1052D0005B6FFC46019308BD74DF795E001000002F
:1052E0002037002018B4044B9B6FFC46019308BD87
:1052F00078DF7B5E001000002037002018B4044BDC
:10530000DB6FFC46019308BD7CDFE95E0010000006
:105310002037002018B4044B9B69FC46019308BD5C
:1053200018DF415C0010000020370020024A034BC8
:1053300000B500F01DFA00BD182D4454FB211940A2
:105340008A0002D3920D092A08DA18B4064BDB6BE7
:10535000FC46019308BD3CDFB360001000B5FFF7C9
:10536000E5FF04BC9646F0E7203700208A0002D310
:10537000920D092A08DA18B4064B1B6CFC460193FF
:1053800008BD40DFC360001000B5FFF7CFFF04BCCD
:105390009646F0E7203700208A0002D3920D092AB2
:1053A0001DDA9446114A926F920809D2624618B4E7
:1053B0000F4B5B6CFC46019308BD44DF936000100B
:1053C0000A4AF0B5146E556E576F166F6246FFF7B6
:1053D000EEFF064A1466556657671667F0BD00B5BE
:1053E000FFF7A4FF04BC9646DBE70000000000D0F6
:1053F0002037002018B4044B9B6DFC46019308BD78
:1054000058DFB161001000002037002018B4044BB1
:10541000DB6CFC46019308BD4CDFC5630010000047
:105420002037002018B4044B1B6DFC46019308BDC7
:1054300050DF61640010000020370020132370B596
:105440001D78012D15D010DD1C48FCF7E3FE1C4C27
:1054500001008022200001F011F9022D06D0194828
:10546000FCF7D0FE184B186070BD154C174BA364A9
:10547000F5E7164B124C23606360A360E360236181
:105480006361A361E36123626362A362E3622363F6
:105490006363A363E36323646364A364E3642365D6
:1054A0006365A365E36523666366A366E3662367B6
:1054B0006367A367E367A364D1E7C0465344000072
:1054C000203700204C330000D039002081570010D5
:1054D000F0B557464E464546DE46E0B587B00292E7
:1054E0005A009A46530D9946109B4D0004006D0DCD
:1054F000002B01D000221A609A4A95427DD04B467B
:10550000002B7AD0002D00D182E027000E009145BB
:1055100075D0013B0393AB4271DCCB0F0E03984671
:10552000330B9B4680235B039C465B4662461343DA
:105530001F005346060018036346000B0343029AFC
:105540000193039B0092AB4200D1AAE04346002B9B
:1055500000D1B7E033003C0000275E42A7414B4634
:10556000ED1A002D00DCC0E00120019B4042191122
:10557000FFF748FB002398464B4603935346AB4640
:10558000029004931BE032009A401500330052460B
:1055900093401C004B464846D917009A019B01F0E6
:1055A00045F84346524693404B4498465B46260096
:1055B0002F009B1A361A8F419B46002B2BDD5B4632
:1055C000DA460C2B01DD0C239A46029ABB11534399
:1055D00051461D22521A1341202201335B105242C0
:1055E00099468B18CFD5202332005B1ADA4013007E
:1055F0003A008A4015001D43C8E700275A4E38007C
:10560000310007B0F0BCBB46B246A946A046F0BD8B
:1056100000270026F3E7039B9946049B9A46009BCC
:10562000019CBC4200DD83E000D17DE0009B019C39
:10563000F61AA741BC4200DD8BE000D185E0009B5B
:10564000019CF61AA74102239C46E04432000098D0
:1056500001993B0092197B418B421ADC17D00099CB
:105660008A425AD05346002B02DA43465B429846A0
:10567000109B002B01D042461A604B463B4A30003B
:105680003900D21AFFF7F6FD07000E00B7E7824295
:10569000E5D9009B019CF61AA74101239C46E044F2
:1056A000E0E7019B9F422FDD0098019943460018D7
:1056B0004941002B3FD1039B361A8F419946012364
:1056C0009846CFE74B46ED1A002D00DD4CE7019BD5
:1056D000BB42BBDC009B019CBC4201D1B342B5D8AC
:1056E000009B019CF61AA74133E000239846009BDB
:1056F000019CF6186741002F2FDAF6186741022344
:105700005B429C46E044A1E7009A019B9F4201D185
:105710009642C9D827000E0071E7019A9342A1D1A1
:105720004346DB079ED5B4E7009BB34200D87DE734
:10573000002FDCDB8AE7039B801BB94199460123DC
:105740005B4206000F0098468CE7009BB34200D8EE
:1057500075E701239C46E04478E701235B429C46C1
:10576000E04473E7FF0700000000F07F330400000F
:1057700010B5002482B00094FFF7AAFE02B010BD5D
:1057800007B5604601880A0A0230DF2AFAD1C9B299
:10579000820804D3028840880004104300E00068B7
:1057A000014A5050039007BD203700200FB403BCBE
:1057B0000CBCF0B50124E407634000E0F0B50C0D2B
:1057C000CF0F661E3605891B640503D3C9434042CB
:1057D00000D30131640D03D0661CF60A07D0E41B28
:1057E00000207F00791C89078912803C24031D0D4D
:1057F000DF0F6E1E36059B1B6D0503D3DB43524244
:1058000000D301336D0D03D06E1CF60A07D0ED1BDB
:1058100000227F007B1C9B079B12803D2D032F1BCA
:10582000661B58D4A446202E46DA20371400BC400C
:105830001D00BD40F24033412A4380185941CB0F2F
:1058400005D0C943C04300226442504151416246E1
:105850004D0D28D10D0D07D100281FD0241940412E
:105860004941013A0D0DF9D0640006D3013000D34F
:105870000131002C01D140084000013A0BD4941CA6
:10588000E40A04D112051144DB071944F0BDD9071D
:10589000204B194300E0D9070020F0BD0029DDD1DD
:1058A000002CDBD1F0BD0132C6074008CD072843EC
:1058B0004908002EE1D0D9E73C2E29DA203E4037B6
:1058C0001400BC4000D00124F24014431A00BB4035
:1058D0001C43D317ACE7AC46202F08DA203604006F
:1058E000B4400D00B540F84039412843A5E73C2FAE
:1058F0000CDA203F40360400B44000D00124F840C8
:1059000004430800B1400C43C117EAE71000190036
:10591000002494E70000F07FF0B50C0D661E3605FC
:10592000891BE60A6405640D02D0651CED0A04D0EB
:10593000002001210905803C2403A4461C0D671E9C
:105940003F05DB1BE70A6405640D02D0651CED0A08
:1059500004D0002201231B05803C240377406444CB
:1059600097B484B296B27443070C7E43150C6F4310
:1059700080B26843361802D3012000043F18300477
:10598000350C00197D41844688B29AB250430C0C04
:1059900062431F0C7C438EB27E43921902D30126D0
:1059A0003604A4191604170C3618674101BC81B2DD
:1059B0009AB25143040C62431B0C5C4380B25843BF
:1059C000121802D30120000424181004130C4018EC
:1059D00063412D185E410020474106BC88B293B256
:1059E00058430C0C6343120C544389B251435B1867
:1059F00002D301210904641819041A0C0918624120
:105A00006D1856410020474118BCF902720D114330
:105A1000F0026A0D1043ED020A0D03D16D194041E9
:105A20004941013B124E9B1B7600B3420ED26D00E2
:105A300007D30130002671416646354301D1400845
:105A400040001B05C918E4072144F0BD0BDA0133FF
:105A500006D1013004D101314F0D01D04908F2E7E0
:105A6000E1070020F0BD013631050020EBE7000022
:105A7000FF030000F0B51C0D671E3F05DB1BE70AA6
:105A80006405640D02D0661CF60A04D000220123CE
:105A90001B05803C2403D0252D060026F6432E66E8
:105AA0001E096E66CE0FF619B44649004F0D02D09E
:105AB0007E1CF60A03D000200021403F3F033E1B1E
:105AC000B600B444013F7F05C91B49082E6F01365B
:105AD00076089C02950D25437543ED137543AD1370
