:020000041000EA
:1000000000B5324B212058609868022188439860DF
:10001000D860186158612E4B002199600221596106
:100020000121F02299502B49196001219960352056
:1000300000F044F80222904214D00621196600F024
:1000400034F8196E01211966002018661A6600F04E
:100050002CF8196E196E196E052000F02FF8012189
:100060000842F9D1002199601B49196000215960AB
:100070001A491B48016001219960EB211966A021F2
:10008000196600F012F800219960164914480160C1
:100090000121996001BC002800D000471248134993
:1000A000086003C880F30888084703B5996A0420EC
:1000B0000142FBD001200142F8D103BD02B5186610
:1000C0001866FFF7F2FF186E186E02BD00000240BE
:1000D000000000180000070000035F00212200005C
:1000E000F4000018222000A00001001008ED00E03C
:1000F00000000000000000000000000074B24E7A12
:1001000000200420F7010010C3010010C5010010F9
:10011000C1010010C1010010C1010010C101001097
:10012000C1010010C1010010C1010010C701001081
:10013000C1010010C1010010C9010010CB01001065
:10014000CD010010CD010010CD010010CD01001037
:10015000CD010010CD010010CD010010CD01001027
:10016000CD010010CD010010CD010010CD01001017
:10017000CD010010CD010010CD010010CD01001007
:10018000CD010010CD010010CD010010CD010010F7
:10019000CD010010CD010010CD010010CD010010E7
:1001A000CD010010CD010010CD010010CD010010D7
:1001B000CD010010CD010010CD010010CD010010C7
:1001C00000BE00BE00BE00BE00BE00BE00F04BF888
:1001D000103800BEF2EB8871685900108C5900107D
:1001E0003402001090A31AE700202149086006C8D5
:1001F00081F3088810471F48006800282FD10DA4FC
:100200000ECC002902D000F012F8F9E71A491B4A77
:10021000002000E001C19142FCD1194988471949E9
:1002200088471949884700BEFDE701C901C29A42C3
:10023000FBD370478C590010C00000204002002002
:100240000C5B001000000420000004200C5B001078
:1002500000100420001004200000000070470B482C
:1002600003F034F90047EFF30580C0B27047000097
:1002700008ED00E0000000D0400200206C060020E5
:10028000191A0010A1080010091B00105756000091
:1002900006005250ABB36053B858001006005250DD
:1002A000861C0302C8580010060052505422A29D1A
:1002B000F458001005005250DE65F4680C5B001025
:1002C000F8B5C04610B5064C2378002B07D1054B76
:1002D000002B02D0044800E000BF0123237010BDB2
:1002E0006805002000000000E8550010044B10B520
:1002F000002B03D00349044800E000BF10BDC046F6
:10030000000000006C050020E8550010F0B54F46D5
:100310004646D646454AC0B51368012701331360E7
:10032000434B444E9A461B6899461D00424B173575
:1003300098464E4407212800494203F0F9F8C400CA
:10034000041B0721280003F0F3F861188D4201D047
:1003500043461F701735B542ECD1384B9C46E144FB
:1003600053464A4648461A6004F070FC3449041C5F
:1003700004F01AFD8046201C04F090FC06000F00DB
:10038000201C2F4904F041FC04F088FC00222D4B76
:1003900003F075FB040040460D0004F07FFC0200F2
:1003A0000B002000290003F043FB02000B0030008B
:1003B000390003F034FB244A244B03F0B9FB002836
:1003C00002D001221C4B1A70484603F0C9FB0022E0
:1003D0001C4B04000D0003F0C5FC06000F000022BA
:1003E000184B2000290003F02CFB0022154B03F0D2
:1003F00046FB32003B0003F01BFB02000B00200019
:10040000290003F00CFB104A104B03F091FB00286D
:1004100002D00122084B1A700D4B18780123584066
:10042000E0BCBA46B146A846F0BDC046BC050020B7
:10043000600600201309000066060020FC0800008A
:10044000000030410000264095D626E80B2E113ED4
:100450006506002010B59B24124A01205368240130
:1004600001335360A023A4460F49DB055A580243C9
:100470005A500E490A6862440A600D4A1278002AEE
:1004800007D080210B4A49049850DA680A42FCD10F
:1004900010BD094A1A605A60084A9A60084ADA6030
:1004A000F6E7C046BC0500200C0400005C060020F6
:1004B00065060020440400005006002001020000F0
:1004C00019801D00A022F0B502271849D205535803
:1004D000174C3B435350174917488B68256866688B
:1004E00001338B600121494240197141134E144D73
:1004F000B4462B682060616063442B60114B1B780D
:10050000002B07D08021104B4904D750D36C0B42ED
:10051000FCD1F0BD0D4A0E4B04321A605A6086229F
:1005200092009A600B4ADA60F3E7C0461C040000B0
:1005300060050020BC05002022E8FFFFDE17000058
:1005400058060020650600204404000050060020E4
:100550004000005019881D00F0B5DE46454657465C
:100560004E46E0B597B000F053FD10AB0293002368
:100570000193AB4BAB4A0093002300F04DFD0B20E1
:10058000A94900F00FFA0C20A84900F00BFA01224B
:10059000A74BA0241A60A74B01321A608423A64AF5
:1005A000E405DB00E25001210B2000F0E1F901211C
:1005B0000C2000F0DDF9A14BA14A23606360A2602A
:1005C000A04A0433E260A04A1360536086239B0074
:1005D00093609E4BD36000F0E3FE002304000D0007
:1005E0009B4A12196B41994200D907E100D102E1FF
:1005F0000E930F92974B00275C681B680A930B942D
:10060000954B964D1B680C93954B1B689B46954BE1
:100610001B689946944B1A68944B92465C681B6819
:1006200004930594924B5C681B6806930794914B66
:1006300018685968904B984600230D9343460993D8
:100640008E4B099E9C468E4B0E9C5A6A6644A24273
:1006500051D39B6A0F9CA34202D20E9B9A424AD06E
:100660005346002F1CD05C467D4A14604C467D4AA0
:1006700014607D4A13607D4A049B059C136054609E
:10068000069B079C7A4A136054607A4B714A186043
:1006900059600A9B0B9C136054606F4B0C9A1A6054
:1006A0000122784B10A81A7000F0CCFD764C0D9DFD
:1006B00022686368A16875480091290004F0C4FEAF
:1006C000002D00D1A5E02368002B00D1A1E06368D4
:1006D000002B00D19DE0A368002B00D199E05F4B77
:1006E0001B78002B00D08EE017B0F0BCBB46B246A2
:1006F000A946A046F0BD099B99460B211F364942E9
:10070000300002F015FF07073F1ABF003F18BF0077
:100710003F1804000B21300002F00AFF7F18B74297
:1007200001D001232B70734218000B21984602F070
:10073000FFFE30000F000B2102F0FAFE0207121A32
:1007400093001B189B001B18DB19984501D001234F
:100750002B70A000001940000419E719B84501D01A
:1007600001232B704E45C8D1FA239B009846484B75
:1007700044469946200004F063FA061C04F0BCFAD3
:100780008346301C04F094FA8046301C04F0A2FA30
:100790008246A0000019800003F0DEF906000F0079
:1007A00003F068FA049005913000390003F036FA3E
:1007B000069007913000390003F046FAFA239B00B7
:1007C0009C4664444C45D5D10A9E0B9F2A4A0D9BFA
:1007D000944601330D93099B2E4A634409930123E8
:1007E0005B42B6185F410C9B0A960B976433C14677
:1007F00001270C9324E7904200D8F9E601235B42DD
:100800000F930E93F6E6244804F07CFD012001F0DE
:100810007BF9224804F076FD012001F075F9C0460D
:100820000D030010A103000055040010C5040010C2
:100830000424005014240050200001005006002021
:100840000102000019801D004000005019881D00A1
:100850008096980058050020780100206606002048
:10086000140600200C060020100600205002002074
:1008700040020020480200201C0C0000E4F3FFFFAF
:100880000040054065060020BC050020FC55001016
:1008900070170000A4EDFFFFF4550010E85500109C
:1008A00010B504F0DDFDFFF757FE024804F02AFD05
:1008B000002010BD0C560010094A830094464022C7
:1008C000634410B51C68C0006240C02414408022FC
:1008D000520113431C60034B9C466044416010BDB1
:1008E00004C001400040014070B5EFF3108C72B6B7
:1008F0000D4D2B68002BFCD0BFF35F8F0724CB0876
:10090000C618C05C01230C40A3401C0004400342F5
:1009100007D103433370BFF35F8F2C608CF31088D3
:1009200070BD100001F0F2F82C0100D0024B1868E5
:100930008007C00F7047C04600C006400021044B2E
:10094000044ABFF35F8F02C39342FAD17047C04697
:10095000000100D0800100D0044A1078431CDBB2B3
:10096000172B00D9102313707047C0467C0100205C
:1009700001238340002904D0034A1360034A136013
:100980007047034A1360FBE780E200E000E100E00B
:1009900080E100E0024B10309B688000C058704737
:1009A00000ED00E070B50D00EFF3108672B60F4A4F
:1009B0001368002BFCD0BFF35F8F0D4B10309B688A
:1009C00084001B590B4A934203D09D4201D001F091
:1009D000B5F8074B9B681D51BFF35F8FBFF35F8F67
:1009E0000022024B1A6086F3108870BD240100D0EB
:1009F00000ED00E0CD010010F0B5DE4657464E4652
:100A00004546E0B50C0083B0EFF3108A72B65A4A3F
:100A10001368002BFCD0BFF35F8F102291468144F6
:100A20004A46564B96009B689D59554B98469D42A9
:100A300005D0A54216D0534FEB1B2F2B14D94F4B8B
:100A40009B689D51BFF35F8FBFF35F8F00224A4BBE
:100A50001A608AF3108803B0F0BCBB46B246A946C0
:100A6000A046F0BD1D00EAE7012383409B465A469D
:100A7000454B1B681A4000925A46444B1A60BFF31C
:100A80005F8FFFF7F0FB0190002803D0814501D074
:100A900001F054F801232A009A4393689C4208D13C
:100AA0005FE04B005B189B00FB189968A14211D0D6
:100AB0001A00062151560029F3DA009B002B05D0BD
:100AC0005A46334B1A60304B1A60B8E75A462F4BE0
:100AD0001A60B4E706215956002921DB4A00501854
:100AE00080003C188046A0689860E079D8710620A4
:100AF00020569871002824DBA488F81A6405241570
:100B000044440019E0240005400D2402204398804D
:100B10005218204B9200BF181A781970BA71CCE79E
:100B20000199002910D1FF3191711B499180194918
:100B30000A789A71194ADB1B5B415A43120D0A70FD
:100B4000BBE7BD200002E2E7154A1649D21A083A6F
:100B50005002400D01439980134952080A43DA803C
:100B6000ABE70621515613000029B7DA019A002A93
:100B7000EAD14546DBE7C046240100D000ED00E0A5
:100B8000CD0100108001002000E100E080E100E0E4
:100B900080E200E06706002000BDFFFFAAAA000077
:100BA000BA01002000F0FFFF00F8FFFFF8B50125B3
:100BB00004000543FFF757FBEFF3108C72B6214A90
:100BC0001368002BFCD0BFF35F8F1F4E2100B76866
:100BD0001E4A1F4B891A49414B431B0D59B28300D2
:100BE000F858A8421CD00623D3568B421CD012239F
:100BF000D3568B4222D01E23D3568B4220D02A2399
:100C0000D35603208B4210D0124B1A781970A27160
:100C1000BFF35F8F00220B4B1A608CF31088F8BD76
:100C2000B2680D48D050EFE7002043001B189B002E
:100C3000D218FF239371094B9380E5E70120F4E775
:100C40000220F2E7240100D000ED00E08001002046
:100C5000AAAA000067060020CD01001000BDFFFF1A
:100C6000054B064A1360064A136053609360D360D5
:100C700013615361936170478080808000E400E0DD
:100C800004E400E0024B9C46614489000160704727
:100C90004000003483680B4810B5844661446244C8
:100CA000090112019A18591854684B6801209C4296
:100CB00001D802D00020C0B210BD12680B689A4261
:100CC000F9D8F7E7FFFFFF0F10B508000B690C001C
:100CD0009847002802D02068616810BDE0600021BC
:100CE0000020FAE7F8B557464E464546DE46E0B5E1
:100CF00099460CAB1C780DAB1B78060090469A46C3
:100D00000768002C11D1BC7B002C42D065003B68E9
:100D10002D19033D59194B78BB73002B00D1FB7380
:100D200000238B704B700B7004E065003B682D193D
:100D3000033D5919B2682A4B94464246E3181B01F9
:100D400063441A604A465A600A9A9A600B9ADA60BB
:100D500000238B704B700B707B7B9B46002B2BD042
:100D600022005946B8687B6898473A68002816D030
:100D70005B4658465B005B445519033BA870D1188D
:100D8000D35C002B00D06B705B460C707B73A3456B
:100D900013D0F0BCBB46B246A946A046F8BD5B46A0
:100DA0005B005B44033BD3189C705119525D002AD1
:100DB00000D05A705B460B707C7342464B46307DC8
:100DC00000F03EFB051E06D05346002B03D1210048
:100DD000306800F057FD0E9B002BDAD01D70D8E76D
:100DE000FFFFFF0FF0B5DE464E465746454600234F
:100DF000E0B58DB00A936B4B8200D3580B909946A7
:100E000000239B464B46079300F0CAFA079C060056
:100E10000F006268EFF3108572B61368002BFCD0E8
:100E200022000794BFF35F8F2468637B9946002BF1
:100E300067D092685C4B90464B441B0198444346F4
:100E40001A685B6810001900801BB94100295FDD3A
:100E50000B9800F0F5FA00230026984600279A46E2
:100E6000079C6368BFF35F8F5A461A6085F310884A
:100E70005346002B08D10028C6D10DB0F0BCBB46AC
:100E8000B246A946A046F0BD0A9B414618024B4611
:100E90001843D047089009916268EFF3108572B645
:100EA0001368002BFCD00794BFF35F8F0899099A51
:100EB000002A48DB114303D0079B1B69002B5DD13F
:100EC000079B1B68D97B002907D04A005218196874
:100ED0008C4649466244033A51704A46DA734B469F
:100EE000079A013BD168CA5C0132CA545B46079A33
:100EF00013615368BFF35F8F5A461A6085F31088F9
:100F000082E700230026984600279A460020A7E79C
:100F1000002901D100289BD10021200000F034FCE1
:100F200043461E685F689B68079A9A464346DB689B
:100F30009846D3684B44013B1B780A931B0203433A
:100F4000136100208CE72369002BB9D033003C00EB
:100F50005B1A94411A002300A74219D89F421BD064
:100F6000594604910121039149460291414601915C
:100F7000514607980091FFF7B5FEB7E700F010FA69
:100F8000089A099B06000F0092197B419942E5D906
:100F900001225242D317E3E79642E1D9012252429D
:100FA000D317DDE720060020FFFFFF0F10B5124C1E
:100FB0006368002B04D00A211048FFF763FE10BDC0
:100FC00023000F4A1021206800F0FCFA032000F0F3
:100FD000DBF9032000F0A4FA03200A4900F0EAF943
:100FE000FFF7BAFC084B9C46032360442375074B6C
:100FF00080006060DC60DEE7C8010020340600206D
:10100000950C0010E50D0010400000342006002073
:1010100000487047C8010020F0B54E464546DE4600
:101020005746E0B585B0109905008946110019436F
:1010300000D1ECE0D81704005440260004005C40C6
:1010400001002700361A8F4149460E980A600F9A10
:101050004B604A618D60086100F0A2F902000B004C
:10106000B6185F4100960197B94200D9DDE000D182
:10107000D7E00023A8469B461F0043465A68EFF37B
:10108000108A72B61368002BFCD0BFF35F8F434603
:101090001E68B47B002C00D18BE063001B19033B5E
:1010A0001A0094460393336863445A78B273002A53
:1010B00000D1F27341468968604A8C4600980199D4
:1010C000A21812016244106051605D499160494666
:1010D000D1605A469A705A701A70757B002D00D1F3
:1010E00085E022002900B0687368984732680028BC
:1010F00000D171E003996B005B195118033B8D70AF
:10110000D018D35C002B00D089E0047075733E00CA
:10111000AC4200D16CE043464246DB6852681B1982
:10112000013B1B78BFF35F8F594611608AF310882B
:10113000002E0CD101261B021C434B463000DC6004
:1011400005B0F0BCBB46B246A946A046F0BD484635
:10115000036998470700031E01D10024EDE74A46C2
:101160001468556822002A4365D0002D0BDA0098D8
:10117000019902000B00121BAB41994213D822D0F7
:101180000092019379E700F00BF902000B00A4181C
:101190005D4100940195A94205D800D06DE7009902
:1011A0008A4200D869E701235B42DC17009301946F
:1011B00063E75B68BFF35F8F1C608AF310880124CC
:1011C00000266442B9E700999142D9D901235B42D4
:1011D000DC170093019450E76B005B19033B039805
:1011E000D3189C701118125C002A15D10D707473FD
:1011F0004346187D009A019B00F022F9061E00D19B
:1012000089E743462100186800F03CFB83E701268C
:1012100000270122002317E75A700D70E7E74B7093
:1012200073E700998A4200D823E701235B42DC1769
:10123000009301941DE71E0000247EE7FFFFFF0FCF
:10124000C90C0010F0B5C646C368040000B5002004
:10125000002B02D180BCB846F0BDA5686968EFF3E9
:10126000108672B60A68002AFCD0BFF35F8F286828
:10127000D9B2427B8A4224D0FF221A405700B84696
:1012800007689044BC4647466744033FBF78002F39
:1012900012D0EF681B0ABC466244013A1278DBB2F6
:1012A0009A4211D000206A68BFF35F8F0023136059
:1012B00086F31088E360CDE72A699342F2D12F616B
:1012C000F0E7FF221A40E4E700F0DCFAEBE7C04663
:1012D000F0B5D6464F464646C0B5EFF305833F22EC
:1012E000134018001038EFF3108C72B6204D2A68A6
:1012F000002AFCD0BFF35F8F0122110081401D4CFA
:10130000884661631C4917000E788A463100C14047
:101310000F400A4209D1BFF35F8F2F608CF3108812
:10132000E0BCBA46B146A846F0BD14498200646AE2
:1013300051588C420FD3124BD25843469E435346CA
:101340001E70BFF35F8F00232B608CF31088002A80
:10135000E6D09047E4E70B4A9B00904643441A6866
:101360001A60BFF35F8F00232B608CF31088D7E7E0
:10137000280100D000400540680600203806002003
:1013800084050020D03F054010B50100024A034803
:10139000FFF7AAFA10BDC0461456001064060020DC
:1013A000034B596A0A00986A596A8A42FAD170470F
:1013B0000040054070B504000D00EFF3108672B6D2
:1013C0001A4A1368002BFCD0BFF35F8F002D1BD08F
:1013D0002000FFF7DFFA164981420AD02000FFF70C
:1013E000E1FA01212000FFF7C3FA0123A340114ACB
:1013F0001360114BA400E550BFF35F8F00220B4B2D
:101400001A6086F3108870BD0B4BA200D5500122E4
:10141000A2400A4920000B7893430B700449FFF760
:10142000EBFA00212000FFF7A3FAE5E7280100D03E
:10143000D1120010386005408405002068060020A5
:10144000F0B54F46D6464646C0B507002F4C616AF8
:101450000D00A66A616AA942FAD18B4208D805D06C
:101460000120E0BCBA46B146A846F0BDB242F7D969
:10147000EFF3108A72B6264801680029FCD0BFF34A
:101480005F8F0125BD402349204C88460978894655
:101490002943C9B28C46414660460870391D1E4832
:1014A000890065630A51B9000B50216A0020294266
:1014B00019D0616A0800A66A616A8142FAD18B423A
:1014C00019D801D1B24216D8CC451DD00F4B1F20E0
:1014D0001D625D6301230740BB40104A1E38136044
:1014E00043464A461A70BFF35F8F0022084B1A60CA
:1014F0008AF31088B5E70020BFF35F8F0022044B0A
:101500001A608AF31088ACE70120ECE70040054040
:10151000280100D0680600203806002080E200E0A4
:10152000EFF3108C72B60A490B68002BFCD0BFF3A6
:101530005F8F01238340074A0748136202789A436A
:101540000270BFF35F8F00230B608CF3108870472D
:10155000280100D0004005406806002070B5050055
:1015600014001600002915D00C00002A12D0806843
:101570006B689847296800280ED073009B19620099
:10158000033B1219CB18033A9C7088188A5C002A16
:1015900015D10670200070BD63001B197200033B5B
:1015A0009219CB18033A9E7088188A5C002A02D1DF
:1015B00004703400EEE75A7004703400EAE75A70A1
:1015C0000670E7E730B583600023CCB24373013384
:1015D000047342608373C4730D000068012C06D944
:1015E000421C0133DBB2137003329C42F9D1FF215C
:1015F00029404B005918002340180338437030BD70
:10160000F8B5CE46474606000C0080B5002907D045
:101610004D0003686D18033D5A195778002F04D107
:101620002000C0BCB946B046F8BD7900C9190339DD
:10163000884643445978894600215970517073682F
:101640003A002100806898473368002814D0424649
:101650009A18947059195B5D002B00D053700F706D
:10166000270049463000FFF7CBFF39000200300069
:10167000FFF774FF0400D3E7424641465D19AF709F
:101680009A185B5C002B00D06B701470E9E7C046C1
:10169000F0B557464546DE464E46E0B50D006B00B8
:1016A00001685B19DF1E0400C85D83B00192CA198E
:1016B00000284CD043001B18033BCB185E78B4467F
:1016C000002E16D1019E002E3ED0E67B002E04D0C7
:1016D00073009B19CB18033B5D70E57300282FD175
:1016E0000023537003B0F0BCBB46B246A946A046E7
:1016F000F0BD72006244033A89184A78904600228D
:101700004A7091465A70010032002000FFF726FF10
:1017100043468246002B07D05B0021684344033BCD
:10172000CB185A78002A16D1424651462000FFF7BE
:1017300015FF2168019BCA19002BC6D10028CFD004
:1017400043001B18033BCB1800219970C8E7019B8D
:10175000002BBAD1C4E75000801803380918487824
:10176000834648464870587041462000FFF7F6FE11
:10177000594680462000FFF743FF41460200200003
:10178000FFF7ECFE8046CFE7F0B557464546DE460C
:101790004E46E0B583B00191457B04006B000068C4
:1017A0005B19DF1EC15DC21900294ED04B005B18CA
:1017B000033BC3185E78B446002E18D1019E002E5C
:1017C00040D0E67B002E04D073009B19C318033B66
:1017D0005D70E573002931D10023280053706173D7
:1017E00003B0F0BCBB46B246A946A046F0BD7200AD
:1017F0006244033A80184278904600224270914633
:101800005A7020003200FFF7A9FE43468246002BA3
:1018100007D05B0021684344033BCB185A78002A69
:1018200017D1424651462000FFF798FE019B010068
:101830002068C219002BC4D10029CDD04B005B1801
:10184000033BC31800209870C6E7019B002BB8D15A
:10185000C2E7500080180338091848788346484684
:101860004870587041462000FFF778FE5946804680
:101870002000FFF7C5FE414602002000FFF76EFE84
:101880008046CEE770B5040000292CD0437B8B4204
:101890002ED0056848004018033828188278002A9E
:1018A00021D053009B18033BEA5CEE188A4202D118
:1018B0001BE0002A08D053009B18033BEB185A7812
:1018C0008A42F6D142785A70002301228370437015
:1018D0002000FFF7DDFE617B02002000FFF73EFEE7
:1018E0006073012000E0002070BD43783370EBE7A7
:1018F00001221900FFF7CCFE60730120F4E7C04617
:1019000010B50400FFF728F801002000FFF7BAF92E
:10191000FF232371BFF35F8F10BDC04610B50400D5
:10192000FFF71AF801002000FFF7ACF9FF23A380AE
:10193000BFF35F8F10BDC046F8B5040006200D0050
:1019400000F060FA002844D02A4B2B49E218534299
:101950005A418023DB039C469205284B62441A605F
:10196000274B1A6010008B689843FBD1214B8021D4
:10197000E3185A425341234A5B004900995206201A
:1019800000F040FA2900C00001F0FAFDC30921D19E
:1019900040270121260080256162A36200232C36A6
:1019A000AD0135432B60062000F02CFA3900800091
:1019B00001F0E6FD6023E26A53406E221A40802364
:1019C0005B0133431A60104B236310232B600D3BE4
:1019D000A364F8BD0D4A934203D900230C4F0D496F
:1019E000D8E77F221040013040089F0119003F18BE
:1019F0000300CFE70080FCBF00C0004000E00040D3
:101A000000F000404806002001030000FEFF000037
:101A1000C0FF3F00FFFF00002C4B2D4A70B51A603D
:101A20002C4A2D4B2D491A6014008B689C43FBD126
:101A30002B4D2C4EB54208D2013E761BB60808CD80
:101A4000984723000134B342F9D100F07DF8264ACB
:101A5000214B1A60214A9368DB43DB01DD09002B2F
:101A6000F9D14022214B224C224E9A675A671A67BD
:101A7000DA66B44208D223682000002B20D0083454
:101A8000FFF74CFFB442F6D31B4E1C4CC022A1689A
:101A9000300003F0CFFAA660FEF750FFFFF7E0F842
:101AA000FFF784FA164C174EB44208D2013E361B9B
:101AB000B60808CC98472B0001359E42F9D170BD7D
:101AC0000834FFF71DFFB442D5D3DDE700E0004046
:101AD000BFCDFBFEFE7F3C0000F0004000C0004098
:101AE0002C0200203C020020FFFFFF0100F001401B
:101AF000240200202C0200200000002000ED00E065
:101B00003C0200204002002000BEFDE70FB400B5FB
:101B1000084883B003F0F6FB049B002B07D005A90F
:101B20001800019101F0B2FC034803F0EBFB00BE8A
:101B3000FDE7C046385600100856001010B50148A1
:101B4000FFF7E4FF4856001030B50C2083B000F0DA
:101B5000B7F9FEF7EBFE00280ED0944B944A1A60BA
:101B60005A609A60DA601A615A619A61DA611A629F
:101B7000904A5A6203B030BD8F4CA06700F0A8F9BC
:101B800001228E4B1A60636C012BFCD103228C4B1B
:101B90001A60894A936B012BFCD101330121894AD8
:101BA00089480093043300F033F90523874A0093F2
:101BB0000121874800F02CF9864B5A68FF2A02D889
:101BC000802252005A608022784C7D4B216912019C
:101BD000804D1A60002905D0606901F0D1FC013008
:101BE0000138FDD1E0217B4B02201A681140802290
:101BF00052012A43116019684840032101401160D5
:101C000004219A681142FCD08022802192012A434B
:101C100009011160802252005A606F4B23616F4BA3
:101C20005968FF2900D85A600321644A6B4B116040
:101C300002399A681142FCD0E0201A6810408022D4
:101C400052011A43106018684840032101400220E5
:101C5000116062498A681042FCD0802292011343CD
:101C6000802212011A6080225D4B52004A6063613B
:101C70005C4B5968FF2900D85A6080225A4BE169B1
:101C80001201584D1A60002905D0606901F078FCF6
:101C900001300138FDD1E02252490B681A408023FF
:101CA0005B012B431A60802380229B012B4312018E
:101CB0001A6080223E4B52004A60E3614B4B5968E8
:101CC000FF2900D85A608022494B216A1201474DF2
:101CD0001A60002905D0606901F052FC013001381A
:101CE000FDD1E02241490B681A4080235B012B4360
:101CF0001A60802380229B012B4312011A608023EB
:101D000080225B004B602A4BD2022362394B596818
:101D1000914200D25A608022374B616A1201354DE0
:101D20001A60002905D0606901F02AFC01300138F1
:101D3000FDD1E0222F490B681A4080235B012B4321
:101D40001A60802380229B012B4312011A6080239A
:101D5000DB024B60174B6362284B5A68FF2A02D89C
:101D6000802252005A608022254BA1691201234D26
:101D70001A60002905D0606901F002FC01300138C9
:101D8000FDD1E0221D490B681A4080235B012B43E3
:101D90001A60802380229B012B4312011A6080234A
:101DA0005B004B600E4BA361E4E6C0469405002047
:101DB000006CDC021BB70000008000403CB000401B
:101DC00030B00040002F685900800240008C8647E8
:101DD00000C0024030800040001BB7003C80004043
:101DE000405973075480004054B000406080004068
:101DF00060B000406C8000406CB000404880004003
:101E000048B00040014B8000C05870479405002046
:101E1000F0B5C646040000B50C2090461F000E0029
:101E200001F0AEFB4101091A8D01691AC9000918B8
:101E30008901404601F0A4FB069B3F041A03236876
:101E40001743002B22DB1A4B1A4DE21853425A411A
:101E500080235B019C461203174B62441A60174BA8
:101E60001A601100AB689943FBD1C022231D920177
:101E70001A4321232660A06013602368002BFCDA3C
:101E80000823E760136080BCB846F0BD3F2322689A
:101E90001340B342D7D1A3681B051B0D8342D2D197
:101EA000EE22E368D2021340BB42CCD1EBE7C0463E
:101EB0000040FDBF00C0004000E0004000F00040D6
:101EC0008023024A9B000343D36270470080054091
:101ED000AA23064A1B0113602F230549D360054B33
:101EE00019605368002BFCDA7047C046004002407E
:101EF00000B0FA00006002407047C046F8B557468F
:101F00004E464546DE46E0B599460A9B07009A468E
:101F10000D9B8846934615000B9E9B0710D10C9B8A
:101F20009E420DD29D1B14000E005D4422004B46C4
:101F3000013431002020B847A542F7D1B0460B9EAE
:101F4000002E27D0444675195346AA1B013E985DC2
:101F500021004B46B847002EF6D123002C009846AE
:101F60000D9B9B070FD55B46E51A0C9BAB420AD92C
:101F70004646984622004B46310020200135B8479E
:101F80000134A845F6D82000F0BCBB46B246A946AD
:101F9000A046F8BD2C00E3E7F0B54F464646D646CE
:101FA000C0B584B098460EAB1B78129F99469446F4
:101FB0000D9C109B119EBA0725D4002E4BD19C423C
:101FC00000D3BFE001223A4092461F2C00D9B8E06E
:101FD0000C9A551E302201E0202C03D001342A55E2
:101FE000A342F9D85246002A0DD0A6420BD9202C84
:101FF00044D00C9A551E302201E0202C3ED00134F2
:102000002A55B442F9D1FA064DD57A053FD4002CB1
:1020100039D10F9B102B00D179E00F9B022B00D1FF
:102020008AE030230C9A012413704B46002B3FD0DA
:102030002D230C9A135501340C9B62460093039791
:10204000434602960194FFF759FF04B0E0BCBA463C
:10205000B146A846F0BD012215003D40AA463A42CD
:102060002FD04A46002A02D10C323A4200D0013E1B
:102070009C42BAD21F2CABD9202E27D92024FA0695
:10208000DAD57A0503D4A3422DD0A6422BD00F9BDC
:10209000102B32D0022B20D0202CCDD030220C9B04
:1020A0001B191A700134202CC6D04B46002BBFD10F
:1020B0007B070DD43B07BFD520230C9A1355013461
:1020C000BAE79C429FD21F2C00D881E720249AE7D0
:1020D0002B230C9A13550134AEE7202CACD00C9B6B
:1020E0001B1901343AE0631E012C92D00F9A102A7A
:1020F0002AD0022A2FD01C00D0E7BB060ED4202CF9
:102100009AD00C9B1A19013478231370C4E7BB06CC
:102110000DD478230C9A01241370BFE7202C00D132
:102120008AE758220C9B1B191A700134B4E7582314
:102130000C9A01241370B1E70C9A603301241370D8
:10214000ACE7202400265EE7023CBA06E9D40C9AEC
:1021500012191C00D8E70C9A9246534462221A7056
:102160009AE7C04610B5002800D110BD03F07AF8F8
:10217000FBE7C0460B0010B5002802D049681B6879
:10218000984710BDF0B5DE4657464E464546E0B589
:102190009BB09B46249B89469846259B0B900C92AE
:1021A0004046424619009A4601F0C7FC002800D07C
:1021B000D8E0012240465146774B524201F0B8FC2C
:1021C000002800D0CEE0012240465146734B5242D7
:1021D00001F098FC002800D0C4E000220023404613
:1021E000514601F08FFC002800D0B9E14246534629
:1021F0000A9209938023289ADB001A400E92289AAB
:102200001A4201D1062326930A9A099B160013430A
:1022100000D0C7E0289B002500261B0500D49BE1C9
:1022200000230D93269A0D9B9A4200DC9FE1D01A61
:10223000431E26938023289ADB001A43002300279D
:1022400028920D93279B0024BB4200D9DC1B02235C
:10225000289A1A400E92289A134203D07B427B415F
:102260005B421C400D9B002B07D00A9809992A005D
:10227000330001F0E6FB0A9009910022002340465A
:10228000514601F03FFC002805D08020000684461E
:10229000099961440991289A414B0B9D134004937D
:1022A000269B0A9A0293099B039400920193494644
:1022B0005B4628000C9A00F08BF90400002F62D0D6
:1022C000289B220098061F23C0179843631C98463A
:1022D00049465B466530A8470D9B0025DA179C18D8
:1022E000DB0F9A465440013F01E0202D13D00AAA8B
:1022F00094461F23200063440A2101355E1901F032
:102300003FF93031317020000A2101F039F92600FF
:102310000400092EE9D805230693002304930A3309
:102320000393534605970B9F029312AB00934246CB
:102330005B46494638000195FFF72EFE0E9B0400D0
:10234000002B20D00C9BC51A279BAB421BD91E002B
:1023500022005B46494620200135B8470134AE4291
:10236000F6D810E0289B42460493279B49460393E6
:10237000269B0B9802935346009201935B460C9A5E
:1023800000F026F9040020001BB0F0BCBB46B246AA
:10239000A946A046F0BDC046FFFFEF7FFFFFEFFF5D
:1023A000FFF7FFFF734B099F9C467800400D604488
:1023B00001F0D6FB704A714B01F061FB704A714B22
:1023C00001F036FB3B03704A1B0B1A4304000D005F
:1023D000300011006D4B002201F021FB6C4A6D4B67
:1023E00001F04DFB02000B002000290001F020FB52
:1023F00001F0CEFB0D9001F0B3FB674A674B040080
:102400000D0001F03CFB0022654B01F011FB01F0D7
:10241000BFFB644A0600644B2000290001F02FFB3B
:10242000040030000D000F9601F09AFB5F4A604BEC
:1024300001F025FB02000B002000290001F0EFFA5B
:1024400002000B0006000F0001F019FB320004002F
:102450000D003B003000390001F0EAFA0022109034
:102460001191544B2000290001F0EBFA0022524B4D
:1024700001F0DEFA02000B002000290001F0E1FA71
:1024800000224E4B01F0D4FA02000B00200029007C
:1024900001F0D7FA0D008021040032003B0000203B
:1024A000C90501F0BCFA02000B002000290001F070
:1024B000BFFA02000B001098119901F0C2FA002235
:1024C000314B01F0B5FA3E4B0F9C9C466444002210
:1024D000230501F0D4FA05000E0002000B000A9853
:1024E000099901F00FFB00280AD00D9B2800013B41
:1024F00031000D930022304B01F0A3FA05000E00CD
:10250000C6270D992B0063318F42BF4128997F4226
:102510000437090500D495E6334300D182E6099CCF
:10252000284A2100284B0A9801F0FAFA002808D01E
:1025300000222100254B0A9801F0E4FA002800D07F
:1025400070E6269B002B00D17CE60E9B5A1E934121
:10255000269AD31A269375E6002304270D9371E675
:1025600043460A9380231B065344099342E6002303
:1025700026935FE601FCFFFFFB799F501344D33F96
:10258000B3C8608B288AC63F0000F03F0000F83FC8
:1025900061436F63A787D23F71A379094F930A40C4
:1025A0000000E03F1655B5BBB16B0240EF39FAFEB3
:1025B000422EE63F00002C4000002440000018405E
:1025C000FF0300002D431CEBE2361A3F80842E41AE
:1025D000F0B54E46DE4657464546E0B597B09946BB
:1025E000209E219F229B8346984607910C923B0098
:1025F00032003000390001F0A0FA002800D0A9E133
:10260000012230003900CA4B524201F07BFA002807
:1026100000D0E1E0012230003900C64B524201F007
:1026200087FA002800D0B7E0002230003900C24B02
:1026300001F07EFA002800D099E000223000390035
:10264000BE4B01F05FFA002800D090E0002200238A
:102650003000390001F056FA002800D0B1E0002324
:102660000D93249B5B0501D40623984608AB9C463A
:102670001722002430234146624404E001341355FC
:102680000139202C01D00929F8D8884630003900BA
:1026900001F07EFA4346DA00A94B05009B181A6840
:1026A0005B680892099301F05BFA02000B003000AE
:1026B000390001F0B4F9089A099B01F0E0F90A9099
:1026C0000B9101F089FA824601F046FA02000B00F4
:1026D0000A980B9901F0A3F900229A4B0A900B91EA
:1026E00001F026FA002800D1C0E001239C46E24414
:1026F000504601F031FA02000B000898099901F0E8
:1027000007FA002802D000239A4601354346002BE1
:102710006AD008AB17269C4608956644554614E0D7
:1027200001235B4243440A2128009A4600F028FF17
:10273000013430313719397028000A2100F020FFA8
:10274000092D00D8D0E0D0460500202CE8D10EABF2
:1027500098460323249A1340012B00D196E02023AE
:10276000249A01930392239A434602921EE0249BEB
:1027700058460493239B00960197039343460C9A73
:10278000029307994B46FFF7FDFC17B0F0BCBB4620
:10279000B246A946A046F0BD249B5B070ED4032297
:1027A000694B249901920391239902910093584611
:1027B0004B460C9A0799FFF7A1FBE6E70422634B0F
:1027C000EFE73B0032000020002101F028F901234F
:1027D00006000F000D9344E7249B0393239B029371
:1027E000042301935A4BE1E7280001F0B9F90200F4
:1027F0000B003000390001F012F9524B00220600A4
:102800000F0001F07FF90EAB984600280AD1002294
:10281000300039004B4B01F08BF9002802D1EB0757
:1028200000D50135202C94D008AA944617232800FF
:1028300063440A2101341E1900F07AFE3031280069
:1028400031700A2100F074FE051EEBD10323249A97
:102850001340012B1BD0202C00D180E70D9B002BB7
:1028600035D02D224146631C0A5579E700220A988B
:102870000B99344B01F046F9002800D046E7534647
:10288000002B51D101239C46E2443FE72024239BA7
:10289000002BE0D00D9B002B03D1249A0C33134264
:1028A00002D0239B013B2393239BA342D3D908ABA4
:1028B0009C46172230236244202C00D14FE72399F5
:1028C000013413558C42C6D0202CF8D147E7249B05
:1028D0005B0724D4249A2300120700D440E7202267
:1028E000414601330A553BE75746089D202C00D14D
:1028F0002DE7220030214046002F09D00132B1548B
:10290000202A00D123E7D3431B191B18002BF5D134
:102910000EAB98462E234146541C8B5482E72B2243
:102920004146631C0A551BE7DB0700D4EEE6A9E726
:10293000FFFFEFFFFFFFEF7F65CDCD4165CDCDC13F
:10294000505800100000E03F545600105856001038
:1029500064560010249B0393239B0293032301934B
:10296000004B23E760560010F0B5DE464E46574652
:102970004546E0B59FB01C00289B91460993C94A83
:10298000C94B8B4608901A60002900D118E2002339
:1029900020789A46002800D11AE226001D005C46E5
:1029A0000AE02A006F1C4B46089D2100A8473D0005
:1029B00001363078002870D02528F2D110239B46AC
:1029C000083B9A46043B9846023B00219C46721CF9
:1029D000107816000300203BDBB2102B03D8B34F56
:1029E0009B00FB589F460300303B092B32D9002344
:1029F0000A932A2868D0002398462E283ED0030048
:102A0000683BDBB2122B1CD8A94A9B00D3589F46C7
:102A1000012301321943DBE7634601321943D7E74B
:102A2000434601321943D3E75B4601321943CFE7EE
:102A3000534601321943CBE780235B00707819437A
:102A400001360300253BDBB2532BAAD8994A9B00E1
:102A5000D3589F4600270300B800C0190136400034
:102A6000C018337830381A00303A0700092AF3D9F1
:102A70000A901800002398462E28C0D18023707831
:102A8000DB0019430300303B721C092B00D8A1E185
:102A90002A2800D1B2E11600B1E7A346AA462C00CD
:102AA000D14503D801235B424B449A464B465246DC
:102AB00059460020089DA84720001FB0F0BCBB4627
:102AC000B246A946A046F0BD099B40CB0A96002E0F
:102AD00003DB50780993561C8DE728380143704278
:102AE0000A9009935078561C85E7782800D1DFE1D9
:102AF000582800D14CE26F2800D14FE3622801D161
:102B000000F030FC10230A009A430B92692801D090
:102B100000F0A9FC0A230C934B0500D5D0E10B9AD9
:102B2000802311009B0019408B461A4200D0A1E27D
:102B3000802311005B0019408A461A4200D0B6E398
:102B400013005B0600D5EDE2130009991B0601D4C2
:102B500000F076FC08C91BB2D8171A18424092B28E
:102B600009919346DA0F1292002B09D1802310228B
:102B70000B99DB000B4091430B91002B00D0E4E25A
:102B80000B9A6123920600D541230EA91F228C4681
:102B9000DBB262440A3B5F461395A34655460C9C44
:102BA000B2460D9316000AE03033DBB2013573559F
:102BB000A74200D2EDE2202D00D1EAE20700210079
:102BC000380000F0DDFCCBB20929EDD90D9A94460E
:102BD0006344DBB2EAE780239B0070781943013637
:102BE0002FE77078682800D1CDE1802301361943A2
:102BF00027E770786C2800D1BFE180235B00194380
:102C000001361EE7462800D19BE10722099B04916B
:102C1000073393430A9A19000392424602920CC961
:102C200008980092019309912A004B462100FFF772
:102C3000CFFC01360500BCE62A006F1C4B46089D00
:102C400021002520A84701363D00B2E68B0700D4BD
:102C5000ADE1099B2A009A466B1C9846534601CB6E
:102C600021009A46089F4B46C0B2B8470A9B9C4633
:102C70006544012B00D886E2089B4746B0462600F3
:102C80004C4699463A002300013731002020C847BE
:102C9000AF42F7D1A1465346340046460993013668
:102CA00087E6C046692900101C0600206C560010FB
:102CB000B0560010FC560010099B04CB9B464346BF
:102CC0000992002B00D1C6E013789C46002B00D15E
:102CD000BDE34346013B099A0133D0180A9F130014
:102CE00001E0834203D05A780133002AF9D1099ACE
:102CF0000A979B1A0B9380230A00DB001A400C9260
:102D0000194204D00B9B434501D943460B93022340
:102D10001A000A400D920B4200D187E1604600285C
:102D200000D168E10C9B002B00D10DE1A844C24604
:102D3000099B57465B1B9846089BB2462A00260013
:102D40004C46994609E023003100551CC8474346CC
:102D5000585D002800D126E12A009742F3D1A14610
:102D60003D00340056460D9B002B00D043E15B46EE
:102D7000013609931DE6099B1A0008CA9246002BEA
:102D800048D0212211438B460EA884461F2161445E
:102D9000099500220F27A4460D0002E0202A0CD03E
:102DA0000B003C001C4020003730092C00D80738AD
:102DB0000132A85419090F2BF0D86446099D32E05E
:102DC000DC4B2078089300239A46002800D0E4E5E5
:102DD000002465E6434606000A9F9800C0180132A9
:102DE000400080191678030030003038303B092845
:102DF000F3D93000984616000A9700E6099B023680
:102E000004CB9046D2434046D217104080460993E7
:102E10003078F4E5102208009043113210438346C5
:102E200000224905B0D55B46069308230593434627
:102E30000493102303930023029316AB0192009393
:102E40002A004B4621000898FFF7A6F853460500D4
:102E500001360993ADE513789C46002B00D1F7E2CB
:102E600002235B4237E7202302009A43472A04D11A
:102E700080231B01194302239843452801D12023B5
:102E800019430722099B0491073393430A9A1900B7
:102E90000392424602920CC908980092019309914C
:102EA0002A004B462100FFF76DF90136050080E549
:102EB00010230C930C230A009A430B924B0503D565
:102EC00001230B9A9A430B92692800D127E66428C4
:102ED00000D124E60B9A802311009B0019408B46F9
:102EE0001A4200D066E1802311005B0019408A4637
:102EF0001A4200D039E213005B0600D53CE1130012
:102F00001B0600D4A6E2099B04CB1204120C9346C4
:102F100009935B46002B00D09AE10B9A1033110005
:102F200099430B91520500D492E100239A460B9BE2
:102F300006930A9B0593434604930C9B039300233B
:102F40000CE12023194360E6099B0A9A5B1B984613
:102F50004B4691461F00B2462600089C2A003B00C3
:102F60003100A04743460135585D0028F6D14A4656
:102F70003400B94656460A92F5E6C0239B00B07865
:102F8000194302365DE5C023B0781943023658E58F
:102F90000C230A009A4314331A43103B0B920C93F0
:102FA0004B058DD496E7A14634005646DBE60A9AD7
:102FB000012A00D853E26B1E9F18089BB0462600DA
:102FC0004C4699462A002300013531002020C8478D
:102FD000BD42F7D1A14634004646099B3A0001CBD9
:102FE000210098467D1C4B46089FC0B2B847434617
:102FF00001360993DDE40B9B0A9AA8469A4200D851
:10300000B5E694466544ED1A089B4746B04626004F
:103010004C4699463A002300013731002020C8472A
:10302000AF42F7D1A14634004646A0E60B9A0A9972
:10303000531C914200D814E24B199B1A1F00089BA5
:10304000B24626004C4699462A002300013531003D
:103050002020C847BD42F7D10A9BA14601330B93FC
:10306000099B34001B7856469C466046002800D0D9
:1030700058E67CE60722099B0733934301329446C6
:103080009C4462465F6809921A68FB17109311937B
:1030900010981199030053400E930B007B400F933F
:1030A00094460E9A0F9B121A8B410E920F93FB0FB0
:1030B0006246129300233A439B463DD00B9A61230C
:1030C000920600D541230022DBB20EA90A3B8C46B2
:1030D00092460D9343461F3262441395159655460A
:1030E0000E9E0F9FA24690460C9C14930CE030322B
:1030F000D2B2434601355A55BB4500D18AE1202D55
:1031000000D18AE106000F002200002330003900C0
:1031100000F078FAD2B2092AE9D90D9B9C466244A4
:10312000D2B2E6E7FF23099904C913401A000991B6
:1031300017E5C046F91E00100B9A10331100994391
:103140000B915205BAD500239A460B9B06930A9B16
:103150000593434604930C9B0393129B029353469F
:10316000019316AB2A00009321004B460898FEF706
:1031700013FF013605001CE4FF22099B02CB11401E
:103180008B460993C5E65346454609930136FFF73A
:1031900010FC56465C46AA46139DD6E708230C93BE
:1031A0000B910B99642800D084E60B9B5B0500D53E
:1031B00086E6B4E40722099B073393430132944621
:1031C0009C44624609921A685B6810009B46130093
:1031D0005A46134307D10B9A1033110099430B91B0
:1031E000520500D5A1E60B9A6123920600D5412332
:1031F0000022DBB20EA90A3B8C4692460D93434651
:103200001F3262445F461295A34655460400B246FB
:1032100090460C9E13930DE03032D2B243460135F6
:103220005A550023BB4200D100E1202D00D100E11E
:1032300004000F00320000232000390000F0E2F902
:10324000D2B2092AE8D90D9B9C466244D2B2E5E786
:103250000B9A6123920600D54123DBB20EA90A3BEB
:103260001F228C460D93230062445C461295170082
:1032700055469B46B2460C9E08E03033DBB2013522
:103280007B55B4420ED3202D0CD004003100200019
:1032900000F076F9CBB20929EFD90D9A9446634430
:1032A000DBB2ECE756465C46AA46129D3FE6099B18
:1032B0001A0008CAD91713925A184A409246DA0FD0
:1032C0001292002B08D1802310220B99DB000B40B7
:1032D00091430B91002B2BD10B9A6123920600D5C1
:1032E00041230EAA1F279446DBB20A3B0D95674483
:1032F0005D460993A3465446B2460C9E08E030331F
:10330000DBB201357B55B4420ED3202D0CD0040026
:103310003100200000F034F9CBB20929EFD9099A25
:1033200094466344DBB2ECE756465C46AB460D9DE3
:103330000B9B2A0006930A9B2100059343460493A6
:103340000C9B08980393129B013602935B460193F2
:1033500016AB00934B46FEF71FFE139B0500099327
:10336000FFF727FB02230C931AE7099B04CB924635
:103370001293002A08D1802310220B99DB000B4006
:1033800091430B91002B2BD10B9A6123920600D510
:1033900041230EAA1F279446DBB20A3B0D956744D2
:1033A0005D460993A3465446B2460C9E08E030336E
:1033B000DBB201357B55B4420ED3202D0CD0040076
:1033C0003100200000F0DCF8CBB20929EFD9099ACE
:1033D00094466344DBB2ECE756465C46AB460D9D33
:1033E0000B9B2A0006930A9B2100059343460493F6
:1033F0000C9B08980393002302935B46019316AB42
:1034000000934B46FEF7C8FD129B05000993013659
:10341000FFF7CFFAB44200D871E6149B54460E96DB
:103420000F97AA469846159E139D8EE6A64200D891
:10343000FBE6139B56469846AA465C46129D76E5E7
:1034400008C9D8171A1842400991FFF78AFB0023D0
:103450000B9350E4099B04CB9346099359E52F0045
:10346000BBE50B9301E6063B0C939AE600B585B0ED
:103470000391012102900093034813004A4202A9DC
:10348000FFF772FA05B000BD7521001010B5094AAA
:103490000300146884B0002C08D001220091064873
:1034A000524203A9A047012004B010BD01F02AFF39
:1034B0000020F9E71C0600206521001001480421C6
:1034C000014B1847F0010020ED340010142310B513
:1034D0000100188804331B88984710BD162310B5C7
:1034E0000100188802331B88984710BDF8B547467D
:1034F000CE4680B50F1E19D014239946043304001C
:103500000025012698464B461888434621681B88AB
:10351000984701C4431E9841013540420640AF42DE
:10352000F1D13000C0BCB946B046F8BD0126F8E77D
:10353000124A936F9B0815D29066D166002905D078
:10354000FFE7FFE7FFE7516F106F704704B5802179
:103550000906C2175140002800D0C84302F02CF8D9
:10356000002104BDF0B5146E556E576F166FFFF74E
:10357000E3FF1466556657671667F0BD000000D07C
:10358000114A936F9B0813D210665166002905D02B
:10359000FFE7FFE7FFE7516F106F704704B50028A2
:1035A00001D00020C04302F007F8002104BDC0464E
:1035B000F0B5146E556E576F166FFFF7E5FF146682
:1035C000556657671667F0BD000000D094464E4A16
:1035D000926F9208624601D230E0C046F0B54A4E82
:1035E000B56F6D08FCD3346E756E776F366F00F073
:1035F00025F89446444A146655665767166762462E
:10360000F0BDC0469446404A926F9208624601D28D
:1036100058E0C046F0B53C4EB56F6D08FCD3346E33
:10362000756E776F366F00F04DF89446364A146623
:103630005566576716676246F0BDC046002B24DB0F
:1036400011D000293EDA00B5C943404200D1013112
:1036500000F038F8C943404200D10131DB43524207
:1036600000D1013300BD002AEBD1002801D100298F
:1036700005D00020C90FC90701D1C043410800B5DA
:1036800001F092FF0022002300BD00B500290ADBF3
:10369000DB43524200D1013300F014F8C9434042E9
:1036A00000D1013100BDC943404200D10131DB43AB
:1036B000524200D1013300F005F8DB43524200D101
:1036C000013300BD002923D1002B18D1002A0CD0D2
:1036D000BC460D4F38667A6600210023FFE7FFE7FE
:1036E000FFE77A6F386F67467047002801D00748B8
:1036F000010000B501F058FF0022002300BD0200C8
:103700000B00002000217047000000D0FFFFFFFFEA
:10371000002B00D0BFE0130C28D1002AE7D080B4E2
:10372000114F39667A66FFE7FFE730B4040C7B6F10
:10373000396F1B0423433B667A66FFE7FFE7FFE729
:10374000C04684B27B6F3D6F1B0423433B667A66A1
:10375000FFE7FFE7C04600232C042D0C7A6F386F7B
:1037600000196941B0BC7047000000D0F0B5944624
:103770000025140E01D112020835140F01D11201D7
:103780000435940F01D192000235D40F01D15200BB
:103790000135D40B0134254F7C66254C3C660E0C5C
:1037A00093B2FFE7FFE7FFE73C6F6643360C770312
:1037B000BE467343DF0B5B04C01AB941130C73435D
:1037C000DB18C91ACE086643360CB64493B273436D
:1037D0001F0F1B01C01AB941130C73431F0B1B05AC
:1037E000C01AB941860D8F023E436643360C092D3F
:1037F00024DB520A7243801A7703460A6643360C6A
:1038000016235B1BDE40DF40BF1964466643821B04
:103810007046043506330100D940A840C01900D3D2
:103820000131A24206D20023F0BD0000000000D00A
:10383000FFFFFFFF121B0130F3D3F1E709277F1BC6
:10384000FE406446A2B27243801A00D20139220CB3
:103850007243130C1204821A99410B00704604350E
:1038600013370100F940A840801900D30131002B23
:1038700002D1A2420AD2F0BD013000D30131121BA5
:10388000FAD2013BF8D1A24200D2F0BD013000D300
:103890000131121BF7E7F0B51C0C00D080E00CB42E
:1038A00000251C0A04D11B02160E334312020835F0
:1038B0001C0B04D11B01160F3343120104359C0B62
:1038C00004D19B00960F334392000235DC0B02D1EA
:1038D00092185B4101351C00971864410134464F32
:1038E0007C66464C3C660E0CFFE7FFE7FFE7C046F0
:1038F0003C6F6643360C7703BE4697B27743C01BD6
:1039000000D20139C01B00D201399FB27743C91BD5
:10391000C91B170C77437E04FF0B801BB941CE08EF
:103920006643360C0C2D33DBB644120B1F053A43AD
:103930001B0B97B27743C01B00D201399FB277436C
:10394000C91B170C77433E043F0C801BB941860D01
:103950008F023E43664329277F1BFE400C3D77467E
:10396000AF40BF1930BCA2B2ABB272437343801AEE
:103970009941220C7243130C1204801A99410200DF
:103980000B000137001BA941F9D2781E0021F0BDC0
:103990000C277F1BFE4077467F0BAF40FF19E0E707
:1039A00000245D1C07D0144F7D663966FFE7FFE7F2
:1039B000FFE7FFE73C6F95B29EB265436643401B4D
:1039C000B141150C1E0C6543664336042F0C3E4373
:1039D0002D04401BB141994204D202000B0020008B
:1039E0000021F0BD01D19042F7D3801A99410134F2
:1039F0009942F2D3F6E70000000000D0FFFFFFFF7E
:103A000044464D4656465F46F0B47047F0BCA0466B
:103A1000A946B246BB46704748404140484018B4AA
:103A20001B4B5B68FC46019308BD04DFB7410010E7
:103A300018B4174B1B68FC46019308BD00DFC14159
:103A400000109446134A926F920809D2624618B445
:103A50000F4BDB68FC46019308BD0CDF7944001076
:103A60000C4AF0B5146E556E576F166F6246FFF72D
:103A7000EEFF084A1466556657671667F0BD18B41E
:103A8000034B9B68FC46019308BD08DF1D430010F3
:103A900058030020000000D0FFB550404240504085
:103AA00059404B40594000E0FFB5154F4C00640DA4
:103AB00003D0BC4204D10C0314D80020090D090521
:103AC0005C00640D03D0BC4204D11C030AD8002260
:103AD0001B0D1B0501264B4009D44B4003D58B42DF
:103AE00000D18242FFBD9942FCD19042FFBD0B4301
:103AF000DB1803431343F5D0C9434918FFBD000049
:103B0000FF07000000B5FFF7CFFF804100BDC046B2
:103B100000B5FFF7C9FF01D9002000BD012000BD9D
:103B200000B5FFF7B9FF01D9002000BD012000BD9D
:103B300000B5FFF7B1FF804100BD012040054A00FC
:103B4000121804D85A00121801D80020704701201A
:103B500070470020704700000021002805D1704701
:103B6000C1174840401AFAD0C90713B5064B1B6865
:103B700098470CBC441CA2401005120B0349091BBA
:103B800009051943114310BD300600201F04000031
:103B900010B54C00620D8023D218DB00D21A5B05F1
:103BA0007E2A10DD9E3A13DACC170903490819431F
:103BB0005242D140640001341532202A05DAD04047
:103BC0000843604310BD002010BD0846604310BD8F
:103BD000C80FC018013810BD18B4044B5B6AFC460E
:103BE000019308BD24DFAD460010000058030020FB
:103BF00018B4044B1B6EFC46019308BD60DF5F47A1
:103C00000010000058030020024A034B00B500F0EA
:103C1000B1FA00BD182D4454FB2119408A0002D38B
:103C2000920D092A08DA18B4064BDB6BFC460193A7
:103C300008BD3CDFB348001000B5FFF7E5FF04BC4A
:103C40009646F0E7580300208A0002D3920D092A15
:103C500008DA18B4064B1B6CFC46019308BD40DF24
:103C6000C348001000B5FFF7CFFF04BC9646F0E74D
:103C7000580300208A0002D3920D092A1DDA9446C7
:103C8000114A926F920809D2624618B40F4B5B6CCE
:103C9000FC46019308BD44DF934800100A4AF0B582
:103CA000146E556E576F166F6246FFF7EEFF064AA9
:103CB0001466556657671667F0BD00B5FFF7A4FF99
:103CC00004BC9646DBE70000000000D0580300204B
:103CD000132370B51D78012D15D010DD1C48FFF79A
:103CE000FDFB1C4C01008022200001F0A3F9022DF5
:103CF00006D01948FFF7EAFB184B186070BD154C49
:103D0000174BA364F5E7164B124C23606360A36066
:103D1000E36023616361A361E36123626362A36281
:103D2000E36223636363A363E36323646364A36461
:103D3000E36423656365A365E36523666366A36641
:103D4000E36623676367A367E367A364D1E7C046BD
:103D500053440000580300204C330000300600207C
:103D600085410010F0B557464E464546DE461C00DC
:103D7000E0B50D006400640DA246534C1E006B00BC
:103D8000010085B028005B0DA34267D05446002C8B
:103D900064D0EC0F0394002B0CD10025002C60D1D3
:103DA00000242800210005B0F0BCBB46B246A9465D
:103DB000A046F0BD0D0004005345F2DB0C0080214D
:103DC00049038C460003000B014336030D00310B01
:103DD000160062460A43170052469B1A9846002B6B
:103DE0005EDD012039114042FFF7CAFB834616E031
:103DF00022009A40019223004A4693404810320024
:103E00000093C9173B0000F0DDFE009C019D434676
:103E10004A469B1A241A8D419846002B24DD4346BE
:103E2000C1460C2B01DD0C2399465B46A9114A467D
:103E300059431D239B1A202219414B4652420131FE
:103E40009B18D5D54A4620239B1A2200DA404846C3
:103E500013002A0082401A430192CCE700251B4C34
:103E60009FE7802424069CE7AF4220DD002D05DA81
:103E7000A4197D41002D01DAA4197D41039B002B7B
:103E800004D022002B00002554429D415346104A85
:103E900020002900D21AFFF7ABFE05000C0080E7D6
:103EA000AF42EBDCAF420BD0A41BBD41E6E7AF4213
:103EB00001D1A642DAD8A41BBD41AF42F2DDDDE755
:103EC000A642F1D9DAE7C046FF0700000000F07F04
:103ED00033040000F0B557464E464546DE46E0B591
:103EE00087B002925A009A46530D9946109B4D0096
:103EF00004006D0D002B01D000221A609A4A9542F1
:103F00007DD04B46002B7AD0002D00D182E02700D7
:103F10000E00914575D0013B0393AB4271DCCB0F92
:103F20000E039846330B9B4680235B039C465B46FF
:103F3000624613431F005346060018036346000BF6
:103F40000343029A0193039B0092AB4200D1AAE083
:103F50004346002B00D1B7E033003C0000275E420F
:103F6000A7414B46ED1A002D00DCC0E00120019B6B
:103F700040421911FFF704FB002398464B46039378
:103F80005346AB46029004931BE032009A40150062
:103F90003300524693401C004B464846D917009ABE
:103FA000019B00F00FFE4346524693404B44984617
:103FB0005B4626002F009B1A361A8F419B46002B2A
:103FC0002BDD5B46DA460C2B01DD0C239A46029A68
:103FD000BB11534351461D22521A13412022013373
:103FE0005B10524299468B18CFD5202332005B1AC2
:103FF000DA4013003A008A4015001D43C8E7002745
:104000005A4E3800310007B0F0BCBB46B246A94654
:10401000A046F0BD00270026F3E7039B9946049BCA
:104020009A46009B019CBC4200DD83E000D17DE00C
:10403000009B019CF61AA741BC4200DD8BE000D139
:1040400085E0009B019CF61AA74102239C46E044B0
:104050003200009801993B0092197B418B421ADC97
:1040600017D000998A425AD05346002B02DA4346B1
:104070005B429846109B002B01D042461A604B468B
:104080003B4A30003900D21AFFF7B2FD07000E009C
:10409000B7E78242E5D9009B019CF61AA7410123AC
:1040A0009C46E044E0E7019B9F422FDD0098019988
:1040B000434600184941002B3FD1039B361A8F41DC
:1040C000994601239846CFE74B46ED1A002D00DDB7
:1040D0004CE7019BBB42BBDC009B019CBC4201D175
:1040E000B342B5D8009B019CF61AA74133E00023E8
:1040F0009846009B019CF6186741002F2FDAF618AE
:10410000674102235B429C46E044A1E7009A019B81
:104110009F4201D19642C9D827000E0071E7019A4B
:104120009342A1D14346DB079ED5B4E7009BB3423F
:1041300000D87DE7002FDCDB8AE7039B801BB941B9
:10414000994601235B4206000F0098468CE7009BCE
:10415000B34200D875E701239C46E04478E7012389
:104160005B429C46E04473E7FF0700000000F07FDD
:104170003304000010B5002482B00094FFF7AAFEBB
:1041800002B010BD07B5604601880A0A0230DF2A76
:10419000FAD1C9B2820804D30288408800041043CF
:1041A00000E00068014A5050039007BD580300200A
:1041B0000FB403BC0CBCF0B50124E407634000E07D
:1041C000F0B50C0DCF0F661E3605891B640503D3B1
:1041D000C943404200D30131640D03D0661CF60A86
:1041E00007D0E41B00207F00791C89078912803CDE
:1041F00024031D0DDF0F6E1E36059B1B6D0503D3BB
:10420000DB43524200D301336D0D03D06E1CF60A1E
:1042100007D0ED1B00227F007B1C9B079B12803D7B
:104220002D032F1B661B58D4A446202E46DA2037B8
:104230001400BC401D00BD40F24033412A438018A9
:104240005941CB0F05D0C943C043002264425041BD
:10425000514162464D0D28D10D0D07D100281FD0C8
:10426000241940414941013A0D0DF9D0640006D3AB
:10427000013000D30131002C01D140084000013A47
:104280000BD4941CE40A04D112051144DB07194431
:10429000F0BDD907204B194300E0D9070020F0BD3D
:1042A0000029DDD1002CDBD1F0BD0132C60740086A
:1042B000CD0728434908002EE1D0D9E73C2E29DA62
:1042C000203E40371400BC4000D00124F24014438B
:1042D0001A00BB401C43D317ACE7AC46202F08DACA
:1042E00020360400B4400D00B540F8403941284361
:1042F000A5E73C2F0CDA203F40360400B44000D044
:104300000124F84004430800B1400C43C117EAE718
:1043100010001900002494E70000F07FF0B50C0DA8
:10432000661E3605891BE60A6405640D02D0651C0D
:10433000ED0A04D0002001210905803C2403A44695
:104340001C0D671E3F05DB1BE70A6405640D02D0E8
:10435000651CED0A04D0002201231B05803C2403C8
:104360007740644497B484B296B27443070C7E439A
:10437000150C6F4380B26843361802D30120000445
:104380003F183004350C00197D41844688B29AB23A
:1043900050430C0C62431F0C7C438EB27E43921937
:1043A00002D301263604A4191604170C36186741E7
:1043B00001BC81B29AB25143040C62431B0C5C43B2
:1043C00080B25843121802D30120000424181004AC
:1043D000130C401863412D185E410020474106BC74
:1043E00088B293B258430C0C6343120C544389B205
:1043F00051435B1802D301210904641819041A0CF3
:10440000091862416D1856410020474118BCF90255
:10441000720D1143F0026A0D1043ED020A0D03D133
:104420006D1940414941013B124E9B1B7600B3423E
:104430000ED26D0007D30130002671416646354328
:1044400001D1400840001B05C918E4072144F0BD14
:104450000BDA013306D1013004D101314F0D01D007
:104460004908F2E7E1070020F0BD013631050020E0
:10447000EBE70000FF030000F0B51C0D671E3F05D1
:10448000DB1BE70A6405640D02D0661CF60A04D043
:10449000002201231B05803C2403D0252D06002685
:1044A000F6432E661E096E66CE0FF619B446490015
:1044B0004F0D02D07E1CF60A03D000200021403FA1
:1044C0003F033E1BB600B444013F7F05C91B4908AA
:1044D0002E6F013676089C02950D25437543ED132A
:1044E0007543AD1301356D10F603761B0CB4CC0289
:1044F000450D2C43A2B2B3B25A43270C7B43350C73
:104500006F43A4B26C431B1902D3012424043F1946
:104510001C041D0CA4187D4124196D41009A91B210
:10452000ACB26143170C7C432B0C5F4392B25A43ED
:10453000A41802D301221204BF182204230C52181B
:104540007B41019C6C431B19520ED9010A43440163
:10455000A01A81B2B2B2514303145A43360C7343CA
:1045600087B27743D617D21900277E4136049B19AC
:104570001704160C7F185E417316ED18F301002620
:1045800080337541A90F06D16400690AE8055B0A0A
:10459000184309D22FE00422944480337541A90ABC
:1045A000A8059B0A184326D3404149412404009A98
:1045B000019B0D005543641B4343E41A95B286B238
:1045C0007543170C7E43030C5F4392B25A43B618EF
:1045D00002D301221204BF183204330C52197B415A
:1045E00052429C41002C02D400220130514140082B
:1045F000CA071043490802B06246D7079210084B19
:10460000D218084B9A4203D212058918C919F0BD75
:104610000020002A01DC3900F0BD01331905F5E75F
:10462000FD030000FE070000624618CA94465A4681
:10463000002A20DB04E0624618CA944600291ADAF0
:10464000C01861415B463B415C46B4405246FA406B
:10465000224344464D4662416B41904699462B4663
:10466000B3403D41FC401C4352465B46A241AB4136
:1046700092469B467047C01AA1414B463B414C466F
:10468000B4404246FA40224354465D4662416B4183
:1046900092469B462B46B3403D41FC401C4342465C
:1046A0004B46A241AB41904699467047002200B567
:1046B000203200F010F8080000BD002200B500F024
:1046C0000CF8CA179A4200D100BDD8430121C9078E
:1046D000414000BD00220B150AD410B5944600F0ED
:1046E00079F81414013400DA0021CB17144C204758
:1046F0000020002170476244343A0CD40C2A07DAB7
:1047000004009140904052422032D440214310BDD9
:10471000D843D94310BD203207D40C4694405242AE
:1047200020321141D040204310BD0800C91720326B
:1047300003D452422032104110BD1800190010BDA0
:10474000F746001000210A00002104E000210A00C1
:10475000C11704E00022002306E0C0460022CB1768
:1047600058405940C01A994130B5184CA21A002936
:1047700003D1010010D00020203A4C1512D104D2F0
:10478000013A001849414C0DFAD3114CA24204D20F
:1047900012058918DB07C91830BDD243520D00201D
:1047A0000021F5E703D4013A00184941FBD50B324B
:1047B0004405C00A4D052843C90A640003D00024FB
:1047C00060416141E1E7E0D34408F8E732040000CA
:1047D000FE0700000A0DCC0F531E1B05C91A520517
:1047E00003D3C943404200D30131520D03D0531CBF
:1047F000DB0A07D0121B00206400611C89078912A4
:10480000803A1203014BD21A70470000FF030000E8
:10481000023225D40C2A1CDA1125AD1A0B002B41CB
:10482000083207350600EE40904091403143F0CC0D
:1048300063431A1500235A41554356435743BF0259
:10484000F412760576196741ED177F19801BB9417F
:1048500070470C220020C917490001310905DBE728
:104860000902030E194300025342203208D40C00FF
:1048700019419440D8402043002250415141704793
:104880000800C917203B2032F1D50020002100226A
:104890007047F0B5FFF7B4F800F01EF8844600F05A
:1048A0003FF803B4604600F059F80CBCFFF7AEF8CF
:1048B000E3E5F0B5FFF7A4F800F00EF800F030F8EB
:1048C00006E0F0B5FFF79CF800F006F800F046F8B7
:1048D000FFF79CF8F0BD000000B5FFF77BFF30A4A8
:1048E000FFF796FF00242C4D2C4ED20702D3F6433F
:1048F0006D426641520004D2A246A346A846B14684
:1049000003E0A046A146AA46B3466EA4A4460127EA
:104910001F26FFF790FE0137013E212FF9D100BD80
:10492000594684B28DB26C43061475430B145E4332
:1049300082B25A43AD18EA1700D7D2431204B61810
:104940002A042B0C12197341404649469D009B17BF
:10495000920F2A43904199413E2200E7494684B292
:104960008DB26C43061475430B145E4382B25A43F6
:10497000AD18EA1700D7D2431204B6182A042B0C3C
:1049800012197341504659469D009B17920F2A43B6
:10499000504159413E22E2E6BB4DF09DC556F636E8
:1049A0007D5100001A61140085880A00FB2119005E
:1049B000F0B5FFF725F8404D0C002C4001D0AC427B
:1049C00002D1090D090500201C002C4001D0AC4289
:1049D00002D11B0D1B0500220026ED02002B04D581
:1049E00002266B40694000D476424F1904D59942A3
:1049F0000CDD0136694003E0BB4207DA013E6B4043
:104A0000070010003A000F0019003B0040B4002AD4
:104A10000FD1002B0AD05C006415013409D14C0081
:104A20006415013402D10139013B02E0002000216C
:104A30002EE0FFF721FD3E22FFF740FE82468B4627
:104A40000020002180460122920791461DA4A44621
:104A500001271F26FFF7E8FD0137013E212FF9D17D
:104A60004A4653460C3A01246407002752081B00AB
:104A700005D49341001979416408F7D104E053410A
:104A8000001BB9416408F1D1CE07491040083043FA
:104A900040BC002E0AD0094C094D01D5E443ED433A
:104AA000F60701D100196941001969413D22FFF75C
:104AB00056FEFEF7ABFFF0BD0000F07F8D305A8848
:104AC000A8F64332694FBB610567AC1DB16E4096D5
:104AD000FCBAAD0F72DB0BABA66EF50739BD9FE5D7
:104AE00076ABFE034B6297BA5BD5FF01D694DBDD54
:104AF000AAFAFF005DEAEE5655FF7F006E77B7AA6F
:104B0000EAFF3F00BCBB5555FDFF1F00DEADAAAA62
:104B1000FFFF0F006F5555F5FFFF0700ABAAAAFE78
:104B2000FFFF03005555D5FFFFFF0100ABAAFAFFB9
:104B3000FFFF00005555FFFFFF7F0000ABEAFFFFBE
:104B4000FF3F000055FDFFFFFF1F0000ABFFFFFF11
:104B5000FF0F0000F5FFFFFFFF070000FFFFFFFF53
:104B6000FF03000000000000000200000000000041
:104B700000010000000000008000000000000000B4
:104B800040000000000000002000000000000000C5
:104B900010000000000000000800000000000000FD
:104BA00004000000000000000200000000000000FF
:104BB0000100000000000080000000000000004034
:104BC0000000000051434343C9188C46110C83B2C6
:104BD0004B4310B4040C614392B280B25043624321
:104BE0001C041B0C001910BC59411304120CC018F2
:104BF00051416144704700004840414048400E4BDD
:104C00005B6818470C4B1B6818470C4A936F9B084E
:104C100002D2094BDB681847F0B5146E556E576F1A
:104C2000166FFFF7F6FF054A146655665767166755
:104C3000F0BD014B9B68184758040020000000D0CD
:104C4000491A002808D1084670470000C10FC9075B
:104C500000D54042002817D0F44603B40B4B1B6824
:104C6000984706BC81409E384042803107D20B06EF
:104C700007D04900490AC005104308436047013086
:104C8000F8E7490A8902F5E770470000300600207E
:104C9000014B1B6B1847000058040020034BDB6FCF
:104CA000FC4618477CDFE94F001000005804002044
:104CB0004100090E862902DA044BDB6B18470449D0
:104CC00000B500F075F902BC8E46F5E758040020E7
:104CD000DB0FC9404100090E862902DA044B1B6C28
:104CE0001847044900B500F063F902BC8E46F5E7A9
:104CF00058040020DB0FC9404100090E862913DA51
:104D00000D4A936F9B0802D20C4B5B6C1847F0B5B1
:104D1000146E556E576F166FFFF7F6FF064A14664E
:104D2000556657671667F0BD054900B500F040F9B4
:104D300002BC8E46E4E70000000000D058040020CA
:104D4000DB0FC940132310B512481C78FEF7C6FBD1
:104D50000100012C0AD003DD80220F4800F06AF91F
:104D60000E48FEF7B3FB0E4B186010BD0A4C5422E0
:104D7000200000F05FF90B4B6365A365E3652366D4
:104D80006366A366E36623676367A367E3672362DB
:104D9000E361E5E753460000580400204C3300006F
:104DA00030060020BD4F0010F8B5FF25CE4647461F
:104DB000C40DCA0D2C4080B51540FF2C42D0002DEB
:104DC00040D0C20F9046002C06D10020002A3CD1D2
:104DD000C0BCB946B046F8BDAC42F9DB8026430200
:104DE000490236045F0A490A3743641B0E43002C0C
:104DF00033DD0120F1114042FEF7C2FB1D21814647
:104E000022000C2C00DD0C2248467B124343881AFA
:104E10000341974001335B107343A41AFF1A002C1F
:104E2000EEDCBE4214DD002F02DABF1900D5BF1937
:104E30004346002B00D07F4296213800491BFFF7E4
:104E400027FFC5E7FF20C005C2E780200006BFE7B7
:104E5000BF1BBE42ECDCBF1BEAE7B742E8DBBF1B6F
:104E6000E6E7C046F8B5454657464E46DE46E0B54D
:104E7000FF268846C50DC90D35401700041C0E409D
:104E8000002A01D000231360FF2D60D0002E5ED0D9
:104E9000002D5FD0201CFF2E53D0731EAB4250DC80
:104EA000E20F94468022120491466402640A14437D
:104EB000424649465202520A11438946AB4251D0FA
:104EC0006346002B58D000216442AD1B002D5CDDF1
:104ED0004B460120D9114042FEF752FB1D23834669
:104EE00000219C462A000C2D00DD0C22584663123E
:104EF000944043436046A246801A03414C465046C4
:104F0000914001335B105C435918041BAD1A002D0E
:104F1000E8DCA14537DC4B46E41AA14546DCE41A3F
:104F2000023163004B4519DC16D04346002B00DAF2
:104F30004942002F00D0396096212000891BFFF7DD
:104F4000A7FEF0BCBB46B246A946A046F8BDFF206E
:104F5000C005F6E70020F4E7CB07E6D54B46013164
:104F6000E41AE2E78C42ECDD6346002B13D14B00E0
:104F70002E000121E41AD8E7AD1B002DA8DC8C42DD
:104F800011DA0021CDE7002CCBDA4B46E41808D526
:104F90004C440239C5E74B0001212E001C1B49423D
:104FA000C3E70139BDE74B460021E41A0131B8E7F8
:104FB00010B50022FFF756FF10BDC04607B560468A
:104FC00001880A0A0230DF2AFAD1C9B2820804D362
:104FD000028840880004104300E00068014A5050F5
:104FE000039007BD58040020C30FDB0741000A0EE1
:104FF00007D0FF2A08D00909054A89181943400734
:1050000070471900002070470249C918FAE70000EC
:10501000000000380000F07F01480421014B1847D0
:1050200000020020ED340010014B1B6818470000FF
:1050300000020020014B5B681847000000020020BE
:10504000030010B5080011001B68984710BDC0464A
:10505000F0B546464F46D646C0B5437C80460E0066
:105060001700002B46D0002A3FDD4B1E9946244BEB
:105070000125002400209A460DE04B461B5D0D3BA8
:105080005A425341325DDBB20A2A0BD02B00013465
:1050900001359F421ADD002CEFD14346325D1B7C67
:1050A0000A2AF3D1002BF1D1A04204DA4346211A97
:1050B0001B6830189847434650461B6802219847A2
:1050C000013428002B0001359F42E4DC874204DDD7
:1050D0004346391A1B6830189847F619013E337851
:1050E0000D3B5A42534142461374E0BCBA46B146A6
:1050F000A846F0BD0368110030009847F5E7C046A8
:1051000024590010F0B5C6460C000968060000B529
:10511000802906D04B1C23606418267180BCB846D9
:10512000F0BD0F4B1D68002D16D0231D98460D4F66
:1051300002E0ED68002D0FD02B68002BF9D03B6802
:10514000002B01D0AB42F4D1280041462268FFF782
:105150007FFFED68002DEFD101230021DBE7C04682
:105160000806002018060020F0B557464E46454672
:10517000DE461C00D023E0B51B061F68344B83B00D
:1051800006000D00180001A991469A4600F01CFA8D
:105190008046002808D1019B7FB29F4204D0504630
:1051A00000F01AFA012398466B1C03D1300000F07E
:1051B000C1F90500002C27D1264F274B1C68002C75
:1051C00018D04B46002B21D1244B994602E0E468CD
:1051D000002C0FD02368002BF9D04B461B68002B06
:1051E00001D0A342F3D120002A003100B847E4687F
:1051F000002CEFD14346002B25D103B0F0BCBB46B9
:10520000B246A946A046F0BD154FD6E7134B9946C6
:105210000A239B4602E0E468002CEBD02368002BB5
:10522000F9D04B461B68002B01D0A342F3D12A00D2
:1052300031002000B8475A466B4620001A7101A978
:105240000122B847E7E7504600F0A6F9D5E7C04687
:1052500024020020515000100806002018060020EB
:1052600041500010F0B5CE46474680B583B06B463E
:10527000DE1CD02330701B061C681F4B804601A922
:105280001800994600F0A0F9071E20D01B4B1C689F
:10529000002C28D01A4D02E0E468002C0FD02368BF
:1052A000002BF9D02B68002B01D0A342F4D12000B1
:1052B00001223100FFF7CCFEE468002CEFD1002F73
:1052C00011D1404603B0C0BCB946B046F0BD019B09
:1052D00064B29C420BD0484600F07EF9074B012790
:1052E0001C68002CD6D1484600F056F9E9E7034B7C
:1052F0001C68002CCED1E4E7240200200806002020
:105300001806002070B5040000F014F90023010015
:10531000050001222000FFF727FF084B1C68002C26
:1053200006D06368002B05D09847E468002CF8D1BC
:10533000280070BDE468002CF3D1F9E708060020CE
:105340000A4A1368002B05D10CE01A00DB680C3206
:10535000002B07D09842F8D1002902D1C36813600E
:10536000C16070470029FCD01060FAE708060020F1
:10537000F0B54746CE46D02380B51B061D682E4BA0
:10538000A5B007000C00180003A9984600F01CF90E
:10539000061E07D1039B6DB29D4203D0404600F02C
:1053A0001BF901368422002103A8FFF73DFE2300EC
:1053B0003A00224803A9FEF759F8039B0700002B87
:1053C00014D11F4B1C68002C06D06368002B0BD037
:1053D0009847E468002CF8D1002E27D1380025B07A
:1053E000C0BCB946B046F0BDE468ECE7144B1D689C
:1053F0009946002D1ED0134C02E0ED68002D11D00F
:105400002B68002BF9D02368002B01D0AB42F4D1DC
:10541000039B28001A0004A90193FFF719FEED6809
:10542000002DEDD14B4603951C68CCE7404600F0BB
:10543000B3F8D3E70395CFE724020020055100100D
:1054400008060020180600200FB400B583B004A998
:1054500001C90191FFF78CFF03B008BC04B01847E5
:1054600010B500F043F810BDF0B50D1E15DD0E4B64
:105470000D271A680D4B4519D31859424B410C4959
:105480005B005E5E20210478A64207D09369194232
:10549000FCD101301460A842F5D1F0BD93691942E6
:1054A000FCD11760F2E7C0464C0600200080FCBF2C
:1054B0004806002030B504000D1E12DD002010212A
:1054C000094B013C1A689369194208D1013093696C
:1054D0001942FCD1136823548542F4D130BD002811
:1054E000FCD103204042F9E74C060020E12110B531
:1054F0000B4B0C481B780C4B49021B780B4B18606C
:10550000FCF71AFA02210020FBF7D6F9022101204C
:10551000FBF7D2F901210648FFF712FF10BDC04684
:105520008459001000400340885900104C060020A8
:105530001002002010B583070AD00300032102E007
:1055400001330B4205D01A78002AF9D1181A10BD80
:10555000030019680C4A0D4C8A188A4322420FD165
:105560005968094A04338A188A43224208D1596883
:10557000054A04338A188A432242F1D000E00133FD
:105580001A78002AFBD1E1E7FFFEFEFE80808080D2
:10559000F8B5C0460000000001B40248844601BCD2
:1055A000604700BF4D01002001B40248844601BCA1
:1055B000604700BF7501002001B40248844601BC69
:1055C000604700BF7501002001B40248844601BC59
:1055D000604700BF0901002001B40248844601BCB5
:0855E000604700BFC10000207C
:1055E800444944204E4F542052554E004641494CA0
:1055F8004544000025643A2025642025642025645C
:105608000A00000050415353454400004861726449
:105618007761726520616C61726D20256420616C10
:10562800726561647920636C61696D65640000006E
:105638000A2A2A2A2050414E4943202A2A2A0A00A7
:10564800486172642061737365727400666E6900E4
:10565800666E692B000000006E616E00666E692D33
:1056680000000000302A0010E6290010E62900108A
:10567800282A0010E6290010E6290010E629001063
:10568800E6290010E6290010E6290010E629001096
:10569800202A0010E6290010182A0010E629001018
:1056A800E6290010102A0010E22B0010422A0010F0
:1056B800D62B0010422A0010F22B0010422A0010AC
:1056C800422A0010422A0010422A0010422A0010E2
:1056D800422A0010422A0010382A0010422A0010DC
:1056E800422A0010422A0010422A0010422A0010C2
:1056F800382A0010382C0010A2290010A229001006
:10570800A2290010A2290010A2290010A229001025
:10571800A2290010A2290010A2290010A229001015
:10572800A2290010A2290010A2290010A229001005
:10573800A2290010A2290010A2290010A2290010F5
:10574800A2290010A2290010A2290010A2290010E5
:10575800A2290010A2290010A2290010A2290010D5
:10576800A2290010A2290010A2290010A2290010C5
:10577800A2290010662E0010042C0010662E0010BE
:10578800A2290010A2290010A2290010A2290010A5
:10579800A2290010A2290010A2290010A229001095
:1057A800A2290010A2290010A2290010A229001085
:1057B800A2290010A2290010A2290010A229001075
:1057C800EA2A0010A2290010A2290010A22900101C
:1057D800A2290010A2290010A2290010A229001055
:1057E800A2290010A2290010EA2A00104C2C00104F
:1057F800EA2A0010662E0010042C0010662E0010F5
:10580800A2290010EA2A0010A2290010A2290010DB
:10581800A2290010A2290010A2290010EA2A0010CB
:10582800762D0010A2290010A2290010B82C001013
:10583800A2290010EA2A0010A2290010A2290010AB
:10584800EA2A001000000000000000000000F03FFD
:105858000000000000002440000000000000594043
:105868000000000000408F40000000000088C34096
:1058780000000000006AF8400000000080842E410B
:1058880000000000D01263410000000084D7974157
:105898000000000065CDCD4152656C6561736500FF
:1058A800626F6F74325F77323571303830000000C4
:1058B800312E342E300000007069636F0000000044
:1058C8007069636F5F646976696465725F6E65733A
:1058D80074696E675F746573745F776974685F6411
:1058E800697274795F636865636B00004170722048
:1058F800313220323032330006005250BBFF3CB602
:10590800C058001006005250E182887FA858001045
:1059180006005250D3F07542A05800100D0A00003E
:105928005541525420737464696E000055415254B5
:10593800207374646F7574005541525420737464F5
:10594800696E202F207374646F75740006005250BE
:1059580053B4F4A1405900100800525092000000BE
:10596800B4020010A80200109C0200100059001098
:10597800900200100C5900101859001054590010CA
:045988006059001052
:10598C00D02330B500251B0600245D5706E00368C4
:10599C00BFF35F8F1C6081F3108820BF0268EFF3A8
:1059AC00108172B61368002BFCD0BFF35F8F0379A4
:1059BC007F2BECD905710368BFF35F8F00221A604F
:1059CC0081F3108830BDC04603000068EFF3108CE3
:1059DC0072B60268002AFCD0BFF35F8F04229A567D
:1059EC00002A0BDB00290FD000200A601B68BFF3D4
:1059FC005F8F00221A608CF310887047D022120639
:105A0C00126801201A71F1E70020EFE70268EFF34A
:105A1C00108172B61368002BFCD0BFF35F8FFF238D
:105A2C0003710368BFF35F8F00221A6081F3108843
:105A3C0040BF70477047C0460100000010000000D6
:105A4C000000000000000100000000000000000049
:105A5C000000020000000000000000000000030035
:105A6C0000000000000000000000FF00000000002B
:105A7C0000B5486801318E46004770460938014927
:105A8C00884700BDAD0B0010E001002000000000B5
:105A9C0058020020C8050020000000000000000093
:105AAC00D8050020000000000000000010000000DD
:105ABC00503300004C3300005433000052330000CC
:105ACC004D5300004D43000053340000433400009C
