:020000041000EA
:1000000000B5324B212058609868022188439860DF
:10001000D860186158612E4B002199600221596106
:100020000121F02299502B49196001219960352056
:1000300000F044F80222904214D00621196600F024
:1000400034F8196E01211966002018661A6600F04E
:100050002CF8196E196E196E052000F02FF8012189
:100060000842F9D1002199601B49196000215960AB
:100070001A491B48016001219960EB211966A021F2
:10008000196600F012F800219960164914480160C1
:100090000121996001BC002800D000471248134993
:1000A000086003C880F30888084703B5996A0420EC
:1000B0000142FBD001200142F8D103BD02B5186610
:1000C0001866FFF7F2FF186E186E02BD00000240BE
:1000D000000000180000070000035F00212200005C
:1000E000F4000018222000A00001001008ED00E03C
:1000F00000000000000000000000000074B24E7A12
:1001000000200420F7010010C3010010C5010010F9
:10011000C1010010C1010010C1010010C101001097
:10012000C1010010C1010010C1010010C701001081
:10013000C1010010C1010010C9010010CB01001065
:10014000CD010010CD010010CD010010CD01001037
:10015000CD010010CD010010CD010010CD01001027
:10016000CD010010CD010010CD010010CD01001017
:10017000CD010010CD010010CD010010CD01001007
:10018000CD010010CD010010CD010010CD010010F7
:10019000CD010010CD010010CD010010CD010010E7
:1001A000CD010010CD010010CD010010CD010010D7
:1001B000CD010010CD010010CD010010CD010010C7
:1001C00000BE00BE00BE00BE00BE00BE00F04BF888
:1001D000103800BEF2EB8871D0610010F46100109D
:1001E0003402001090A31AE700202149086006C8D5
:1001F00081F3088810471F48006800282FD10DA4FC
:100200000ECC002902D000F012F8F9E71A491B4A77
:10021000002000E001C19142FCD1194988471949E9
:1002200088471949884700BEFDE701C901C29A42C3
:10023000FBD37047F4610010C0000020700900205B
:10024000A46A00100000042000000420A46A00102A
:1002500000100420001004200000000070470B482C
:1002600004F0C4FB0047EFF30580C0B27047000004
:1002700008ED00E0000000D070090020540D0020BF
:10028000212F0010B91E0010113000105756000029
:1002900006005250ABB3605330610010060052505C
:1002A000861C030240610010060052505422A29D99
:1002B0005461001005005250DE65F468A46A001015
:1002C000F8B5C04610B5064C2378002B07D1054B76
:1002D000002B02D0044800E000BF0123237010BDB2
:1002E000800C002000000000F05D0010044B10B5F1
:1002F000002B03D00349044800E000BF10BDC046F6
:1003000000000000840C0020F05D001010B505F026
:1003100037FD10BD10B505F01BFD10BD10B505F083
:100320004FFD10BD10B505F00BFD10BD10B504F06C
:100330008FFB10BD10B504F0B3FB10BD10B504F079
:10034000D5FB10BD10B504F0EDFB10BD70B5040079
:10035000007800280FD020210D260A4B0A4A0025DC
:100360005D5F0134A84207D093691942FCD1106047
:1003700020780028F5D170BD93691942FCD1166030
:10038000F2E7C046480D002000400340F0B50B0FD7
:100390000D140F16092B00D896E1372294469C4481
:1003A000B74B00229B5E9C4500D1A3E12026B54CB3
:1003B000A2691642FCD1624622600F223A40092A05
:1003C00000DC76E137321400934200D19AE1202715
:1003D000AC4EB2691742FCD134600C02240F092CD8
:1003E00000DC5CE13734A34200D193E12027A54E25
:1003F000B2691742FCD10F2234602A40092A00DC7E
:1004000042E137321400934200D18BE120269D4D0A
:10041000AA691642FCD12C600C040E12240F092C80
:1004200000DC23E13734A34200D183E12027954D3E
:10043000AA691742FCD10F222C603240092A00DC45
:1004400009E137321400934200D17BE120268D4D23
:10045000AA691642FCD12C600C06240F092C00DC82
:10046000EFE03734A34200D174E12026854DAA691C
:100470001642FCD10F222C601140092900DCD6E085
:1004800037318B4200D16DE120257E4CA2691542A7
:10049000FCD1216007160414010F092900D8BCE023
:1004A00037318B4200D165E12026764DAA6916428C
:1004B000FCD10F2229603A40092A00DCA2E0373241
:1004C0001100934200D15DE120266E4DAA691642CB
:1004D000FCD129600102090F092900DC88E03731CD
:1004E0008B4200D156E12026664DAA691642FCD106
:1004F0000F2229602240092A00DC6EE03732110009
:10050000934200D14EE120255E4CA2691542FCD1F8
:10051000216001040612090F092954DD37318B428D
:1005200000D147E12025574CA2691542FCD10F228A
:1005300021603240092A3BDD37321100934200D15D
:1005400040E120254F4CA2691542FCD121600106F3
:10055000090F092922DD37318B4200D13AE12025EC
:10056000484CA2691542FCD10F2221601040092895
:100570000ADD3730834200D134E12021414A9369BA
:100580001942FCD11060F0BD3030834200D131E11E
:1005900020213C4A93691942FCD1F3E730318B4268
:1005A00000D12FE12025374CA2691542FCD1DBE7B1
:1005B00030321100934200D12CE12025314CA26948
:1005C0001542FCD1C2E730318B4200D12AE120250F
:1005D0002C4CA2691542FCD1A9E73032110093429C
:1005E00000D127E12025274CA2691542FCD18FE7D5
:1005F00030318B4200D125E12026224DAA691642D6
:10060000FCD175E730321100934200D122E120265F
:100610001C4DAA691642FCD15BE730318B4200D1F8
:1006200020E12026174DAA691642FCD141E730315E
:100630008B4200D11EE12025124CA2691542FCD14B
:1006400027E73034A34200D11CE120260D4DAA69D2
:100650001642FCD10EE730321400934200D119E16A
:100660002026084DAA691642FCD1F4E63034A34294
:1006700000D117E12027034DAA691742FCD1DAE621
:10068000480D00200040034030321400934200D156
:1006900010E12026934DAA691642FCD1BBE6303406
:1006A000A34200D10EE120278E4EB2691742FCD141
:1006B000A1E630321400934200D10BE12027894E8D
:1006C000B2691742FCD187E6302294469C44864B9F
:1006D00000229B5E9C4505D02026824CA2691642D2
:1006E000FCD168E620267F4CA2691642FCD10D227F
:1006F0002260F1E720267B4CA2691642FCD10D2234
:10070000226053E62027774EB2691742FCD10D22B2
:1007100032605CE62027734EB2691742FCD10D228D
:10072000326063E620266F4DAA691642FCD10D2285
:100730002A606BE620276B4DAA691742FCD10D2277
:100740002A6073E62026674DAA691642FCD10D2265
:100750002A607BE62026634DAA691642FCD10D2251
:100760002A6082E620255F4CA2691542FCD10D2249
:10077000226089E620265B4DAA691642FCD10D2233
:100780002A6091E62026574DAA691642FCD10D2217
:100790002A6099E62026534DAA691642FCD10D2203
:1007A0002A60A0E620254F4CA2691542FCD10D22FB
:1007B0002260A8E620254B4CA2691542FCD10D22EF
:1007C0002260AFE62025474CA2691542FCD10D22DC
:1007D0002260B6E62025434CA2691542FCD10D22C9
:1007E0002260BCE620213F4A93691942FCD10D23C7
:1007F0001360C2E620213B4A93691942FCD10D23C4
:100800001360C5E62025374CA2691542FCD10D22A4
:100810002260C7E62025334CA2691542FCD10D2287
:100820002260CAE620252F4CA2691542FCD10D2278
:100830002260CCE620252B4CA2691542FCD10D226A
:100840002260CFE62026274DAA691642FCD10D2250
:100850002A60D1E62026234DAA691642FCD10D223A
:100860002A60D4E620261F4DAA691642FCD10D222B
:100870002A60D6E620251B4CA2691542FCD10D2228
:100880002260D8E62026174DAA691642FCD10D2217
:100890002A60DAE62026134DAA691642FCD10D2201
:1008A0002A60DDE620270F4DAA691742FCD10D22F0
:1008B0002A60DFE620260B4DAA691642FCD10D22E4
:1008C0002A60E6E62027074EB2691742FCD10D22C6
:1008D0003260E8E62027034EB2691742FCD10D22B0
:1008E0003260EBE600400340480D0020D24B30B5AB
:1008F0000021595E002800DA7CE2D04B984200D8F3
:1009000087E2CF4A82189A4200D860E3CD4A821823
:100910009A4200D85EE3CC4A82189A4200D872E329
:10092000CA4B34259C4660448D4200D1F5E2202418
:10093000C74A93691C42FCD1C64B1560984200D847
:1009400096E3C54BC518C34B9D4200D845E3C34A47
:1009500085189D4200D859E3C14A85189D4200D8A8
:1009600096E3C04A85189D4200D81EE3BE4A85180A
:100970009D4200D8B0E3BD4A85189D4200D8B5E33A
:10098000BB4A85189D4200D8BAE3BA4A85189D42F1
:1009900001D800F011FCB84BC51839231C0099424E
:1009A00000D1FAE22020AA4A93691842FCD1B34B45
:1009B00014609D4200D857E3B14BEC18AF4B9C42FA
:1009C00000D80CE3AF482C189C4200D820E3AE4876
:1009D0002C189C4200D855E3AC482C189C4200D8F7
:1009E00066E3AB482C189C4200D86DE3A9482C184C
:1009F0009C4200D880E3A8482C189C4200D883E38E
:100A0000A6482C189C4200D8D4E3A54BEC183923F7
:100A10001D00994200D1B8E220208D4A9369184206
:100A2000FCD1A04B15609C4200D825E39E4BE018FA
:100A30009C4B984200D8D4E29C482018984200D899
:100A4000DBE29B482018984200D825E399482018FB
:100A5000984200D826E398482018984200D839E3F5
:100A600096482018984200D842E3954820189842AA
:100A700000D84DE393482018984200D894E3924B55
:100A8000E01839231D008B4200D176E22024704A01
:100A900093691C42FCD18D4B1560984200D8DBE273
:100AA0008B4BC418894B9C4200D8A0E2894C041996
:100AB0009C4200D89FE2884C04199C4200D8E9E28D
:100AC000864C04199C4200D8F6E2854C04199C42DD
:100AD00000D8F5E2834C04199C4200D8FEE2824C17
:100AE00004199C4200D811E3804C04199C4200D8A0
:100AF0005CE37F4BC41839231D00994200D134E2D6
:100B00002020534A93691842FCD17A4B15609C42CD
:100B100000D8A5E2784BE018764B984200D864E202
:100B200076482018984200D863E275482018984209
:100B300000D8B3E273482018984200D8B0E2724857
:100B40002018984200D8C3E270482018984200D874
:100B5000CAE26F482018984200D8D3E26D482018A6
:100B6000984200D81AE36C4BE01839231D009942D3
:100B700000D1F2E12024364A93691C42FCD1FA23C9
:100B800015609B00984200D262E2644BC418FA23BD
:100B90009B009C4200D226E2614C04199C4200D288
:100BA0002DE2604C04199C4200D26FE25E4C0419A5
:100BB0009C4200D278E25D4C04199C4200D285E24E
:100BC0005B4C04199C4200D28AE25A4C04199C42A4
:100BD00000D2A1E2584C04199C4200D2E2E2574BE9
:100BE000C41839231D00994200D1AEE12020184AD3
:100BF00093691842FCD11560632C00D824E22000D0
:100C000064383123632800D8A9E02000C83863285D
:100C100000D8F6E16438632800D831E264386328EC
:100C200000D843E26438632800D84BE2444BE01814
:100C3000632800D85EE285E0480D0020FFC99A3B9A
:100C4000003665C4006CCA8800A22F4D00D89411EC
:100C500000400340FFE0F505001F0AFA003E14F4CF
:100C6000005D1EEE007C28E8009B32E200BA3CDC0E
:100C700000D946D600F850D000175BCA7F9698007E
:100C8000806967FF00D3CEFE803C36FE00A69DFD46
:100C9000800F05FD00796CFC80E2D3FB004C3BFB30
:100CA00080B5A2FA3F420F00C0BDF0FF807BE1FF9C
:100CB0004039D2FF00F7C2FFC0B4B3FF8072A4FF77
:100CC000403095FF00EE85FFC0AB76FF9F860100A8
:100CD0006079FEFFC0F2FCFF206CFBFF80E5F9FFAE
:100CE000E05EF8FF40D8F6FFA051F5FF00CBF3FF20
:100CF0006044F2FF0F270000F0D8FFFFE0B1FFFFD4
:100D0000D08AFFFFC063FFFFB03CFFFFA015FFFFCD
:100D100090EEFEFF80C7FEFF70A0FEFF18FCFFFFF5
:100D200030F8FFFF48F4FFFF60F0FFFF78ECFFFFB3
:100D300090E8FFFFA8E4FFFFC0E0FFFFD8DCFFFF63
:100D4000A8FDFFFFB64BE018632800D8E2E1B54BE1
:100D5000E018632800D82BE2B34BE01839231D00BC
:100D6000994200D1E9E02024B04A93691C42FCD1A9
:100D70001560092800D84FE102000A3A3123092AF8
:100D80001ED90200143A092A00D843E10A3A092A76
:100D900000D879E10A3A092A00D88BE10A3A092AEF
:100DA00000D88BE10A3A092A00D89BE10A3A092ABD
:100DB00000D8A3E10A3A092A00D8F1E139230A3A16
:100DC0001D00994200D1B0E02024984883691C425C
:100DD000FCD10560002A00D192E03032D2B210007E
:100DE0008A4200D191E02021904A93691942FCD1B6
:100DF000106030BD2D2900D1D9E020248B4A9369A1
:100E00001C42FCD12D231360894B4042984200D9EB
:100E100077E5202900D1D2E02024844A93691C423E
:100E2000FCD1844B1460984200D98AE5202900D176
:100E3000ACE120247D4A93691C42FCD17E4B050025
:100E40001460984200D9B7E5202900D17EE1202422
:100E5000764A93691C42FCD1784B14600400984296
:100E600000D9E3E5202900D168E120246F4A936985
:100E70001C42FCD1724B1460984200D910E6202924
:100E800000D153E12024694A93691C42FCD16D4B87
:100E900014600400984200D93CE6202900D13DE1CD
:100EA0002024624A93691C42FCD1FA2314609B00FF
:100EB000984200D369E6202900D157E120245B4AFB
:100EC00093691C42FCD114600400632800D996E6A3
:100ED000202900D142E12024544A93691C42FCD1CC
:100EE0001460092800D947E7202900D146E12024D1
:100EF0004E4A93691C42FCD11460021E00D06CE77C
:100F0000302230208A4200D06DE72021474A936981
:100F10001942FCD10D23136065E72024434A9369ED
:100F20001C42FCD10D23136001E520243F48836956
:100F30001C42FCD10D23036046E720243B4A936901
:100F40001C42FCD10D2313600DE72020374A936922
:100F50001842FCD10D23136048E62024334A9369DC
:100F60001C42FCD10D23136004E620202F4A936914
:100F70001842FCD10D231360C2E520242B4A93694B
:100F80001C42FCD10D23136080E52020274A936981
:100F90001842FCD10D2313603EE52020234A9369BB
:100FA0001842FCD10D231360FCE43423F6E4202422
:100FB0001E4A93691C42FCD10D2313601DE72024B7
:100FC0001A4A93691C42FCD10D23136024E71000D8
:100FD0003125A9E410003225A6E43123DEE43123D3
:100FE00016E531234EE53123FCE53123BEE53123FF
:100FF00082E53223BAE532237EE5322342E532230D
:10100000F0E53223ABE6100033258DE43223C5E44E
:101010003223FDE43223D3E6020030253023D0E62C
:1010200044FDFFFFE0FCFFFF7CFCFFFF00400340AE
:10103000FFC99A3BFFE0F5057F9698003F420F00FD
:101040009F8601000F27000020003025302387E60F
:10105000040030253023C6E50400302530234CE55C
:1010600020003025302382E52C0030233025D0E4C9
:1010700005003024302392E420003025302302E59F
:1010800033236CE63323C3E4332399E63323A9E502
:10109000332383E433232FE53323F3E4332365E55C
:1010A000342363E53423EDE434239BE5342356E60F
:1010B0003423ADE4342383E634231DE535237FE672
:1010C000352319E535234AE63523A1E4352389E59F
:1010D00035234BE53523D5E435235FE436230BE593
:1010E00036237FE536236BE636233FE5362355E48A
:1010F0003623C7E4362332E6362389E437235FE616
:1011000037234BE4372331E5372381E43723F3E4F6
:101110003723B7E4372322E6372363E52024284A20
:1011200093691C42FCD10D231360B9E62024244AA4
:1011300093691C42FCD10D231360A3E62024204AAE
:1011400093691C42FCD10D2313608EE620241C4AB7
:1011500093691C42FCD10D23136078E62024184AC1
:1011600093691C42FCD10D231360B4E62024144A79
:1011700093691C42FCD10D2313609FE62024104A82
:1011800093691C42FCD10D231360B0E620240C4A65
:1011900093691C42FCD10D2313604AE63823E5E431
:1011A00038230DE638231DE538236BE43823A3E408
:1011B0003823D4E538232BE43823FFF7EFFBC04670
:1011C00000400340F0B5DE4657464E464546E0B582
:1011D0001E0089B006AB0093330081468846170095
:1011E00003F0A4FE3A00039183460C003300484606
:1011F000414604F0A5FD8246059104920293D34531
:1012000005D1A14203D1069B934200D1BAE0604DC3
:1012100034000022AB5E55219C4620226646A4463F
:101220005C485D4B0130B14200D17BE09C692242B9
:10123000FCD1196001780029F4D148464146664640
:10124000FFF7A4F80022AB5E202B00D192E0202112
:10125000514A93691942FCD1116038003100FFF7FF
:1012600095F80022AB5E202B00D17BE020214A4A7A
:1012700093691942FCD1116058460399FFF786F82B
:101280000022AB5E202B65D02021434A936919428E
:10129000FCD1116006980799FFF778F80D272020F8
:1012A00020210023EE5E3D4C3B4A0134B0423FD04A
:1012B00093691942FCD1106020780028F5D150467E
:1012C0000599FFF763F80022AB5E202B3AD020216E
:1012D000314A93691942FCD1116004980299FFF7D1
:1012E00055F80D260D2020210023ED5E2C4C2A4AB6
:1012F0000134A84221D093691942FCD110602078B2
:101300000028F5D10122002326490C684D681219E6
:101310006B410A604B6009B0F0BCBB46B246A946BF
:10132000A046F0BD9C692242FCD10D241C607DE7E3
:1013300093691942FCD11760BAE793691942FCD14D
:101340001660D8E72021144A93691942FCD10D2375
:101350001360BCE72021104A93691942FCD10D2388
:10136000136091E720210C4A93691942FCD10D23A7
:1013700013607BE72021084A93691942FCD10D23B1
:10138000136064E7079B029A934200D03FE7B9E7F6
:10139000480D0020F45D001000400340F85D00108F
:1013A000F05D0010700A0020F0B5DE4657464E464C
:1013B0004546E0B51E0089B006AB00933300814678
:1013C0008846170003F0ACFD3A00039183460C00F9
:1013D00033004846414604F0F3FC824605910492EE
:1013E0000293D34505D1A14203D1069B934200D17C
:1013F000BAE0604D34000022AB5E53219C462022AF
:101400006646A4465C485D4B0130B14200D17BE0AA
:101410009C692242FCD1196001780029F4D1484628
:1014200041466646FEF7B2FF0022AB5E202B00D19C
:1014300092E02021514A93691942FCD11160380091
:101440003100FEF7A3FF0022AB5E202B00D17BE032
:1014500020214A4A93691942FCD1116058460399E8
:10146000FEF794FF0022AB5E202B65D02021434A7B
:1014700093691942FCD1116006980799FEF786FF1F
:101480000D27202020210023EE5E3D4C3B4A0134F5
:10149000B0423FD093691942FCD1106020780028F7
:1014A000F5D150460599FEF771FF0022AB5E202B67
:1014B0003AD02021314A93691942FCD11160049835
:1014C0000299FEF763FF0D260D2020210023ED5E1B
:1014D0002C4C2A4A0134A84221D093691942FCD1EC
:1014E000106020780028F5D10122002326490C68DD
:1014F0004D6812196B410A604B6009B0F0BCBB46E5
:10150000B246A946A046F0BD9C692242FCD10D24FA
:101510001C607DE793691942FCD11760BAE79369B3
:101520001942FCD11660D8E72021144A9369194268
:10153000FCD10D231360BCE72021104A93691942A6
:10154000FCD10D23136091E720210C4A93691942C5
:10155000FCD10D2313607BE72021084A93691942CF
:10156000FCD10D23136064E7079B029A934200D0DD
:101570003FE7B9E7480D0020FC5D00100040034044
:10158000F85D0010F05D0010700A00200023F0B537
:101590005746DE464E4645469A46E0B591B0002392
:1015A0000024D3460E930F94002302214942CA1708
:1015B00099460E9B0F9C5B1854410C930D9400238D
:1015C0000024032100220A930B940E9B0F9C5B18AE
:1015D0005441C846069307940A9A0B9B0C9C0D9D98
:1015E0001000190002267642F717801979410890F9
:1015F00009910320002112184B4104920593089E83
:10160000099F00236242AB410092019332003B00EC
:1016100020002900FFF7D6FD32003B002000290002
:10162000FFF7C2FE00237242BB4120002900029254
:101630000393FFF7B9FE0098019932003B00FFF7D2
:10164000B3FE029A039B00980199FFF7ADFE0023B9
:101650000122B6185F41049BB342D7D1059BBB4220
:10166000D4D100230122A4185D41069BA342C6D118
:10167000079BAB42C3D12022434652429A1862D400
:10168000012393400A9C0B9D012140460A008240A1
:101690002800184301239C46E044434622430A9213
:1016A0000B90412B98D101239C46E1444B46402BA3
:1016B00000D084E72022534652429B1855D49940CB
:1016C0000E9C0F9D52460123934023430E9301230A
:1016D0009C462A00E24453460A430F92412B00D015
:1016E00062E70123DA469C46E2445046FFF7FEF8E3
:1016F000204B00229B5E202B2FD020221E4B99696D
:101700000A42FCD11A604220FFF7F0F80D24202293
:101710002020184B194900255D5F174B0131AA4263
:1017200016D09E693042FCD11A600A78002AF5D1A1
:101730005346402B00D032E711B0F0BCBB46B24656
:10174000A946A046F0BD2022D21A0123D34099E732
:101750009E693042FCD11C60E3E72022064B996968
:101760000A42FCD10D221A60C7E7202352469B1A79
:10177000D940A5E7480D002000400340005E00105E
:10178000F0B557464E464546DE460023E0B58BB0E1
:1017900009937E4B99460123984601339A467C4B28
:1017A0009B469CE0EB0764081C430D235C408023B0
:1017B0001B069C46302120006D08654404F008FBA0
:1017C0000B000F33113900D59CE052468A4003923A
:1017D00052469A4001204042C1170292029A039B4E
:1017E00012184B4141460C4200D1A9E0E9076408B8
:1017F0000C430D214C40802109068C466D08654440
:101800002B4021001F00434611400E001C4200D116
:1018100083E0EB0764081C430D235C4080231B0618
:101820009C46302120006D08654404F0D1FA0B007D
:101830000F33113900D57DE052468A400592524659
:101840009A4001204042C1170492049A059B121845
:101850004B4141460C425BD0E90764080C430D2123
:101860004C40802109068C466D086544494630C1CC
:1018700014401D4000940195009C019D3000220001
:101880002B003900FFF79EFC22002B0030003900AE
:10189000FFF78AFD2300009401952C000022594295
:1018A000A24100257442BD41130006910792300009
:1018B0000A003900FFF778FD009A019B20002900FB
:1018C000FFF772FD069A079B20002900FFF76CFDC9
:1018D00001235B429C46E3445B46002B35D04B46DC
:1018E00030CB43461C4200D05CE7EB0764081C4346
:1018F0003021200004F06CFA0B006D080F33113911
:1019000000D462E720225146D21AD14003915FE70A
:10191000E90764080C436D08A8E7EB0764081C435B
:101920003021200004F054FA0B006D080F331139F8
:1019300000D481E720225146D21AD14005917EE79A
:10194000E90764080C436D085AE7099B0133180046
:101950000993FEF7CBFF4D200E4B0F4C00255D5F2A
:1019600020210E4A0134A8420AD093691942FCD1C1
:1019700010602078002800D111E70134A842F4D18A
:1019800093691942FCD10D231360EEE7780B002018
:10199000400D0300480D00200C5E00100040034085
:1019A00030B5044C2568904720682D1A2802001293
:1019B00030BD000018E000E070B5049E034C2568BF
:1019C000B04720682D1A2802001270BD18E000E010
:1019D000F0B50522DE464E4657464546CF4BE0B5AC
:1019E0001A601E238DB00793CD4B9B460D2399465D
:1019F0008026079B3606DE40FA239B0006930023D1
:101A00000127059304935B4630CBEB073C4200D1A2
:101A10001EE164081C434B465C4080231B069C4629
:101A20006D086544A246EB073C4200D108E164081A
:101A30001C434B465C4080231B069C466D082000DF
:101A40006544A642EFD8310004F082F95B460100FC
:101A50008046B44A504630C3FFF7A2FF049B41467C
:101A60009C46844463465046AF4A0493FFF798FF70
:101A7000059B9C46844463460593069B013B069365
:101A8000002BC0D1049803F0FBFA0022A74B03F00F
:101A900068FA040005980D0003F0F2FA0022A34B47
:101AA00003F05FFA2200079C009001912B002100B7
:101AB0009F4804F0A1F82300621E079298D21E33BB
:101AC0000793113B99468026079B3606DE40FA2392
:101AD0009B00069300230127059304935B4630CBBC
:101AE000EB073C4200D1BFE064081C434B465C401E
:101AF00080231B069C466D086544A246EB073C42CA
:101B000000D1A9E064081C434B465C4080231B06BF
:101B10009C466D0820006544A642EFD8310004F0D1
:101B200017F95B4601008046824A504630C3FFF7F2
:101B300037FF049B41469C468444634650467E4A98
:101B40000493FFF72DFF059B9C4684446346059351
:101B5000069B013B0693002BC0D1049803F090FA3A
:101B60000022724B03F0FDF9040005980D0003F00C
:101B700087FA00226D4B03F0F4F92200079C0090D5
:101B800001912B0021006D4804F036F82300621EFD
:101B9000079298D201339A4609943E230B93099BEE
:101BA000203B0A933E230B9A9B1A202252429A18FA
:101BB00000D535E151469140884652469A40FA2375
:101BC0009B00069300239146059304935B4630CB1C
:101BD00053461C4200D110E1EB0764081C430D235F
:101BE0005C4080231B069C460A9B6D086544002BC5
:101BF00000DA0AE12A00DA4008922B00099A4E46E0
:101C0000D3404746079313E0EB0764081C430D23BA
:101C10005C4080231B069C466D08654432003B00F7
:101C20002000290004F0CCF80A00030001431FD172
:101C300053461C42E8D1EB0764081C436D08EDE7EE
:101C400064081C4320006D08A64200D9EBE6FAE6C2
:101C500064081C436D08E5E664081C4320006D0819
:101C6000A64200D94AE759E764081C436D0844E7D7
:101C7000B8461F005B46B146160030C3304B089D86
:101C8000079C3A002100009328003300FFF794FEE0
:101C9000049B3A009C46844463460493294B2800E5
:101CA000009321003300FFF787FE059B9C46844488
:101CB00063460593069B013B0693002B86D1604645
:101CC00003F0DEF90022194B03F04BF90290039167
:101CD000049803F0D5F9154B002203F042F90B9C50
:101CE0000090019122000999174803F085FF230015
:101CF000621E0B9200D355E73E3308933E23089AA9
:101D00009F1AFA239B00079300233E000693059336
:101D10002033DB1B203E04934AE0C04610E000E085
:101D2000780B00200D0300102D03001000408F40A1
:101D3000105E00101503001035030010205E001027
:101D40001D0300103D030010305E0010D1075B083A
:101D50000B430D214B40802109068C4652086244FA
:101D6000002E63DB1500F5401400FC4059460B6063
:101D70004D4B4A6040462A00494600932300FFF736
:101D80001BFE059B2A009C46844463460593474BF3
:101D90004046009349462300FFF70EFE069B9C46F3
:101DA000844463460693079B013B0793002B52D064
:101DB0005B465A4651461B6852680B4244D0D107D5
:101DC0005B080B430D21594080231B06994688462A
:101DD0005208914443464A4651460B42B6D1D10778
:101DE0005B08540822000B43002E26DB2500F5403B
:101DF000FC4029002143EFD0B8E7EB0764081C43FF
:101E00000A9B6D08002B00DBF4E620232A000999C9
:101E10005B1A9A4013002200CA401A430892ECE66B
:101E200020225146D21AD1408846C6E61D00110034
:101E30000498FD4081400D4396E71D002100049861
:101E4000FD4081400D43D3E7D1075B080B43984623
:101E500053089946BEE7604603F012F90022144B7E
:101E600003F07FF802900391059803F009F900222E
:101E70000F4B03F076F8089C00900191220009991D
:101E80000C4803F0B9FE621E089200D336E7099BA6
:101E900010330993402B00D07FE60DB0F0BCBB4659
:101EA000B246A946A046F0BD250300104503001028
:101EB00000408F40445E0010F8B506246442E517E8
:101EC00026267642F71700F0E5F8614B6149624833
:101ED00018605960FFF77CFD6048FEF737FA06226C
:101EE000002326200021FFF76DF90622002326207B
:101EF0000021FFF759FA22002B0026200021FFF7CE
:101F000053FA3000390006220023FFF74DFA220071
:101F10002B0030003900FFF747FA20210026012767
:101F2000062200234E48FF31FFF74CF9062200231A
:101F300030003900FFF746F9062200230120404215
:101F4000C117FFF73FF9FFF721FB464B464C474DC2
:101F500018685968FEF71AFA4548FEF7F7F9320093
:101F60003B0020002900FFF72DF90122012320006A
:101F700029005242FFF726F90122032320002900FD
:101F80005242FFF71FF90122072320002900524285
:101F9000FFF718F901220F23200029005242FFF712
:101FA00011F901221F23200029005242FFF70AF9EC
:101FB00001223F23200029005242FFF703F90122AA
:101FC0007F23200029005242FFF7FCF80122FF2363
:101FD000200029005242FFF7F5F8012220002900D5
:101FE000244B5242FFF7EEF8012220002900224B39
:101FF0005242FFF7E7F80122200029001F4B52420E
:10200000FFF7E0F80122200029001D4B5242FFF7A4
:10201000D9F80122200029001A4B5242FFF7D2F8CA
:10202000012220002900184B5242FFF7CBF8012271
:1020300020002900154B5242FFF7C4F8012220006E
:102040002900134B5242FFF7BDF8FFF799FBC0463A
:10205000780B00208635C6A9957BF414585E0010D5
:10206000CB04FB71700A0020EFCDAB89674523F1EB
:10207000605E0010FF010000FF030000FF0700008A
:10208000FF0F0000FF1F0000FF3F0000FF7F000068
:10209000FFFF000010B503F0FDFD10BD094A8300ED
:1020A00094464022634410B51C68C0006240C024BE
:1020B00014408022520113431C60034B9C46604431
:1020C000416010BD04C001400040014070B5EFF315
:1020D000108C72B60D4D2B68002BFCD0BFF35F8FB8
:1020E0000724CB08C618C05C01230C40A3401C0089
:1020F0000440034207D103433370BFF35F8F2C606A
:102100008CF3108870BD100000F084FF2C0100D00B
:10211000024B18688007C00F7047C04600C00640D9
:102120000021044B044ABFF35F8F02C39342FAD1EC
:102130007047C046000100D0800100D0044A1078EA
:10214000431CDBB2172B00D9102313707047C04615
:10215000A808002001238340002904D0034A13600B
:10216000034A13607047034A1360FBE780E200E014
:1021700000E100E080E100E0024B10309B6880004D
:10218000C058704700ED00E070B50D00EFF3108609
:1021900072B60F4A1368002BFCD0BFF35F8F0D4B54
:1021A00010309B6884001B590B4A934203D09D4218
:1021B00001D000F047FF074B9B681D51BFF35F8FB5
:1021C000BFF35F8F0022024B1A6086F3108870BD48
:1021D000240100D000ED00E0CD010010F0B5DE4696
:1021E00057464E464546E0B50C0083B0EFF3108AE3
:1021F00072B65A4A1368002BFCD0BFF35F8F1022CF
:10220000914681444A46564B96009B689D59554BD2
:1022100098469D4205D0A54216D0534FEB1B2F2B5D
:1022200014D94F4B9B689D51BFF35F8FBFF35F8FF6
:1022300000224A4B1A608AF3108803B0F0BCBB46F8
:10224000B246A946A046F0BD1D00EAE7012383403F
:102250009B465A46454B1B681A4000925A46444BCF
:102260001A60BFF35F8FFDF7FEFF0190002803D0D7
:10227000814501D000F0E6FE01232A009A439368CD
:102280009C4208D15FE04B005B189B00FB189968EB
:10229000A14211D01A00062151560029F3DA009B01
:1022A000002B05D05A46334B1A60304B1A60B8E702
:1022B0005A462F4B1A60B4E706215956002921DBF4
:1022C0004A00501880003C188046A0689860E07969
:1022D000D871062020569871002824DBA488F81AAB
:1022E0006405241544440019E0240005400D24022F
:1022F000204398805218204B9200BF181A7819700A
:10230000BA71CCE70199002910D1FF3191711B49B5
:10231000918019490A789A71194ADB1B5B415A432B
:10232000120D0A70BBE7BD200002E2E7154A16490C
:10233000D21A083A5002400D0143998013495208BD
:102340000A43DA80ABE70621515613000029B7DAB9
:10235000019A002AEAD14546DBE7C046240100D0B5
:1023600000ED00E0CD010010AC08002000E100E02D
:1023700080E100E080E200E0510D002000BDFFFFA1
:10238000AAAA0000E608002000F0FFFF00F8FFFF07
:10239000F8B5012504000543FDF765FFEFF3108C48
:1023A00072B6214A1368002BFCD0BFF35F8F1F4E1B
:1023B0002100B7681E4A1F4B891A49414B431B0D28
:1023C00059B28300F858A8421CD00623D3568B423A
:1023D0001CD01223D3568B4222D01E23D3568B42BD
:1023E00020D02A23D35603208B4210D0124B1A78C8
:1023F0001970A271BFF35F8F00220B4B1A608CF330
:102400001088F8BDB2680D48D050EFE700204300B7
:102410001B189B00D218FF239371094B9380E5E7AB
:102420000120F4E70220F2E7240100D000ED00E0F3
:10243000AC080020AAAA0000510D0020CD01001018
:1024400000BDFFFF054B064A1360064A1360536048
:102450009360D36013615361936170478080808083
:1024600000E400E004E400E0024B9C466144890083
:10247000016070474000003483680B4810B5844603
:1024800061446244090112019A18591854684B6852
:1024900001209C4201D802D00020C0B210BD1268B9
:1024A0000B689A42F9D8F7E7FFFFFF0FF8B55746D8
:1024B0004E464546DE46E0B599460CAB1C780DAB62
:1024C0001B78060090469A460768002C11D1BC7B09
:1024D000002C42D065003B682D19033D59194B78FB
:1024E000BB73002B00D1FB7300238B704B700B7000
:1024F00004E065003B682D19033D5919B2682A4B69
:1025000094464246E3181B0163441A604A465A60E7
:102510000A9A9A600B9ADA6000238B704B700B70EA
:102520007B7B9B46002B2BD022005946B8687B68EA
:1025300098473A68002816D05B4658465B005B44D3
:102540005519033BA870D118D35C002B00D06B70D9
:102550005B460C707B73A34513D0F0BCBB46B24600
:10256000A946A046F8BD5B465B005B44033BD3181D
:102570009C705119525D002A00D05A705B460B7056
:102580007C7342464B46307D00F0DEF9051E06D0D6
:102590005346002B03D12100306800F0F7FB0E9B5F
:1025A000002BDAD01D70D8E7FFFFFF0FF0B5DE4635
:1025B0004E46574645460023E0B58DB00A936B4B17
:1025C0008200D3580B90994600239B464B460793B5
:1025D00000F06AF9079C06000F006268EFF31085AF
:1025E00072B61368002BFCD022000794BFF35F8FF4
:1025F0002468637B9946002B67D092685C4B9046B9
:102600004B441B01984443461A685B68100019004C
:10261000801BB94100295FDD0B9800F095F900237C
:102620000026984600279A46079C6368BFF35F8F91
:102630005A461A6085F310885346002B08D10028AB
:10264000C6D10DB0F0BCBB46B246A946A046F0BD0F
:102650000A9B414618024B461843D04708900991FF
:102660006268EFF3108572B61368002BFCD00794F4
:10267000BFF35F8F0899099A002A48DB114303D002
:10268000079B1B69002B5DD1079B1B68D97B002929
:1026900007D04A00521819688C4649466244033AEA
:1026A00051704A46DA734B46079A013BD168CA5CBF
:1026B0000132CA545B46079A13615368BFF35F8FB8
:1026C0005A461A6085F3108882E700230026984650
:1026D00000279A460020A7E7002901D100289BD1B6
:1026E0000021200000F0D4FA43461E685F689B6812
:1026F000079A9A464346DB689846D3684B44013BA9
:102700001B780A931B020343136100208CE72369A3
:10271000002BB9D033003C005B1A94411A0023000F
:10272000A74219D89F421BD0594604910121039119
:102730004946029141460191514607980091FFF7A1
:10274000B5FEB7E700F0B0F8089A099B06000F0045
:1027500092197B419942E5D901225242D317E3E70E
:102760009642E1D901225242D317DDE7200D002025
:10277000FFFFFF0F10B5124C6368002B04D00A2135
:102780001048FFF771FE10BD23000F4A102120688A
:1027900000F09CF9032000F07BF8032000F044F9DE
:1027A00003200A4900F08AF8FFF7C8FC084B9C4652
:1027B000032360442375074B80006060DC60DEE724
:1027C000F4080020340D002079240010AD250010FD
:1027D00040000034200D0020F0B5D6464F46464656
:1027E000C0B5EFF305833F22134018001038EFF314
:1027F000108C72B6204D2A68002AFCD0BFF35F8F80
:102800000122110081401D4C884661631C4917005C
:102810000E788A463100C1400F400A4209D1BFF309
:102820005F8F2F608CF31088E0BCBA46B146A84693
:10283000F0BD14498200646A51588C420FD3124B88
:10284000D25843469E4353461E70BFF35F8F00230A
:102850002B608CF31088002AE6D09047E4E70B4AFF
:102860009B00904643441A681A60BFF35F8F0023B1
:102870002B608CF31088D7E7280100D0004005407A
:10288000520D0020380D00209C0C0020D03F054048
:1028900010B50100024A0348FFF718FC10BDC046FE
:1028A0008C5E0010500D0020034B596A0A00986A94
:1028B000596A8A42FAD170470040054070B5040059
:1028C0000D00EFF3108672B61A4A1368002BFCD085
:1028D000BFF35F8F002D1BD02000FFF74DFC164982
:1028E00081420AD02000FFF74FFC01212000FFF7B2
:1028F00031FC0123A340114A1360114BA400E550A1
:10290000BFF35F8F00220B4B1A6086F3108870BDF7
:102910000B4BA200D5500122A2400A4920000B789F
:1029200093430B700449FFF759FC00212000FFF787
:1029300011FCE5E7280100D0D927001038600540D8
:102940009C0C0020520D0020F0B54F46D64646465E
:10295000C0B507002F4C616A0D00A66A616AA942E2
:10296000FAD18B4208D805D00120E0BCBA46B14666
:10297000A846F0BDB242F7D9EFF3108A72B62648E6
:1029800001680029FCD0BFF35F8F0125BD402349BA
:10299000204C8846097889462943C9B28C4641466D
:1029A00060460870391D1E48890065630A51B900E8
:1029B0000B50216A0020294219D0616A0800A66ADA
:1029C000616A8142FAD18B4219D801D1B24216D83C
:1029D000CC451DD00F4B1F201D625D6301230740B6
:1029E000BB40104A1E38136043464A461A70BFF374
:1029F0005F8F0022084B1A608AF31088B5E7002029
:102A0000BFF35F8F0022044B1A608AF31088ACE793
:102A10000120ECE700400540280100D0520D0020C5
:102A2000380D002080E200E0EFF3108C72B60A4906
:102A30000B68002BFCD0BFF35F8F01238340074A54
:102A40000748136202789A430270BFF35F8F002336
:102A50000B608CF310887047280100D000400540BF
:102A6000520D002070B5050014001600002915D085
:102A70000C00002A12D080686B68984729680028EB
:102A80000ED073009B196200033B1219CB18033A56
:102A90009C7088188A5C002A15D10670200070BDD1
:102AA00063001B197200033B9219CB18033A9E7006
:102AB00088188A5C002A02D104703400EEE75A704C
:102AC00004703400EAE75A700670E7E730B58360B7
:102AD0000023CCB243730133047342608373C47325
:102AE0000D000068012C06D9421C0133DBB21370C3
:102AF00003329C42F9D1FF2129404B005918002391
:102B000040180338437030BDF8B5CE46474606003E
:102B10000C0080B5002907D04D0003686D18033DF7
:102B20005A195778002F04D12000C0BCB946B046CE
:102B3000F8BD7900C9190339884643445978894654
:102B400000215970517073683A00210080689847DD
:102B50003368002814D042469A18947059195B5D66
:102B6000002B00D053700F70270049463000FFF74C
:102B7000CBFF390002003000FFF774FF0400D3E7F9
:102B8000424641465D19AF709A185B5C002B00D03D
:102B90006B701470E9E7C046F0B557464546DE460F
:102BA0004E46E0B50D006B0001685B19DF1E0400A6
:102BB000C85D83B00192CA1900284CD043001B188D
:102BC000033BCB185E78B446002E16D1019E002E32
:102BD0003ED0E67B002E04D073009B19CB18033B3C
:102BE0005D70E57300282FD10023537003B0F0BC53
:102BF000BB46B246A946A046F0BD72006244033A05
:102C000089184A78904600224A7091465A7001000D
:102C100032002000FFF726FF43468246002B07D0F4
:102C20005B0021684344033BCB185A78002A16D135
:102C3000424651462000FFF715FF2168019BCA1943
:102C4000002BC6D10028CFD043001B18033BCB1864
:102C500000219970C8E7019B002BBAD1C4E750004E
:102C600080180338091848788346484648705870D9
:102C700041462000FFF7F6FE594680462000FFF748
:102C800043FF414602002000FFF7ECFE8046CFE7FD
:102C9000F0B557464546DE464E46E0B583B0019155
:102CA000457B04006B0000685B19DF1EC15DC21923
:102CB00000294ED04B005B18033BC3185E78B44626
:102CC000002E18D1019E002E40D0E67B002E04D0AD
:102CD00073009B19C318033B5D70E573002931D164
:102CE000002328005370617303B0F0BCBB46B246AA
:102CF000A946A046F0BD72006244033A80184278AB
:102D000090460022427091465A7020003200FFF730
:102D1000A9FE43468246002B07D05B00216843444E
:102D2000033BCB185A78002A17D14246514620005F
:102D3000FFF798FE019B01002068C219002BC4D147
:102D40000029CDD04B005B18033BC31800209870BE
:102D5000C6E7019B002BB8D1C2E7500080180338AA
:102D60000918487883464846487058704146200004
:102D7000FFF778FE594680462000FFF7C5FE414622
:102D800002002000FFF76EFE8046CEE770B504001B
:102D900000292CD0437B8B422ED005684800401878
:102DA000033828188278002A21D053009B18033B4F
:102DB000EA5CEE188A4202D11BE0002A08D05300D8
:102DC0009B18033BEB185A788A42F6D142785A7026
:102DD00000230122837043702000FFF7DDFE617B3A
:102DE00002002000FFF73EFE6073012000E000209B
:102DF00070BD43783370EBE701221900FFF7CCFE7A
:102E000060730120F4E7C04610B50400FFF796F99F
:102E100001002000FFF728FBFF232371BFF35F8F22
:102E200010BDC04610B50400FFF788F9010020006E
:102E3000FFF71AFBFF23A380BFF35F8F10BDC046CF
:102E4000F8B5040006200D0000F060FA002844D018
:102E50002A4B2B49E21853425A418023DB039C46FC
:102E60009205284B62441A60274B1A6010008B6849
:102E70009843FBD1214B8021E3185A425341234A06
:102E80005B0049009952062000F040FA2900C0007A
:102E900002F05EFFC30921D14027012126008025D1
:102EA0006162A36200232C36AD0135432B600620FE
:102EB00000F02CFA3900800002F04AFF6023E26A39
:102EC00053406E221A4080235B0133431A60104B3B
:102ED000236310232B600D3BA364F8BD0D4A93427E
:102EE00003D900230C4F0D49D8E77F221040013051
:102EF00040089F0119003F180300CFE70080FCBF86
:102F000000C0004000E0004000F00040480D0020FC
:102F100001030000FEFF0000C0FF3F00FFFF0000B4
:102F20002C4B2D4A70B51A602C4A2D4B2D491A6036
:102F300014008B689C43FBD12B4D2C4EB54208D21C
:102F4000013E761BB60808CD984723000134B342F2
:102F5000F9D100F07DF8264A214B1A60214A936886
:102F6000DB43DB01DD09002BF9D14022214B224C50
:102F7000224E9A675A671A67DA66B44208D2236803
:102F80002000002B20D00834FFF74CFFB442F6D3CA
:102F90001B4E1C4CC022A168300002F023FCA6602E
:102FA000FFF7BEF8FFF74EFAFFF7E4FB164C174E9B
:102FB000B44208D2013E361BB60808CC98472B0015
:102FC00001359E42F9D170BD0834FFF71DFFB442B0
:102FD000D5D3DDE700E00040BFCDFBFEFE7F3C0027
:102FE00000F0004000C000405C0900206C09002097
:102FF000FFFFFF0100F00140540900205C090020A0
:103000000000002000ED00E06C09002070090020A5
:1030100000BEFDE70FB400B5084883B002F04AFDDA
:10302000049B002B07D005A91800019101F0B2FC08
:10303000034802F03FFD00BEFDE7C046B05E001051
:10304000C05E001010B50148FFF7E4FFC45E001039
:1030500030B50C2083B000F0B7F9FFF759F800281D
:103060000ED0944B944A1A605A609A60DA601A61E2
:103070005A619A61DA611A62904A5A6203B030BDAD
:103080008F4CA06700F0A8F901228E4B1A60636C88
:10309000012BFCD103228C4B1A60894A936B012BC4
:1030A000FCD101330121894A89480093043300F09F
:1030B00033F90523874A00930121874800F02CF952
:1030C000864B5A68FF2A02D8802252005A6080221A
:1030D000784C7D4B21691201804D1A60002905D082
:1030E000606902F035FE01300138FDD1E0217B4BF3
:1030F00002201A681140802252012A431160196887
:10310000484003210140116004219A681142FCD01B
:103110008022802192012A430901116080225200FD
:103120005A606F4B23616F4B5968FF2900D85A6072
:103130000321644A6B4B116002399A681142FCD03A
:10314000E0201A681040802252011A43106018686B
:103150004840032101400220116062498A68104200
:10316000FCD0802292011343802212011A60802237
:103170005D4B52004A6063615C4B5968FF2900D87F
:103180005A6080225A4BE1691201584D1A60002999
:1031900005D0606902F0DCFD01300138FDD1E0228C
:1031A00052490B681A4080235B012B431A6080232D
:1031B00080229B012B4312011A6080223E4B520059
:1031C0004A60E3614B4B5968FF2900D85A6080225E
:1031D000494B216A1201474D1A60002905D06069E8
:1031E00002F0B6FD01300138FDD1E02241490B6803
:1031F0001A4080235B012B431A60802380229B01AD
:103200002B4312011A60802380225B004B602A4B03
:10321000D2022362394B5968914200D25A6080220F
:10322000374B616A1201354D1A60002905D060697B
:1032300002F08EFD01300138FDD1E0222F490B68EC
:103240001A4080235B012B431A60802380229B015C
:103250002B4312011A608023DB024B60174B636221
:10326000284B5A68FF2A02D8802252005A608022D6
:10327000254BA1691201234D1A60002905D0606910
:1032800002F066FD01300138FDD1E0221D490B68D6
:103290001A4080235B012B431A60802380229B010C
:1032A0002B4312011A6080235B004B600E4BA3611D
:1032B000E4E6C046AC0C0020006CDC021BB700004A
:1032C000008000403CB0004030B00040002F685902
:1032D00000800240008C864700C0024030800040E1
:1032E000001BB7003C8000404059730754800040E9
:1032F00054B000406080004060B000406C800040EE
:103300006CB000404880004048B00040014B800055
:10331000C0587047AC0C0020F0B5C646040000B59C
:103320000C2090461F000E0002F012FD4101091A08
:103330008D01691AC90009188901404602F008FD8B
:10334000069B3F041A0323681743002B22DB1A4B0A
:103350001A4DE21853425A4180235B019C461203E6
:10336000174B62441A60174B1A601100AB689943FF
:10337000FBD1C022231D92011A4321232660A060A5
:1033800013602368002BFCDA0823E760136080BC1D
:10339000B846F0BD3F2322681340B342D7D1A3689B
:1033A0001B051B0D8342D2D1EE22E368D2021340EB
:1033B000BB42CCD1EBE7C0460040FDBF00C000409F
:1033C00000E0004000F000408023024A9B000343DD
:1033D000D362704700800540AA23064A1B01136090
:1033E0002F230549D360054B19605368002BFCDA85
:1033F0007047C0460040024000B0FA000060024042
:103400007047C046F8B557464E464546DE46E0B5DD
:1034100099460A9B07009A460D9B884693461500DD
:103420000B9E9B0710D10C9B9E420DD29D1B14003E
:103430000E005D4422004B46013431002020B84785
:10344000A542F7D1B0460B9E002E27D044467519F1
:103450005346AA1B013E985D21004B46B847002EFB
:10346000F6D123002C0098460D9B9B070FD55B4699
:10347000E51A0C9BAB420AD94646984622004B46B9
:10348000310020200135B8470134A845F6D8200086
:10349000F0BCBB46B246A946A046F8BD2C00E3E707
:1034A000F0B54F464646D646C0B584B098460EABFA
:1034B0001B78129F994694460D9C109B119EBA074B
:1034C00025D4002E4BD19C4200D3BFE001223A40CC
:1034D00092461F2C00D9B8E00C9A551E302201E00C
:1034E000202C03D001342A55A342F9D85246002A91
:1034F0000DD0A6420BD9202C44D00C9A551E302258
:1035000001E0202C3ED001342A55B442F9D1FA060C
:103510004DD57A053FD4002C39D10F9B102B00D10B
:1035200079E00F9B022B00D18AE030230C9A012412
:1035300013704B46002B3FD02D230C9A13550134AA
:103540000C9B624600930397434602960194FFF753
:1035500059FF04B0E0BCBA46B146A846F0BD01220E
:1035600015003D40AA463A422FD04A46002A02D1D1
:103570000C323A4200D0013E9C42BAD21F2CABD949
:10358000202E27D92024FA06DAD57A0503D4A342BF
:103590002DD0A6422BD00F9B102B32D0022B20D047
:1035A000202CCDD030220C9B1B191A700134202CFA
:1035B000C6D04B46002BBFD17B070DD43B07BFD5F0
:1035C00020230C9A13550134BAE79C429FD21F2C3A
:1035D00000D881E720249AE72B230C9A1355013455
:1035E000AEE7202CACD00C9B1B1901343AE0631ED3
:1035F000012C92D00F9A102A2AD0022A2FD01C0018
:10360000D0E7BB060ED4202C9AD00C9B1A1901349B
:1036100078231370C4E7BB060DD478230C9A0124D9
:103620001370BFE7202C00D18AE758220C9B1B198E
:103630001A700134B4E758230C9A01241370B1E7CF
:103640000C9A603301241370ACE7202400265EE757
:10365000023CBA06E9D40C9A12191C00D8E70C9A5D
:103660009246534462221A709AE7C04610B5002869
:1036700000D110BD02F0CEF9FBE7C0460B0010B53B
:10368000002802D049681B68984710BDF0B5DE4697
:1036900057464E464546E0B59BB09B46249B89461F
:1036A0009846259B0B900C924046424619009A463C
:1036B00001F0D3FC002800D0D8E00122404651465A
:1036C000774B524201F0C4FC002800D0CEE001222A
:1036D00040465146734B524201F0A4FC002800D0F2
:1036E000C4E0002200234046514601F09BFC002824
:1036F00000D0B9E1424653460A9209938023289AA2
:10370000DB001A400E92289A1A4201D10623269312
:103710000A9A099B1600134300D0C7E0289B002596
:1037200000261B0500D49BE100230D93269A0D9BD8
:103730009A4200DC9FE1D01A431E26938023289AE8
:10374000DB001A430023002728920D93279B0024B7
:10375000BB4200D9DC1B0223289A1A400E92289AF9
:10376000134203D07B427B415B421C400D9B002BEC
:1037700007D00A9809992A00330001F0F2FB0A9059
:103780000991002200234046514601F04BFC0028DD
:1037900005D0802000068446099961440991289A41
:1037A000414B0B9D13400493269B0A9A0293099B5D
:1037B00003940092019349465B4628000C9A00F05E
:1037C0008BF90400002F62D0289B220098061F234B
:1037D000C0179843631C984649465B466530A84726
:1037E0000D9B0025DA179C18DB0F9A465440013FC9
:1037F00001E0202D13D00AAA94461F232000634421
:103800000A2101355E1902F0E3FA303131702000EF
:103810000A2102F09DFA26000400092EE9D80523AA
:103820000693002304930A330393534605970B9F93
:10383000029312AB009342465B464946380001951D
:10384000FFF72EFE0E9B0400002B20D00C9BC51A08
:10385000279BAB421BD91E0022005B464946202015
:103860000135B8470134AE42F6D810E0289B4246F5
:103870000493279B49460393269B0B980293534638
:10388000009201935B460C9A00F026F90400200098
:103890001BB0F0BCBB46B246A946A046F0BDC04630
:1038A000FFFFEF7FFFFFEFFFFFF7FFFF734B099F66
:1038B0009C467800400D604401F0E2FB704A714B79
:1038C00001F06DFB704A714B01F042FB3B03704A03
:1038D0001B0B1A4304000D00300011006D4B002239
:1038E00001F02DFB6C4A6D4B01F059FB02000B00FF
:1038F0002000290001F02CFB01F0DAFB0D9001F013
:10390000BFFB674A674B04000D0001F048FB002233
:10391000654B01F01DFB01F0CBFB644A0600644BD4
:103920002000290001F03BFB040030000D000F9641
:1039300001F0A6FB5F4A604B01F031FB02000B0077
:103940002000290001F0FBFA02000B0006000F0026
:1039500001F025FB320004000D003B00300039006F
:1039600001F0F6FA002210901191544B200029002A
:1039700001F0F7FA0022524B01F0EAFA02000B00C4
:103980002000290001F0EDFA00224E4B01F0E0FA90
:1039900002000B002000290001F0E3FA0D00802155
:1039A000040032003B000020C90501F0C8FA020003
:1039B0000B002000290001F0CBFA02000B00109848
:1039C000119901F0CEFA0022314B01F0C1FA3E4BC1
:1039D0000F9C9C4664440022230501F0E0FA050098
:1039E0000E0002000B000A98099901F01BFB002849
:1039F0000AD00D9B2800013B31000D930022304B73
:103A000001F0AFFA05000E00C6270D992B006331B7
:103A10008F42BF4128997F420437090500D495E6BB
:103A2000334300D182E6099C284A2100284B0A989A
:103A300001F006FB002808D000222100254B0A983F
:103A400001F0F0FA002800D070E6269B002B00D190
:103A50007CE60E9B5A1E9341269AD31A269375E64E
:103A6000002304270D9371E643460A9380231B0627
:103A70005344099342E6002326935FE601FCFFFFCF
:103A8000FB799F501344D33FB3C8608B288AC63F4D
:103A90000000F03F0000F83F61436F63A787D23F0B
:103AA00071A379094F930A400000E03F1655B5BB5A
:103AB000B16B0240EF39FAFE422EE63F00002C4087
:103AC0000000244000001840FF0300002D431CEBC1
:103AD000E2361A3F80842E41F0B54E46DE46574608
:103AE0004546E0B597B09946209E219F229B83468C
:103AF000984607910C923B0032003000390001F0EB
:103B0000ACFA002800D0A9E1012230003900CA4BEC
:103B1000524201F087FA002800D0E1E00122300093
:103B20003900C64B524201F093FA002800D0B7E0AA
:103B3000002230003900C24B01F08AFA002800D080
:103B400099E0002230003900BE4B01F06BFA0028EA
:103B500000D090E0002200233000390001F062FA2A
:103B6000002800D0B1E000230D93249B5B0501D415
:103B70000623984608AB9C46172200243023414672
:103B8000624404E0013413550139202C01D0092985
:103B9000F8D888463000390001F08AFA4346DA0046
:103BA000A94B05009B181A685B680892099301F0FD
:103BB00067FA02000B003000390001F0C0F9089AE2
:103BC000099B01F0ECF90A900B9101F095FA8246FD
:103BD00001F052FA02000B000A980B9901F0AFF9BC
:103BE00000229A4B0A900B9101F032FA002800D182
:103BF000C0E001239C46E244504601F03DFA020039
:103C00000B000898099901F013FA002802D000234C
:103C10009A4601354346002B6AD008AB17269C46CE
:103C200008956644554614E001235B4243440A214B
:103C300028009A4602F0CCF8013430313719397037
:103C400028000A2102F084F8092D00D8D0E0D046DF
:103C50000500202CE8D10EAB98460323249A13408C
:103C6000012B00D196E02023249A01930392239AFA
:103C7000434602921EE0249B58460493239B0096E1
:103C80000197039343460C9A029307994B46FFF71B
:103C9000FDFC17B0F0BCBB46B246A946A046F0BD3D
:103CA000249B5B070ED40322694B24990192039154
:103CB00023990291009358464B460C9A0799FFF7B7
:103CC000A1FBE6E70422634BEFE73B003200002054
:103CD000002101F034F9012306000F000D9344E7A1
:103CE000249B0393239B0293042301935A4BE1E704
:103CF000280001F0C5F902000B003000390001F086
:103D00001EF9524B002206000F0001F08BF90EAB9A
:103D1000984600280AD10022300039004B4B01F0B0
:103D200097F9002802D1EB0700D50135202C94D05B
:103D300008AA94461723280063440A2101341E1957
:103D400002F036F83031280031700A2102F018F8FC
:103D5000051EEBD10323249A1340012B1BD0202CEA
:103D600000D180E70D9B002B35D02D224146631CEE
:103D70000A5579E700220A980B99344B01F052F961
:103D8000002800D046E75346002B51D101239C4622
:103D9000E2443FE72024239B002BE0D00D9B002B27
:103DA00003D1249A0C33134202D0239B013B23936B
:103DB000239BA342D3D908AB9C46172230236244ED
:103DC000202C00D14FE72399013413558C42C6D0E3
:103DD000202CF8D147E7249B5B0724D4249A2300A6
:103DE000120700D440E72022414601330A553BE741
:103DF0005746089D202C00D12DE722003021404657
:103E0000002F09D00132B154202A00D123E7D34337
:103E10001B191B18002BF5D10EAB98462E234146DB
:103E2000541C8B5482E72B224146631C0A551BE726
:103E3000DB0700D4EEE6A9E7FFFFEFFFFFFFEF7F10
:103E400065CDCD4165CDCDC1C86000100000E03F1B
:103E5000D05E0010D45E0010E05E0010249B03933F
:103E6000239B029303230193004B23E7DC5E0010A6
:103E7000F0B5DE464E4657464546E0B59FB01C00BD
:103E8000289B91460993C94AC94B8B4608901A60F2
:103E9000002900D118E2002320789A46002800D19A
:103EA0001AE226001D005C460AE02A006F1C4B4601
:103EB000089D2100A8473D0001363078002870D0C9
:103EC0002528F2D110239B46083B9A46043B98468E
:103ED000023B00219C46721C107816000300203B18
:103EE000DBB2102B03D8B34F9B00FB589F46030057
:103EF000303B092B32D900230A932A2868D00023AB
:103F000098462E283ED00300683BDBB2122B1CD80B
:103F1000A94A9B00D3589F46012301321943DBE78E
:103F2000634601321943D7E7434601321943D3E7C9
:103F30005B4601321943CFE7534601321943CBE7C1
:103F400080235B007078194301360300253BDBB208
:103F5000532BAAD8994A9B00D3589F4600270300A9
:103F6000B800C01901364000C018337830381A0044
:103F7000303A0700092AF3D90A901800002398461E
:103F80002E28C0D180237078DB0019430300303B1A
:103F9000721C092B00D8A1E12A2800D1B2E1160039
:103FA000B1E7A346AA462C00D14503D801235B42C2
:103FB0004B449A464B46524659460020089DA84716
:103FC00020001FB0F0BCBB46B246A946A046F0BDDB
:103FD000099B40CB0A96002E03DB50780993561CB0
:103FE0008DE72838014370420A9009935078561C97
:103FF00085E7782800D1DFE1582800D14CE26F280E
:1040000000D14FE3622801D100F030FC10230A00F8
:104010009A430B92692801D000F0A9FC0A230C9363
:104020004B0500D5D0E10B9A802311009B0019406D
:104030008B461A4200D0A1E2802311005B00194098
:104040008A461A4200D0B6E313005B0600D5EDE2C3
:10405000130009991B0601D400F076FC08C91BB2B5
:10406000D8171A18424092B209919346DA0F129269
:10407000002B09D1802310220B99DB000B409143C8
:104080000B91002B00D0E4E20B9A6123920600D53D
:1040900041230EA91F228C46DBB262440A3B5F46D5
:1040A0001395A34655460C9CB2460D9316000AE0A4
:1040B0003033DBB201357355A74200D2EDE2202D3B
:1040C00000D1EAE207002100380001F081FECBB206
:1040D0000929EDD90D9A94466344DBB2EAE78023BF
:1040E0009B007078194301362FE77078682800D15B
:1040F000CDE180230136194327E770786C2800D181
:10410000BFE180235B00194301361EE7462800D13A
:104110009BE10722099B0491073393430A9A1900F4
:104120000392424602920CC90898009201930991A9
:104130002A004B462100FFF7CFFC01360500BCE604
:104140002A006F1C4B46089D21002520A8470136F8
:104150003D00B2E68B0700D4ADE1099B2A009A46E8
:104160006B1C9846534601CB21009A46089F4B464C
:10417000C0B2B8470A9B9C466544012B00D886E232
:10418000089B4746B04626004C4699463A00230015
:10419000013731002020C847AF42F7D1A14653462E
:1041A000340046460993013687E6C046713E00104A
:1041B0001C0D0020E85E00102C5F0010785F0010DE
:1041C000099B04CB9B4643460992002B00D1C6E0D5
:1041D00013789C46002B00D1BDE34346013B099A6E
:1041E0000133D0180A9F130001E0834203D05A78AC
:1041F0000133002AF9D1099A0A979B1A0B9380235D
:104200000A00DB001A400C92194204D00B9B434574
:1042100001D943460B9302231A000A400D920B4228
:1042200000D187E16046002800D168E10C9B002B9B
:1042300000D10DE1A844C246099B57465B1B984636
:10424000089BB2462A0026004C46994609E0230006
:104250003100551CC8474346585D002800D126E16F
:104260002A009742F3D1A1463D00340056460D9BEB
:10427000002B00D043E15B46013609931DE6099B04
:104280001A0008CA9246002B48D0212211438B46BF
:104290000EA884461F216144099500220F27A446D9
:1042A0000D0002E0202A0CD00B003C001C40200036
:1042B0003730092C00D807380132A85419090F2BC0
:1042C000F0D86446099D32E0DC4B20780893002347
:1042D0009A46002800D0E4E5002465E6434606003F
:1042E0000A9F9800C0180132400080191678030018
:1042F00030003038303B0928F3D93000984616009A
:104300000A9700E6099B023604CB9046D24340460A
:10431000D2171040804609933078F4E51022080047
:10432000904311321043834600224905B0D55B46C5
:104330000693082305934346049310230393002315
:10434000029316AB019200932A004B462100089875
:10435000FFF7A6F85346050001360993ADE513783B
:104360009C46002B00D1F7E202235B4237E7202373
:1043700002009A43472A04D180231B0119430223D8
:104380009843452801D1202319430722099B049112
:10439000073393430A9A19000392424602920CC9CA
:1043A00008980092019309912A004B462100FFF7DB
:1043B0006DF90136050080E510230C930C230A00EB
:1043C0009A430B924B0503D501230B9A9A430B9208
:1043D000692800D127E6642800D124E60B9A8023BF
:1043E00011009B0019408B461A4200D066E18023E1
:1043F00011005B0019408A461A4200D039E21300CE
:104400005B0600D53CE113001B0600D4A6E2099B25
:1044100004CB1204120C934609935B46002B00D088
:104420009AE10B9A1033110099430B91520500D475
:1044300092E100239A460B9B06930A9B0593434601
:1044400004930C9B039300230CE12023194360E6A3
:10445000099B0A9A5B1B98464B4691461F00B24641
:104460002600089C2A003B003100A0474346013546
:10447000585D0028F6D14A463400B94656460A929D
:10448000F5E6C0239B00B078194302365DE5C023F2
:10449000B0781943023658E50C230A009A431433C6
:1044A0001A43103B0B920C934B058DD496E7A14613
:1044B00034005646DBE60A9A012A00D853E26B1E06
:1044C0009F18089BB04626004C4699462A002300B8
:1044D000013531002020C847BD42F7D1A146340044
:1044E0004646099B3A0001CB210098467D1C4B466D
:1044F000089FC0B2B847434601360993DDE40B9BE1
:104500000A9AA8469A4200D8B5E694466544ED1A40
:10451000089B4746B04626004C4699463A00230081
:10452000013731002020C847AF42F7D1A1463400FF
:104530004646A0E60B9A0A99531C914200D814E211
:104540004B199B1A1F00089BB24626004C46994601
:104550002A002300013531002020C847BD42F7D191
:104560000A9BA14601330B93099B34001B785646E6
:104570009C466046002800D058E67CE60722099B4E
:1045800007339343013294469C4462465F68099224
:104590001A68FB1710931193109811990300534058
:1045A0000E930B007B400F9394460E9A0F9B121AAA
:1045B0008B410E920F93FB0F6246129300233A43F6
:1045C0009B463DD00B9A6123920600D541230022E1
:1045D000DBB20EA90A3B8C4692460D9343461F322E
:1045E00062441395159655460E9E0F9FA24690461F
:1045F0000C9C14930CE03032D2B2434601355A552C
:10460000BB4500D18AE1202D00D18AE106000F00D0
:10461000220000233000390001F092FBD2B2092AB7
:10462000E9D90D9B9C466244D2B2E6E7FF23099983
:1046300004C913401A00099117E5C046013400105F
:104640000B9A1033110099430B915205BAD50023F0
:104650009A460B9B06930A9B0593434604930C9B37
:104660000393129B02935346019316AB2A000093C7
:1046700021004B460898FEF713FF013605001CE4A5
:10468000FF22099B02CB11408B460993C5E6534696
:10469000454609930136FFF710FC56465C46AA468C
:1046A000139DD6E708230C930B910B99642800D037
:1046B00084E60B9B5B0500D586E6B4E40722099BE4
:1046C00007339343013294469C44624609921A6828
:1046D0005B6810009B4613005A46134307D10B9AA0
:1046E0001033110099430B91520500D5A1E60B9AA6
:1046F0006123920600D541230022DBB20EA90A3BBA
:104700008C4692460D9343461F3262445F46129593
:10471000A34655460400B24690460C9E13930DE006
:104720003032D2B2434601355A550023BB4200D144
:1047300000E1202D00D100E104000F003200002331
:104740002000390001F0FCFAD2B2092AE8D90D9B09
:104750009C466244D2B2E5E70B9A6123920600D5EB
:104760004123DBB20EA90A3B1F228C460D93230086
:1047700062445C461295170055469B46B2460C9E15
:1047800008E03033DBB201357B55B4420ED3202D27
:104790000CD004003100200001F01AFBCBB2092933
:1047A000EFD90D9A94466344DBB2ECE756465C467B
:1047B000AA46129D3FE6099B1A0008CAD917139210
:1047C0005A184A409246DA0F1292002B08D18023E1
:1047D00010220B99DB000B4091430B91002B2BD146
:1047E0000B9A6123920600D541230EAA1F279446F7
:1047F000DBB20A3B0D9567445D460993A3465446D8
:10480000B2460C9E08E03033DBB201357B55B44232
:104810000ED3202D0CD004003100200001F0D8FA76
:10482000CBB20929EFD9099A94466344DBB2ECE78D
:1048300056465C46AB460D9D0B9B2A0006930A9B91
:1048400021000593434604930C9B08980393129B05
:10485000013602935B46019316AB00934B46FEF77D
:104860001FFE139B05000993FFF727FB02230C9300
:104870001AE7099B04CB92461293002A08D18023A1
:1048800010220B99DB000B4091430B91002B2BD195
:104890000B9A6123920600D541230EAA1F27944646
:1048A000DBB20A3B0D9567445D460993A346544627
:1048B000B2460C9E08E03033DBB201357B55B44282
:1048C0000ED3202D0CD004003100200001F080FA1E
:1048D000CBB20929EFD9099A94466344DBB2ECE7DD
:1048E00056465C46AB460D9D0B9B2A0006930A9BE1
:1048F00021000593434604930C9B089803930023DF
:1049000002935B46019316AB00934B46FEF7C8FD3E
:10491000129B050009930136FFF7CFFAB44200D885
:1049200071E6149B54460E960F97AA469846159E1C
:10493000139D8EE6A64200D8FBE6139B564698468A
:10494000AA465C46129D76E508C9D8171A18424057
:104950000991FFF78AFB00230B9350E4099B04CBDA
:104960009346099359E52F00BBE50B9301E6063BFF
:104970000C939AE600B585B0039101210290009353
:10498000034813004A4202A9FFF772FA05B000BDBE
:104990007D36001010B5094A0300146884B0002C5D
:1049A00008D0012200910648524203A9A0470120E5
:1049B00004B010BD01F07EF80020F9E71C0D0020C6
:1049C0006D36001001480421014B184720090020D2
:1049D0000D4A0010044B5B68002903D100B59847CD
:1049E000203000BD0846184720090020142310B5C8
:1049F0000100188804331B88984710BD162310B592
:104A00000100188802331B88984710BDF8B5474647
:104A1000CE4680B50F1E19D01423994604330400E6
:104A20000025012698464B461888434621681B8876
:104A3000984701C4431E9841013540420640AF42A9
:104A4000F1D13000C0BCB946B046F8BD0126F8E748
:104A5000124A936F9B0815D29066D166002905D043
:104A6000FFE7FFE7FFE7516F106F704704B5802144
:104A70000906C2175140002800D0C84301F088F948
:104A8000002104BDF0B5146E556E576F166FFFF719
:104A9000E3FF1466556657671667F0BD000000D047
:104AA000114A936F9B0813D210665166002905D0F6
:104AB000FFE7FFE7FFE7516F106F704704B500286D
:104AC00001D00020C04301F063F9002104BDC046BD
:104AD000F0B5146E556E576F166FFFF7E5FF14664D
:104AE000556657671667F0BD000000D094464E4AE1
:104AF000926F9208624601D230E0C046F0B54A4E4D
:104B0000B56F6D08FCD3346E756E776F366F00F03D
:104B100025F89446444A14665566576716676246F8
:104B2000F0BDC0469446404A926F9208624601D258
:104B300058E0C046F0B53C4EB56F6D08FCD3346EFE
:104B4000756E776F366F00F04DF89446364A1466EE
:104B50005566576716676246F0BDC046002B24DBDA
:104B600011D000293EDA00B5C943404200D10131DD
:104B700000F038F8C943404200D10131DB435242D2
:104B800000D1013300BD002AEBD1002801D100295A
:104B900005D00020C90FC90701D1C043410800B5A5
:104BA00001F0E6F80022002300BD00B500290ADB71
:104BB000DB43524200D1013300F014F8C9434042B4
:104BC00000D1013100BDC943404200D10131DB4376
:104BD000524200D1013300F005F8DB43524200D1CC
:104BE000013300BD002923D1002B18D1002A0CD09D
:104BF000BC460D4F38667A6600210023FFE7FFE7C9
:104C0000FFE77A6F386F67467047002801D0074882
:104C1000010000B501F0ACF80022002300BD020045
:104C20000B00002000217047000000D0FFFFFFFFB5
:104C3000002B00D0BFE0130C28D1002AE7D080B4AD
:104C4000114F39667A66FFE7FFE730B4040C7B6FDB
:104C5000396F1B0423433B667A66FFE7FFE7FFE7F4
:104C6000C04684B27B6F3D6F1B0423433B667A666C
:104C7000FFE7FFE7C04600232C042D0C7A6F386F46
:104C800000196941B0BC7047000000D0F0B59446EF
:104C90000025140E01D112020835140F01D11201A2
:104CA0000435940F01D192000235D40F01D1520086
:104CB0000135D40B0134254F7C66254C3C660E0C27
:104CC00093B2FFE7FFE7FFE73C6F6643360C7703DD
:104CD000BE467343DF0B5B04C01AB941130C734328
:104CE000DB18C91ACE086643360CB64493B2734338
:104CF0001F0F1B01C01AB941130C73431F0B1B0577
:104D0000C01AB941860D8F023E436643360C092D09
:104D100024DB520A7243801A7703460A6643360C34
:104D200016235B1BDE40DF40BF1964466643821BCF
:104D30007046043506330100D940A840C01900D39D
:104D40000131A24206D20023F0BD0000000000D0D5
:104D5000FFFFFFFF121B0130F3D3F1E709277F1B91
:104D6000FE406446A2B27243801A00D20139220C7E
:104D70007243130C1204821A99410B0070460435D9
:104D800013370100F940A840801900D30131002BEE
:104D900002D1A2420AD2F0BD013000D30131121B70
:104DA000FAD2013BF8D1A24200D2F0BD013000D3CB
:104DB0000131121BF7E7F0B51C0C00D080E00CB4F9
:104DC00000251C0A04D11B02160E334312020835BB
:104DD0001C0B04D11B01160F3343120104359C0B2D
:104DE00004D19B00960F334392000235DC0B02D1B5
:104DF00092185B4101351C00971864410134464FFD
:104E00007C66464C3C660E0CFFE7FFE7FFE7C046BA
:104E10003C6F6643360C7703BE4697B27743C01BA0
:104E200000D20139C01B00D201399FB27743C91BA0
:104E3000C91B170C77437E04FF0B801BB941CE08BA
:104E40006643360C0C2D33DBB644120B1F053A4378
:104E50001B0B97B27743C01B00D201399FB2774337
:104E6000C91B170C77433E043F0C801BB941860DCC
:104E70008F023E43664329277F1BFE400C3D774649
:104E8000AF40BF1930BCA2B2ABB272437343801AB9
:104E90009941220C7243130C1204801A99410200AA
:104EA0000B000137001BA941F9D2781E0021F0BD8B
:104EB0000C277F1BFE4077467F0BAF40FF19E0E7D2
:104EC00000245D1C07D0144F7D663966FFE7FFE7BD
:104ED000FFE7FFE73C6F95B29EB265436643401B18
:104EE000B141150C1E0C6543664336042F0C3E433E
:104EF0002D04401BB141994204D202000B00200056
:104F00000021F0BD01D19042F7D3801A99410134BC
:104F10009942F2D3F6E70000000000D0FFFFFFFF48
:104F200010B5FFF7E3FD029C0CC410BD10B5FFF7F0
:104F3000F9FD029C0CC410BD48404140484018B4E3
:104F40001B4B5B68FC46019308BD04DFD751001082
:104F500018B4174B1B68FC46019308BD00DFE151F4
:104F600000109446134A926F920809D2624618B410
:104F70000F4BDB68FC46019308BD0CDF9954001011
:104F80000C4AF0B5146E556E576F166F6246FFF7F8
:104F9000EEFF084A1466556657671667F0BD18B4E9
:104FA000034B9B68FC46019308BD08DF3D5300108E
:104FB000780A0020000000D0FFB550404240504029
:104FC00059404B40594000E0FFB5154F4C00640D6F
:104FD00003D0BC4204D10C0314D80020090D0905EC
:104FE0005C00640D03D0BC4204D11C030AD800222B
:104FF0001B0D1B0501264B4009D44B4003D58B42AA
:1050000000D18242FFBD9942FCD19042FFBD0B43CB
:10501000DB1803431343F5D0C9434918FFBD000013
:10502000FF07000000B5FFF7CFFF804100BDC0467D
:1050300000B5FFF7C9FF01D9002000BD012000BD68
:1050400000B5FFF7B9FF01D9002000BD012000BD68
:1050500000B5FFF7B1FF804100BD012040054A00C7
:10506000121804D85A00121801D8002070470120E5
:1050700070470020704700000021002805D17047CC
:10508000C1174840401AFAD0C90713B5064B1B6830
:1050900098470CBC441CA2401005120B0349091B85
:1050A00009051943114310BD300D00201F040000F5
:1050B00010B54C00620D8023D218DB00D21A5B05BC
:1050C0007E2A10DD9E3A13DACC17090349081943EA
:1050D0005242D140640001341532202A05DAD04012
:1050E0000843604310BD002010BD0846604310BD5A
:1050F000C80FC018013810BD18B4044B5B6AFC46D9
:10510000019308BD24DF495600100000780A0020F2
:10511000132370B51D78012D15D010DD1C48FFF745
:105120006DFC1C4C01008022200000F05BFB022D76
:1051300006D01948FFF75AFC184B186070BD154C83
:10514000174BA364F5E7164B124C23606360A36012
:10515000E36023616361A361E36123626362A3622D
:10516000E36223636363A363E36323646364A3640D
:10517000E36423656365A365E36523666366A366ED
:10518000E36623676367A367E367A364D1E7C04669
:1051900053440000780A00204C330000300D0020FA
:1051A000A551001007B5604601880A0A0230DF2ABF
:1051B000FAD1C9B2820804D302884088000410439F
:1051C00000E00068014A5050039007BD780A0020B3
:1051D0000FB403BC0CBCF0B50124E407634000E04D
:1051E000F0B50C0DCF0F661E3605891B640503D381
:1051F000C943404200D30131640D03D0661CF60A56
:1052000007D0E41B00207F00791C89078912803CAD
:1052100024031D0DDF0F6E1E36059B1B6D0503D38A
:10522000DB43524200D301336D0D03D06E1CF60AEE
:1052300007D0ED1B00227F007B1C9B079B12803D4B
:105240002D032F1B661B58D4A446202E46DA203788
:105250001400BC401D00BD40F24033412A43801879
:105260005941CB0F05D0C943C0430022644250418D
:10527000514162464D0D28D10D0D07D100281FD098
:10528000241940414941013A0D0DF9D0640006D37B
:10529000013000D30131002C01D140084000013A17
:1052A0000BD4941CE40A04D112051144DB07194401
:1052B000F0BDD907204B194300E0D9070020F0BD0D
:1052C0000029DDD1002CDBD1F0BD0132C60740083A
:1052D000CD0728434908002EE1D0D9E73C2E29DA32
:1052E000203E40371400BC4000D00124F24014435B
:1052F0001A00BB401C43D317ACE7AC46202F08DA9A
:1053000020360400B4400D00B540F8403941284330
:10531000A5E73C2F0CDA203F40360400B44000D013
:105320000124F84004430800B1400C43C117EAE7E8
:1053300010001900002494E70000F07FF0B50C0D78
:10534000661E3605891BE60A6405640D02D0651CDD
:10535000ED0A04D0002001210905803C2403A44665
:105360001C0D671E3F05DB1BE70A6405640D02D0B8
:10537000651CED0A04D0002201231B05803C240398
:105380007740644497B484B296B27443070C7E436A
:10539000150C6F4380B26843361802D30120000415
:1053A0003F183004350C00197D41844688B29AB20A
:1053B00050430C0C62431F0C7C438EB27E43921907
:1053C00002D301263604A4191604170C36186741B7
:1053D00001BC81B29AB25143040C62431B0C5C4382
:1053E00080B25843121802D301200004241810047C
:1053F000130C401863412D185E410020474106BC44
:1054000088B293B258430C0C6343120C544389B2D4
:1054100051435B1802D301210904641819041A0CC2
:10542000091862416D1856410020474118BCF90225
:10543000720D1143F0026A0D1043ED020A0D03D103
:105440006D1940414941013B124E9B1B7600B3420E
:105450000ED26D0007D301300026714166463543F8
:1054600001D1400840001B05C918E4072144F0BDE4
:105470000BDA013306D1013004D101314F0D01D0D7
:105480004908F2E7E1070020F0BD013631050020B0
:10549000EBE70000FF030000F0B51C0D671E3F05A1
:1054A000DB1BE70A6405640D02D0661CF60A04D013
:1054B000002201231B05803C2403D0252D06002655
:1054C000F6432E661E096E66CE0FF619B4464900E5
:1054D0004F0D02D07E1CF60A03D000200021403F71
:1054E0003F033E1BB600B444013F7F05C91B49087A
:1054F0002E6F013676089C02950D25437543ED13FA
:105500007543AD1301356D10F603761B0CB4CC0258
:10551000450D2C43A2B2B3B25A43270C7B43350C42
:105520006F43A4B26C431B1902D3012424043F1916
:105530001C041D0CA4187D4124196D41009A91B2E0
:10554000ACB26143170C7C432B0C5F4392B25A43BD
:10555000A41802D301221204BF182204230C5218EB
:105560007B41019C6C431B19520ED9010A43440133
:10557000A01A81B2B2B2514303145A43360C73439A
:1055800087B27743D617D21900277E4136049B197C
:105590001704160C7F185E417316ED18F3010026F0
:1055A00080337541A90F06D16400690AE8055B0ADA
:1055B000184309D22FE00422944480337541A90A8C
:1055C000A8059B0A184326D3404149412404009A68
:1055D000019B0D005543641B4343E41A95B286B208
:1055E0007543170C7E43030C5F4392B25A43B618BF
:1055F00002D301221204BF183204330C52197B412A
:1056000052429C41002C02D40022013051414008FA
:10561000CA071043490802B06246D7079210084BE8
:10562000D218084B9A4203D212058918C919F0BD45
:105630000020002A01DC3900F0BD01331905F5E72F
:10564000FD030000FE070000002200B5203200F03C
:1056500004F8080000BD000000220B150AD410B5A4
:10566000944600F031F81414013400DA0021CB170D
:10567000144C20470020002170476244343A0CD477
:105680000C2A07DA04009140904052422032D44064
:10569000214310BDD843D94310BD203207D40C4656
:1056A0009440524220321141D040204310BD0800A6
:1056B000C917203203D452422032104110BD1800C5
:1056C000190010BD7B5600100A0DCC0F531E1B0590
:1056D000C91A520503D3C943404200D30131520DC8
:1056E00003D0531CDB0A07D0121B00206400611C8E
:1056F00089078912803A1203014BD21A70470000C1
:10570000FF03000051434343C9188C46110C83B278
:105710004B4310B4040C614392B280B250436243D5
:105720001C041B0C001910BC59411304120CC018A6
:105730005141614470470000132310B512481C7892
:10574000FFF75CF90100012C0AD003DD80220F482D
:1057500000F048F80E48FFF749F90E4B186010BDED
:105760000A4C5422200000F03DF80B4B6365A36502
:10577000E36523666366A366E36623676367A367DF
:10578000E3672362E361E5E753460000800B0020F6
:105790004C330000300D00209D57001007B56046C7
:1057A00001880A0A0230DF2AFAD1C9B2820804D37A
:1057B000028840880004104300E00068014A50500D
:1057C000039007BD800B002001480421014B1847BE
:1057D000300900200D4A0010014B1B6818470000DB
:1057E00030090020014B5B68184700003009002099
:1057F000030010B5080011001B68984710BDC04693
:10580000F0B546464F46D646C0B5437C80460E00AE
:105810001700002B46D0002A3FDD4B1E9946244B33
:105820000125002400209A460DE04B461B5D0D3BF0
:105830005A425341325DDBB20A2A0BD02B000134AD
:1058400001359F421ADD002CEFD14346325D1B7CAF
:105850000A2AF3D1002BF1D1A04204DA4346211ADF
:105860001B6830189847434650461B6802219847EA
:10587000013428002B0001359F42E4DC874204DD1F
:105880004346391A1B6830189847F619013E337899
:105890000D3B5A42534142461374E0BCBA46B146EE
:1058A000A846F0BD0368110030009847F5E7C046F0
:1058B00084610010F0B5C6460C000968060000B50A
:1058C000802906D04B1C23606418267180BCB84622
:1058D000F0BD0F4B1D68002D16D0231D98460D4FAF
:1058E00002E0ED68002D0FD02B68002BF9D03B684B
:1058F000002B01D0AB42F4D1280041462268FFF7CB
:105900007FFFED68002DEFD101230021DBE7C046CA
:10591000140D0020180D0020F0B557464E464546A0
:10592000DE461C00D023E0B51B061F68344B83B055
:1059300006000D00180001A991469A4600F030FAC1
:105940008046002808D1019B7FB29F4204D0504678
:1059500000F046FA012398466B1C03D1300000F09A
:10596000BDF90500002C27D1264F274B1C68002CC1
:1059700018D04B46002B21D1244B994602E0E46815
:10598000002C0FD02368002BF9D04B461B68002B4E
:1059900001D0A342F3D120002A003100B847E468C7
:1059A000002CEFD14346002B25D103B0F0BCBB4601
:1059B000B246A946A046F0BD154FD6E7134B99460F
:1059C0000A239B4602E0E468002CEBD02368002BFE
:1059D000F9D04B461B68002B01D0A342F3D12A001B
:1059E00031002000B8475A466B4620001A7101A9C1
:1059F0000122B847E7E7504600F0B2F9D5E7C046C4
:105A00005409002001580010140D0020180D00202A
:105A1000F1570010F0B5CE46474680B583B06B46CF
:105A2000DE1CD02330701B061C681F4B804601A96A
:105A30001800994600F0B4F9071E20D01B4B1C68D3
:105A4000002C28D01A4D02E0E468002C0FD0236807
:105A5000002BF9D02B68002B01D0A342F4D12000F9
:105A600001223100FFF7CCFEE468002CEFD1002FBB
:105A700011D1404603B0C0BCB946B046F0BD019B51
:105A800064B29C420BD0484600F0AAF9074B0127AC
:105A90001C68002CD6D1484600F062F9E9E7034BB8
:105AA0001C68002CCED1E4E754090020140D00201E
:105AB000180D002070B5040000F010F9002301005B
:105AC000050001222000FFF727FF084B1C68002C6F
:105AD00006D06368002B05D09847E468002CF8D105
