:020000041000EA
:1000000000B5324B212058609868022188439860DF
:10001000D860186158612E4B002199600221596106
:100020000121F02299502B49196001219960352056
:1000300000F044F80222904214D00621196600F024
:1000400034F8196E01211966002018661A6600F04E
:100050002CF8196E196E196E052000F02FF8012189
:100060000842F9D1002199601B49196000215960AB
:100070001A491B48016001219960EB211966A021F2
:10008000196600F012F800219960164914480160C1
:100090000121996001BC002800D000471248134993
:1000A000086003C880F30888084703B5996A0420EC
:1000B0000142FBD001200142F8D103BD02B5186610
:1000C0001866FFF7F2FF186E186E02BD00000240BE
:1000D000000000180000070000035F00212200005C
:1000E000F4000018222000A00001001008ED00E03C
:1000F00000000000000000000000000074B24E7A12
:1001000000200420F7010010C3010010C5010010F9
:10011000C1010010C1010010C1010010C101001097
:10012000C1010010C1010010C1010010C701001081
:10013000C1010010C1010010C9010010CB01001065
:10014000CD010010CD010010CD010010CD01001037
:10015000CD010010CD010010CD010010CD01001027
:10016000CD010010CD010010CD010010CD01001017
:10017000CD010010CD010010CD010010CD01001007
:10018000CD010010CD010010CD010010CD010010F7
:10019000CD010010CD010010CD010010CD010010E7
:1001A000CD010010CD010010CD010010CD010010D7
:1001B000CD010010CD010010CD010010CD010010C7
:1001C00000BE00BE00BE00BE00BE00BE00F04BF888
:1001D000103800BEF2EB8871746900109869001045
:1001E0003402001090A31AE700202149086006C8D5
:1001F00081F3088810471F48006800282FD10DA4FC
:100200000ECC002902D000F012F8F9E71A491B4A77
:10021000002000E001C19142FCD1194988471949E9
:1002200088471949884700BEFDE701C901C29A42C3
:10023000FBD3704798690010C00000208C0A002092
:100240006473001000000420000004206473001098
:1002500000100420001004200000000070470B482C
:1002600003F01EFE0047EFF30580C0B270470000A8
:1002700008ED00E0000000D0900A002090740020FB
:10028000B923001085040010DD240010575600002B
:1002900006005250ABB36053F06800100600525095
:1002A000861C030224660010060052505422A29DB0
:1002B0000069001005005250DE65F4686473001098
:1002C000F8B5C04610B5064C2378002B07D1054B76
:1002D000002B02D0044800E000BF0123237010BDB2
:1002E000006F002000000000B8610010044B10B542
:1002F000002B03D00349044800E000BF10BDC046F6
:1003000000000000046F0020B86100100B00C168FD
:1003100080689A68DB68801A9941002903DB0843EA
:10032000431E9841704701204042FBE7034A3220B8
:100330004042C1171368013313607047887300206F
:1003400010B50C0001F088FCE369206161610133A4
:1003500000200021E36110BD0D4B10B54469C01AA7
:10036000C01083001B181A019B181A029B181A044C
:100370009B185B001B189C4206D1064AA400A35898
:1003800001200133A35010BD02F0C2F8F5E7C046CA
:10039000301A0020A47300200023F0B5304E87B03F
:1003A000336001F059FC0591049001F0C7F8070093
:1003B00001F052FC322204000D00002312196B419F
:1003C000994242D83FD00121029100210191254953
:1003D0003800009101F0ECF80700234C6420002164
:1003E00001F09EFB6420002101F09AFB013C0920F2
:1003F000002101F095FB002CF0D101F02DFC040050
:100400000D0001F09BF8390001F09CF92000290053
:10041000164B32221F68049B059CC01AA141002381
:1004200003F0BEFD3A000100114804F057FE114BE5
:1004300034681968104A002C0BD1104804F04EFEA5
:10044000200007B0F0BD9042BDD901225242D3171F
:10045000B9E701240A4804F041FE6442F0E7C046CF
:10046000907300202D030010881300008873002073
:10047000B86100107C010020E46100105C62001093
:1004800034620010F0B5DE46454657464E46E0B5AC
:10049000A3B000F0FDFB01F01FF8B14BB1481B68A1
:1004A00000241900089304F019FE0EAD01F046F87F
:1004B00001F082F9A04263D0FA21200001F042F855
:1004C0002860002861D001340435042CEED1A64BFD
:1004D000984600234246136001F0BEFB00239A4673
:1004E000A24E7F3337009B465646089009911DE087
:1004F0003B693C687D68182108AABB6352189B00C1
:10050000D0580123BC62FD6202933B00203301936B
:10051000974B220000932B0001F04AF800283BDBA8
:10052000FA23013628375B009E4245D05B463340B4
:10053000012BDDD005F086FC8E4903F0E3FCFA22A6
:10054000920094460B006344069300230793069C95
:10055000079D089A099BA4185D41AB420CD808D0AE
:1005600005F070FC0323C217920F801803409B1AFA
:10057000C1E7089BA342F3D901246442E517EFE7E2
:1005800000F0DCFF286000289DD17B4A7B4B196876
:100590007B4804F0A3FD05E0784B7A4A1968784857
:1005A00004F09CFD01246442200023B0F0BCBB4653
:1005B000B246A946A046F0BD01F04EFB089B099C3F
:1005C000C01AA141002900DDA3E16C4B994600D17E
:1005D0009BE12022002112A804F070FB6A4804F07D
:1005E000DBFC0021694801F09BFA694804F0D4FC67
:1005F000FA212822674B6848490005F01DF9664C2E
:10060000664A23009446664A63449B46924600230A
:100610004A46644D994608930D9406920FE02B6963
:1006200012AADB00D218166054601AAA94462868F1
:10063000696863441860596028355D456AD02B6845
:100640006C686A692969029303945046AB68EC6848
:100650000093019404F042FD6B69002B00D1F6E099
:10066000012B0AD9069B504A1968454804F036FD0B
:10067000012342465B4213606B69AE68EC68012B54
:10068000CDD128686968A14200D9F9E000D1F4E031
:1006900012AA94462B69DB009C4462465268A2422F
:1006A00000D2E0E004D162461268B24200D2DAE041
:1006B0001AAAD2181768874203D152688A4200D119
:1006C000D1E0069B394A19682D4804F007FD2868D7
:1006D0006968012342465B4213602B6912AADB0062
:1006E000D218166054601AAA944663441860596080
:1006F0006B69012BA0D1AA68EB68121A8B414B459C
:1007000003D899D108998A4296D9283599460892F2
:100710005D4594D1069B0899254899460D9C04F0A7
:10072000DDFC43461E684B46224A1968002E00D065
:1007300003E2214804F0D2FC434631001F4A164828
:100740001E6004F0BBFA01F087FA0123124DB24695
:100750001F002E00CB4606900791089463E0C04628
:10076000780100207C62001090730020C0200020DF
:100770004103001080841E00986200107C0100205C
:10078000B4620010C4620010F46200101055220020
:10079000006300100D030010E0200020284E000030
:1007A0000C630010E8200020386300107063001014
:1007B0008C630010A06300105C620010204E0000EB
:1007C000AB4200D199E001F047FA001BA941CB43AD
:1007D000DB0F9A4405F036FB03231821C217920F52
:1007E000801803409B1A08AAB36152189B00D05886
:1007F0000123B460F56099460293D74B2200009321
:1008000001962B0000F0D4FE306000287ADB48D13E
:10081000FA20C00001F02AFAF6230137FF33283608
:100820009F4200D182E005F00DFBCC4903F06AFB4A
:10083000CB170B930A910A9C0B9D069A079BA41851
:100840005D41AB42BCD901246442E517BBE7069B7E
:10085000C34A1968C34804F041FC012342465B4285
:1008600013606B69FCE612AAD218166054601AAACB
:1008700094466344186059603DE7B04200D807E7EA
:10088000069BB94A1968B74804F028FC0123424680
:100890005B4213606B69012B00D0C0E62868696871
:1008A000F6E605F0CFFA06231842B1D105F0CAFAF0
:1008B000390003F04FFB28235943AC4B5B58002B06
:1008C000A6D0AA4A944661440C0020342278002A1B
:1008D0009ED10D0021352A78002A99D118208A69E5
:1008E000190008AB1B189200985800F02BFF4B46DC
:1008F000002800D186E123708AE7069BA34200D836
:1009000061E7A0E75B469A4A41E69A4B984200D8D5
:100910005FE6994B934E994A19683000994604F066
:10092000DDFB012342465B42136052E6FA22514648
:1009300052009348089C04F0D1FB0021874801F045
:10094000EFF8904A894B944663449A468E4BD946B9
:100950008E4D9B460FE0012E09D04B465A46196832
:10096000804804F0BBFB0122434652421A602834FF
:100970002835544525D0A668E768E3692268A1694F
:1009800004960597266967690296039720262878BA
:100990000190A05D00907E4804F0A0FBE369A65D95
:1009A0002A78F618002AD6D0002BD4D14B46794AA3
:1009B00019686C4804F092FB0122434652421A60C7
:1009C000C9E743461F684B46734A1968002F00D099
:1009D000B3E0724804F082FB43461F609623DB00BD
:1009E0009B466F4C6F4B26009A46A34405F02AFAAB
:1009F000050000F0A3FD5346AA05920DF5320296BC
:100A000001970093FF320023183600F0D7FE01371C
:100A10005E45EBD1644801F09BF8644B27009A4691
:100A20001E000025380000F0DFFF002800D188E01C
:100A30003368012B00D8D3E0ED185D4B043618372E
:100A40009E42EFD100275646200000F0CDFF00283F
:100A500052D108CE1834FF185C45F5D1AF4200D012
:100A6000F5E043461C68002C64D14B46514A196896
:100A70004A4804F033FB43461C604F4B1C685D68DA
:100A800001F0EAF8001BA94100290ADB4B46354E6C
:100A90004A4A1968300004F021FB012342465B42B8
:100AA000136001F0D9F822002B00121A8B41002BA1
:100AB00000DCA9E00122424BA4185D41002D00DCBE
:100AC000CFE043461B68002B00D0BEE04B463D4ABA
:100AD0001968324804F002FBFFF75EFC002800D0E2
:100AE00060E543461C68384B1968002C00D0B4E020
:100AF000364804F0F3FA57E51A4B354A9A464B4606
:100B00005046196804F0EAFA0122434652421A603C
:100B100008CE1834FF185C4596D15646AF4209D02E
:100B20004B462C4A1968300004F0D8FA012342469B
:100B30005B4213601F4A4B461968274804F0CEFAFF
:100B400030E54B46254A1968064804F0C7FA0122E9
:100B5000434652421A606BE74103001080841E0036
:100B600020630010B46200105C630010E0200020DD
:100B7000C46200103F420F007C010020D8620010C8
:100B8000B4630010881300001C64001001210020D1
:100B9000D0630010EC630010486400105C62001029
:100BA000301A002059030010B80B0000A473002075
:100BB0006C7400204C6500103866001060650010F1
:100BC00000010080E465001078010020FC65001041
:100BD000D8640010046500103462001068640010CE
:100BE0004B46234A1968234804F078FA0122434609
:100BF00052421A6008CE1837ED181F4BB34200D08E
:100C000010E71FE72B7003E6002B02D1002A00D06B
:100C100050E74B46174E194A1968300004F05EFA47
:100C2000012342465B4213600122154BA4185D412B
:100C3000002D0ADC0DD04B46124A1968300004F032
:100C40004DFA012342465B4213600F4A73E7094E97
:100C500066E7002CEFD00C4A6DE70C4804F03EFA32
:100C6000A0E4002D02D1002C00D02AE7014EE2E7DB
:100C700094640010B46200106C7400208865001049
:100C800000010080AC650010E4650010F065001004
:100C900010B504F071FA10BD094A83009446402251
:100CA000634410B51C68C0006240C0241440802218
:100CB000520113431C60034B9C466044416010BDCD
:100CC00004C001400040014070B5EFF3108C72B6D3
:100CD0000D4D2B68002BFCD0BFF35F8F0724CB0892
:100CE000C618C05C01230C40A3401C000440034212
:100CF00007D103433370BFF35F8F2C608CF31088F0
:100D000070BD100001F0ECFB2C0100D0024B186804
:100D10008007C00F7047C04600C006400021044B4A
:100D2000044ABFF35F8F02C39342FAD17047C046B3
:100D3000000100D0800100D0044A1078431CDBB2CF
:100D4000172B00D9102313707047C0468001002074
:100D500001238340002904D0034A1360034A13602F
:100D60007047034A1360FBE780E200E000E100E027
:100D700080E100E0024B10309B688000C058704753
:100D800000ED00E070B50D00EFF3108672B60F4A6B
:100D90001368002BFCD0BFF35F8F0D4B10309B68A6
:100DA00084001B590B4A934203D09D4201D001F0AD
:100DB000AFFB074B9B681D51BFF35F8FBFF35F8F86
:100DC0000022024B1A6086F3108870BD240100D007
:100DD00000ED00E0CD010010F0B5DE4657464E466E
:100DE0004546E0B50C0083B0EFF3108A72B65A4A5C
:100DF0001368002BFCD0BFF35F8F10229146814413
:100E00004A46564B96009B689D59554B98469D42C5
:100E100005D0A54216D0534FEB1B2F2B14D94F4BA7
:100E20009B689D51BFF35F8FBFF35F8F00224A4BDA
:100E30001A608AF3108803B0F0BCBB46B246A946DC
:100E4000A046F0BD1D00EAE7012383409B465A46B9
:100E5000454B1B681A4000925A46444B1A60BFF338
:100E60005F8FFFF700FA0190002803D0814501D081
:100E700001F04EFB01232A009A4393689C4208D15B
:100E80005FE04B005B189B00FB189968A14211D0F2
:100E90001A00062151560029F3DA009B002B05D0D9
:100EA0005A46334B1A60304B1A60B8E75A462F4BFC
:100EB0001A60B4E706215956002921DB4A00501870
:100EC00080003C188046A0689860E079D8710620C0
:100ED00020569871002824DBA488F81A640524158C
:100EE00044440019E0240005400D2402204398806A
:100EF0005218204B9200BF181A781970BA71CCE7BB
:100F00000199002910D1FF3191711B499180194934
:100F10000A789A71194ADB1B5B415A43120D0A7019
:100F2000BBE7BD200002E2E7154A1649D21A083A8B
:100F30005002400D01439980134952080A43DA8058
:100F4000ABE70621515613000029B7DA019A002AAF
:100F5000EAD14546DBE7C046240100D000ED00E0C1
:100F6000CD0100108401002000E100E080E100E0FC
:100F700080E200E08D74002000BDFFFFAAAA0000FF
:100F8000BE01002000F0FFFF00F8FFFFF8B50125CB
:100F900004000543FFF767F9EFF3108C72B6214A9E
:100FA0001368002BFCD0BFF35F8F1F4E2100B76882
:100FB0001E4A1F4B891A49414B431B0D59B28300EE
:100FC000F858A8421CD00623D3568B421CD01223BB
:100FD000D3568B4222D01E23D3568B4220D02A23B5
:100FE000D35603208B4210D0124B1A781970A2717D
:100FF000BFF35F8F00220B4B1A608CF31088F8BD93
:10100000B2680D48D050EFE7002043001B189B004A
:10101000D218FF239371094B9380E5E70120F4E791
:101020000220F2E7240100D000ED00E0840100205E
:10103000AAAA00008D740020CD01001000BDFFFFA2
:10104000054B064A1360064A136053609360D360F1
:1010500013615361936170478080808000E400E0F9
:1010600004E400E0024B9C46614489000160704743
:101070004000003483680B4810B5844661446244E4
:10108000090112019A18591854684B6801209C42B2
:1010900001D802D00020C0B210BD12680B689A427D
:1010A000F9D8F7E7FFFFFF0F10B508000B690C0038
:1010B0009847002802D02068616810BDE0600021D8
:1010C0000020FAE70A4B1968EFF3108072B60A683D
:1010D000002AFCD0BFF35F8F1B68BFF35F8F002235
:1010E0001A6080F3108840BF002000217047C0467E
:1010F00070740020F8B557464E464546DE46E0B5CA
:1011000099460CAB1C780DAB1B78060090469A46AE
:101110000768002C11D1BC7B002C42D065003B68D5
:101120002D19033D59194B78BB73002B00D1FB736C
:1011300000238B704B700B7004E065003B682D1929
:10114000033D5919B2682A4B94464246E3181B01E5
:1011500063441A604A465A600A9A9A600B9ADA60A7
:1011600000238B704B700B707B7B9B46002B2BD02E
:1011700022005946B8687B6898473A68002816D01C
:101180005B4658465B005B445519033BA870D11879
:10119000D35C002B00D06B705B460C707B73A34557
:1011A00013D0F0BCBB46B246A946A046F8BD5B468C
:1011B0005B005B44033BD3189C705119525D002ABD
:1011C00000D05A705B460B707C7342464B46307DB4
:1011D00000F0D6FD051E06D05346002B03D121009A
:1011E000306801F01FF80E9B002BDAD01D70D8E795
:1011F000FFFFFF0FF0B5DE464E465746454600233B
:10120000E0B58DB00A936B4B8200D3580B90994692
:1012100000239B464B46079300F01EFD079C0600EB
:101220000F006268EFF3108572B61368002BFCD0D4
:1012300022000794BFF35F8F2468637B9946002BDD
:1012400067D092685C4B90464B441B0198444346E0
:101250001A685B6810001900801BB94100295FDD26
:101260000B9800F08DFD00230026984600279A4633
:10127000079C6368BFF35F8F5A461A6085F3108836
:101280005346002B08D10028C6D10DB0F0BCBB4698
:10129000B246A946A046F0BD0A9B414618024B46FD
:1012A0001843D047089009916268EFF3108572B631
:1012B0001368002BFCD00794BFF35F8F0899099A3D
:1012C000002A48DB114303D0079B1B69002B5DD12B
:1012D000079B1B68D97B002907D04A005218196860
:1012E0008C4649466244033A51704A46DA734B468B
:1012F000079A013BD168CA5C0132CA545B46079A1F
:1013000013615368BFF35F8F5A461A6085F31088E4
:1013100082E700230026984600279A460020A7E788
:10132000002901D100289BD10021200000F0FCFE03
:1013300043461E685F689B68079A9A464346DB6887
:101340009846D3684B44013B1B780A931B02034326
:10135000136100208CE72369002BB9D033003C00D7
:101360005B1A94411A002300A74219D89F421BD050
:101370005946049101210391494602914146019148
:10138000514607980091FFF7B5FEB7E700F064FCFF
:10139000089A099B06000F0092197B419942E5D9F2
:1013A00001225242D317E3E79642E1D90122524289
:1013B000D317DDE794730020FFFFFF0FF8B5574602
:1013C0004E464546DE46E0B5404D81468A466A684F
:1013D000EFF3108872B61368002BFCD0BFF35F8F59
:1013E0002E68B47B002C39D0670033683F19033F67
:1013F000DB195A78B273002A00D1F273A968344A13
:101400008C464946A218120162441160514651604F
:10141000304991600021D160997059701970737BC7
:101420009B46002B35D022001900B068736898479E
:101430003268002820D05B4658465B005B44D719D1
:10144000033BB870D118D35C002B00D07B705B4697
:101450000C7073735C451DD0002626E06B68BFF3EB
:101460005F8F1C6088F3108801204042F0BCBB46AF
:10147000B246A946A046F8BD5B465B005B44033B11
:10148000D3189C70D119D25D002A00D05A705B46E7
:101490000B7074734A465346287D00F071FC061E9B
:1014A000DAD02100286800F0BDFEEB681B19013B73
:1014B00019786B68BFF35F8F00221A6088F3108879
:1014C0000020002ED2D108022043CFE7CC0100201B
:1014D000FFFFFF0FC510001010B5124C6368002B02
:1014E00004D00A211048FFF7BDFD10BD23000F4AAC
:1014F000FA21206800F036FD032000F0A1FB032054
:1015000000F0AEFC03200A4900F0F4FBFFF714FCE6
:10151000084B9C46032360442375074B80006060A2
:10152000DC60DEE7CC010020707400207510001034
:10153000F5110010400000349473002000487047FB
:10154000CC01002070B5050018200E0003F08AFBC6
:10155000134904000200300000F0D4FC1021206088
:10156000300003F091FB0121A060300003F08CFB00
:10157000E060280000F064FB280000F071FC280007
:10158000084900F0B7FBFFF7D7FB074B25759C46D2
:10159000064B6044AD0080006060EC50200070BDE0
:1015A00075100010F51100104000003494730020F5
:1015B000F0B557464E464546DE46E0B585B0019348
:1015C00010AB1B780600039300239A4698460092BE
:1015D0007268EFF3108972B61368002BFCD0BFF36A
:1015E0005F8F3568AC7B002C49D067002B683F19B2
:1015F000033FDB195A78AA73002A00D1EA73B16855
:101600004F4A8C4600980199A2181201624410605A
:1016100051600E9991600F99D16042469A705A704C
:101620001A706B7B9B46002B45D022001900A868DE
:101630006B6898472A68002830D05B4658465B00A4
:101640005B44D719033BB870D118D35C002B00D092
:101650007B705B460C706B735C452DD0F3681B1977
:10166000013B18787368BFF35F8F42461A6089F3B5
:1016700010885346002B2CD10002204307E07368EA
:10168000BFF35F8F1C6089F310880120404205B0D2
:10169000F0BCBB46B246A946A046F0BD5B465B0027
:1016A0005B44033BD3189C70D119D25D002A00D053
:1016B0005A705B460B706C73307D009A019B00F092
:1016C0005FFB82460028C9D02100306800F0AAFDE7
:1016D000C4E7039B002B30D00E9B00200F99984746
:1016E000030004000D000B4327D000290DDA0098F9
:1016F000019902000B00121BAB41994213D818D07C
:1017000000920193039B9A4662E700F0A5FA02005B
:101710000B00A4185D4100940195A94203D8F1D1B2
:1017200000998A42EED901235B42DC1700930194B1
:10173000E8E700999142E3D9F5E70020A7E7C04622
:10174000FFFFFF0F70B542680400EFF3108572B61B
:101750001368002BFCD0BFF35F8F2068CEB2437BB1
:10176000B3420AD0FF230B405A00D31802689446B4
:101770006344033B9B78002B13D0E268FF2394461D
:101780000B406344013B0A0A1978D2B291420ED051
:1017900000206368BFF35F8F00221A6085F3108812
:1017A00070BD22698A42F3D100202361F1E7310044
:1017B00000F038FDEDE7C046007D7047F0B54E46BD
:1017C0004546DE465746E0B585B010990500894686
:1017D0001100194300D1ECE0D81704005440260052
:1017E00004005C4001002700361A8F4149460E98DC
:1017F0000A600F9A4B604A618D60086100F02CFA14
:1018000002000B00B6185F4100960197B94200D95B
:10181000DDE000D1D7E00023A8469B461F004346E9
:101820005A68EFF3108A72B61368002BFCD0BFF32E
:101830005F8F43461E68B47B002C00D18BE06300B1
:101840001B19033B1A0094460393336863445A7888
:10185000B273002A00D1F27341468968604A8C460F
:1018600000980199A21812016244106051605D490C
:1018700091604946D1605A469A705A701A70757BC9
:10188000002D00D185E022002900B06873689847D8
:101890003268002800D171E003996B005B19511880
:1018A000033B8D70D018D35C002B00D089E004700E
:1018B00075733E00AC4200D16CE043464246DB68A3
:1018C00052681B19013B1B78BFF35F8F59461160AB
:1018D0008AF31088002E0CD101261B021C434B46B4
:1018E0003000DC6005B0F0BCBB46B246A946A0465D
:1018F000F0BD4846036998470700031E01D1002444
:10190000EDE74A461468556822002A4365D0002D49
:101910000BDA0098019902000B00121BAB419942AF
:1019200013D822D00092019379E700F095F90200D4
:101930000B00A4185D4100940195A94205D800D080
:101940006DE700998A4200D869E701235B42DC1702
:101950000093019463E75B68BFF35F8F1C608AF3B9
:101960001088012400266442B9E700999142D9D930
:1019700001235B42DC170093019450E76B005B1975
:10198000033B0398D3189C701118125C002A15D1E0
:101990000D7074734346187D009A019B00F0F0F9B6
:1019A000061E00D189E743462100186800F03AFC82
:1019B00083E7012600270122002317E75A700D70E4
:1019C000E7E74B7073E700998A4200D823E70123C9
:1019D0005B42DC17009301941DE71E0000247EE7A4
:1019E000FFFFFF0FA9100010F0B5C646C368040042
:1019F00000B50020002B02D180BCB846F0BDA56820
:101A00006968EFF3108672B60A68002AFCD0BFF34B
:101A10005F8F2868D9B2427B8A4224D0FF221A40C5
:101A20005700B84607689044BC4647466744033FA2
:101A3000BF78002F12D0EF681B0ABC466244013AFF
:101A40001278DBB29A4211D000206A68BFF35F8F30
:101A50000023136086F31088E360CDE72A69934280
:101A6000F2D12F61F0E7FF221A40E4E700F0DAFB41
:101A7000EBE7C046F0B504000D0006267642F717E6
:101A8000C64636196F4100B58F4213D810D000F00A
:101A9000E3F832003B00121A8B41002B14DC002BC0
:101AA00037D02900200000F015F980BCB846F0BD01
:101AB0008642ECD90026002700F0CEF832003B0029
:101AC000121A8B41002BEADD30003900FFF776FC5B
:101AD0000028E6DB00239846BC460F4A0F4F7B6A7E
:101AE0009C4504D8B96A8E42DBD99C45D9D111688E
:101AF000EFF3108072B60B68002BFCD0BFF35F8F42
:101B00001368BFF35F8F4146196080F3108820BFD0
:101B1000E5E7002AC5D0D7E77074002000400540F3
:101B200070B504000D0000F097F802000B002000D3
:101B30002900801859418B4205D802D0FFF79AFF3F
:101B400070BD8242FAD901204042C117F6E7C04673
:101B500070B5060000F080F8FA2204000D000023A2
:101B600030000021920003F01BF8001969418D42FA
:101B700005D802D0FFF77EFF70BD8442FAD901205C
:101B80004042C117F6E7C046F0B5D6464F46464636
:101B9000C0B5EFF305833F22134018001038EFF370
:101BA000108C72B6204D2A68002AFCD0BFF35F8FDC
:101BB0000122110081401D4C884661631C491700B9
:101BC0000E788A463100C1400F400A4209D1BFF366
:101BD0005F8F2F608CF31088E0BCBA46B146A846F0
:101BE000F0BD14498200646A51588C420FD3124BE5
:101BF000D25843469E4353461E70BFF35F8F002367
:101C00002B608CF31088002AE6D09047E4E70B4A5B
:101C10009B00904643441A681A60BFF35F8F00230D
:101C20002B608CF31088D7E7280100D000400540D6
:101C30008E74002074740020546F0020D03F054043
:101C400010B50100024A0348FFF73EF810BDC04638
:101C5000406600108C740020034B596A0A00986A91
:101C6000596A8A42FAD170470040054070B5002891
:101C700006DB174A916A936A5B1A8342FBD370BDF5
:101C800004000025124A536A1900966A536A8B426F
:101C9000FAD13000190024184D41AB4202D814D1BA
:101CA000A64212D9012301246442E5175B42084988
:101CB0004A6A9A42FCD3E2D1054A02E0516A99424B
:101CC000DDD1916AA142F9D3D9E72B00EFE7C046F5
:101CD00000400540064A536A9942FCD807D1044B9C
:101CE00002E05A6A914202D19A6A8242F9D370475D
:101CF0000040054070B504000D00EFF3108672B689
:101D00001A4A1368002BFCD0BFF35F8F002D1BD045
:101D10002000FFF72FF8164981420AD02000FFF774
:101D200031F801212000FFF713F80123A340114AE5
:101D30001360114BA400E550BFF35F8F00220B4BE3
:101D40001A6086F3108870BD0B4BA200D55001229B
:101D5000A2400A4920000B7893430B700449FFF717
:101D60003BF800212000FEF7F3FFE5E7280100D053
:101D7000891B001038600540546F00208E740020CD
:101D8000F0B54F46D6464646C0B507002F4C616AAF
:101D90000D00A66A616AA942FAD18B4208D805D023
:101DA0000120E0BCBA46B146A846F0BDB242F7D920
:101DB000EFF3108A72B6264801680029FCD0BFF301
:101DC0005F8F0125BD402349204C8846097889460C
:101DD0002943C9B28C46414660460870391D1E48E9
:101DE000890065630A51B9000B50216A002029421D
:101DF00019D0616A0800A66A616A8142FAD18B42F1
:101E000019D801D1B24216D8CC451DD00F4B1F2096
:101E10001D625D6301230740BB40104A1E381360FA
:101E200043464A461A70BFF35F8F0022084B1A6080
:101E30008AF31088B5E70020BFF35F8F0022044BC0
:101E40001A608AF31088ACE70120ECE700400540F7
:101E5000280100D08E7400207474002080E200E01D
:101E6000EFF3108C72B60A490B68002BFCD0BFF35D
:101E70005F8F01238340074A0748136202789A4321
:101E80000270BFF35F8F00230B608CF310887047E4
:101E9000280100D0004005408E74002070B5050078
:101EA00014001600002915D00C00002A12D08068FA
:101EB0006B689847296800280ED073009B19620050
:101EC000033B1219CB18033A9C7088188A5C002ACD
:101ED00015D10670200070BD63001B197200033B12
:101EE0009219CB18033A9E7088188A5C002A02D196
:101EF00004703400EEE75A7004703400EAE75A7058
:101F00000670E7E7F0B5C6460600884600B5102122
:101F10000120170002F0B8FE03210500300002F096
:101F2000B3FE43466B600023F4B26B730133286049
:101F30002C73AF60AB73EC73012C06D9421C0133D8
:101F4000DBB2137003329C42F9D1FF231E407300B1
:101F50009E190023801903384370280080BCB846BE
:101F6000F0BDC04630B583600023CCB2437301336B
:101F7000047342608373C4730D000068012C06D99A
:101F8000421C0133DBB2137003329C42F9D1FF21B2
:101F900029404B005918002340180338437030BDC6
:101FA000F8B5CE46474606000C0080B5002907D09C
:101FB0004D0003686D18033D5A195778002F04D15E
:101FC0002000C0BCB946B046F8BD7900C919033934
:101FD0008846434459788946002159705170736886
:101FE0003A002100806898473368002814D04246A0
:101FF0009A18947059195B5D002B00D053700F70C4
:10200000270049463000FFF7CBFF390002003000BF
:10201000FFF744FF0400D3E7424641465D19AF7025
:102020009A185B5C002B00D06B701470E9E7C04617
:10203000F0B557464546DE464E46E0B50D006B000E
:1020400001685B19DF1E0400C85D83B00192CA19E4
:1020500000284CD043001B18033BCB185E78B446D5
:10206000002E16D1019E002E3ED0E67B002E04D01D
:1020700073009B19CB18033B5D70E57300282FD1CB
:102080000023537003B0F0BCBB46B246A946A0463D
:10209000F0BD72006244033A89184A7890460022E3
:1020A0004A7091465A70010032002000FFF7F6FE98
:1020B00043468246002B07D05B0021684344033B24
:1020C000CB185A78002A16D1424651462000FFF715
:1020D000E5FE2168019BCA19002BC6D10028CFD08C
:1020E00043001B18033BCB1800219970C8E7019BE4
:1020F000002BBAD1C4E7500080180338091848787B
:10210000834648464870587041462000FFF7C6FE97
:10211000594680462000FFF743FF41460200200059
:10212000FFF7BCFE8046CFE7F0B557464546DE4692
:102130004E46E0B583B00191457B04006B0000681A
:102140005B19DF1EC15DC21900294ED04B005B1820
:10215000033BC3185E78B446002E18D1019E002EB2
:1021600040D0E67B002E04D073009B19C318033BBC
:102170005D70E573002931D100232800537061732D
:1021800003B0F0BCBB46B246A946A046F0BD720003
:102190006244033A80184278904600224270914689
:1021A0005A7020003200FFF779FE43468246002B2A
:1021B00007D05B0021684344033BCB185A78002AC0
:1021C00017D1424651462000FFF768FE019B0100EF
:1021D0002068C219002BC4D10029CDD04B005B1858
:1021E000033BC31800209870C6E7019B002BB8D1B1
:1021F000C2E75000801803380918487883464846DB
:102200004870587041462000FFF748FE5946804606
:102210002000FFF7C5FE414602002000FFF73EFE0A
:102220008046CEE770B5040000292CD0437B8B425A
:102230002ED0056848004018033828188278002AF4
:1022400021D053009B18033BEA5CEE188A4202D16E
:102250001BE0002A08D053009B18033BEB185A7868
:102260008A42F6D142785A7000230122837043706B
:102270002000FFF7DDFE617B02002000FFF70EFE6D
:102280006073012000E0002070BD43783370EBE7FD
:1022900001221900FFF7CCFE60730120F4E7C0466D
:1022A00010B50400FEF748FD01002000FEF7DAFE3D
:1022B000FF232371BFF35F8F10BDC04610B504002C
:1022C000FEF73AFD01002000FEF7CCFEFF23A380BD
:1022D000BFF35F8F10BDC046F8B5040006200D00A7
:1022E00000F07AFA002844D02A4B2B49E2185342D6
:1022F0005A418023DB039C469205284B62441A60B6
:10230000274B1A6010008B689843FBD1214B80212A
:10231000E3185A425341234A5B0049009952062070
:1023200000F05AFA2900C00001F014FEC30921D1BF
:1023300040270121260080256162A36200232C36FC
:10234000AD0135432B60062000F046FA39008000CD
:1023500001F000FE6023E26A53406E221A4080239F
:102360005B0133431A60104B236310232B600D3B3A
:10237000A364F8BD0D4A934203D900230C4F0D49C5
:10238000D8E77F221040013040089F0119003F1814
:102390000300CFE70080FCBF00C0004000E0004029
:1023A00000F000408474002001030000FEFF0000E4
:1023B000C0FF3F00FFFF00002C4B2D4A70B51A6094
:1023C0002C4A2D4B2D491A6014008B689C43FBD17D
:1023D0002B4D2C4EB54208D2013E761BB60808CDD7
:1023E000984723000134B342F9D100F097F8264A08
:1023F000214B1A60214A9368DB43DB01DD09002B86
:10240000F9D14022214B224C224E9A675A671A6713
:10241000DA66B44208D223682000002B20D00834AA
:10242000FFF74CFFB442F6D31B4E1C4CC022A168F0
:10243000300002F049FCA660FEF770FCFEF700FEDB
:10244000FFF74AF8164C174EB44208D2013E361B2D
:10245000B60808CC98472B0001359E42F9D170BDD3
:102460000834FFF71DFFB442D5D3DDE700E000409C
:10247000BFCDFBFEFE7F3C0000F0004000C00040EE
:10248000780A0020880A0020FFFFFF0100F00140C9
:10249000700A0020780A00200000002000ED00E013
:1024A000880A00208C0A0020094A030010680028CE
:1024B00005D00849C3188B4207D8136070470648F7
:1024C0000449C31810608B42F7D901204042F5E758
:1024D00084730020000004209074002000BEFDE7FB
:1024E0000FB400B5084883B002F056FD049B002BE2
:1024F00007D005A91800019101F0B2FC034802F0D1
:102500004BFD00BEFDE7C04664660010E0610010B0
:1025100010B50148FFF7E4FF7466001030B50C20D9
:1025200083B000F0B7F9FEF7F1FB00280ED0944B12
:10253000944A1A605A609A60DA601A615A619A6124
:10254000DA611A62904A5A6203B030BD8F4CA067BC
:1025500000F0A8F901228E4B1A60636C012BFCD1AC
:1025600003228C4B1A60894A936B012BFCD10133F7
:102570000121894A89480093043300F033F9052387
:10258000874A00930121874800F02CF9864B5A684E
:10259000FF2A02D8802252005A608022784C7D4B5C
:1025A00021691201804D1A60002905D0606901F08F
:1025B000D1FC01300138FDD1E0217B4B02201A68AB
:1025C0001140802252012A431160196848400321BA
:1025D0000140116004219A681142FCD080228021C0
:1025E00092012A4309011160802252005A606F4B08
:1025F00023616F4B5968FF2900D85A600321644A50
:102600006B4B116002399A681142FCD0E0201A68C5
:102610001040802252011A4310601868484003217C
:1026200001400220116062498A681042FCD0802279
:1026300092011343802212011A6080225D4B5200E6
:102640004A6063615C4B5968FF2900D85A60802258
:102650005A4BE1691201584D1A60002905D0606992
:1026600001F078FC01300138FDD1E02252490B68BD
:102670001A4080235B012B431A60802380229B0138
:102680002B4312011A6080223E4B52004A60E361E4
:102690004B4B5968FF2900D85A608022494B216A68
:1026A0001201474D1A60002905D0606901F052FC03
:1026B00001300138FDD1E02241490B681A408023E6
:1026C0005B012B431A60802380229B012B43120164
:1026D0001A60802380225B004B602A4BD202236267
:1026E000394B5968914200D25A608022374B616A57
:1026F0001201354D1A60002905D0606901F02AFCED
:1027000001300138FDD1E0222F490B681A408023A7
:102710005B012B431A60802380229B012B43120113
:102720001A608023DB024B60174B6362284B5A68A8
:10273000FF2A02D8802252005A608022254BA169CC
:102740001201234D1A60002905D0606901F002FCD6
:1027500001300138FDD1E0221D490B681A40802369
:102760005B012B431A60802380229B012B431201C3
:102770001A6080235B004B600E4BA361E4E6C04609
:10278000646F0020006CDC021BB70000008000407A
:102790003CB0004030B00040002F6859008002403B
:1027A000008C864700C0024030800040001BB7000C
:1027B0003C800040405973075480004054B00040B2
:1027C0006080004060B000406C8000406CB0004011
:1027D0004880004048B00040014B8000C05870471E
:1027E000646F0020F0B5C646040000B50C2090468A
:1027F0001F000E0001F0AEFB4101091A8D01691A9C
:10280000C90009188901404601F0A4FB069B3F045A
:102810001A0323681743002B22DB1A4B1A4DE218C8
:1028200053425A4180235B019C461203174B62447A
:102830001A60174B1A601100AB689943FBD1C02294
:10284000231D92011A4321232660A0601360236890
:10285000002BFCDA0823E760136080BCB846F0BDAB
:102860003F2322681340B342D7D1A3681B051B0D39
:102870008342D2D1EE22E368D2021340BB42CCD1D4
:10288000EBE7C0460040FDBF00C0004000E0004054
:1028900000F000408023024A9B000343D36270474C
:1028A00000800540AA23064A1B0113602F23054917
:1028B000D360054B19605368002BFCDA7047C046A3
:1028C0000040024000B0FA00006002407047C0467D
:1028D000F8B557464E464546DE46E0B599460A9B52
:1028E00007009A460D9B8846934615000B9E9B0752
:1028F00010D10C9B9E420DD29D1B14000E005D4416
:1029000022004B46013431002020B847A542F7D1C0
:10291000B0460B9E002E27D0444675195346AA1B7D
:10292000013E985D21004B46B847002EF6D12300AA
:102930002C0098460D9B9B070FD55B46E51A0C9B18
:10294000AB420AD94646984622004B463100202029
:102950000135B8470134A845F6D82000F0BCBB4685
:10296000B246A946A046F8BD2C00E3E7F0B54F46B5
:102970004646D646C0B584B098460EAB1B78129F2B
:10298000994694460D9C109B119EBA0725D4002EA3
:102990004BD19C4200D3BFE001223A4092461F2C0B
:1029A00000D9B8E00C9A551E302201E0202C03D04B
:1029B00001342A55A342F9D85246002A0DD0A64226
:1029C0000BD9202C44D00C9A551E302201E0202C2B
:1029D0003ED001342A55B442F9D1FA064DD57A05D4
:1029E0003FD4002C39D10F9B102B00D179E00F9BE5
:1029F000022B00D18AE030230C9A012413704B463D
:102A0000002B3FD02D230C9A135501340C9B6246AA
:102A100000930397434602960194FFF759FF04B0D1
:102A2000E0BCBA46B146A846F0BD012215003D40C3
:102A3000AA463A422FD04A46002A02D10C323A42E4
:102A400000D0013E9C42BAD21F2CABD9202E27D9F0
:102A50002024FA06DAD57A0503D4A3422DD0A64263
:102A60002BD00F9B102B32D0022B20D0202CCDD07E
:102A700030220C9B1B191A700134202CC6D04B46F7
:102A8000002BBFD17B070DD43B07BFD520230C9A69
:102A900013550134BAE79C429FD21F2C00D881E71E
:102AA00020249AE72B230C9A13550134AEE7202CEF
:102AB000ACD00C9B1B1901343AE0631E012C92D060
:102AC0000F9A102A2AD0022A2FD01C00D0E7BB066A
:102AD0000ED4202C9AD00C9B1A1901347823137031
:102AE000C4E7BB060DD478230C9A01241370BFE70A
:102AF000202C00D18AE758220C9B1B191A70013434
:102B0000B4E758230C9A01241370B1E70C9A603390
:102B100001241370ACE7202400265EE7023CBA06CD
:102B2000E9D40C9A12191C00D8E70C9A9246534427
:102B300062221A709AE7C04610B5002800D110BD75
:102B400002F0DAF9FBE7C0460B0010B5002802D00E
:102B500049681B68984710BDF0B5DE4657464E469B
:102B60004546E0B59BB09B46249B89469846259BED
:102B70000B900C924046424619009A4601F0BBFC6D
:102B8000002800D0D8E0012240465146774B5242FF
:102B900001F0ACFC002800D0CEE0012240465146B6
:102BA000734B524201F08CFC002800D0C4E000229C
:102BB00000234046514601F083FC002800D0B9E1D3
:102BC000424653460A9209938023289ADB001A4012
:102BD0000E92289A1A4201D1062326930A9A099B3B
:102BE0001600134300D0C7E0289B002500261B05D4
:102BF00000D49BE100230D93269A0D9B9A4200DCA2
:102C00009FE1D01A431E26938023289ADB001A43A3
:102C10000023002728920D93279B0024BB4200D954
:102C2000DC1B0223289A1A400E92289A134203D0E2
:102C30007B427B415B421C400D9B002B07D00A98D6
:102C400009992A00330001F0DAFB0A900991002269
:102C500000234046514601F033FC002805D0802077
:102C600000068446099961440991289A414B0B9DBD
:102C700013400493269B0A9A0293099B03940092A3
:102C8000019349465B4628000C9A00F08BF904003A
:102C9000002F62D0289B220098061F23C01798435C
:102CA000631C984649465B466530A8470D9B002546
:102CB000DA179C18DB0F9A465440013F01E0202DA3
:102CC00013D00AAA94461F23200063440A21013529
:102CD0005E1901F03FF93031317020000A2101F016
:102CE00039F926000400092EE9D8052306930023AC
:102CF00004930A330393534605970B9F029312AB39
:102D0000009342465B46494638000195FFF72EFE88
:102D10000E9B0400002B20D00C9BC51A279BAB42B6
:102D20001BD91E0022005B46494620200135B847CA
:102D30000134AE42F6D810E0289B42460493279B0C
:102D400049460393269B0B980293534600920193A6
:102D50005B460C9A00F026F9040020001BB0F0BC82
:102D6000BB46B246A946A046F0BDC046FFFFEF7F76
:102D7000FFFFEFFFFFF7FFFF734B099F9C467800B3
:102D8000400D604401F0CAFB704A714B01F055FBE5
:102D9000704A714B01F02AFB3B03704A1B0B1A432C
:102DA00004000D00300011006D4B002201F015FBF6
:102DB0006C4A6D4B01F041FB02000B002000290022
:102DC00001F014FB01F0C2FB0D9001F0A7FB674A74
:102DD000674B04000D0001F030FB0022654B01F051
:102DE00005FB01F0B3FB644A0600644B2000290098
:102DF00001F023FB040030000D000F9601F08EFB64
:102E00005F4A604B01F019FB02000B002000290013
:102E100001F0E3FA02000B0006000F0001F00DFBC9
:102E2000320004000D003B003000390001F0DEFAF2
:102E3000002210901191544B2000290001F0DFFA7C
:102E40000022524B01F0D2FA02000B0020002900B0
:102E500001F0D5FA00224E4B01F0C8FA02000B0037
:102E60002000290001F0CBFA0D008021040032007F
:102E70003B000020C90501F0B0FA02000B00200061
:102E8000290001F0B3FA02000B001098119901F02B
:102E9000B6FA0022314B01F0A9FA3E4B0F9C9C463A
:102EA00064440022230501F0C8FA05000E00020068
:102EB0000B000A98099901F003FB00280AD00D9B2A
:102EC0002800013B31000D930022304B01F097FAAE
:102ED00005000E00C6270D992B0063318F42BF41BC
:102EE00028997F420437090500D495E6334300D181
:102EF00082E6099C284A2100284B0A9801F0EEFA44
:102F0000002808D000222100254B0A9801F0D8FAA9
:102F1000002800D070E6269B002B00D17CE60E9B9B
:102F20005A1E9341269AD31A269375E60023042746
:102F30000D9371E643460A9380231B06534409937D
:102F400042E6002326935FE601FCFFFFFB799F50DA
:102F50001344D33FB3C8608B288AC63F0000F03FBC
:102F60000000F83F61436F63A787D23F71A37909DF
:102F70004F930A400000E03F1655B5BBB16B0240CD
:102F8000EF39FAFE422EE63F00002C4000002440BC
:102F900000001840FF0300002D431CEBE2361A3FEF
:102FA00080842E41F0B54E46DE4657464546E0B594
:102FB00097B09946209E219F229B83469846079171
:102FC0000C923B0032003000390001F094FA0028E6
:102FD00000D0A9E1012230003900CA4B524201F071
:102FE0006FFA002800D0E1E0012230003900C64B22
:102FF000524201F07BFA002800D0B7E000223000F6
:103000003900C24B01F072FA002800D099E000228A
:1030100030003900BE4B01F053FA002800D090E098
:10302000002200233000390001F04AFA002800D0C5
:10303000B1E000230D93249B5B0501D40623984641
:1030400008AB9C461722002430234146624404E02A
:10305000013413550139202C01D00929F8D88846AC
:103060003000390001F072FA4346DA00A94B05003E
:103070009B181A685B680892099301F04FFA0200E6
:103080000B003000390001F0A8F9089A099B01F003
:10309000D4F90A900B9101F07DFA824601F03AFAD8
:1030A00002000B000A980B9901F097F900229A4B45
:1030B0000A900B9101F01AFA002800D1C0E0012318
:1030C0009C46E244504601F025FA02000B000898A5
:1030D000099901F0FBF9002802D000239A46013536
:1030E0004346002B6AD008AB17269C4608956644D9
:1030F000554614E001235B4243440A2128009A46C6
:1031000000F028FF013430313719397028000A21C6
:1031100000F020FF092D00D8D0E0D0460500202C7B
:10312000E8D10EAB98460323249A1340012B00D11B
:1031300096E02023249A01930392239A4346029215
:103140001EE0249B58460493239B0096019703930B
:1031500043460C9A029307994B46FFF7FDFC17B0C4
:10316000F0BCBB46B246A946A046F0BD249B5B0717
:103170000ED40322694B2499019203912399029161
:10318000009358464B460C9A0799FFF7A1FBE6E7D8
:103190000422634BEFE73B0032000020002101F0E6
:1031A0001CF9012306000F000D9344E7249B0393B1
:1031B000239B0293042301935A4BE1E7280001F07B
:1031C000ADF902000B003000390001F006F9524B56
:1031D000002206000F0001F073F90EAB984600289C
:1031E0000AD10022300039004B4B01F07FF9002852
:1031F00002D1EB0700D50135202C94D008AA9446C3
:103200001723280063440A2101341E1900F07AFEB6
:103210003031280031700A2100F074FE051EEBD118
:103220000323249A1340012B1BD0202C00D180E7CC
:103230000D9B002B35D02D224146631C0A5579E7A2
:1032400000220A980B99344B01F03AF9002800D07B
:1032500046E75346002B51D101239C46E2443FE709
:103260002024239B002BE0D00D9B002B03D1249A1C
:103270000C33134202D0239B013B2393239BA34295
:10328000D3D908AB9C46172230236244202C00D1AE
:103290004FE72399013413558C42C6D0202CF8D126
:1032A00047E7249B5B0724D4249A2300120700D409
:1032B00040E72022414601330A553BE75746089D27
:1032C000202C00D12DE7220030214046002F09D0CC
:1032D0000132B154202A00D123E7D3431B191B1814
:1032E000002BF5D10EAB98462E234146541C8B542F
:1032F00082E72B224146631C0A551BE7DB0700D4FB
:10330000EEE6A9E7FFFFEFFFFFFFEF7F65CDCD41C1
:1033100065CDCDC1786800100000E03F80660010E8
:103320008466001090660010249B0393239B0293F5
:1033300003230193004B23E78C660010F0B5DE46B3
:103340004E4657464546E0B59FB01C00289B914627
:103350000993C94AC94B8B4608901A60002900D1CD
:1033600018E2002320789A46002800D11AE22600AD
:103370001D005C460AE02A006F1C4B46089D210098
:10338000A8473D0001363078002870D02528F2D1BA
:1033900010239B46083B9A46043B9846023B00217B
:1033A0009C46721C107816000300203BDBB2102BE9
:1033B00003D8B34F9B00FB589F460300303B092BBB
:1033C00032D900230A932A2868D0002398462E2851
:1033D0003ED00300683BDBB2122B1CD8A94A9B00ED
:1033E000D3589F46012301321943DBE7634601327C
:1033F0001943D7E7434601321943D3E75B4601320D
:103400001943CFE7534601321943CBE780235B00D2
:103410007078194301360300253BDBB2532BAAD841
:10342000994A9B00D3589F4600270300B800C01953
:1034300001364000C018337830381A00303A07009F
:10344000092AF3D90A901800002398462E28C0D1E3
:1034500080237078DB0019430300303B721C092B7A
:1034600000D8A1E12A2800D1B2E11600B1E7A346B5
:10347000AA462C00D14503D801235B424B449A460F
:103480004B46524659460020089DA84720001FB0D1
:10349000F0BCBB46B246A946A046F0BD099B40CB56
:1034A0000A96002E03DB50780993561C8DE72838C6
:1034B000014370420A9009935078561C85E778289A
:1034C00000D1DFE1582800D14CE26F2800D14FE352
:1034D000622801D100F030FC10230A009A430B92BD
:1034E000692801D000F0A9FC0A230C934B0500D5F4
:1034F000D0E10B9A802311009B0019408B461A42A1
:1035000000D0A1E2802311005B0019408A461A42D4
:1035100000D0B6E313005B0600D5EDE21300099975
:103520001B0601D400F076FC08C91BB2D8171A1884
:10353000424092B209919346DA0F1292002B09D1C0
:10354000802310220B99DB000B4091430B91002B41
:1035500000D0E4E20B9A6123920600D541230EA924
:103560001F228C46DBB262440A3B5F461395A3469A
:1035700055460C9CB2460D9316000AE03033DBB280
:1035800001357355A74200D2EDE2202D00D1EAE2C9
:1035900007002100380000F0DDFCCBB20929EDD98D
:1035A0000D9A94466344DBB2EAE780239B0070786F
:1035B000194301362FE77078682800D1CDE18023C8
:1035C0000136194327E770786C2800D1BFE18023CA
:1035D0005B00194301361EE7462800D19BE1072214
:1035E000099B0491073393430A9A190003924246B8
:1035F00002920CC908980092019309912A004B4647
:103600002100FFF7CFFC01360500BCE62A006F1C45
:103610004B46089D21002520A84701363D00B2E613
:103620008B0700D4ADE1099B2A009A466B1C984693
:10363000534601CB21009A46089F4B46C0B2B8477B
:103640000A9B9C466544012B00D886E2089B4746AE
:10365000B04626004C4699463A0023000137310017
:103660002020C847AF42F7D1A14653463400464612
:103670000993013687E6C0463D3300108C73002065
:1036800098660010DC66001028670010099B04CBC8
:103690009B4643460992002B00D1C6E013789C4616
:1036A000002B00D1BDE34346013B099A0133D018FA
:1036B0000A9F130001E0834203D05A780133002AA5
:1036C000F9D1099A0A979B1A0B9380230A00DB0011
:1036D0001A400C92194204D00B9B434501D9434632
:1036E0000B9302231A000A400D920B4200D187E18E
:1036F0006046002800D168E10C9B002B00D10DE151
:10370000A844C246099B57465B1B9846089BB24695
:103710002A0026004C46994609E023003100551C3A
:10372000C8474346585D002800D126E12A00974249
:10373000F3D1A1463D00340056460D9B002B00D02E
:1037400043E15B46013609931DE6099B1A0008CA4E
:103750009246002B48D0212211438B460EA8844666
:103760001F216144099500220F27A4460D0002E0A5
:10377000202A0CD00B003C001C4020003730092CC4
:1037800000D807380132A85419090F2BF0D8644625
:10379000099D32E0DC4B2078089300239A460028EC
:1037A00000D0E4E5002465E6434606000A9F980041
:1037B000C0180132400080191678030030003038FC
:1037C000303B0928F3D93000984616000A9700E6E6
:1037D000099B023604CB9046D2434046D217104094
:1037E000804609933078F4E51022080090431132A6
:1037F0001043834600224905B0D55B460693082353
:10380000059343460493102303930023029316ABBE
:10381000019200932A004B4621000898FFF7A6F872
:103820005346050001360993ADE513789C46002BFD
:1038300000D1F7E202235B4237E7202302009A43DC
:10384000472A04D180231B011943022398434528AA
:1038500001D1202319430722099B04910733934385
:103860000A9A19000392424602920CC908980092E3
:10387000019309912A004B462100FFF76DF90136AB
:10388000050080E510230C930C230A009A430B9249
:103890004B0503D501230B9A9A430B92692800D15B
:1038A00027E6642800D124E60B9A802311009B00B0
:1038B00019408B461A4200D066E1802311005B005C
:1038C00019408A461A4200D039E213005B0600D53F
:1038D0003CE113001B0600D4A6E2099B04CB1204B2
:1038E000120C934609935B46002B00D09AE10B9A89
:1038F0001033110099430B91520500D492E100233B
:103900009A460B9B06930A9B0593434604930C9B94
:10391000039300230CE12023194360E6099B0A9AD4
:103920005B1B98464B4691461F00B2462600089CFA
:103930002A003B003100A04743460135585D00286E
:10394000F6D14A463400B94656460A92F5E6C023F7
:103950009B00B078194302365DE5C023B078194367
:10396000023658E50C230A009A4314331A43103BDD
:103970000B920C934B058DD496E7A1463400564626
:10398000DBE60A9A012A00D853E26B1E9F18089BB7
:10399000B04626004C4699462A00230001353100E6
:1039A0002020C847BD42F7D1A14634004646099BB6
:1039B0003A0001CB210098467D1C4B46089FC0B2BF
:1039C000B847434601360993DDE40B9B0A9AA846A3
:1039D0009A4200D8B5E694466544ED1A089B4746DE
:1039E000B04626004C4699463A0023000137310084
:1039F0002020C847AF42F7D1A14634004646A0E692
:103A00000B9A0A99531C914200D814E24B199B1A45
:103A10001F00089BB24626004C4699462A00230008
:103A2000013531002020C847BD42F7D10A9BA1468D
:103A300001330B93099B34001B7856469C46604625
:103A4000002800D058E67CE60722099B0733934301
:103A5000013294469C4462465F6809921A68FB17DB
:103A60001093119310981199030053400E930B007B
:103A70007B400F9394460E9A0F9B121A8B410E9225
:103A80000F93FB0F6246129300233A439B463DD0AF
:103A90000B9A6123920600D541230022DBB20EA9C6
:103AA0000A3B8C4692460D9343461F32624413955F
:103AB000159655460E9E0F9FA24690460C9C149359
:103AC0000CE03032D2B2434601355A55BB4500D1E5
:103AD0008AE1202D00D18AE106000F002200002398
:103AE0003000390000F078FAD2B2092AE9D90D9BEA
:103AF0009C466244D2B2E6E7FF23099904C9134009
:103B00001A00099117E5C046CD2800100B9A103312
:103B1000110099430B915205BAD500239A460B9B8D
:103B200006930A9B0593434604930C9B0393129BB5
:103B300002935346019316AB2A00009321004B4693
:103B40000898FEF713FF013605001CE4FF22099BCD
:103B500002CB11408B460993C5E65346454609936F
:103B60000136FFF710FC56465C46AA46139DD6E781
:103B700008230C930B910B99642800D084E60B9BCF
:103B80005B0500D586E6B4E40722099B073393431F
:103B9000013294469C44624609921A685B681000A0
:103BA0009B4613005A46134307D10B9A103311005A
:103BB00099430B91520500D5A1E60B9A6123920619
:103BC00000D541230022DBB20EA90A3B8C46924667
:103BD0000D9343461F3262445F461295A3465546F5
:103BE0000400B24690460C9E13930DE03032D2B2E0
:103BF000434601355A550023BB4200D100E1202D38
:103C000000D100E104000F00320000232000390041
:103C100000F0E2F9D2B2092AE8D90D9B9C46624431
:103C2000D2B2E5E70B9A6123920600D54123DBB2BD
:103C30000EA90A3B1F228C460D93230062445C466A
:103C40001295170055469B46B2460C9E08E030334D
:103C5000DBB201357B55B4420ED3202D0CD00400CD
:103C60003100200000F076F9CBB20929EFD90D9A86
:103C700094466344DBB2ECE756465C46AA46129D86
:103C80003FE6099B1A0008CAD91713925A184A40EE
:103C90009246DA0F1292002B08D1802310220B9942
:103CA000DB000B4091430B91002B2BD10B9A61232E
:103CB000920600D541230EAA1F279446DBB20A3B89
:103CC0000D9567445D460993A3465446B2460C9E43
:103CD00008E03033DBB201357B55B4420ED3202DE2
:103CE0000CD004003100200000F034F9CBB20929D7
:103CF000EFD9099A94466344DBB2ECE756465C463A
:103D0000AB460D9D0B9B2A0006930A9B2100059351
:103D1000434604930C9B08980393129B013602932D
:103D20005B46019316AB00934B46FEF71FFE139BB9
:103D300005000993FFF727FB02230C931AE7099B61
:103D400004CB92461293002A08D1802310220B99AB
:103D5000DB000B4091430B91002B2BD10B9A61237D
:103D6000920600D541230EAA1F279446DBB20A3BD8
:103D70000D9567445D460993A3465446B2460C9E92
:103D800008E03033DBB201357B55B4420ED3202D31
:103D90000CD004003100200000F0DCF8CBB209297F
:103DA000EFD9099A94466344DBB2ECE756465C4689
:103DB000AB460D9D0B9B2A0006930A9B21000593A1
:103DC000434604930C9B08980393002302935B469D
:103DD000019316AB00934B46FEF7C8FD129B0500FE
:103DE00009930136FFF7CFFAB44200D871E6149B6D
:103DF00054460E960F97AA469846159E139D8EE63A
:103E0000A64200D8FBE6139B56469846AA465C4657
:103E1000129D76E508C9D8171A1842400991FFF794
:103E20008AFB00230B9350E4099B04CB9346099330
:103E300059E52F00BBE50B9301E6063B0C939AE690
:103E400000B585B00391012102900093034813004F
:103E50004A4202A9FFF772FA05B000BD492B0010D3
:103E600010B5094A0300146884B0002C08D0012260
:103E700000910648524203A9A047012004B010BD9A
:103E800001F08AF80020F9E78C730020392B00102C
:103E900001480421014B184700020020C13E0010D8
:103EA000142310B50100188804331B88984710BDEF
:103EB000162310B50100188802331B88984710BDDF
:103EC000F8B54746CE4680B50F1E19D01423994643
:103ED000043304000025012698464B4618884346C3
:103EE00021681B88984701C4431E98410135404210
:103EF0000640AF42F1D13000C0BCB946B046F8BD73
:103F00000126F8E7124A936F9B0815D29066D16696
:103F1000002905D0FFE7FFE7FFE7516F106F7047FB
:103F200004B580210906C2175140002800D0C843BB
:103F300002F02AF9002104BDF0B5146E556E576FDA
:103F4000166FFFF7E3FF1466556657671667F0BDF7
:103F5000000000D0114A936F9B0813D2106651667F
:103F6000002905D0FFE7FFE7FFE7516F106F7047AB
:103F700004B5002801D00020C04302F005F900215B
:103F800004BDC046F0B5146E556E576F166FFFF73F
:103F9000E5FF1466556657671667F0BD000000D050
:103FA00094464E4A926F9208624601D230E0C04673
:103FB000F0B54A4EB56F6D08FCD3346E756E776FF1
:103FC000366F00F025F89446444A146655665767E4
:103FD00016676246F0BDC0469446404A926F92080A
:103FE000624601D258E0C046F0B53C4EB56F6D0850
:103FF000FCD3346E756E776F366F00F04DF89446D3
:10400000364A14665566576716676246F0BDC04665
:10401000002B24DB11D000293EDA00B5C943404211
:1040200000D1013100F038F8C943404200D10131DC
:10403000DB43524200D1013300BD002AEBD10028FE
:1040400001D1002905D00020C90FC90701D1C04303
:10405000410800B502F090F80022002300BD00B531
:1040600000290ADBDB43524200D1013300F014F88F
:10407000C943404200D1013100BDC943404200D193
:104080000131DB43524200D1013300F005F8DB433C
:10409000524200D1013300BD002923D1002B18D199
:1040A000002A0CD0BC460D4F38667A6600210023EA
:1040B000FFE7FFE7FFE77A6F386F67467047002832
:1040C00001D00748010000B502F056F80022002395
:1040D00000BD02000B00002000217047000000D04E
:1040E000FFFFFFFF002B00D0BFE0130C28D1002AF8
:1040F000E7D080B4114F39667A66FFE7FFE730B446
:10410000040C7B6F396F1B0423433B667A66FFE721
:10411000FFE7FFE7C04684B27B6F3D6F1B0423437C
:104120003B667A66FFE7FFE7C04600232C042D0CB0
:104130007A6F386F00196941B0BC7047000000D039
:10414000F0B594460025140E01D112020835140F63
:1041500001D112010435940F01D192000235D40F20
:1041600001D152000135D40B0134254F7C66254C1A
:104170003C660E0C93B2FFE7FFE7FFE73C6F664338
:10418000360C7703BE467343DF0B5B04C01AB9419C
:10419000130C7343DB18C91ACE086643360CB644B9
:1041A00093B273431F0F1B01C01AB941130C734321
:1041B0001F0B1B05C01AB941860D8F023E43664393
:1041C000360C092D24DB520A7243801A7703460A03
:1041D0006643360C16235B1BDE40DF40BF19644686
:1041E0006643821B7046043506330100D940A8405F
:1041F000C01900D30131A24206D20023F0BD000055
:10420000000000D0FFFFFFFF121B0130F3D3F1E7E6
:1042100009277F1BFE406446A2B27243801A00D277
:104220000139220C7243130C1204821A99410B00BB
:104230007046043513370100F940A840801900D3B7
:104240000131002B02D1A2420AD2F0BD013000D3CD
:104250000131121BFAD2013BF8D1A24200D2F0BDCB
:10426000013000D30131121BF7E7F0B51C0C00D070
:1042700080E00CB400251C0A04D11B02160E334347
:10428000120208351C0B04D11B01160F3343120117
:1042900004359C0B04D19B00960F334392000235EA
:1042A000DC0B02D192185B4101351C009718644168
:1042B0000134464F7C66464C3C660E0CFFE7FFE738
:1042C000FFE7C0463C6F6643360C7703BE4697B2A5
:1042D0007743C01B00D20139C01B00D201399FB205
:1042E0007743C91BC91B170C77437E04FF0B801B48
:1042F000B941CE086643360C0C2D33DBB644120BA5
:104300001F053A431B0B97B27743C01B00D20139FC
:104310009FB27743C91B170C77433E043F0C801BA9
:10432000B941860D8F023E43664329277F1BFE401D
:104330000C3D7746AF40BF1930BCA2B2ABB272435E
:104340007343801A9941220C7243130C1204801A91
:10435000994102000B000137001BA941F9D2781ED8
:104360000021F0BD0C277F1BFE4077467F0BAF403E
:10437000FF19E0E700245D1C07D0144F7D66396605
:10438000FFE7FFE7FFE7FFE73C6F95B29EB26543AB
:104390006643401BB141150C1E0C65436643360451
:1043A0002F0C3E432D04401BB141994204D2020020
:1043B0000B0020000021F0BD01D19042F7D3801AFC
:1043C000994101349942F2D3F6E70000000000D091
:1043D000FFFFFFFF48404140484018B41B4B5B685B
:1043E000FC46019308BD04DF7346001018B4174B58
:1043F0001B68FC46019308BD00DF7D460010944613
:10440000134A926F920809D2624618B40F4BDB68C8
:10441000FC46019308BD0CDF354900100C4AF0B58D
:10442000146E556E576F166F6246FFF7EEFF084A1F
:104430001466556657671667F0BD18B4034B9B6842
:10444000FC46019308BD08DFD9470010E01E00209C
:10445000000000D0FFB550404240504059404B4012
:10446000594000E0FFB5154F4C00640D03D0BC422D
:1044700004D10C0314D80020090D09055C00640D5B
:1044800003D0BC4204D11C030AD800221B0D1B051B
:1044900001264B4009D44B4003D58B4200D18242C8
:1044A000FFBD9942FCD19042FFBD0B43DB18034393
:1044B0001343F5D0C9434918FFBD0000FF070000B2
:1044C00000B5FFF7CFFF804100BDC04600B5FFF744
:1044D000C9FF01D9002000BD012000BD00B5FFF7D4
:1044E000B9FF01D9002000BD012000BD00B5FFF7D4
:1044F000B1FF804100BD012040054A00121804D8D8
:104500005A00121801D8002070470120704700207F
:10451000704700000021002805D17047C1174840AE
:10452000401AFAD0C90713B5064B1B6898470CBC54
:10453000441CA2401005120B0349091B090519432D
:10454000114310BD6C7400201F04000010B54C0016
:10455000620D8023D218DB00D21A5B057E2A10DDA3
:104560009E3A13DACC170903490819435242D14045
:10457000640001341532202A05DAD0400843604334
:1045800010BD002010BD0846604310BDC80FC01804
:10459000013810BD18B4044B5B6AFC46019308BD9A
:1045A00024DFE54A00100000E01E0020132370B550
:1045B0001D78012D15D010DD1C48FFF779FC1C4C2F
:1045C00001008022200000F07FFB022D06D0194858
:1045D000FFF766FC184B186070BD154C174BA364B1
:1045E000F5E7164B124C23606360A360E360236120
:1045F0006361A361E36123626362A362E362236395
:104600006363A363E36323646364A364E364236574
:104610006365A365E36523666366A366E366236754
:104620006367A367E367A364D1E7C0465344000010
:10463000E01E00204C3300006C7400204146001046
:1046400007B5604601880A0A0230DF2AFAD1C9B2EA
:10465000820804D3028840880004104300E0006808
:10466000014A5050039007BDE01E00200FB403BC68
:104670000CBCF0B50124E407634000E0F0B50C0D7C
:10468000CF0F661E3605891B640503D3C94340421C
:1046900000D30131640D03D0661CF60A07D0E41B79
:1046A00000207F00791C89078912803C24031D0D9E
:1046B000DF0F6E1E36059B1B6D0503D3DB43524295
:1046C00000D301336D0D03D06E1CF60A07D0ED1B2D
:1046D00000227F007B1C9B079B12803D2D032F1B1C
:1046E000661B58D4A446202E46DA20371400BC405E
:1046F0001D00BD40F24033412A4380185941CB0F81
:1047000005D0C943C0430022644250415141624632
:104710004D0D28D10D0D07D100281FD0241940417F
:104720004941013A0D0DF9D0640006D3013000D3A0
:104730000131002C01D140084000013A0BD4941CF7
:10474000E40A04D112051144DB071944F0BDD9076E
:10475000204B194300E0D9070020F0BD0029DDD12E
:10476000002CDBD1F0BD0132C6074008CD0728433D
:104770004908002EE1D0D9E73C2E29DA203E403707
:104780001400BC4000D00124F24014431A00BB4086
:104790001C43D317ACE7AC46202F08DA20360400C0
:1047A000B4400D00B540F84039412843A5E73C2FFF
:1047B0000CDA203F40360400B44000D00124F84019
:1047C00004430800B1400C43C117EAE71000190088
:1047D000002494E70000F07FF0B50C0D661E36054E
:1047E000891BE60A6405640D02D0651CED0A04D03D
:1047F000002001210905803C2403A4461C0D671EEE
:104800003F05DB1BE70A6405640D02D0651CED0A59
:1048100004D0002201231B05803C2403774064441C
:1048200097B484B296B27443070C7E43150C6F4361
:1048300080B26843361802D3012000043F183004C8
:10484000350C00197D41844688B29AB250430C0C55
:1048500062431F0C7C438EB27E43921902D3012621
:104860003604A4191604170C3618674101BC81B22E
:104870009AB25143040C62431B0C5C4380B2584310
:10488000121802D30120000424181004130C40183D
:1048900063412D185E410020474106BC88B293B2A7
:1048A00058430C0C6343120C544389B251435B18B8
:1048B00002D301210904641819041A0C0918624171
:1048C0006D1856410020474118BCF902720D114382
:1048D000F0026A0D1043ED020A0D03D16D1940413B
:1048E0004941013B124E9B1B7600B3420ED26D0034
:1048F00007D30130002671416646354301D1400897
:1049000040001B05C918E4072144F0BD0BDA013350
:1049100006D1013004D101314F0D01D04908F2E731
:10492000E1070020F0BD013631050020EBE7000073
:10493000FF030000F0B51C0D671E3F05DB1BE70AF7
:104940006405640D02D0661CF60A04D0002201231F
:104950001B05803C2403D0252D060026F6432E6639
:104960001E096E66CE0FF619B44649004F0D02D0EF
:104970007E1CF60A03D000200021403F3F033E1B6F
:10498000B600B444013F7F05C91B49082E6F0136AC
:1049900076089C02950D25437543ED137543AD13C1
:1049A00001356D10F603761B0CB4CC02450D2C437B
:1049B000A2B2B3B25A43270C7B43350C6F43A4B267
:1049C0006C431B1902D3012424043F191C041D0C41
:1049D000A4187D4124196D41009A91B2ACB2614393
:1049E000170C7C432B0C5F4392B25A43A41802D39A
:1049F00001221204BF182204230C52187B41019C8F
:104A00006C431B19520ED9010A434401A01A81B20A
:104A1000B2B2514303145A43360C734387B27743FF
:104A2000D617D21900277E4136049B191704160C9D
:104A30007F185E417316ED18F3010026803375412F
:104A4000A90F06D16400690AE8055B0A184309D278
:104A50002FE00422944480337541A90AA8059B0ADB
:104A6000184326D3404149412404009A019B0D007C
:104A70005543641B4343E41A95B286B27543170C41
:104A80007E43030C5F4392B25A43B61802D301220D
:104A90001204BF183204330C52197B4152429C411C
:104AA000002C02D40022013051414008CA071043B3
:104AB000490802B06246D7079210084BD218084B3B
:104AC0009A4203D212058918C919F0BD0020002AA4
:104AD00001DC3900F0BD01331905F5E7FD030000E5
:104AE000FE070000002200B5203200F004F80800A4
:104AF00000BD000000220B150AD410B5944600F04A
:104B000031F81414013400DA0021CB17144C20477B
:104B10000020002170476244343A0CD40C2A07DA92
:104B200004009140904052422032D440214310BDB5
:104B3000D843D94310BD203207D40C46944052428A
:104B400020321141D040204310BD0800C917203247
:104B500003D452422032104110BD1800190010BD7C
:104B6000174B00100A0DCC0F531E1B05C91A520516
:104B700003D3C943404200D30131520D03D0531C2B
:104B8000DB0A07D0121B00206400611C8907891210
:104B9000803A1203014BD21A70470000FF03000055
:104BA00051434343C9188C46110C83B24B4310B494
:104BB000040C614392B280B2504362431C041B0C4C
:104BC000001910BC59411304120CC0185141614422
:104BD00070470000132310B512481C78FFF768F9DE
:104BE0000100012C0AD003DD80220F4800F06CF890
:104BF0000E48FFF755F90E4B186010BD0A4C5422B1
:104C0000200000F061F80B4B6365A365E365236644
:104C10006366A366E36623676367A367E36723624C
:104C2000E361E5E753460000E01F00204C3300003D
:104C30006C740020394C001007B5604601880A0AE0
:104C40000230DF2AFAD1C9B2820804D30288408830
:104C50000004104300E00068014A5050039007BD73
:104C6000E01F002010B5040000F00AFB002804D06B
:104C7000034B04199C4200D810BD0248FDF730FCDC
:104C800000000420C868001010B50C0000F098FA6D
:104C9000002804D0034B04199C4200D810BD0248E0
:104CA000FDF71EFC00000420C86800100148042124
:104CB000014B184710020020C13E0010014B1B6839
:104CC0001847000010020020014B5B6818470000E5
:104CD00010020020030010B5080011001B6898475F
:104CE00010BDC046F0B546464F46D646C0B5437CDB
:104CF00080460E001700002B46D0002A3FDD4B1ED9
:104D00009946244B0125002400209A460DE04B468D
:104D10001B5D0D3B5A425341325DDBB20A2A0BD078
:104D20002B00013401359F421ADD002CEFD14346A0
:104D3000325D1B7C0A2AF3D1002BF1D1A04204DAA8
:104D40004346211A1B6830189847434650461B6853
:104D500002219847013428002B0001359F42E4DCF2
:104D6000874204DD4346391A1B6830189847F61904
:104D7000013E33780D3B5A42534142461374E0BC26
:104D8000BA46B146A846F0BD036811003000984706
:104D9000F5E7C04630690010F0B5C6460C0009685A
:104DA000060000B5802906D04B1C236064182671CC
:104DB00080BCB846F0BD0F4B1D68002D16D0231DDA
:104DC00098460D4F02E0ED68002D0FD02B68002BA8
:104DD000F9D03B68002B01D0AB42F4D1280041460A
:104DE0002268FFF77FFFED68002DEFD1012300213E
:104DF000DBE7C0467873002080730020F0B557468B
:104E00004E464546DE461C00D023E0B51B061F6813
:104E1000344B83B006000D00180001A991469A4654
:104E200001F0BAF98046002808D1019B7FB29F4269
:104E300004D0504601F0B8F9012398466B1C03D109
:104E4000300001F02BF80500002C27D1264F274B0E
:104E50001C68002C18D04B46002B21D1244B9946BE
:104E600002E0E468002C0FD02368002BF9D04B46F9
:104E70001B68002B01D0A342F3D120002A0031008F
:104E8000B847E468002CEFD14346002B25D103B08E
:104E9000F0BCBB46B246A946A046F0BD154FD6E7CA
:104EA000134B99460A239B4602E0E468002CEBD0A2
:104EB0002368002BF9D04B461B68002B01D0A3427E
:104EC000F3D12A0031002000B8475A466B46200033
:104ED0001A7101A90122B847E7E7504601F044F9E9
:104EE000D5E7C046700A0020E54C0010787300201A
:104EF00080730020D54C0010F0B5CE46474680B5F3
:104F000083B06B46DE1CD02330701B061C681F4B21
:104F1000804601A91800994601F03EF9071E20D0ED
:104F20001B4B1C68002C28D01A4D02E0E468002CB2
:104F30000FD02368002BF9D02B68002B01D0A3429F
:104F4000F4D1200001223100FFF7CCFEE468002CF0
:104F5000EFD1002F11D1404603B0C0BCB946B046D6
:104F6000F0BD019B64B29C420BD0484601F01CF995
:104F7000074B01271C68002CD6D1484601F0F4F8F5
:104F8000E9E7034B1C68002CCED1E4E7700A00204F
:104F9000787300208073002070B5040000F07EFF5D
:104FA00000230100050001222000FFF727FF084B26
:104FB0001C68002C06D06368002B05D09847E46875
:104FC000002CF8D1280070BDE468002CF3D1F9E77B
:104FD000787300200A4A1368002B05D10CE01A00F0
:104FE000DB680C32002B07D09842F8D1002902D19F
:104FF000C3681360C16070470029FCD01060FAE7F5
:1050000078730020F0B54746CE46D02380B51B0606
:105010001D682E4BA5B007000C00180003A9984688
:1050200001F0BAF8061E07D1039B6DB29D4203D072
:10503000404601F0B9F801368422002103A8FFF7A9
:105040003DFE23003A00224803A9FEF7F9FE039B28
:105050000700002B14D11F4B1C68002C06D063687E
:10506000002B0BD09847E468002CF8D1002E27D1F4
:10507000380025B0C0BCB946B046F0BDE468ECE7E6
:10508000144B1D689946002D1ED0134C02E0ED68AC
:10509000002D11D02B68002BF9D02368002B01D0F4
:1050A000AB42F4D1039B28001A0004A90193FFF737
:1050B00019FEED68002DEDD14B4603951C68CCE739
:1050C000404601F051F8D3E70395CFE7700A00207E
:1050D000994D001078730020807300200FB400B544
:1050E00083B004A901C90191FFF78CFF03B008BC8C
:1050F00004B01847F0B50D1E15DD0E4B0D271A68CC
:105100000D4B4519D31859424B410C495B005E5E6B
:1051100020210478A64207D093691942FCD10130BE
:105120001460A842F5D1F0BD93691942FCD1176013
:10513000F2E7C046887400200080FCBF8474002021
:1051400030B504000D1E12DD00201021094B013C7A
:105150001A689369194208D1013093691942FCD148
:10516000136823548542F4D130BD0028FCD10320BC
:105170004042F9E788740020E12110B50B4B0C4840
:105180001B780C4B49021B780B4B1860FDF7A4F8F9
:1051900002210020FBF780FD02210120FBF77CFDAE
:1051A00001210648FFF716FF10BDC04690690010A8
:1051B0000040034094690010887400202002002001
:1051C000030010B50A0003490868190000F004F84C
:1051D00010BDC0463402002070B50B0C0024150C25
:1051E000002B28D1002D37D18BB291B2594300F05A
:1051F00051F8051E19D00300083B5A6803239A434F
:10520000043A242A13D80300132A0AD904604460FC
:1052100008331B2A05D98460C460242A25D00300E2
:10522000103300221A605A609A60280070BD002175
:10523000FFF744FDF9E7002D11D1151C89B292B298
:105240004A43ADB29BB26B43110C5B18190C06D1EB
:10525000190492B21143CAE72B1C0D1CEEE700F0B3
:1052600009F80C2300250360DFE70300046118330D
:105270004461D6E7014B18687047C04634020020ED
:1052800010B5034B0100186800F004F810BDC046CB
:1052900034020020F0B54E464546DE465746E0B59E
:1052A0000D000B35060083B0162D22D8102900D929
:1052B000B2E000F0B1FA102518230220CC4FFB1801
:1052C0001A005C68083A944200D1B5E00323626892
:1052D0009A431300E268A168CA6091600122E31852
:1052E000596830000A435A6000F09EFA20000830E6
:1052F00095E007239D4300D58EE0A94200D98BE0BD
:1053000000F08AFAFC235B009D4200D2A7E1680A04
:1053100000D18BE0042800D97AE138239846A80907
:1053200080443930C100B24F79184C680839A14225
:105330000ED003239C4604E0002ACBDAE468A142A5
:1053400006D06246636893435A1B0F2AF4DD404639
:105350003A003C690832944200D178E00323616846
:10536000994389460B00491B0F2900DD7BE17A61D7
:105370003A610029B2DA80229200914500D30FE110
:105380005909DA0801238B40D2007968D2190B43FE
:1053900091687B60E260A1609460CC600121821022
:1053A0009140994259D80B4205D1032290434900BC
:1053B00004300B42FBD003239846C3009946B944FE
:1053C000CC4682466346DC68A44507D12CE1002A1E
:1053D00000DB35E1E468A44500D125E1424663687D
:1053E00093435A1B0F2AF2DD0120804661190543C1
:1053F0006560A068E5680837C560A860404610434E
:10540000F960B9604860CF6030008F60E25000F012
:105410000BFA2000083002E00C230020336003B0B8
:10542000F0BCBB46B246A946A046F0BD80213F2352
:1054300040209846890076E7DC680230A34200D01D
:1054400044E73A003C690832944200D086E70121E3
:105450007B68821091409942A5D90323BC68626899
:105460009A439146954203D8531B0F2B00DD89E0E8
:1054700023004B445F4A01935F4B93461B681268BD
:10548000EB18013200D13DE15C4A944663441B0BAA
:105490001B0300933000009900F0EEFC03008046EF
:1054A000013300D1FAE0019B834200D9F4E0544B70
:1054B00000981A009A4612680300944651466344C5
:1054C0000B6001991A00414500D151E15B461B6810
:1054D000013300D156E1434601995B1A9A185346AD
:1054E0001A600723424641461A400192194200D1F0
:1054F00012E108239846881A424B0099804441449F
:105500009B1A5B1A1B051B0D0091300019009B466E
:1055100000F0B2FC431C00D150E14346C01A030026
:105520005B440093534652461B6801215B44136061
:1055300042464046BA60009A0A434260BC4200D1EB
:1055400024E14A460F2A00D822E107200C3A824380
:1055500060680140052011436160A11848608860BF
:105560000F2A00D935E14246444652682649086868
:10557000984200D20B6025490868984200D38FE01A
:105580000B608DE00122290013431143651961600E
:105590003000BD606B6000F047F9200008303EE746
:1055A0005A0A042A72D9142A00D9C5E011005C32C3
:1055B0005B31D20008235B429C46BA189444634690
:1055C0009A6803239846944500D19EE0434651686B
:1055D0009943494502D992689445F7D1D3689C46CE
:1055E0007B686146A260E1608C60D460D6E6C0460C
:1055F00060060020680A0020506F00200F10000095
:10560000206F002008100000486F00204C6F002021
:10561000142852D9542800D996E06E239846280BB6
:1056200080446F30C1007EE608239B46073BDC4484
:105630009B46DA4443465246134200D0C2E64CE051
:105640000122E318596830000A435A60E368A268EF
:10565000D3609A6000F0E8F820000830DFE62B0005
:10566000E80808332AE6012360191D436560786164
:105670003861C26082601A004B460A4342603000C3
:10568000E15000F0D1F820000830C8E69A09110076
:1056900039323831D2008DE7BC4260D0BC686268D4
:1056A00003239A43531B954202D80F2B00DD69E771
:1056B000300000F0B9F80020B1E65B239846804442
:1056C0005C30C1002FE608235B429C46E1444B4618
:1056D0009B6801384B4500D098E043460342F2D125
:1056E0007B688B437B604900994200D9B5E600296D
:1056F00004D1B2E6042294464900E2440B42F9D0B8
:1057000050465AE610330093C4E68910023B8B40A2
:1057100079680B437B6064E7009B300043445B4245
:105720001B051B0D19009B4600F0A6FB431C00D077
:10573000F3E600239B46F5E6542A2BD81A0B1100FA
:105740006F326E31D20035E7AA235B0098422BD826
:10575000DD3B9846E80B80447830C100E3E52C4BF4
:10576000009A9A461B689C46534662441A60ADE60E
:10577000090500D0AAE60200BC684A4401310A4388
:105780006260F3E65B4642461A60AAE64446EDE6EE
:1057900041608DE7AA2149008A4224D8DA0B110022
:1057A00078327731D20005E71A4B984224D87C230F
:1057B0009846A80C80447D30C100B4E5009A019B56
:1057C00094464246083B63449B1A009300239B4641
:1057D000A8E621003000083100F0DCFB5346BC682D
:1057E0001B686268C2E60B498A420BD89A0C11000A
:1057F0007D327C31D200DDE6FE217E237F2098467B
:10580000890090E5FE227E219200D3E67B686AE75C
:10581000206F00205405000010B5024800F09CFCE9
:1058200010BDC0461C6F002010B5024800F096FC69
:1058300010BDC0461C6F0020F0B5454698460300D9
:10584000DE4657464E46934613430222E0B599B0D2
:105850008146924604919B0705D15B46043B1A00A2
:10586000531E9A4192465B469B08039300235F4672
:10587000D3460793049B062B00D8BFE0049B5D082A
:105880007D434D44072B00D195E1049BCA465C1E25
:105890007C434C442600282B00D9E8E129005046DF
:1058A000C0473100002800DACCE12800C0470028BA
:1058B00000DC46E25B46002B00D084E14B464A46C2
:1058C0001B68296811602B603B004B440593A34281
:1058D00000D90CE11E000693002301937B42BA46D7
:1058E00025001F00494630000296C047002800DC12
:1058F000E1E0B44239D34B46B1461E000AE02368CA
:105900002A6822602B600123ED190193E4194C45AC
:1059100000D293E231002000C047002813DBF5D10C
:105920005B46002BEBD05A4600235046012A00D19B
:10593000A8E0E25CE95CE154EA540133C21A002AAF
:10594000F7DC8246DFE733004E4699465B46002B84
:1059500000D0A1E0336822683260236001235644FE
:105960000296E4190193B442BCD25746019B002B26
:1059700000D1BCE00498029A7843069B48448246D2
:10598000D01A4A469B1A834200DD0300002B00D048
:1059900029E153465B1B2C1BDB1BA34200D92300D0
:1059A000002B00D0B8E1534605001E1BA04204D2D4
:1059B0004B462500B14604001E00BC4200D8DEE084
:1059C000079B072B00D994E1DB0008AA94464946BF
:1059D00099469950E14439002800FEF7BBFA4A463F
:1059E000079B50600133390020000793FEF7B2FA9D
:1059F0000490049BB146062B00D93FE7180078437A
:105A0000BA460300CA444B4401937E42534528D909
:105A100033005E469B46D1451ED2544605E02B68B6
:105A200022682A6023604C4516D925005C44290071
:105A30002000C04700280FDD002EF0D00023012EEB
:105A400000D192E0EA5CE15CE954E2540133FA1AD5
:105A5000002AF7DC4C45E8D8019BBA445345DAD814
:105A6000B346079B002B00D1FAE0079B08AA013B35
:105A70000793DB009A58914608AA944663445B68F2
:105A80000493F7E6039AE158E858013AE050E950E8
:105A90000433002AF7DC36E75A4600235046012A31
:105AA0001BD0F25CE15CF154E2540133C21A002ACB
:105AB000F7DC824652E700280CD15B46002B67D109
:105AC000069A3168136811603360069B534406934D
:105AD000012301935644029645E7039AF158E05892
